:020000041000EA
:10000000002008205D0100101B0100101D010010E0
:100010001101001011010010110100101101001058
:100020001901001019010010190100101F01001022
:10003000110100101901001021010010230100100E
:100040001101001011010010110100101101001028
:100050001101001011010010110100101101001018
:100060001101001011010010110100101101001008
:1000700011010010110100101101001011010010F8
:1000800011010010110100101101001011010010E8
:1000900011010010110100101101001011010010D8
:1000A00011010010110100101101001011010010C8
:1000B00011010010110100101101001011010010B8
:1000C00011010010110100101101001011010010A8
:1000D0001101001011010010110100101101001098
:1000E0001101001011010010110100101101001088
:1000F0001101001011010010110100101101001078
:100100001101001011010010110100101101001067
:10011000EFF30580103800BE00BE00BE00BE00BE7A
:1001200000BE00BEF2EB8871A0800410C0800410F5
:10013000A001001090A31AE7D3DEFFFF42012110B7
:10014000FF010000C0960400793512AB4FF00000AB
:100150001E49086006C881F3088810474FF05040D8
:10016000006810B14FF00000F2E70DA40ECC00299A
:1001700002D000F012F8F9E71549164A002000E015
:1001800001C19142FCD11449884714498847144958
:10019000884700BEFDE701C901C29A42FBD3704700
:1001A000C08004101001002048180020F8970410A7
:1001B0000000082000000820F89704100010082014
:1001C00000100820000000007047000008ED00E06B
:1001D0004818002048330220C19600105902001030
:1001E00081960010F8B500BF064B0749C91A89105F
:1001F00048BF0131491003D0044B0BB101481847E7
:10020000704700BF48180020481800200000000078
:1002100008B5054B1BB105490548AFF30080BDE8A3
:100220000840FFF7E1BF00BF00000000EC2E0020F7
:10023000C4D6001008B50121002004F085FC4FF45D
:10024000FA7002F0B5FB0021084604F07DFC4FF483
:10025000FA7002F0ADFBEEE700B583B009F040FBA9
:1002600004F0A6FC18B14FF0FF3003B000BD034608
:100270000190012200924FF480720349034802F07A
:100280003FFA02F09FFAFEE7C8D6001035020010D0
:10029000104A12F0070F1AD0D11D21F00701C1F545
:1002A000003313440A460C480260002141601344A5
:1002B000083B23F007030948036059601960991A45
:1002C00051601360064B1960064B196070474FF47C
:1002D0000033E8E7E4310020F43202203C2F002014
:1002E000843202207432022008B51C4B19461B6868
:1002F0008342FBD3194A914205D0194A914211D346
:10030000184A91420ED84A6801EB020C844510D07D
:10031000426800EB020C634510D00360884200D0B5
:10032000086008BD104B114A4FF40071104809F0E5
:10033000ABF9406802444A600846E9E7DFF834C098
:10034000DCF800C0634506D05B681A4442600B6865
:100350001B680360E2E7C0F800C0DFE7F432022068
:10036000E4310020E3310220D0D6001020FE00103E
:100370004CD700103C2F002038B5044670B110F166
:10038000090F0AD8083414F0070307D0C3F1080294
:10039000093BA34226D3144400E0002401F0AAFC48
:1003A000484B1B6803B3002C7CDB002C7CD0464BF5
:1003B0001868A0427AD3454B1A68454B9A4216D327
:1003C000444B9A4213D841495368A3421BD2136845
:1003D000CBB13F498B4210D311463E4A93420CD8D1
:1003E0001A46F1E70024D9E7FFF752FFDBE73A4B63
:1003F0003A4AF6213A4809F047F9374B374AFC2187
:10040000374809F041F92F4B1B68934250D00D68D3
:1004100008352F4B9D4230D32E4B9D422DD813686B
:100420000B605368A3422FD31B1B102B0BD902EB7D
:10043000040C1CF0070F2ED1CCF8043054600B686C
:100440001351C1F800C05368C01A1F4908602549FC
:100450000968884201D22349086043F00043536091
:1004600000231360204A13680133136002F0F2F98D
:1004700015F0070F1ED1284638BD1C4B174A4FF404
:100480008371174809F000F9194B144A4FF487712A
:10049000134809F0F9F8174B104A40F217111048A9
:1004A00009F0F2F80025E1E72546DFE70025DDE762
:1004B0000025DBE7104B094A40F25D11084809F0BE
:1004C000E3F800BF3C2F002074320220F4320220F7
:1004D000E4310020E33102209CD7001048FE0010D8
:1004E0004CD70010843202209032022010D8001025
:1004F00088D80010BCD80010F0D8001000283BD0DD
:1005000038B50446A0F108051C4B9D421FD31C4B77
:100510009D421CD850F8043C002B1FDA50F8082CE0
:100520001ABB23F0004340F8043C01F0E3FB54F80D
:10053000041C144A13680B4413602846FFF7D4FECA
:10054000114A13680133136002F084F938BD0F4B70
:100550000F4A4FF4B8710F4809F096F80E4B0C4A49
:1005600040F271110B4809F08FF80C4B084A4FF418
:10057000B971084809F088F8704700BFE4310020DD
:10058000E331022074320220943202202CD9001070
:100590003CFE00104CD70010A0D9001014DA001057
:1005A0004FF0E023D3F8882D42F47002C3F8882D71
:1005B000D3F8342F42F04042C3F8342F7047000084
:1005C0000B4B93F90020002A11DB4FF05043D3F876
:1005D000881101239340194209D04FF05042C2F8CC
:1005E0008C314FF0E0234FF08052C3F8042D704758
:1005F0005811002000B583B0002301934FF0504301
:100600001A680A4B53F82230B3F1FF3F06D100F0CD
:100610005BFB019B002BFCD003B000BD044B054AE3
:1006200040F26631044809F02FF800BFEC31022097
:100630003CDA001010FF001070DA001010B501F065
:100640005FFF044601F0A6FB28B14FF0E0234FF016
:100650008052C3F8042D204602F0B0FA10BD38B520
:1006600005460C4603F0B2FF281A64EB010140F284
:10067000E733C01841F10001B0F57A7F71F1000352
:1006800001DA002038BD4FF47A7200230CF0C4FF69
:10069000F8E7000010B54FF0E024042323610023A5
:1006A000A361052002F018FD044BA3FB00239B0966
:1006B000013B63610723236110BD00BFD34D62106E
:1006C00030B583B0002301934FF0E0234FF07F4219
:1006D000C3F81C2DD3F81C3D1B0E8DF803309DF87C
:1006E000033003F010033E4A13705BB19DF80330F2
:1006F00013F0100F16D13B4B3B4A40F2F5613B48DB
:1007000008F0C2FF3A4B384A40F2F161374808F02E
:10071000BBFF019B013301939DF803305B00DBB20B
:100720008DF803309DF8033013F0800FF1D1019B59
:10073000082B41D0019BC3F107032E4A13602D4AB9
:1007400013681B02136003F4E06313602A4B1A78EA
:100750004FF050431B689A4232D04FF0E023D3F859
:10076000202D42F47F02C3F8202D0024C3F81C4D35
:1007700022490E2004F0CAF821490B2004F0C6F8E3
:100780004FF050452A681F4B43F82240FF211A20A2
:1007900003F03EF91C491A2002F032FF01211A2011
:1007A00002F0F6FE00F088FA286801F0EFFBFFF790
:1007B00021FF204603B030BD0E4B00221A60BEE779
:1007C000FFF768FF4FF0E022D2F8203D43F07F436F
:1007D000C2F8203D0D490F2004F098F8BDE700BF96
:1007E00043330220F8DA0010E0FE001070DA001047
:1007F000E0DA0010F431022059110020F10C001051
:10080000890D0010EC310220C10500103D060010DA
:1008100008B500F059FAFFF753FF08BD4FF0E02389
:100820004FF08052C3F8042DBFF34F8FBFF36F8F8B
:100830007047000008B5836913F8023C662B04D1A9
:10084000FFF7AEFE00F01CFA08BD034B034A40F26E
:10085000CA41034808F018FF38DB001024FF0010DD
:1008600070DA00104FF0807C40F804CC40F8082C7F
:100870001E4A40F80C2C4FF0123240F8102C4FF06A
:10088000033240F8142C4FF0023240F8182C4FF08D
:10089000013240F81C2C40F8203C4FF0113340F856
:1008A000243C4FF0103340F8283C4FF0093340F817
:1008B0002C3C4FF0083340F8303C4FF0073340F801
:1008C000343C4FF0063340F8383C4FF0053340F8E5
:1008D0003C3C4FF0043340F8403C6FF0020340F8DA
:1008E000443C40F8481C4838704700BFF5050010EC
:1008F00008B5194B1B78FF2B20D10E2002F094FC79
:100900000F2002F091FC0121032004F0F7F840B21F
:10091000124B1870012383404FF05042C2F88C31C3
:10092000C2F884310C4B0021197013686BB90C4864
:1009300004F0D2F8FFF7C4FE002008BD094B0A4AB4
:1009400040F26671094808F09FFE094B064A40F2E2
:100950007271064808F098FE5911002058110020C5
:100960001108001050DB0010FCFE001070DA0010BF
:100970006CDB001008B5EFF305830F2B05D90F4A88
:100980009A5C0F4B1B789A420AD34FF0E023D3F8BE
:100990000C3D03F4E0630B4A1268934207D808BD8C
:1009A000094B0A4A40F63511094808F06DFE094B1B
:1009B000064A40F64511064808F066FEF0E300E0FE
:1009C00043330220F431022080DB0010C0FE00100F
:1009D00070DA0010ACDB001008B50A4B1B78FF2B57
:1009E0000CD0EFF30583DBB22BB14FF0504210680F
:1009F00000EB430008BD01F0B1FBFBE74FF05043B3
:100A00001868F7E75911002000B583B0EFF30583AC
:100A100013F0FF0F0DD1026892B11A4B1B78FF2B18
:100A200015D10023C2E88F3F81F3108820BF03B0A7
:100A300000BD154B154A40F6E911154808F024FE93
:100A4000144B124A40F6EA11114808F01DFE00232B
:100A5000C2E88F3F81F3108802680F49521A0F498C
:100A6000A1FB0201090901EB4101A2EBC101012235
:100A70004FF0FF30009002FA01F10948006800F0E1
:100A8000A9F9D4E75911002008DC00109CFE0010E1
:100A900070DA001074DC0010341D0020ABAAAAAA82
:100AA000703202208C4602681E4BD21A1E4BA3FBEA
:100AB00002131B0903EB4303A2EBC303012199407B
:100AC0001A4B1B78FF2B24D000B583B040BF0268BF
:100AD0000023C2E88F3F8CF31088EFF3058313F0F7
:100AE000FF0F05D1124B186800F0FCF903B000BDF0
:100AF0000023019301AA0E4B186800F043FA019BF2
:100B0000002BF3D04FF0E0234FF08052C3F8042DB8
:100B1000ECE740BF02680023C2E88F3F8CF31088E7
:100B2000704700BF341D0020ABAAAAAA59110020AB
:100B300070320220F0B583B01D46EFF3058313F049
:100B4000FF0F1FD104460F46164603680BB32A4A0F
:100B50001278FF2A24D030462946FFF780FD8446CC
:100B600040BB2268C2E88F0F87F31088234B5B6A73
:100B70009D423AD8214A926AB2423BD29D4234D039
:100B8000012035E01E4B1F4A40F652211E4808F056
:100B90007BFD1E4B1B4A40F653211B4808F074FD99
:100BA0000022C3E88F2F81F310883046294603F0D6
:100BB0001FFC1DE022680023C2E88F3F87F31088E6
:100BC00022681349521A1349A1FB0201090901EBDA
:100BD0004101A2EBC1010122CDF800C002FA01F1EE
:100BE0000D48006800F0F6F8C0E7FFF717FE002098
:100BF00003B0F0BD0120FBE75911002000000B40BD
:100C000008DC001064FE001070DA001074DC0010C4
:100C1000341D0020ABAAAAAA7032022008B500F049
:100C2000CCF8014B186008BD7032022008B54FF0B7
:100C300050431B6883420BD00C4B93F90020002AD1
:100C40000DDB012393404FF05042C2F8803108BDC4
:100C5000074B084A40F6AC21074808F015FD074B42
:100C6000044A40F6B121044808F00EFD5811002056
:100C700088DC001058FE001070DA0010ACDC0010A8
:100C80000BA10CC9126853F82210086806C881F33A
:100C90000B88022181F31488203080F30988BFF388
:100CA0006F8F4FF0000080F311881047AFF3008082
:100CB000000000D02C2F002062B661B6BFF34F8F2A
:100CC000BFF36F8F66DF00BFEFF311804FF01001AD
:100CD00081F31188BFF34F8FBFF36F8F704780F39D
:100CE0001188BFF34F8FBFF36F8F70470000000074
:100CF000EFF309811EF0100F08BF21ED108AEFF30A
:100D00000B82734621E9FC0F55FC084457FC09642B
:100D100059FC0A8401E9F00319A00CC8106853F8C3
:100D2000203019604FF0100181F31188BFF34F8F0D
:100D3000BFF36F8F01F02AF94FF0000080F31188A4
:100D40000FA10CC9126853F8221008681838B0E8CF
:100D5000F00345EC004447EC016449EC0284B0E840
:100D6000FC0F13F0100F08BFB0EC108A82F30B8851
:100D700080F30988184700BFAFF30080AFF300800D
:100D8000000000D02C2F00201EF0040F0CBFEFF34A
:100D90000880EFF30980014908470000350800107A
:100DA0001AB9084205D110467047814303D000208C
:100DB0007047012070470120704710B51C20FFF7D5
:100DC000DBFA044620B1002340F8043B00F0E4F8CD
:100DD000204610BD2DE9F041002831D00D46904647
:100DE0001F460646B1F1807F31D2002936D001F08E
:100DF000CBFE10B9069B002B37D100F07BFF346887
:100E00003A4629462046FFF7CBFF002834D0434618
:100E1000002B44D024EA050333600023069301F03D
:100E200019FD069B4BB100283CD001F001FF0446A0
:100E300010F0007F39D024F07F442046BDE8F081D7
:100E4000224B234A40F24711224808F01DFC224B56
:100E50001F4A4FF4A4711F4808F016FC1F4B1C4A90
:100E600040F249111B4808F00FFC1D4B184A4FF483
:100E7000A671184808F008FC069B002BCFD043460B
:100E800053B941460FB141F08061069A2943301DA4
:100E900001F0ECF90024C2E74FF08071F2E7CDF8E1
:100EA0001880BCE701F0E0FABFE701F0F1FA34681E
:100EB0003A4629462046FFF773FF20B1434613B157
:100EC00024EA0505356001F043FBB4E7C0DC0010FF
:100ED0004CFF0010CCDC001014DD00104CDD0010C5
:100EE00064DD0010F8B570B10D460446B1F1807FA5
:100EF00010D200F10C0600F0FDFE206923682B43A0
:100F00002360002718E0194B194A40F23221194892
:100F100008F0BAFB184B164A40F23321154808F086
:100F2000B3FB216832EA010105D111E0216841F0EB
:100F3000007101F05FFD2846B0420ED0456803689D
:100F400023F07F4213F0806FEBD121681142F2D081
:100F500013F0807FEAD01743E8E7236823EA07030A
:100F6000236001F077FC2068F8BD00BFC0DC0010F2
:100F700038FF0010CCDC0010B8DD001008B5FFF71A
:100F8000B1FF08BD08B513460A460146014802F004
:100F900025F808BD7D0F001000F1080343604FF0F5
:100FA000FF328260C3600361002303607047002347
:100FB0000361704743684B609A688A60516099602A
:100FC0000861036801330360704710B402460846A5
:100FD000D1F800C0BCF1FF3F11D002F1080319465F
:100FE0005B681C686445FAD94B684360986081600F
:100FF0004860026113680133136010BC70471169C7
:10100000F2E70369416882688A60416851605A6802
:10101000824205D0002202611868013818607047CA
:1010200082685A60F6E710B5044601F031FAA36B06
:101030002BB901231C4601F08BFA204610BD00237A
:101040001C46F8E770B504461646856B026C5AB923
:1010500003681BB100200135A56370BD806801F0F5
:1010600079F90023A360F6E76EB940680CF0B6F892
:101070006368226C13446360A268934219D32368A7
:1010800063603046E7E7C0680CF0A8F8E368226CBC
:1010900051429B1AE3602268934202D2A3680B4438
:1010A000E360022E01D00020D5E725B1013D0020EC
:1010B000D1E73046CFE72846CDE70346026C6AB158
:1010C00010B50846D9681144D9609C68A14201D383
:1010D0001968D960D9680CF081F810BD704700001C
:1010E00070B582B00190846C5CB1A26BE36B9A42E4
:1010F0000ED2A26B934212D800231E46304602B095
:1011000070BD1C4B1C4A40F6F8411C4808F0BCFA64
:101110001B4B194A40F6F941184808F0B5FA94F803
:1011200045305DB2002201A92046FFF78BFF06463D
:10113000B5F1FF3F0BD1636A002BDFD004F124002F
:1011400000F072FF0028D9D001231E46D6E700F038
:101150001BFE2B468542D1D27F2D04D001335BB2DA
:1011600084F84530CAE7074B034A40F61951034853
:1011700008F08AFAECDD0010A0FF001000DE00107D
:1011800040DE001088DE001038B5054601F080F919
:1011900095F8454064B208E06B6AB3B105F12400EC
:1011A00000F042FF70B9013C64B2002C0DDDAB6C65
:1011B000002BF1D02846FFF793FF0028F3D000F072
:1011C000C3FFF0E700F0C0FFEDE7FF2385F84530EF
:1011D00001F0BEF901F05CF995F8444064B201E019
:1011E000013C64B2002C0ADD2B6943B105F110000B
:1011F00000F01AFF0028F3D000F0A6FFF0E7FF236D
:1012000085F8443001F0A4F938BD000038B530B39A
:101210000D460446C36B002B3CD0026C0021A2FBA0
:1012200003231BBB002935D101F032F92368E26B9F
:10123000216C01FB0230A0600020A0636360013AD2
:1012400002FB0133E360FF2384F8443084F8453027
:10125000BDB9236963B901F07BF9012038BD114B99
:10126000114A40F23711114808F00EFA0121D9E76E
:1012700004F1100000F0D8FE0028ECD001F0F4F8E2
:10128000E9E704F11000FFF787FE04F12400FFF7FF
:1012900083FEE0E7064B044A4FF4B671034808F0BA
:1012A000F3F900BFACDE0010D0FF001000DE00102C
:1012B000B4DE001038B51D46049C0B4659B92460B5
:1012C000E063236401212046FFF7A0FF84F850501B
:1012D0000023A36438BD2260F2E70000F0B583B0BC
:1012E000F0B10C46174605460023A4FB0012AAB92C
:1012F000B3B904FB05F010F1550F11D85430FFF7C6
:101300003BF8064638B100903B4600F154022146B6
:101310002846FFF7CFFF304603B0F0BD0123E7E7D3
:10132000034B044A40F22A21034808F0ADF900BFFC
:10133000D8DE0010BCFF001000DE00102DE9F047E1
:10134000D8B1884692461D460446E9B1022D02D125
:10135000E36B012B22D1FFF70DFB01F0D1F88146A1
:10136000A26BE36B9A4220D3022D1ED00024484684
:1013700001F024FC2046BDE8F087314B314A4FF4A0
:101380009261314808F080F9036C002BDED02F4BBE
:101390002C4A40F291412C4808F076F92C4B294A0E
:1013A00040F29241284808F06FF994F845305EB257
:1013B000A76B2A4641462046FFF744FEB6F1FF3FA1
:1013C0001DD1A36C63B1022D00D167BB2046FFF78E
:1013D00087FE50B3534653B30124CAF80040C6E712
:1013E000636A0BB90124C2E704F1240000F01CFE7B
:1013F000F8B15346FBB10124CAF80040B7E700F04A
:10140000C3FC3346864218D27F2E05D001335BB22F
:1014100084F845300124AAE70E4B0A4A40F21E51D7
:10142000094808F031F90124A1E701249FE70124CC
:101430009DE701249BE7012499E7012497E700BF7A
:10144000ACDE001084FF001000DE0010E4DE0010AF
:101450003CDF001088DE0010F0B585B0019280B14D
:101460000F460446A1B101F08FFB0646D0B9019B9F
:10147000002B50D0454B464A40F2F251454808F007
:1014800003F9454B424A40F2E951424808F0FCF862
:10149000036C002BE7D0414B3D4A40F2ED513D48F3
:1014A00008F0F2F8002636E039462046FFF705FE40
:1014B000013DA563236923B901F04AF8012005B075
:1014C000F0BD04F1100000F0AFFD0028F4D000F0F2
:1014D000CBFFF1E701F03CF82846F0E702A800F066
:1014E00027FE012621E0002384F8443029E0002370
:1014F00084F845302BE02046FFF746FE01F0AAF9BC
:1015000009E02046FFF740FE01F0A4F92046FFF76E
:101510008AFD002837D100F0BBFFA56B002DC3D199
:10152000019B002BD6D0002ED8D001F011F800F08E
:10153000E1FB00F0ADFF94F844305BB2B3F1FF3F44
:10154000D1D094F845305BB2B3F1FF3FCFD000F07B
:10155000FFFF01A902A801F0BFFA0028D1D120465F
:10156000FFF761FD0028C6D0019904F1240000F0C6
:101570005FFE2046FFF708FE01F06CF90028CAD193
:1015800000F072FFC7E7002099E700BF64DD00109C
:1015900074FF001000DE00108CDF001098DF0010D8
:1015A00008B538B18C460146BCF1000F25D00020AB
:1015B00003460BE0114B124A40F6C931114808F0BE
:1015C00063F8114800EBC30014E00133072B10D877
:1015D0000D4A02EBC30252688A42F2D00028F4D1CD
:1015E000094A52F83320002AEFD1074800EBC30024
:1015F000EBE710B1C0F800C0416008BDF4DF001097
:1016000060FF001000DE0010B032022070B504460A
:101610000D46164600F03CFF94F844305BB2B3F13F
:10162000FF3F0DD094F845305BB2B3F1FF3F0BD0D4
:1016300000F08EFFA36B5BB12046FFF7A5FD70BDE8
:10164000002384F84430EDE7002384F84530EFE7C9
:101650003246294604F1240000F04AFEECE700007F
:10166000074B1B681B6823B9064B4FF0FF321A600B
:101670007047034B1B68DB681A68024B1A6070479F
:10168000382F00208832022010B50446406BFEF748
:1016900035FF2046FEF732FF10BD000008B50128D7
:1016A0001ED84FF05043D3F800C0002A40D0D1E8F4
:1016B000CF3F0122002B01D1C1E8432FBFF35F8F41
:1016C0002BB32D4B03EB4C031B5CABB12B4B1B5CC7
:1016D000FF2B0BD0294A135C0133DBB2135420E0FB
:1016E000274B284AB521284807F0CEFF274B254A2B
:1016F000BD21254807F0C8FFD1E8CF2F0123002ADC
:10170000FAD1C1E8423F002AF6D1BFF35F8F1B4BED
:101710001B5C3BB90122194B1A54174B03EB4C03CA
:101720001A5408BD1A4B174AC321174807F0ACFFDB
:10173000114B03EB4C031B5C8BB1104B1B5CA3B137
:101740000E4A135C013BDBB21354002BE9D10A4B68
:1017500003EB4C0300221A54C1E88F2FE1E70D4B35
:10176000084AC921084807F08FFF0B4B054ACA21D8
:10177000054807F089FF00BFE4310220E83102206C
:1017800044E000103401011054E00010C8E00010E3
:10179000F4E0001020E1001054E100102DE9F843BE
:1017A00007460D4690469946089E0A9C9200A52140
:1017B000606B0BF06BFC636B08F18042013A03EB4A
:1017C000820323F007088DB14FF0000CBCF10F0F1E
:1017D00009D815F80C3004EB0C0282F8403013B134
:1017E0000CF1010CF2E7002384F84F301F2E27D8AC
:1017F0002663A66504F10800FFF7D9FB04F11C007D
:10180000FFF7D5FB6461C6F12006E661A4624B4692
:101810003A46616B4046FFF725F820604FF0FF33F2
:10182000A3630B4B9F4202D00A4B9F4203D1E36B51
:1018300043F00103E363099B03B11C60BDE8F88337
:10184000054B064A40F26671054807F01DFF00BFD0
:101850004D260010C118001080E10010A4010110F5
:1018600004E000102DE9F04385B081468846154616
:101870001F469000FEF780FD0646F0B17C20FEF783
:101880007BFD0446A8B17C2200210BF0FFFB6663C0
:101890000023039302940D9B01930C9B00933B4602
:1018A0002A4641464846FFF779FF204605B0BDE885
:1018B000F0833046FEF722FEF7E70446F5E7000026
:1018C00008B5FEF7ABFF034B1B68022BFBD9FEF7F5
:1018D000A5FFF8E7482F002038B5002407E004EB07
:1018E00084000F4B03EB8000FFF756FB01341F2CE5
:1018F000F5D90C4D2846FFF74FFB0B4C2046FFF760
:101900004BFB0A48FFF748FB0948FFF745FB09482E
:10191000FFF742FB084B1D60084B1C6038BD00BF41
:10192000482F0020483202205C3202209C320220E4
:1019300010330220FC320220382F0020402F0020DC
:1019400010B54FF05043D3F800E02D4B53F82E3034
:1019500063B1836B002B02DB836B012B4FDD036BC9
:1019600003F1FF3C00234FF0FF3407E0254B264AEC
:1019700040F27331254807F087FE0133012B25DC47
:10198000234A52F82310096B52F82320D26B12F02D
:10199000010F00D001391E4A52F82320926B002A11
:1019A000EBDB1B4A52F82320926B012AE5DC194A33
:1019B00052F82320002AE0D18C45DEDB4268DA4071
:1019C00012F0010FD9D01C468C46D6E7002C16DB4E
:1019D000744510D00E4B53F824309B6B13F1020F5B
:1019E0000DD02046FFF722F9094B53F824306FF051
:1019F00001029A6303E0074B012243F8242010BD43
:101A0000EC31022090E100109401011004E000107C
:101A10002C2F002030330220F8B5814B1D68814BFC
:101A20001E68012E13D104467F4B53F82020916984
:101A300053F820301B6B03EB83037C4A02EB8303D8
:101A400099420BD031464FF0000C674662E0784B6C
:101A5000784A4FF47A71784807F016FE724F57F8BB
:101A600020000830FFF7CDFA57F82430186B00EB50
:101A7000800057F8241008316C4B03EB8000FFF70F
:101A800099FADFE705EB8500800008301346104423
:101A900005EB850203EB8203DB6807E05168E14058
:101AA00011F0010F1ED1002F43D15B6883422ED06D
:101AB000DA68916BB1F1FF3FF0D05B4951F8241027
:101AC0009142F0D1916BA14203D0916B11F1020FC1
:101AD00016D15168E14011F0010FE4D0946339460A
:101AE000374615E0504B53F824104FF0FF30886311
:101AF00053F824C0946343F824203946374607E05E
:101B00004E4B4C4A40F23C414B4807F0BDFD394634
:101B10008DB1013D7FB905EB8503444A52F823306E
:101B2000002BAFD10029F3D03D4A1368013B13606D
:101B3000EEE73946ECE7012F00D0F8BDBCF1000F0D
:101B4000FBD0DCF81810DCF8302002EB8200374BB9
:101B500003EB80039942F0D1DCF804301046DCF846
:101B60003C1011F0010F00D0501E23FA04F212F0C5
:101B7000010F05D02C4A52F82420526823EA0203B0
:101B800003F003034FF0FF3400E0013F002F2ADB96
:101B90003A4623FA07F111F0010FF6D0224D55F81D
:101BA0002710096B55F82750ED6B15F0010F00D089
:101BB00001390125954023EA05038842E5DD1A4DE8
:101BC00055F82250AD6B002DDFDB174D55F8225034
:101BD000AD6B012DD9DC1A4D55F82220002AD4D145
:101BE0003C460846D1E7002CA7DB4FF050431B686A
:101BF0009C4210D00C4B53F824309B6B13F1020F16
:101C00009BD02046FFF712F8074B53F824306FF0B3
:101C100001029A6391E70A4B012243F824208CE7E2
:101C20001C320220F03202202C2F0020482F0020EE
:101C3000C0E10010DC00011004E00010ECE1001035
:101C40003033022070B54FF050431A68224B53F8DE
:101C500022601FE0002221490120FFF71FFDB36B26
:101C600013F1020F2AD10020FFF739F8FFF72CF803
:101C70001A4D012229461046FFF710FD0122691E68
:101C80000020FFF70BFD4FF050431A68144B43F848
:101C90002240D4B1B36B13F1020F1CD14FF050436B
:101CA0001B680F4A52F82340002CD3D0002042F882
:101CB000230002460B49FFF7F1FCCBE70A4B0B4A26
:101CC0004FF453710A4807F0DFFC2246691E204694
:101CD000FFF7E4FCDEE770BD2C2F0020431D002041
:101CE000EC310220421D00204CE20010480101109E
:101CF00004E00010194B1B6803B9704710B5FEF7DC
:101D0000E3FF04464FF050431A68154B53F8223056
:101D1000CBB9012213491046FFF7C0FC124B1B68D8
:101D2000C3B1012211490020FFF7B8FC0E4A136825
:101D30000133136000220D491046FFF7AFFC204627
:101D4000FEF7CDFF10BD0A4B0A4A40F60F710A4854
:101D500007F09AFCFFF776FFE3E700BFF0320220BE
:101D6000EC310220431D002014320220421D0020CD
:101D700084E200106401011004E00010014B1868B7
:101D8000704700BF24330220014B1868704700BF22
:101D90000C32022070B582B00023009301936D4B8A
:101DA0001B68002B40F0CC806B4B1C6801341C601E
:101DB0007CB96A4B1B681B688BB9684A1168684B11
:101DC000186810601960674A136801331360FFF7E1
:101DD00047FC654B1B68A3423DD9002368E0634B79
:101DE000634A41F26321634807F04EFC5E4B4FF0BB
:101DF000FF321A60F1E75C4A1360EEE702695A604D
:101E000040E00022C2621A68013A1A60036B5A4A23
:101E10001268934201D9584A1360584A03EB83036E
:101E200002EB83035B68C360D3F808C0C0F810C03E
:101E3000CCF804109960036B03EB830102EB810C77
:101E4000C0F818C052F82110013103EB830342F8A7
:101E50002310FFF775FD414B1B681B68002BC5D095
:101E60003E4B1B68DB68D86883689C42C3D3836998
:101E7000C16802698A60C16851605A6800F108014E
:101E80008A42BBD0002282611A68013A1A60C36A92
:101E9000002BBBD0426A056AAA60056A556000F152
:101EA0001C025D689542ACD1426A5A60A9E70133D1
:101EB000012B11DC324A52F82320126B02EB820212
:101EC0002E4951F82220012AF1D9012102AA02EB60
:101ED000830242F8081CEAE74FF050431B681E4695
:101EE0000024254604E0274B012243F82420013436
:101EF000012C2BDC02AB03EB840353F8083C23B921
:101F0000204B53F82430002BF1D0B44215D04FF0C1
:101F100050431B689C42E6D0194B53F824309B6B0E
:101F200013F1020FE3D02046FEF780FE144B53F866
:101F300024306FF001029A63D9E701231D46D6E7EA
:101F4000114A13680133136000231D46284602B06E
:101F500070BD00BF1432022024330220382F00202D
:101F6000402F00208C32022088320220B4E2001080
:101F70001001011004E000101C320220482F002044
:101F80002C2F0020303302209832022038B505462D
:101F90001C4C012221461046FFF780FB0122611EE6
:101FA0000020FFF77BFB4FF050431A68164B53F8A5
:101FB000223093B9154B1B68B3B1154B012243F87E
:101FC0002520144C002221461046FFF767FB002213
:101FD000611C0120FFF762FB38BD0F4B0F4A41F235
:101FE0002B410F4807F050FB094B002243F82520F6
:101FF0002846FFF711FD4FF050431A68094B53F87C
:102000002230DEE7431D0020EC3102201432022092
:1020100030330220421D002084E20010FC00011039
:1020200004E000102C2F002008B5C368D8680028F1
:1020300051D0C36A016A426A8A60016A51605A6873
:1020400000F11C018A424DD00022C2621A68013A96
:102050001A602F4B1B68002B4AD18369C168026943
:102060008A60C16851605A6800F108018A423CD018
:10207000002282611A68013A1A60036B254A1268CD
:10208000934201D9234A1360234A03EB830302EBF3
:1020900083035B68C360D3F808C0C0F810C0CCF8F5
:1020A00004109960036B03EB830102EB810CC0F811
:1020B00018C052F82110013103EB830342F82310BA
:1020C000FFF73EFC4FF050431A68144B53F82200C0
:1020D00000B1012008BD124B124A41F2F9411248E9
:1020E00007F0D2FA426A5A60AEE702695A60BFE767
:1020F0000E4B5A680262D2F808C0C0F824C0CCF86F
:1021000004109160C3621A6801321A60D8E700BFF8
:10211000143202201C320220482F002030330220CB
:102120002CE300106800011004E000109C32022033
:10213000034B1B680360034B1B684360704700BF81
:102140008C320220243302204FF050431A68024B95
:10215000012143F8221070473033022010B5FEF7FA
:10216000B3FD4FF050431A68034B53F822301C461E
:10217000FEF7B5FD204610BD2C2F00202DE9F041C3
:1021800004460E46254B1D68254B1B681F46254BF4
:102190001B689846FFF7E2FF002380F87930FFF7CD
:1021A000DDFF0830FEF72DFFB4F1FF3F00D176B917
:1021B0002C44FFF7D3FF8460A54221D9FFF7CEFF5F
:1021C00000F108014046FEF700FFBDE8F081164C23
:1021D0006568FFF7C3FFC560FFF7C0FFAB68036129
:1021E000FFF7BCFFAB6808305860FFF7B7FF083057
:1021F000A860FFF7B3FF8461236801332360E4E73D
:10220000FFF7ACFF00F108013846FEF7DEFE074B92
:102210001B68A342D9D9054B1C60D6E724330220A2
:10222000382F0020402F0020FC320220883202206C
:1022300038B568B10D460446FFF790FF00F11C0168
:102240002046FEF7C2FE01212846FFF797FF38BD62
:10225000034B044A41F28441034807F015FA00BFDA
:102260003CE30010C400011004E0001070B530B36E
:102270000D4616460446194B1B683BB3FFF76EFF2D
:1022800045F00041C1616568FFF768FF0562FFF72F
:1022900065FFAB684362FFF761FFAB681C305860B5
:1022A000FFF75CFF1C30A860FFF758FFC46223688B
:1022B0000133236001213046FFF760FF70BD084BFA
:1022C000084A41F2A241084807F0DEF9074B054AE7
:1022D00041F2A641044807F0D7F900BF14320220AA
:1022E0003CE30010A400011004E0001048E30010DB
:1022F000F8B510B30F46164604464568FFF72EFFA3
:102300000562FFF72BFFAB684362FFF727FFAB685F
:102310001C305860FFF722FF1C30A860FFF71EFF3B
:10232000C46223680133236016B14FF0FF331F46A8
:1023300031463846FFF722FFF8BD034B034A41F20E
:10234000C241034807F0A0F93CE3001084000110EB
:1023500004E00010002875D038B50446FFF7FEFEF3
:10236000A0420AD1E36D7BB1013BE365216BA26D15
:10237000914263D07BB1002038BD334B334A41F6E4
:102380002C21334807F080F9324B304A41F62D2199
:102390002F4807F079F904F108031D461846FEF7A7
:1023A00030FEA36D2363C3F12002E2612A4A126862
:1023B000934201D9284A1360284A03EB830302EBB6
:1023C00083035B68E360996821614D609D60236BC6
:1023D00003EB830102EB8100A06152F8211001316F
:1023E00003EB830342F82310A36B002B28DBA36BC2
:1023F000012B01DD0120BFE7A26B4FF050431B68AA
:102400009A4209D0A26B164B53F822309B6B13F102
:10241000020F07D10120AFE7A26B0120114B43F857
:102420002200A9E7A06BFEF701FCA26B0C4B53F84E
:1024300022306FF001029A6301209DE700209BE7A4
:10244000012099E7704700BF74E3001014000110E9
:1024500004E000109CE300101C320220482F0020F2
:102460002C2F00203033022008B54FF050431B685A
:10247000054A52F8232022B1044A012142F82310D0
:1024800008BDFEF7CBF9FBE7EC3102203033022028
:1024900008B5FEF719FC164B1B68A3B14FF050436B
:1024A0001A68144B53F8223073B14FF0504108684A
:1024B000104B53F82020013243F820200A6853F8CB
:1024C0002230012B0CD008BD01220B491046FFF72A
:1024D000E5F80122084B591E0020FFF7DFF8E4E77A
:1024E000064B1B68002BEED1FFF7ACFBEBE700BF00
:1024F000F0320220EC310220431D00201432022071
:1025000010B5104B1B6813B91C46204610BDFEF7D2
:10251000DBFB04464FF050431A680B4B53F8223054
:102520004BB14FF050431968074A52F8213001333C
:1025300042F82130E9E7012204491846FFF7AEF8D6
:10254000EFE700BFF0320220EC310220421D0020F4
:102550001D4B1B68002B36D010B54FF050431B6845
:102560001A4A52F8232082B1184A52F823205AB14D
:10257000164A52F82310013942F823104FF0504305
:102580001B6852F823203AB110BD114B114A41F695
:10259000B731114807F078F8104A52F823301C463A
:1025A00000220F491046FFF779F800220C4B591C06
:1025B0000120FFF773F80020FEF791FB002CE3D019
:1025C000FEF72CF9E0E77047F0320220EC310220F0
:1025D00090E100100000011004E0001030330220F0
:1025E000421D0020164B1B6843B310B511E004F1E7
:1025F0000800FEF706FD134A1368013B1360104AFA
:102600001368013B1360FFF7A3FF9CB90C4B1B68D9
:102610006BB1FFF73DFF0A4B1B684BB10A4BDB6800
:10262000DC68A36BB3F1FF3FE1D0FFF791FF10BD72
:102630001C46E8E72046FFF727F8E7E7704700BFAA
:10264000103202200C3202201033022008B5FEF7AF
:10265000E5F8FFF7C7FF034B1B68022BF9D9FEF71C
:10266000DDF8F6E7482F002010B50446FFF710FF0D
:102670001E4A1368013313601D4B1B6813B913689E
:10268000012B2BD01B4A1368013313602365236B86
:10269000194A1268934201D9174A1360174A03EB8B
:1026A000830302EB83035B68E3609868206104F1B5
:1026B000080141609960236B03EB830102EB810009
:1026C000A06152F82110013103EB830342F823107B
:1026D000074B1B682BB9FFF73BFF10BDFFF7FCF85A
:1026E000D0E72046FFF72CF9F5E700BF0C320220B7
:1026F000F0320220183202201C320220482F002023
:1027000010B582B0059C0194049C0094FFF7AAF8D0
:1027100038B14FF0FF324260FFF7A6FF012002B050
:1027200010BD4FF0FF30FAE730B587B000240F2C12
:1027300037DC1F4B1B5D04F118026A4402F8103CA1
:102740007BB30134F3E71B4819E01B4B03EB850314
:102750000193002300934FF4007202A9FFF7D0FF0A
:10276000024608B3144B53F825309D63134941F8D2
:1027700025300135012D17DC002DE4D010480F2C39
:10278000E3DC05F1300304F118026A4402F8103C5E
:102790000E2CDADC04F119036B44002203F8102C30
:1027A000D3E700250122E5E7104607B030BD00BFA2
:1027B000B4E300104D260010783202202C2F0020A8
:1027C000C118001008B5FFF7AFFF012805D0B0F120
:1027D000FF3F15D00E4B1B6808BD00F0D1FB012850
:1027E000F5D1FEF771FA0B4B4FF0FF321A600A4B2E
:1027F00001221A60094B00221A60FEF779F8E9E716
:10280000074B084A40F6AD61074806F03DFF00BFA0
:10281000BC01011088320220F03202202433022051
:10282000BCE300107401011004E0001010B582B088
:10283000069C0194049C0094FFF714F830B1059AAB
:102840004260FFF711FF012002B010BD4FF0FF30D2
:10285000FAE7000038B54A4B1C680CB9204638BD71
:10286000FFF716FE4FF050431B681D46454B1B6893
:102870008BB1444C2368013B236000224249012074
:10288000FEF70CFF2368002B76D1404B1B68002B12
:1028900055D11C4671E03E4B3E4A40F68F713E4892
:1028A00006F0F2FE596A51602CE01969516039E076
:1028B0003A4902EB820201EB82025268DA609468C4
:1028C0001C61606090601A6B02EB820001EB800477
:1028D0009C6151F82000013002EB820241F8220095
:1028E0002F4A1268002A2CD02D4BDB68DB68DA6A8D
:1028F000186A596A8160186A4860506803F11C01BF
:102900008842CFD00021D9621168013911609A69DB
:10291000D86819698160D8684860516803F1080077
:102920008142C2D0002199611168013911601A6B8E
:102930001C4909688A42BBD91A490A60B8E70023D2
:10294000CEE70BB1FEF78CFE174B1C683CB9174B5A
:1029500053F825408CB101240FE0013C08D0FFF76B
:1029600019FA0028F9D0114B012243F82520F4E789
:102970000D4B00221A60EAE70024FFF7E9FD6DE73E
:10298000F032022014320220431D00200C320220BB
:10299000D0E300102401011004E00010482F0020B3
:1029A0009C3202201C320220983202203033022056
:1029B00010B568B10446FFF79DF90A4B1B68012B5F
:1029C00009D100212046FFF7D9FBFFF743FF08B9E3
:1029D000FFF74AFD10BD044B044A4FF41961044847
:1029E00006F052FE1432022018E400108801011093
:1029F00004E0001010B5314B1B68002B4AD041F0A9
:102A000000410160C468002C4BD0036941688268B2
:102A10008A60416851605A68824249D0002202614E
:102A20001A68013A1A60A369E16822698A60E1685C
:102A300051605A6804F1080082423CD00022A26131
:102A40001A68013A1A60236B1D4A1268934201D931
:102A50001B4A13601B4A03EB830302EB83035B688F
:102A6000E3609968216148609860236B03EB830100
:102A700002EB8100A06152F82110013103EB8303C6
:102A800042F82310FFF704FD2046FEF759FFFFF739
:102A90005FFD10BD0C4B0D4A41F247510C4806F04A
:102AA000F3FD0C4B094A41F25251094806F0ECFD86
:102AB00082685A60B2E722695A60BFE71432022086
:102AC0001C320220482F002048E30010440001106F
:102AD00004E000102CE300102DE9F041F0B10C46A9
:102AE000074611B3FFF7D4FC214B1E687D68731BAA
:102AF0009846FFF733FB90F87930EBB92368B3F1D0
:102B0000FF3F32D039681B4A126891421FD07A6861
:102B1000B2421CD800232360012413E0164B174A4D
:102B200041F2A951164806F0AFFD164B134A41F287
:102B3000AA51134806F0A8FDFFF710FB002380F808
:102B400079300124FFF704FD2046BDE8F0814345BC
:102B500003D8002323600124F4E7AD1B1D44256046
:102B60003846FFF7E5FA0024ECE70024EAE700BF67
:102B7000243302208C32022034E400102C00011097
:102B800004E0001040E4001010B50A4B1B681BB9AC
:102B900001231C46204610BDFFF77AFC064B1B683C
:102BA00023B902231C46FFF7D3FCF3E700231C469E
:102BB000F9E700BFF032022014320220164B1B68E6
:102BC0004BB310B504464FF050431B68134A52F8FC
:102BD000232082B1114A52F823205AB10F4A52F8E9
:102BE0002310013942F823104FF050431B6852F86C
:102BF00023303BB110BD0A4B0A4A41F6F4310A4872
:102C000006F042FD1A4609491846FEF747FD2046E0
:102C1000FEF765F8EEE77047F0320220EC31022053
:102C200090E10010E4FF001004E00010421D0020BD
:102C300038B5FFF793FAC569FFF790FA046BFFF711
:102C40008DFAC4F12004C461284638BD064B1A68C9
:102C500013682BB90123036023B9D3681868704740
:102C60000023F8E700207047342F002008B54160AA
:102C7000006191420CD8D21A83699A4201D3012093
:102C800008BD011D094B1868FEF79FF90020F7E702
:102C90009A4201D2994206D2011D054B1868FEF7EF
:102CA00094F90020ECE70120EAE700BF442F002060
:102CB000342F002070B504460D46164604E0A36983
:102CC0001D44236A20469847A1692B463246294471
:102CD0002046FFF7CBFF0028F1D170BD70B5054647
:102CE0000E460D4B1B68DB68DC68201DFEF789F97A
:102CF00094F8283013F0040F07D123F0010384F86F
:102D00002830236A2046984770BD3246294620461F
:102D1000FFF7D0FFF5E700BF342F002008B505E02E
:102D2000DB684FF0FF311868FFF7D8FF054B1B68D1
:102D30001A68002AF4D1044A106802490860136036
:102D400008BD00BF342F0020442F002038B50546B1
:102D5000FFF714F80446074B1B68834205D800238D
:102D60002B60044B1C60204638BDFFF7D7FF0123C2
:102D70002B60F6E78032022070B582B005460C4623
:102D8000FEF7B8FF01A8FFF7E1FF019B0BBB06466A
:102D90009CB9A8420AD22246A91B0F4B1868FEF71D
:102DA00035FCFFF757FD88B102B070BDFFF752FD4B
:102DB00031462846FFF792FFF6E7084A1268126884
:102DC00012B901231C46E6E71C46E4E7FFF74CFB7B
:102DD000EAE7FFF73FFDE7E728330220442F002012
:102DE00030B587B00023029303930493059302E068
:102DF000029B002B0FDA002202A9404B1868FEF755
:102E00002BFB002877D0029B002BF1DA0599049860
:102E1000039B9847ECE7049C636913B1201DFEF700
:102E2000F0F801A8FFF792FF0546029B052B54D04E
:102E300033DC032B43D01EDC013B012BDBD894F8A1
:102E4000283043F0010384F82830039BA1692A4607
:102E500019442046FFF70AFF0028CCD094F8283008
:102E600013F0040F23D123F0010384F82830236AE0
:102E700020469847BFE7042BBDD194F8283043F093
:102E8000010384F828300399A161F9B12A462B4641
:102E900029442046FFF7EAFEADE7082B0FD003DCFC
:102EA000063B012BCBD9A6E7092BE6D0A3E7A36904
:102EB0002A46039919442046FFF7FCFED7E794F809
:102EC000283023F0010384F8283094E70C4B0D4A96
:102ED0004FF482610C4806F0D7FB94F8283013F0C9
:102EE000020F04D023F0010384F8283083E7204642
:102EF000FDF704FB7FE707B030BD00BF2833022099
:102F000050E40010C001011078E4001000B583B057
:102F100001A8FFF79BFE0199FFF72EFFFFF760FF67
:102F2000F6E7000008B5FFF7B3FA0F4B1B6813B1C3
:102F3000FFF70EFB08BD0D48FEF72EF80C48FEF714
:102F40002BF80C4B094A1A600B4B094A1A600022F5
:102F500010210A20FEF7C2F9034B18600028E7D0C1
:102F60000649FEF71DFBE3E728330220203202204A
:102F700034320220342F0020442F0020B8E4001007
:102F800000B585B0FFF7CEFF0D4B1B6883B10D4B2D
:102F900002934FF0FF3301931F23009300234FF45C
:102FA000806209490948FFF741FC08B105B000BD3E
:102FB000074B084A4FF4A371074806F065FB00BFB2
:102FC000283302202C330220C0E400100D2F001003
:102FD000C8E40010DC01011078E4001000B585B0F1
:102FE00094461A466FF00103009301900291CDF8C8
:102FF0000CC00023694603480068FEF79FF905B03E
:1030000000BD00BF2833022070B515461E4600EBF8
:10301000400C4FEA8C0C0CF1804C0CF5803CDCF839
:103020000430049A934201D2CCF80420041FE4B285
:10303000012C2AD90CF540534FF400621A60204B42
:1030400053F820204AB15B69B3FBF2FE0EF1010E8A
:103050000EEB4E0EBEF1030EFCD2DCF8002082EA2D
:10306000451202F0E0020CF5805ECEF80020012C43
:1030700017D90CF500534FF400621A60049BCCF88A
:1030800004300F4B43F8206070BD0129D2D10CF5FC
:10309000405303221A60DCF8083013F0010FFAD015
:1030A000DBE7DCF800304B4003F00303CEF80030E0
:1030B000DCF8083001228A401342F9D0D9E700BF7A
:1030C0009421002000B583B04FF4803CCDF800C0BF
:1030D000FFF79AFF03B000BD014B53F82000704783
:1030E000942100200FB400B583B0084806F0FCFB23
:1030F000049B3BB105A90191184606F005FC044864
:1031000006F0F2FB012006F09FFA00BFD0E40010A9
:10311000ACF00010EFF3108072B6064BD3E8CF1F6F
:1031200001220029FAD1C3E8412F0029F6D1BFF3CB
:103130005F8F70473F1D00200023034AC2E88F3F86
:1031400080F31088704700BF3F1D002070B5054612
:103150000C461646FFF7DEFFE208A95C04F0070CF8
:10316000012303FA0CF3194205D1DBB20B43AB5434
:10317000FFF7E2FF70BD21463046FFF7B3FFF8B519
:1031800005460F4614461E46FFF7C4FF00E0013413
:10319000B4420ED84FEAD40C15F80C1004F0070313
:1031A00001229A401142F2D1D2B20A4305F80C2012
:1031B00001E04FF0FF34FFF7BFFF002C01DB20469A
:1031C000F8BD002FFBD00698FFF78CFF38B50546F9
:1031D0000C46FFF79FFFE1086A5C04F00704012337
:1031E000A3401A4205D022EA03026A54FFF7A4FF63
:1031F00038BD034B034A3321034806F045FA00BFAC
:10320000E0E40010F401011000E50010054A107818
:10321000431CDBB21370172B02D9134610221A700D
:10322000704700BF5A11002008B50146024A034802
:10323000FFF78CFF08BD00BF44E500108821002087
:1032400000B583B00146044B00931F2318220348A6
:10325000FFF795FF03B000BD64E500108821002052
:103260004FF0E022936843F00053936070470000F2
:10327000002305E0044A1A440021C2E88F1F0133ED
:103280001F2BF7D9704700BF341D002000B500F098
:10329000070C4FEA8C0CC00801FA0CF100F18C0EFF
:1032A000DFF81CC04CF82E1003EB80031AB103F5B5
:1032B0000053196000BD03F540531960FAE700BFE1
:1032C000008002400C4B03EB800253F8203083F067
:1032D000400303F0C00302F5805CCCF80030C0006E
:1032E00000F1804000F52030416002F540524FF47B
:1032F00080731360704700BF0480034000B5DFF89F
:1033000028E00EEB800C69B1082302B104221343BC
:103310005EF82020534003F00C030CF5805CCCF8E1
:10332000003000BD0B46F0E70480034039B1084B84
:1033300003EB800303F5005302221A607047044B2D
:1033400003EB800303F5405302221A60704700BF6D
:103350000480034070B504460D46164652B94FF03E
:1033600050431B688BB10A4B324629462046FFF773
:103370008DFF70BD152000F035F90028EFD1054B09
:10338000054ABD21054806F07FF9054BECE700BF73
:103390009082024080E500105C020110ACE5001054
:1033A0004882024008B54FF05043D3F800C0094BA3
:1033B00053F82C30034207D10343064840F82C3021
:1033C000152000F04DF908BD034B044ADB210448E9
:1033D00006F05AF9C8310020F4E500102802011067
:1033E000ACE5001010B54FF050431A680C4B53F881
:1033F000223003420ED00446152000F04BFA4FF065
:1034000050431968064A52F8213023EA040342F86F
:10341000213010BD034B044AEF21044806F034F973
:10342000C831002020E6001004020110ACE50010B5
:1034300008B54FF0000242EC440042EC4000052188
:10344000FFF740FF08BD0000064B9B68103043F8B3
:103450002010BFF35F8F00230349C1E88F3F82F341
:103460001088704700ED00E03D1D002000487047C7
:1034700000E400E008B5FFF7F9FF002304E04FF097
:10348000803240F8042B01330C2BF8D962B608BD0A
:10349000C0F133007047000008B50388DA0A1C2A1F
:1034A00006D15B050BD45B15023300EB430008BD6E
:1034B000064B074A4FF48E71064806F0E5F803F50F
:1034C000FF1303F5FF531F33EDE700BF4CE6001079
:1034D000C002011064E6001008B5091A01F2FC727E
:1034E00040F6FE739A4208D8081F11F0010F04D16C
:1034F000C0F34A0040F4604008BD034B034A4FF458
:103500008771034806F0C0F8A8E60010B402011065
:1035100064E6001008B5091A04394B08090B0AD1F2
:10352000C1F30A0141F4704101806FEA43536FEA2D
:103530005353438008BD034B034A4FF48B71034838
:1035400006F0A2F8D8E600109002011064E6001020
:103550004209064B53F8222000F01F00012383404C
:103560001A4214BF01200020704700BF00E100E0B4
:103570003AB1064B00F1600243F8221043F82010E4
:1035800070472030014B43F82010704700E100E005
:1035900008B50A4600F01F03012199404009FFF7D2
:1035A000E7FF08BD00F01F024009012393404030AF
:1035B000014A42F82030704700E100E0024B9B686E
:1035C000103053F82000704700ED00E008B5FFF719
:1035D000F5FF034BC01A2F288CBF0020012008BD27
:1035E0005C11002008B5FFF7E9FF18B1034A9042CB
:1035F00001D0012008BD0020FCE700BF1101001030
:1036000070B505460C46EFF3108372B61E460F4B9D
:10361000D3E8CF1F01220029FAD1C3E8412F0029A6
:10362000F6D1BFF35F8FFFF7C9FF094B984201D076
:10363000A04205D1324621462846FFF705FF70BD5E
:10364000044B054AED21054806F01EF83D1D0020FB
:1036500011010010E8E60010E802011064E6001015
:103660002DE9F04F87B000911546EFF3108372B645
:103670009B467C4BD3E8CF1F01220029FAD1C3E837
:10368000412F0029F6D1BFF35F8F774B93F90040AC
:10369000002C44DB804604EB4407744B03EB8707A4
:1036A00097F90610704A1170714A926800F1100182
:1036B00052F82190A9EB03022F2A3ED96D4B994570
:1036C00034D14FF42143ADF80C304FEA440904EBF8
:1036D0004400664E06EB800067490230FFF7FCFEAF
:1036E000ADF80E004BF60153ADF81030FF238DF806
:1036F00012308DF81350009B0593A14406EB89030B
:1037000006AA12E9070083E8070047F001095A46B4
:1037100049464046FFF798FE07B0BDE8F08F574B8B
:10372000574A4FF4BE71574805F0AEFF564B544A06
:1037300040F28311534805F0A7FF29F00102924699
:10374000D31A524AA2FB0312D20802EB4202B3EB95
:10375000820F0FD153460026DA79AA4212D993F983
:103760000620002A0DDB02EB42021E463F4B03EB14
:103770008203F1E7464B424A4FF4CA71414805F0D3
:1037800083FF1E46A6B344F60103ADF80C304FF498
:103790008F43ADF80E3096F906309A46002B1ADAB0
:1037A0004BF60150ADF810008DF812A08DF81350B3
:1037B000009B05933946301DFFF78EFEB080B47133
:1037C00004EB4404294B03EB840306AA12E9070027
:1037D00083E807009BE7301DFFF75EFE014604EB20
:1037E0004402224B03EB8203181DFFF775FED9E755
:1037F0004FF42143ADF80C306300019304EB440611
:10380000DFF8689009EB86061B49B01CFFF764FEE1
:10381000ADF80E005146301DFFF75EFEADF810000A
:103820004AF6AA2352464946521A524153431B0DA7
:103830008DF812308DF8135000990591019B2344A7
:1038400009EB830906AB13E9070089E8070044F692
:103850000103AAF800304FF48F43AAF8023047F072
:10386000010954E73D1D00203F3302205C11002078
:1038700000ED00E0110100108C11002020E7001085
:10388000D002011064E6001048E70010ABAAAAAA13
:1038900070E700102DE9F04706460D46EFF3108360
:1038A00072B69846504BD3E8CF1F01220029FAD1B7
:1038B000C3E8412F0029F6D1BFF35F8F4B4B9B68C4
:1038C00000F1100453F82470494B9F4207D0AF42D7
:1038D00000F08780B946474BFB1A2F2B06D942468A
:1038E00039463046FFF7B0FDBDE8F087FFF730FE00
:1038F000824600213046FFF74BFEBFF35F8FEFF3A8
:103900000580C0B208B1844210D129F00104002121
:10391000A268954212D094F90630002B0DDB03EB20
:1039200043032146334C04EB8304F1E7324B334A23
:1039300040F20221324805F0A7FE2146954249D1C6
:1039400094F90650002D2BDB05EB4502294B03EBC8
:1039500082039A68A260DA79E27193F90630A37162
:10396000002B10DA4BF60150A08005EB4502214BED
:1039700003EB8203234A1178997115705146304642
:10398000FFF706FEABE705EB45031A4800EB8300A3
:103990000430FFF781FD0146201DFFF79DFDE3E7A1
:1039A00098B981B1FF238B714BF601538B80154A77
:1039B0001378A3714AF6AA230E49641A644163433B
:1039C0001B0D1370DAE70A4FF1E70F49201DFFF7CF
:1039D000A1FDD3E70D4B094A4FF41171084805F0DA
:1039E00053FE034F7BE700BF3D1D002000ED00E0CC
:1039F000110100105C110020F4E70010A00201107A
:103A000064E600103F3302209611002028E80010E1
:103A100038B504460D46FFF729FD4FEA940C50F8DF
:103A20002C3004F00304E400FF22A24023EA020346
:103A30002A46A240134340F82C3038BD38B540F038
:103A40000104344BE31A2F2B35D8EFF30581C9B2AB
:103A5000002937D0EFF3108E72B62F4BD3E8CFCFBB
:103A60000122BCF1000FF9D1C3E84C2FBCF1000FCB
:103A7000F4D1BFF35F8F4AF6AA230246DFF894C061
:103A80006546521B524153431B0D4FFA83FC234B97
:103A90009B6853F82130A3421BD00023032B32D85C
:103AA00003EB43011B4A02EB810292F906206245B7
:103AB00020D00133F2E71A4B1A4A40F27F211A480C
:103AC00005F0E2FD194B174A40F28221164805F035
:103AD000DBFD124B9B68164A43F82120154B1A78E0
:103AE000827183F800C000230B4AC2E88F3F8EF337
:103AF000108838BD074A02EB8101FF248C714BF618
:103B000001538B80EAE70C4B064A40F293210648AA
:103B100005F0BAFD5C1100203D1D002000ED00E025
:103B200030E800107402011064E6001058E800103C
:103B3000110100103F33022064E8001008B5FFF7C0
:103B4000A7FC01460148FFF741FB08BD44330220B2
:103B500000B583B00146064B0093052300220548BB
:103B6000FFF70DFB002801DBC0F1330003B000BDFF
:103B70006CE800104433022070B504460E4615462A
:103B8000FFF744FB0146204600F006F8A680E580DA
:103B9000BFF35F8F70BD0000014B0B4403607047A3
:103BA000341D002010B50446FFF730FB01462046C7
:103BB000FFF7F2FF4FF0FF336360BFF35F8F10BD7D
:103BC00010B50446FFF722FB01462046FFF7E4FF4D
:103BD0004FF0FF33636000232372BFF35F8F10BD8C
:103BE00010B50D4C09E00D4B0D4A1A210D4805F09A
:103BF0004BFD2046FFF7D6FF08340B4B9C4209D201
:103C00002368002BF5D0012BEDD12046FFF7D8FF1C
:103C10000C34F2E710BD00BF3818002088E800100F
:103C20007C030110A8E8001048180020024B0B4448
:103C30000360BFF35F8F7047341D002010B504464A
:103C40000120FFF7FDFA01462046FFF7EFFF10BD08
:103C50000246EFF30583DBB2103B990804D003481A
:103C600003F00303136070470148F9E700800B403D
:103C700000000B4000B5D0F828C0A2EB0C0E0B1DC5
:103C800050F82330A3EB0C039E4506D3D0F820C098
:103C900001238B401CEA030F02D1043140F821209C
:103CA00000BD41EA004070472DE9F04F85B003A800
:103CB000FFF7CEFF954B984214BF002301230399D1
:103CC00001EB8303924A52F823402378994206D1AC
:103CD000054601228A4000F541535A602CE18D4B84
:103CE0008D4A92218D4805F0CFFCD4F8149006EB54
:103CF00046074FEAC70A09EBC707D7F808B0D7F855
:103D00000C80284600F04CFCB0EB0B0061EB080384
:103D1000002BC0F21A81B8F1000F64DB3B691A4630
:103D200000937F4B9A4230D0798889B2B4F9080069
:103D3000FFF7B7FF7969009B9847009001910099C0
:103D4000019A51EA02034ED01346002A29DABBEB4E
:103D5000010268EB0308BA60C7F80C8039F90A70F1
:103D6000002FC0F2F280D4F814E007EB47030EEB0B
:103D7000C3039968DB68511A68EB0303002BC0F298
:103D8000E480A4462CF8087F17E07A691369009252
:103D90001046984738B3009A13680093536801930C
:103DA000CDE7284600F0FCFB009B1A18019B43EB73
:103DB0000108D0E79C463EF90B70002F0EDBBCF9E2
:103DC000003003EB43034FEAC30B0EEBC3039868C9
:103DD000D968101A68EB01010029EBDA29F80A709A
:103DE000ACF80060B1E039F90A3023812369EFF3C0
:103DF000108272B6D3E8CF0F01210028FAD1C3E8B0
:103E0000401F0028F6D1BFF35F8FB4F9023029F8C4
:103E10000A30668021690023C1E88F3F82F3108851
:103E200093E02369EFF3108272B6D3E8CF0F01213C
:103E30000028FAD1C3E8401F0028F6D1BFF35F8FF6
:103E4000B4F804800FFA88F84FF6FF73A380216955
:103E50000023C1E88F3F82F310881AE01F4630F933
:103E60000A60002E0FDBB7F9003003EB43034FEA83
:103E7000C30A00EBC3039968DA68BCEB01016EEB7F
:103E80000202002AEADAA7F8008030F9098020F857
:103E90000960B8F1000F5DDB606908EB48034FEA89
:103EA000C30900EBC303D3F808C0D3F80CE004F156
:103EB0000807B4F90860D4E70023A37104F1080CE3
:103EC000B4F9083010E04FF0FF384FF0FF39C0E987
:103ED0000289B4F90800984205D0ACF80020B4F982
:103EE0000800C85323811346B3F1FF3F35D0616901
:103EF00003EB4302D70001EBC20031F932204688C0
:103F000016F4004FDFD18446EDE700BF00800B4080
:103F10000C2F00203CE90010BC03011068E90010E0
:103F2000A93C0010284600F03BFB3F1A66EB010657
:103F3000012F76F1000628DA039A01239340EB6300
:103F4000B4F90860002EBFF6D0AEA38813F4004F7A
:103F50003FF467AFA379002BAED1B4F90830002B42
:103F600013DB626903EB430302EBC3039F68DE6864
:103F7000B6F1FF3F08BFB7F1FF3FD3D03A46334613
:103F800003992846FFF776FECCE740BF05B0BDE8B1
:103F9000F08F00BFF8B504460D4611460A4B984213
:103FA00010D000262E44012707FA05F52562304679
:103FB000FFF726FB39463046FFF7EAFA04F50154CD
:103FC0002560F8BD0426EDE700800B40F8B50446F7
:103FD0000E4617461D46C160FFF718F9164B0344FD
:103FE00023612770ABB263814FF050421278627048
:103FF0004FF6FF722281A280013B63804FF0000CDC
:1040000008E00CF1FF300CEB4C0E636923F83E0026
:104010000CF1010CAC45F4D3084B9E4214BF0023B5
:10402000012307EB8303064A42F82340054A394639
:104030003046FFF7AFFFF8BD341D002000800B4075
:104040000C2F0020A93C0010F8B504460D46174679
:104050000C4B984214D000262E44012101FA05F39E
:10406000236204F5415213603046FFF791FA394656
:104070003046FFF70FFC2946204600F069FAF8BDEC
:104080000426E9E700800B4008B50B480368EFF30E
:10409000108172B6D3E8CFCF0122BCF1000FF9D165
:1040A000C3E84C2FBCF1000FF4D1BFF35F8FFCF7D6
:1040B000F9FC0020002108BDD831002008B5054BCF
:1040C0001B690BB1034808BD034B044A6521044832
:1040D00005F0DAFAA4110020A8E90010A4030110E9
:1040E00068E9001070B505460E46182004F0A0F9E6
:1040F000044670B11821304604F0B0F96061012126
:10410000284600F033FA0246334629462046FFF798
:104110005DFF204670BD000010B5194B984220D0BD
:104120000446184A0178C068FFF78EFFE268164B14
:104130009A4214BF00220122237803EB8200134924
:1041400051F82010A14213D103EB82030F4A002142
:1041500042F82310606904F099F9204604F096F9BA
:1041600010BD0B4B0B4A40F22D110B4805F08CFA99
:104170000A4B084A4FF49971074805F085FA00BFC9
:10418000A4110020A93C001000800B400C2F00203F
:1041900028E800109003011068E90010CCE9001035
:1041A000F8B504469E460069EFF3108172B6D0E878
:1041B000CF6F0125002EFAD1C0E8465F002EF6D160
:1041C000BFF35F8FB4F90250666905EB4500C70085
:1041D00006EBC000002D03DB36F907C0A4F802C0CF
:1041E0004FF0000C2369C3E88FCF81F31088654539
:1041F00033DB06990161079941618260C0F80CE0E8
:10420000418889B20131C1F30E0101B90121418018
:104210002846FFF746FD2369EFF3108272B6D3E814
:10422000CFCF0121BCF1000FF9D1C3E84C1FBCF185
:10423000000FF4D1BFF35F8FA388F353A5802169EA
:104240000023C1E88F3F82F31088E36821780122C0
:104250008A4003F501535A60F8BD4FF0FF30FBE789
:1042600070B582B0064615461C469DF8203033B91D
:1042700000F0ACF9854264EB010100290ADB079BE1
:104280000193069B00932A4623463046FFF788FF9A
:1042900002B070BD0020FBE7F0B585B007460E46C2
:1042A00015461C46FFF70AFF9DF82830029301943B
:1042B00000953A463346FFF7D3FF05B0F0BD0346FD
:1042C0004089B0EB214F31DD10B50A14586902EB7B
:1042D000420200EBC2001A69EFF3108C72B6D2E80A
:1042E000CF4F5FF0010E002CF9D1C2E844EF002C53
:1042F000F5D1BFF35F8F428892B289B28A420FD064
:10430000002019690022C1E88F2F8CF3108830B18A
:10431000DA681B780121994002F50153596010BDFC
:1043200042F40042428001209871EAE70020704781
:1043300010B50446FFF7C2FE2146FFF7C0FF10BDCF
:1043400040787047F0B583B0EFF30583DBB2D3B9A3
:1043500004460D46B0F1960641F1FF37B04271EBCD
:10436000070301D20026374600F030F9301A67EB18
:104370000103012873F1000308DA2046294600F002
:104380002DF903B0F0BD1648FEF7ACFE00230093F4
:10439000144A30463946FFF77FFF002814DAECE76D
:1043A00011480368EFF3108172B6D3E8CFCF012232
:1043B000BCF1000FF9D1C3E84C2FBCF1000FF4D1D0
:1043C000BFF35F8FFCF720FB084B5B6A9F42E7D887
:1043D000064A926AB242D0D29F42CED1E0E700BFF5
:1043E0000CEA001089400010D831002000000B407A
:1043F000F0B583B00C46EFF30583DBB293B13A4BD3
:104400005B6A8B4209D3384A926A824208D2A3423D
:1044100001D0012002E0002000E0002003B0F0BD48
:104420000120FBE70546FFF749FEC3681F460678F3
:10443000184600F0B5F82A1A64EB0101331D57F84D
:1044400023301B1A9A4271F1000112DB20BF264B68
:104450005B6A9C4209D8244A926AAA4207D29C42CB
:1044600001D00120DAE70020D8E70020D6E70120BC
:10447000D4E7002300931D4A28462146FFF70CFF8E
:10448000002818DD184B5B6A9C4205D8164A926AD0
:10449000AA4202D29C4200D120BFFFF749FF124B33
:1044A0005B6A9C421BD8104A926AAA4219D29C426B
:1044B00013D00120B2E70C4B5B6A9C4209D80A4A30
:1044C000926AAA4207D29C4201D00120A6E70020AE
:1044D000A4E70020A2E70120A0E700209EE700203B
:1044E0009CE701209AE700BF00000B4089400010C4
:1044F0000048704700000B4010B50A4B1B6923B100
:104500000A210948FFF748FB10BDFFF7F1FF0446F9
:10451000032100F00BF81023032221460148FFF786
:1045200055FDEDE7A4110020D831002008B5054A5B
:10453000DFF818C0044B604514BF1846581CFEF73E
:1045400005FE08BD5CEA00108C21002000800B40B5
:1045500008B5044A044B904214BF1846581CFEF795
:1045600035FE08BD00800B408C21002000B583B0D3
:10457000084B009303230022DFF81CE0DFF81CC087
:10458000704514BF60460CF10100FEF7F8FD03B062
:1045900000BD00BF80EA001000800B408C2100208D
:1045A0000246436A906A1946536A9942FAD17047A3
:1045B000416A00E0416A9942FCD300E0416A9942B5
:1045C00002D1816A9142F9D37047000008B50248D0
:1045D000FFF7E6FF08BD00BF00000B4008B502462C
:1045E0000B460248FFF7E4FF08BD00BF00000B4088
:1045F00038B58E469446049A3349B1FBFEF1334CEC
:104600006444334DAC4234D8BCFBF1F4A4F1100542
:10461000B5F5987F33D85D1E062D36D8551E062D6C
:1046200033D8B1EB1C1F36D8120342EA03410368AA
:10463000002B36DB274B984243D00E2301229A40B1
:10464000254B1A6003F580531A60244B9B6832EAAD
:104650000303FAD1C0F800E0846000F54052043250
:10466000212313600368002BFCDAC1600823136068
:1046700038BD1B4B1B4A11211B4805F005F81B4B8D
:10468000184A1921184804F0FFFF194B154A1C213C
:10469000154804F0F9FF174B124A2321124804F081
:1046A000F3FF036803F03F037345C3D18368C3F38B
:1046B0000B03A342BED1C36803F4EE238B42B9D1EE
:1046C000D6E70F23BAE700BF001BB70080E84BD343
:1046D00080F8A9320080054000200240000002401E
:1046E00094EA0010E0030110E4EA001028EB001047
:1046F00044EB001090EB0010024B1A68024B5A601A
:10470000704700BFE42E002000800D4008B5164B16
:104710004FF080421A60A3F54123144A9A6051B1C8
:1047200003F540234FF0E0621A6048B9104B4FF098
:1047300000421A6008BD0C4B4FF0E0621A60F4E7CB
:104740004FF47A7303FB00F00A4B1860B0F1807FDE
:1047500002D36FF07F421A60FFF7CEFF044B4FF099
:1047600080421A60E6E700BF00B00D40F3FFFF0192
:1047700000A00D40E42E002008B50E4B4FF0804CF9
:10478000C3F800C098B140F001030B48DFF82CC01B
:10479000C0F81CC0DFF828C083EA0C0CC0F820C0A9
:1047A0004162836200211046FFF7B0FF08BD024B53
:1047B000D861F7E700B00D4000800D40D3C007B0CE
:1047C0002D3FF84F054A00EB400302EB830359608D
:1047D00000EB400080000123135070470080104020
:1047E0002DE9F04105460E46174698460023DB8A20
:1047F000002242E800F212F4800F0BD1102144F2A3
:1048000052209847044643463A4631462846A04738
:10481000BDE8F081042144F2522098470446F2E7B3
:1048200008B50023DB8A002242E800F212F4800F70
:1048300002D11021984708BD04219847FBE708B52D
:10484000031E04DB41F020003AB141F030010A467A
:104850000A214FF48170FFF7C3FF0146F7E700001C
:10486000034BD3F82838002BFAD0BFF35F8F704783
:1048700000000E40002207E0054B13449B00BFF3ED
:104880005F8F002119600132072AF5D9704700BFF8
:104890000382031008B5FFF7EDFF08BD074B4FF487
:1048A0002A621A604FF48D72DA6003F50053044AED
:1048B0001A60024B5B68002BFBDA704700800440F3
:1048C00000B0FA00054B984204D3054B984203D33D
:1048D0000020704700207047012070471001001031
:1048E00024010010044B9B6843F82010BFF35F8F36
:1048F00082F31088704700BF00ED00E0024B9B6818
:1049000053F82000704700BF00ED00E0F8B5064600
:104910000D46EFF3108372B61F46FFF7EFFF044614
:10492000A84202D0FFF7CEFF30B13A4629463046C2
:10493000FFF7D8FF2046F8BD024B034A3921034850
:1049400004F0A2FEACEB0010EC030110F0EB001041
:1049500003BD10B5044603F0FBFAA04710BD0000EC
:1049600070B503461046DD08DFF870E01EF80560FC
:1049700003F00704012202FA04F4264214BF94460D
:104980004FF0000C1344DE0896441EF806E003F0D6
:1049900007039A401EEA020F14BF012300234CEACA
:1049A000430313EA010207D000B970BD0A46194655
:1049B0000948FEF797FB0132012A0AD801239340E8
:1049C0000B42F8D0054B1344585DE6B230435855BE
:1049D000F1E70120E9E700BFB4EC0010CC2A002089
:1049E0004FF050431B6D13F0020FF9D04FF05043BE
:1049F000586540BF704700E020BF4FF050431B6D2B
:104A000013F0010FF8D04FF05043986D70472DE927
:104A1000F04186B004460F4616461920FEF798FD71
:104A2000804600211920FEF7B3FD00250095019571
:104A3000012302930396049705940DE04FF0504331
:104A40009B6D4FF050431B6D13F0010FF6D140BF2B
:104A500009E00135052D0FD806AB03EB850353F8AC
:104A6000184C002CEDD02046FFF7BAFFFFF7C3FF2C
:104A70008442EED00025EDE741461920FEF788FD7F
:104A800006B0BDE8F081000008B512F0030F11D1A7
:104A900022F003028B180A4A926843F80C0C43F880
:104AA000081C084943F8041CA3F10C010648FFF751
:104AB000AEFF08BD054B064A8E21064804F0E4FD12
:104AC00000ED00E0534900105149001008ED0010BE
:104AD0000C04011068EC001008B5064A064B9A4217
:104AE00005D311464FF40062FFF7CEFF08BD4FF02B
:104AF000FF31F7E70008082000000820F8B5054658
:104B00000E46FEF707FB07460724002C07DB0022B2
:104B100029462046FFF724FF18B9013CF5E76FF05E
:104B200008040EB1002C04DB3846FEF705FB2046D6
:104B3000F8BD0148FEF7D6FA24ED0010014B1860CD
:104B4000704700BF5421002008B50A4601460248BC
:104B500002F09CF908BD00BFC8210020014B186875
:104B6000704700BF5421002010B582B0684603F0A2
:104B7000BBF86946034803F0BDF800B1014802B034
:104B800010BD00BF4818002010B5FFF7E7FF04462E
:104B900002F06CFD054B9C4200D010BD23685B6B9E
:104BA000204698470020FFF7C9FFF6E74818002085
:104BB00010B5FFF7D3FF044628B1204602F03AFDB6
:104BC00040B1002010BDFFF7CFFF044638B1FFF71A
:104BD000B5FFF2E7FFF7D8FF4FF0FF30F2E74FF0F5
:104BE000FF30EFE700B58BB045F24730FFF718FE16
:104BF00003460122092101A89847042801D1002376
:104C00000EE0094B094A2F21094804F03DFDC3F18C
:104C10000F0228326A4412F8241C064AD154013388
:104C2000072BF4DD0BB000BD38ED0010500401106F
:104C300040ED0010D03100200346024A03CA18603C
:104C400059607047D031002008B511B18C46002260
:104C500008E0104B104A3B21104804F015FD373393
:104C6000835401320CF1FF3393420FD90F2A0DD830
:104C700053080B49CB5CD14301F0010189000B4182
:104C800003F00F03092BEADC3033E9E700238354F8
:104C900008BD00BF8CED00103004011040ED001085
:104CA000D03100200022026042608260C2604FF476
:104CB000803202604FF4F83242604FF4802282600A
:104CC0004FF440228260704738B504460D46FFF726
:104CD000E9FF6A1D63686FF3D01343EAC51141EA27
:104CE00002316160E36823F0604343F00053E36006
:104CF00021F0C0416160204638BD192340EC4030AE
:104D00007047000008B5102906D8036823F4F03373
:104D100043EA4131016008BD034B044A40F22911C6
:104D2000034804F0B1FC00BF94ED0010C004011072
:104D3000B4ED001000B583B00146002301931023A9
:104D4000019303F5FC03019301A8FFF7DBFF019B2F
:104D500023F00C0242F00802019223F4F85222F0F0
:104D60000C0242F0080201920C4A1A4042F008027A
:104D700001920B4A1A4042F00801019142F00902E7
:104D80000192084A1A4042F009020192064818406E
:104D900040F00900019003B000BD00BFF3E0FFFE4A
:104DA000F3E07FFEF3E07FFCF1E07FFC08B53F29F4
:104DB00006D8036823F4FC0343EA4141016008BDBF
:104DC000034B044A40F21B11034804F05DFC00BF92
:104DD0000CEE0010A8040110B4ED001010B5D0F8CE
:104DE0004C48216801F12F4101F56001090D0631A0
:104DF000C9B21820FEF766FA216801F12F4101F5CA
:104E00006001090D0631C9B21D20FEF75BFA0122CF
:104E100000211D20FEF772FA0020FFF76EFF10BD83
:104E200010B504460520FEF757F9030C04FB03F305
:104E30005B08034AA2FB03231B0A033BFDD210BD00
:104E40001123970808B50120FFF757FF6420FFF7EB
:104E5000E7FF08BD38B5D0F84C48A4B10546216835
:104E600031B16368A268114802F04FFA0023236051
:104E700094F90C00002807DA94F90D0000280CDAE8
:104E80000023C5F84C3838BD02F064FA94F90C00E0
:104E900002F048FAFF232373EEE702F05BFA94F97D
:104EA0000D0002F03FFAFF236373E9E700050110EC
:104EB000F0B589B0D0F84C38002B40F0B8800546EA
:104EC0006449C0F84C180B60FF234B730B7301232C
:104ED000029306230193182300930B1D01F108028E
:104EE0005D4802F09BF9002800F0A780594C6168EA
:104EF00004A8FFF7E9FE4FF40033049357498B6F82
:104F0000DB4303F03003564A93678B6FDB4303F0B8
:104F100001039367079B23F01F0242F018020792D8
:104F200023F07C7222F01F0242F4801242F0180239
:104F300007924C4A1A4042F4E01242F018020792DB
:104F4000494A1A4042F4E01242F446720792474935
:104F50001940474A0A43079203F4F843454A1A4363
:104F60000792059820F0C0400590DFF818C1CDF8F1
:104F70001CC0069B23F0FA7222F4803242F4803285
:104F800006926FF31D4343F4403306932268D2F830
:104F90006811C1F11801012606FA01F102F500526B
:104FA0009163D4F800E0A16801EB41020EEBC2026C
:104FB000049FC2F8C870C2F8D030C2F8CC00C2F862
:104FC000DCC0009633461D22704602F0D6F82168F8
:104FD00001F12F4101F56001090D0631C9B2182018
:104FE000FEF770F9324600211820FEF787F93146A6
:104FF0001820FEF79BF92268A36803EB430302EB3A
:10500000C3024EF20103C2F8D830002002F092F938
:105010002073002002F08EF940B2607394F90C30D6
:10502000002B10DB00280EDB002009B0F0BD124B76
:10503000124A6E21124804F027FB2846FFF70AFFA8
:105040006FF00500F1E72846FFF704FF6FF0050059
:10505000EBE700BF70210020000501100080034035
:1050600000900340E07F00FC007C00FC007C00E03E
:1050700018031C0418031C2420EE0010F004011077
:1050800030EE001018771C242DE9F04184B015464D
:105090001E460F46002900F03681D0F84C48FFF735
:1050A0009DFE002E00F05981002F00F0328115F096
:1050B000030F40F03A81B84617F0030F40F03B81F0
:1050C00016F0030F40F03D810A9B13F0030F40F0F0
:1050D0003E812168A2680B68012707FA02F223EAE1
:1050E00002030B602168A268D4F804C00CF105002B
:1050F00002EB420301EBC303D3F8CC306FF3D013C0
:1051000043EACC1343EA003302EB420201EBC20153
:10511000C1F8CC302268A36803EB4303DB00D03333
:105120001A4402F580524FF0004313601360A168E7
:1051300020684FF080720023CDE9002302F018F8B8
:105140002268A368043307FA03F302F500521360E0
:105150002268A368083307FA03F302F500521360CC
:105160002168A368EA00013A043341F82320226849
:10517000A36803EB430302EBC30246F22003C2F829
:10518000D8302168A2680A9B5B1BDB00013B04321C
:1051900041F822302268A36803EB430302EBC30209
:1051A00046F24003C2F8D8302268A368616801F073
:1051B0001F0103EB430302EBC302C2F8D81094F9BA
:1051C0000C2097404FF0A043C3F86474930103F19F
:1051D000A043DB6813F0806FF8D194F90D20012310
:1051E00093404FF0A041C1F86434910101F1A04116
:1051F000CB6813F0806FF8D194F90C00FFF79AFD9B
:10520000029040F0807002902368A16803F12F4360
:1052100003F560031B0D01EBC30102A8FFF7C6FDF8
:1052200094F90C302268A168043102EB8102A908CC
:105230009B0103F1A043C3F800805A600F469960B8
:10524000029ADA6094F90D00FFF774FD039040F0C4
:10525000807003902368A16803F12F4303F5600376
:105260001B0DDB000433194403A8FFF79FFD039BCC
:1052700023F0C00242F04002039223F0F00343F017
:105280004003039394F90D3071192268A068083027
:1052900002EB80000A9AC7EB92029B0103F1A04344
:1052A000186059609A60039ADA602268A0681168F1
:1052B000012383400B43136094F90C20910101F109
:1052C000A0410B6913F0806FF8D194F90D20910182
:1052D00001F1A0410B6913F0806FF8D12A4600213B
:1052E000304607F0D3FE2268A36803EB430302EBCA
:1052F000C3034AF20302C3F8D820FFF7A3FD00203E
:1053000004B0BDE8F081002B7FF4C7AE6FF004005D
:10531000F6E725B10A9B9D4201D23746C7E6834B8B
:10532000834AEF21834804F0AFF9834B804AF5218B
:10533000804804F0A9F9814B7D4AF6217D4804F0AC
:10534000A3F97F4B7A4AF7217A4804F09DF97D4B07
:10535000774AF821774804F097F9002FC3D03E46EA
:1053600017F0030F40F0D38015F0030F40F0D68004
:105370002168A2680B68012707FA02F223EA0203F8
:105380000B602168A268606800EB070C02EB420327
:1053900001EBC303D3F8CC306FF3D01343EAC0134F
:1053A00043EA0C3302EB420201EBC201C1F8CC30FC
:1053B0002268A36803EB4303DB00D0331A4402F5F1
:1053C00080524FF0004313601360A16820684FF0D3
:1053D00080720023CDE9002301F0CAFE2268A36891
:1053E000043307FA03F302F5005213602268A3683E
:1053F000083307FA03F302F5005213602168A3682B
:10540000EA00013A043341F823202268A36803EB41
:10541000430302EBC30246F22003C2F8D8302268ED
:10542000A3680433002142F823102268A36803EB29
:10543000430302EBC30246F24003C2F8D8302268AD
:10544000A368616801F01F0103EB430302EBC30291
:10545000C2F8D81094F90C2097404FF0A043C3F83D
:105460006474930103F1A043DB6813F0806FF8D1FB
:1054700094F90C00FFF75EFC039040F080700390FD
:105480002368A16803F12F4303F560031B0D01EBB3
:10549000C30103A8FFF78AFC94F90C302268A168C5
:1054A000043102EB8102AD089B0103F1A0431E60B1
:1054B0005A609D60039ADA602168A0680B68012237
:1054C000824013430B6094F90C20930103F1A04335
:1054D0001B6913F0806FF8D1A368183301229A403A
:1054E00023689A6023689B681342FBD02068A168F8
:1054F0000268012303FA01F122EA01020260A168B5
:10550000206800220092182201F037FEEBE60B4BD8
:10551000074A4FF49171074804F0B6F8064B044A65
:1055200040F22311034804F0AFF800BF88EE0010EA
:10553000DC04011030EE0010ACEE0010C0EE0010E4
:10554000D8EE0010F0EE001010B588B09446012996
:105550001BD00024090741F080410E4A02EACC2208
:105560000A431343029304F10803009302AB04229D
:105570000021FFF789FD30B94CB1052308AA02EBE1
:10558000830353F8180C08B010BD1024E2E7012380
:10559000F4E700BF00F8FF0F00B585B0090741F040
:1055A0004041DFF824C00CEAC22C41EA0C01069A03
:1055B0000A43029203930023009308220DEB020199
:1055C000FFF762FD05B000BD00F8FF0F10B5172012
:1055D000FDF72EFF17204FF0010444EC4400002299
:1055E0000121FDF78BFE1820FDF722FF182344EC64
:1055F00044304FF0000242EC40301920FDF718FF14
:10560000192344EC443044EC403010BD38B5172524
:105610004FF0000444EC4050142002F0C1F84FF069
:10562000010343EC4050FA2002F0BAF81820FDF7CD
:10563000FFFE182344EC443038BD000000B585B0AF
:10564000002302930393012916D00B0743F08043F4
:105650000D4901EAC222134343F004035BBA0293EB
:10566000082300936B4404220021FFF70DFD08B9C5
:10567000039840BA05B000BD044B054A40F28911B9
:10568000044804F001F800BF00F8FF0F04EF001019
:105690009404011030EE001008B50423FFF754FF06
:1056A00008BD08B50223FFF74FFF08BD08B5012369
:1056B000FFF74AFF08BD000000B585B0090741F0BB
:1056C0004041DFF828C00CEAC22C41EA0C0242F04B
:1056D000040252BA02925BBA039300230093082299
:1056E0000DEB0201FFF7D0FC05B000BD00F8FF0F85
:1056F00000B583B04FF0040CCDF800C0FFF74CFFAD
:1057000003B000BD00B583B04FF0020CCDF800C06F
:10571000FFF742FF03B000BD00B583B04FF0010CAE
:10572000CDF800C0FFF738FF03B000BDF0B583B07F
:1057300017461C46089D012937D0002204F1030CAE
:105740002CF0030C0CF1FF33B3F5FF6F38D200F1EE
:105750002806AE4204D003D800F62803AB4236D860
:10576000002A3BD00023090741F08041DFF894E094
:105770000EEAC72E41EA0E012143043300EB8303F6
:1057800043F8041F62440432009204220021FFF710
:105790007BFC074620BBAE4204D022463146284659
:1057A00007F01CFD384603B0F0BD402B01D8102295
:1057B000C4E70E4B0E4A4FF4F3710E4803F064FF3A
:1057C0000D4B0B4A40F2E9110A4803F05DFF0B4B09
:1057D000074A4FF4F571074803F056FF0423C2E768
:1057E0000146074804F0B0F8DCE700BF20EF0010E6
:1057F0008004011030EE001060EF001088EF001000
:10580000ECEF001000F8FF0F2DE9F04782B00646DC
:105810000D4692461F46DDF8289001292ED007F14B
:10582000030828F0030808F1FF33B3F5FF6F2ED209
:10583000022D33D006F12800484545D0484503D80D
:1058400006F628034B4552D82B0743F040432B4A1A
:1058500002EACA2213433B43344644F8243F3A4603
:10586000494607F0BBFC0023009308F104022146DF
:105870003046FFF709FC02B0BDE8F087402BCED9D7
:105880001F4B204A40F201211F4803F0FDFE1F4B31
:105890001C4A40F203211C4803F0F6FE4FF47A74D0
:1058A000002C04F1FF3407DD082200213046FFF709
:1058B000F3FE10F0200FF3D0002CBBDC144804F0F2
:1058C00013F86FF00500D6E72B0743F040430B4A6F
:1058D00002EACA2213433B43314641F8243F0023E6
:1058E000009308F104023046FFF7CEFBC3E7094BF3
:1058F000044A40F21D21044803F0C6FE00F8FF0FE1
:1059000020EF00106C04011030EE001060EF00106A
:1059100014F5001008F00010012805D0022801D06D
:105920000020704701487047014870470040101838
:1059300000301018F8B50C461F460B88498881F4D2
:105940007F4181F0FF018B4230D1054616460B2B7B
:1059500032D9817B227A914234D1237AAB73637935
:1059600003F00F03022B06D8627A6B7BD31ADBB2EB
:10597000142B00D86A7323880C2B27D0617901F08F
:105980000F0101294BD0022932D0002971D11B2BE4
:1059900022D9E079204441892A8A914222D11030CB
:1059A000041B1C1B34603860002067E0374803F09C
:1059B0009BFF6FF0010061E0354803F095FF6FF049
:1059C00002005BE0334803F0BFFFC6E7324803F054
:1059D0008BFF6FF0030051E0304803F085FF6FF05C
:1059E00004004BE02E4803F0AFFF6FF0050045E0E8
:1059F000102B0ED9E27922449078D17889000431B5
:105A00000A44141B1C1B44EAC07434603A60022030
:105A100034E0244803F068FF6FF006002EE0102BFE
:105A20001BD9E2792244D178890004310A44141B3D
:105A30001B1B117B882922D1517B6C2922D1D17C5F
:105A400089B9117D10290ED1517D18290BD1183B30
:105A5000336018323A60012010E0134803F044FF2D
:105A60006FF007000AE0114803F03EFF6FF00900F5
:105A700004E00F4803F038FF6FF00A00F8BD6FF044
:105A80000800FBE76FF00800F8E700BF54F00010D3
:105A90006CF0001088F00010B0F00010D0F0001092
:105AA000F4F000101CF100103CF100105CF100104B
:105AB0006CF100102DE9F8430746B0F8B030D0F88B
:105AC000B4609919026C914207D800F13C041C445F
:105AD000264400239946984606E04FF0FF33836042
