:020000041000EA
:10000000002008205D0100101B0100101D010010E0
:100010001101001011010010110100101101001058
:100020001901001019010010190100101F01001022
:10003000110100101901001021010010230100100E
:100040001101001011010010110100101101001028
:100050001101001011010010110100101101001018
:100060001101001011010010110100101101001008
:1000700011010010110100101101001011010010F8
:1000800011010010110100101101001011010010E8
:1000900011010010110100101101001011010010D8
:1000A00011010010110100101101001011010010C8
:1000B00011010010110100101101001011010010B8
:1000C00011010010110100101101001011010010A8
:1000D0001101001011010010110100101101001098
:1000E0001101001011010010110100101101001088
:1000F0001101001011010010110100101101001078
:100100001101001011010010110100101101001067
:10011000EFF30580103800BE00BE00BE00BE00BE7A
:1001200000BE00BEF2EB88717C6B00109C6B00106F
:10013000A001001090A31AE7D3DEFFFF42012110B7
:10014000FF010000F07B0000793512AB4FF000009A
:100150001E49086006C881F3088810474FF05040D8
:10016000006810B14FF00000F2E70DA40ECC00299A
:1001700002D000F012F8F9E71549164A002000E015
:1001800001C19142FCD11449884714498847144958
:10019000884700BEFDE701C901C29A42FBD3704700
:1001A0009C6B0010100100209C120020287D001084
:1001B0000000082000000820287D00100010082002
:1001C00000100820000000007047000008ED00E06B
:1001D0009C120020942202203D3C00106502001079
:1001E000353C0010F8B500BF064B0749C91A891005
:1001F00048BF0131491003D0044B0BB101481847E7
:10020000704700BF9C1200209C12002000000000DC
:1002100008B5054B1BB105490548AFF30080BDE8A3
:100220000840FFF7E1BF00BF000000009C1E002057
:10023000C467001008B5034803F044FE024B013BBD
:10024000FDD1F8E7C4670010C0E1E40008B5044838
:1002500003F038FE4FF47A7001F0FAFBF7E700BFC5
:10026000CC67001010B582B003F0E8FD00244FF019
:10027000010C2346CDE900C44FF4807209490A48B5
:1002800001F018FA4FF0020C4FF480722346CDE9CA
:1002900000C40649064801F00DFA01F097FA20461D
:1002A00002B010BDD46700104D020010DC670010D2
:1002B0003502001070B5421E0A3282B04DD8034696
:1002C00013F0070200F1080052D1019001F0EEFA9C
:1002D000434A0198D2F800E08446BEF1000F5FD097
:1002E00000283FDB3F4B1B6883421E463AD33E4B00
:1002F0009C461B6803E01A6822B19C461346596865
:100300008142F8D373452DD01C46A1EB000E54F862
:10031000082BBEF1100FCCF8002006D901461D189D
:10032000C5F804E01A50CCF800504FF0000C2D48EE
:10033000721A02602D4841F0004105685960AA42D6
:1003400038BF02602A48C3F800C002680132026068
:1003500001F0B4FA204602B070BD01F0A7FA204ABD
:100360001368D3B1002401F0A9FA204602B070BD91
:10037000A2F109018142F0D31033981A019001F0E3
:1003800095FA174A0198D2F800E08446BEF1000FB2
:1003900006D0BCF1000FA5DCE4E74FF0000C60468E
:1003A000144BDFF854E059071CBF073323F0070351
:1003B0001C4600212EF0070EC2F800E00A4AAEEB00
:1003C0000303C2E90041094ABCF1000F1360054A6A
:1003D000CEE900111360C4E900E383DCC2E700BF8B
:1003E000EC1E0020102202204C2202201C2202209F
:1003F000282202208C2100208421022018B150F8EC
:10040000043C002B00DB704750F8082C002AFAD17E
:1004100010B523F0004382B0A0F1080240F8043C7C
:10042000CDE9002001F042FADFF88CE00198DEF817
:10043000001050F804CC1D4B6144009ACEF8001017
:1004400019461B689A42FBD8D1F804E001EB0E0470
:10045000A24211D002EB0C0E73451FD040F8083CAD
:10046000914218BF0A60124A13680133136002B048
:10047000BDE8104001F022BAF44401EB0C029342B3
:10048000C1F804C0EFD10B4A12689A42EBD00A4679
:10049000D3E90030604413605060E1E7DFF814E016
:1004A000DEF800E07345F3D1D8E700BF4C2202200C
:1004B0002C220220EC1E002010220220002300B576
:1004C00083B0019300F0C2FA019B002BFCD003B073
:1004D00000BD00BF10B500F0B9FA044601F020FBE2
:1004E00028B14FF0E0234FF08052C3F8042D20468E
:1004F000BDE8104000F0B6BA1E4B93F90030002B57
:1005000008DB4FF050410122D1F8880102FA03F3D1
:10051000184200D17047002200B5174883B0C1F8D7
:100520008C3103680192EFF3108C72B6D3E8CFEFF1
:100530000121BEF1000FF9D1C3E84E1FBEF1000F3B
:10054000F4D1BFF35F8F0D4B006819681A60C0E8E3
:100550008F2F8CF310880A4B01AA186800F0AAFBB1
:10056000019B2BB14FF0E0234FF08052C3F8042DD4
:1005700003B000BDE8110020DC1E0020A4210220F1
:100580000C22022010B504224FF0E0240023226147
:100590000520A36102F05EF80722044BA3FB0030A4
:1005A000800901386061226110BD00BFD34D621027
:1005B0004FF0E0234FF08052C3F8042DBFF34F8F6C
:1005C000BFF36F8F704700BF08B500F03FFA044AD1
:1005D000136801331360BFF34F8FBFF36F8F08BDF4
:1005E000EC110020044B1A68013A1A60186800B137
:1005F000704700F037BA00BFEC110020836913F890
:10060000023C662B00D070474FF0E023D3F8882DD2
:1006100042F47002C3F8882DD3F8342F42F04042E0
:10062000C3F8342F00F0F4B900B54FF0123C4FF08E
:10063000807E40F8203C1A4B40F810CC40E9033251
:1006400040F804EC4FF0033C4FF002324FF0013E13
:1006500040E9062C40F81CEC4FF0113C4FF01032F2
:100660004FF0093E40E90A2C40F82CEC4FF0083CD2
:100670004FF007324FF0063E40E90D2C40F838ECC1
:1006800003464FF0053C4FF004326FF0020E40E994
:10069000102C40F844EC43F8481D184600BD00BF3C
:1006A000BD0400104FF0E0234FF07F42002170B5F1
:1006B00084B00291C3F81C2DD3F81C3D1B0E8DF89D
:1006C00007309DF807309DF807301A060BD5029BBE
:1006D000013302939DF807305B008DF807309DF8D9
:1006E00007301B06F3D4029B082B54D0029AC2F1A8
:1006F0000702120202F4E0624FF0E02300244FF000
:10070000504526490E200A60D3F8202D244942F492
:100710007F02C3F8202DD3F8202D012642F07F421E
:10072000C3F8202DC3F81C4D02F0C6FF1D490F2051
:1007300002F0C2FF1C490B2002F0BEFFFFF722FFB0
:100740001A4A1B4B14602A68012103201A7002F018
:10075000E5FF184A43B2137006FA03F3C5F88C316B
:10076000FF21C5F884311A2002F0E2F91A2012495B
:1007700002F0ACF831461A2002F066F800F05EF99B
:1007800001F0DEF9039400F061F9039B002BFCD02B
:10079000002004B070BD0022AEE700BF8C21022013
:1007A000750A0010D5040010F50A0010EC110020A5
:1007B000E9110020E8110020F9040010EFF305838F
:1007C0000F2B84BF014A9B5C704700BFF0E300E041
:1007D0004FF05042074B10681B78834200D070479F
:1007E000EFF30583DBB213B100EB4300704701F078
:1007F00065BC00BFE91100204FF0504C30B501241A
:10080000344A354D92F800E00268344B521BA3FB8A
:100810000253DCF800501B0903EB4303A2EBC302B5
:10082000AE4583B004FA02F22DD040BF2C4C0368D1
:10083000D4F800C0634542D0DCE8CF5F0123002D2F
:10084000FAD1CCE8453F002DF6D1BFF35F8F254D9F
:1008500024682B6813432B600023C4E88F3F036890
:10086000214A92F90020002A06DB01204FF0504473
:1008700000FA02F2C4F880210022C3E88F2F81F32E
:10088000108803B030BD40BF00240368C3E88F4F19
:1008900081F31088EFF305831449DBB20868114631
:1008A00093B101AA019400F005FA019B002BE8D056
:1008B0004FF0E0234FF08052C3F8042DE1E7094CDC
:1008C000206810432060CBE703B0BDE8304000F063
:1008D000BBB900BFE91100200C160020ABAAAAAAE0
:1008E000DC1E0020A4210220E81100200C2202209E
:1008F0002DE9F041DFF8F0C082B09CF800E04FF045
:10090000504CDCF800C0E6450DD04FF0000C0068FC
:10091000C0E88FCF81F310881046194602B0BDE8B9
:10092000F04102F01BBD1E46154604460F468046A8
:1009300002F0AAFD40F2E733B5EB000C66EB0101D3
:100940001CEB030041F100012268B0F57A7F71F1E0
:10095000000314461FDA0023C4E88F3F87F3108892
:100960001D4B5A6A964208D89B6AAB4203D30120BA
:1009700002B0BDE8F0819642F9D14FF0E0234FF08C
:100980008052C3F8042DBFF34F8FBFF36F8F002049
:1009900002B0BDE8F0814FF47A72002305F0D8FE72
:1009A0000028D8D00023C4E88F3F87F310880122A5
:1009B0000090D8F800100948091A0948A0FB01C0A6
:1009C000000900EB4000A1EBC001064802FA01F16A
:1009D000006800F0E3F8C3E700000B400C160020AD
:1009E000ABAAAAAA0C220220E911002008B501F046
:1009F000D9FE044B044A0344136000F0BDF8034BD6
:100A0000186008BD0C160020DC1E00200C220220FD
:100A1000094A1168086806C881F30B88022181F32E
:100A20001488203080F30988BFF36F8F4FF00000E7
:100A300080F3118810470000E01E002062B661B606
:100A4000BFF34F8FBFF36F8F66DF00BFEFF31180EF
:100A50004FF0100181F31188BFF34F8FBFF36F8FF9
:100A6000704700BF80F31188BFF34F8FBFF36F8FC4
:100A7000704700BFEFF309811EF0100F08BF21ED92
:100A8000108AEFF30B82734621E9FC0F55FC0844F2
:100A900057FC096459FC0A8401E9F003144A1368FD
:100AA00019604FF0100181F31188BFF34F8FBFF32E
:100AB0006F8F01F045F84FF0000080F311880C4A69
:100AC000116808681838B0E8F00345EC004447ECBA
:100AD000016449EC0284B0E8FC0F13F0100F08BF6A
:100AE000B0EC108A82F30B8880F309881847000065
:100AF000E01E00201EF0040F0CBFEFF30880EFF3A0
:100B00000980014908470000FD050010F8B50746B7
:100B10000E4600F10C0500F0C9FED7F800E03C6974
:100B200046EA0E03A5423B6021D09E4600260BE01C
:100B30003BB1D30148BF46EA0C0601F015FAD7F8DD
:100B400000E0A542734610D02046026843F00071D1
:100B500022F07F4C12F0806F64680CEA0303E7D048
:100B60009C45E6D0A5427346EED12EEA06033B60D3
:100B7000BDE8F84000F0A2BE00B51C2083B0FFF72E
:100B800099FB034630B10022019040F8042B00F09D
:100B90009DF8019B184603B000BD00BFF0B50546A7
:100BA0000C461E4683B0174600F080FE2B6803EA11
:100BB00004025EB922B32FB323EA04042C6001932C
:100BC00000F07CFE019B184603B0F0BD9442F2D0C9
:100BD000089ABAB1391E18BF0121090641F0806197
:100BE0002143281D01F03AF800F068FE30B301F00F
:100BF000B3FA830112D520F07F43184603B0F0BD4D
:100C0000089A32B9019300F059FE019B184603B0CF
:100C1000F0BD391E18BF01210906E1E7FFF7D4FC3A
:100C2000286804EA000366B91BB117B120EA04047E
:100C30002C600190FFF7D6FC0198DCE7FFF7B8FCC9
:100C4000D5E79C42F5D1F0E7F8B505460E4600F130
:100C50000C0700F02BFED5F800E02C6946EA0E03E5
:100C6000A7422B6021D09E4600260BE03BB1D3016A
:100C700048BF46EA0C0601F077F9D5F800E0A74234
:100C8000734610D02046026843F0007122F07F4C7A
:100C900012F0806F64680CEA0303E7D09C45E6D04D
:100CA000A7427346EED12EEA06032B6000F006FE43
:100CB0002868F8BD00B513465DF804EB0A46014606
:100CC000014801F041BC00BF0D0B00104FF0FF3197
:100CD000002200F10803C0E90131C0E903330260DA
:100CE000704700BF00230361704700BF0A6810B45B
:100CF000531C12D000F108039C465B681C689442A8
:100D0000FAD910BC02684B6001329960C1F808C082
:100D1000CCF80410086102607047D0F810C0DCF80D
:100D20000430EEE703460269D0E90101D2F804C0BD
:100D300081609C45486008BF5160002110681961BE
:100D400001381060704700BF30B51546026C03468D
:100D5000846B83B03AB90268002A2AD0002001349B
:100D60009C6303B030BD75B94068009305F034FC56
:100D7000009B5A68186C996802448A425A60EDD305
:100D80001A685A60EAE7C068009305F025FC009BEA
:100D9000DA68196C1868521A8242DA6002D29A68CC
:100DA000521ADA60022DD9D1002C18BF013C002064
:100DB000D5E780680192009301F086F9DDE9003201
:100DC0009A60CCE72DE9F043064685B0FFF7FCFBBF
:100DD00096F8454064B2002C1ADD06F1240707E0BE
:100DE000AA6BEB6B03969A4238D3013CE4B27CB118
:100DF000B56C002DF4D1736A53B1384601F03EF85A
:100E00000028F2D001F054F9013CE4B2002CEFD1FB
:100E1000FF2386F84530FFF7E5FBFFF7D5FB96F893
:100E2000444064B2002C03DC10E0013CE4B26CB13D
:100E300033695BB106F1100001F020F80028F4D00E
:100E4000013CE4B201F034F9002CF1D1FF2386F823
:100E5000443005B0BDE8F043FFF7C4BB95F84580CA
:100E60002A6CAB6B4FFA88F803F101099AB92B6829
:100E7000002B37D0B8F1FF3FC5F8389029D16B6A05
:100E8000002BB2D005F1240000F0F8FF0028ACD010
:100E900001F00EF9B8E7686803A905F09DFB6B68DF
:100EA0002A6CC5F838901344AA686B60934209D342
:100EB0002B68B8F1FF3F6B60E1D000F02BFE40459E
:100EC00093D90AE0B8F1FF3FF7D16B6A002B8CD0C1
:100ED000D8E700F01FFE804587D208F1010885F8A9
:100EE000458082E7A868019301F0EEF8019BB8F114
:100EF000FF3F0246AB60C5F8389007D16B6A93B9E3
:100F0000002A3FF472AF01F0D3F87DE7019000F0C2
:100F100001FE019A404584BF08F1010885F845802B
:100F2000002AF0D161E7019005F1240000F0A6FF4E
:100F300000287FF467AF019A002AE4D155E700BF8B
:100F400030B5836C85B0996BDA6B0390914203D313
:100F50000022104605B030BD93F845101A6C986B0E
:100F60004CB2054602B3586803A9019305F034FB5F
:100F7000019B5A68196C0A4499685A608A4201D3E5
:100F80001A685A600022691C9963611C19D1596A58
:100F90000029DED003F12400019200F06FFF002849
:100FA000019A18BF0122D4E71A68002AEAD198688A
:100FB0000292019301F088F8DDE901329A6002465D
:100FC000E1E7CDE9012300F0A5FD8442019AC0D2FA
:100FD000029B611C83F84510BBE700BF002844D08A
:100FE000A1FB00C3002B40D101FB00F313F1550F0F
:100FF0003BD830B5044683B003F154001546019147
:10100000FFF758F90346002832D00199002933D060
:1010100000F15402C3E90F411A6000240193FFF765
:10102000D3FAFF22019B9C63186C83F8442083F859
:101030004520DA6B196800FB02F2101A59600A4465
:101040000144C3E9022103F11000FFF73FFE019BB9
:1010500003F12400FFF73AFEFFF7C4FA019B18469C
:1010600083F850509C6403B030BD0023184670478D
:101070000023184603B030BD0246CBE72DE9F84304
:10108000044691461D460E46FFF798FBFFF7DEFC2F
:10109000A26BE36B80469A4208D3022D06D000244F
:1010A0004046FFF7DFFC2046BDE8F88394F8453062
:1010B00031462A465EB22046A76BFFF745FE731CF9
:1010C00015D1A36CE3B1022D00D14FB92046FFF733
:1010D00037FF28B1B9F1000F02D00123C9F8003061
:1010E00001244046FFF7BEFC2046BDE8F88300F02F
:1010F00011FD8642F4D2731C84F845300124F0E7D8
:10110000636A002BECD004F1240000F0B7FE002845
:10111000E0D1E5E7F0B5044685B00F460192FFF750
:1011200053FAA56B002D53D1019BA3B302A800F085
:1011300077FF2E46FFF756FA00F0B8FBFFF744FAA8
:1011400094F84430FF2B08BF84F8446094F845308D
:10115000FF2B08BF84F84560FFF744FA01A902A8F5
:1011600000F06AFFE0B9FFF72FFAA36B2BBBFFF784
:1011700039FA019904F1240000F010FD2046FFF730
:1011800021FE00F09BFB00B3FFF71EFAA56BFDB933
:10119000019B002BCED1FFF725FA002005B0F0BD52
:1011A0002046FFF70FFE00F089FBFFF70DFAA36B57
:1011B000002BF0D0FFF716FAE6E7FFF713FA204608
:1011C000FFF700FE00F07AFBDEE7FFF7F1F9DBE75F
:1011D000226C5AB1E168A36811449942E16028BFCA
:1011E0002168384628BFE16005F0F6F92369013D22
:1011F000A56323B9FFF7F6F9012005B0F0BD04F1AE
:10120000100000F03BFE0028F4D0FFF7D1F9F1E721
:10121000002953D0434B5A68904270D01A6810B4DA
:10122000002A2BD0DA68904279D09A68002A3FD001
:101230005A69904271D01A69002A40D0DA69904206
:1012400063D09A69002A40D05A6A904242D01A6A02
:10125000002A43D0DA6A904259D09A6A002A42D0D2
:101260005A6B904255D01A6B002A41D0DA6B9042EB
:1012700051D09B6B002B40D010BC7047DA68904275
:101280004DD05A69904248D01A46DC69A0423CD001
:101290005C6AA0421ED0DC6AA04238D05C6BA042DF
:1012A00037D0DC6BA04236D010BCC2E900107047CA
:1012B0005A69904231D003F10802E6E77047DA69D3
:1012C000904222D003F11002E2E75A6A904201D024
:1012D000154AE0E7042203EBC202E5E7DA6A90422E
:1012E00015D0124ADAE75A6B904212D0104AD8E76A
:1012F000DA6B90420FD00F4AD6E70F4AD4E70022AC
:1013000003EBC202C2E9001070470322E3E70522A3
:10131000E1E70622DFE70722DDE70222DBE7012221
:10132000D9E700BFF0140020081500201015002098
:1013300018150020201500202815002070B504463F
:101340000D461646FFF740F994F84430FF2B04BFD2
:10135000002384F8443094F84530FF2B04BF002369
:1013600084F84530FFF73EF9A36B23B12046BDE872
:101370007040FFF727BD04F124003246294600F0F3
:10138000EDFC2046BDE87040FFF71CBD2DE9F041A3
:101390000446FFF719F93A4A3A4E136801331360CD
:1013A0003368002B3BD0384DE26A2B6883B3374F4C
:1013B0000123374802EB820193400268DFF8ECC05A
:1013C0000132026007EB81006264DCF80080426851
:1013D00043EA0803A260D2F808E0CCF8003057F8DE
:1013E000213004F1040CC4F80CE00133CEF804C041
:1013F000C2F808C0606147F82130FFF7F3F82B68A6
:1014000023B13268E36AD26A9A4210D3BDE8F08110
:1014100033681E4FDB6A934298BF3460C8E734607C
:101420001368012B07D0E26A184F174DC0E7BDE8DB
:10143000F041FFF7BDB8154F3D4607F52078284627
:101440001435FFF743FCA845F9D1DFF86480114D4E
:101450004046FFF73BFC2846FFF738FC0E48FFF7F5
:1014600035FC0E48FFF732FC0D48FFF72FFC0D4B03
:10147000E26AC3F800800C4B1D60034D98E700BF83
:10148000A8210220E01E002048220220F81E002091
:10149000B4210220F82102203422022068220220F6
:1014A00054220220E81E0020F01E0020B821022055
:1014B000E421022080B5124D124F134EDFF84C800C
:1014C00014E0FFF781F8FB68DC68201DFFF72AFCB9
:1014D0003368013B33602B68013B2B60FFF782F8D8
:1014E000206BFEF78BFF2046FEF788FF2B68002B52
:1014F000E7D1D8F80030012BF8D9FFF759F8F5E714
:10150000AC21022068220220A8210220F81E00201F
:101510002DE9F04F5E4B83B01A6802F1010EC3F85B
:1015200000E0BEF1000F77D05A4B1A689645C0F024
:101530008880594C22681268002A00F0A580574E16
:101540004FF0000C4FF00108CDE900635448554DB1
:1015500055E0D3F81490D3E90261B1609E684E6003
:10156000D9F80410914204BFD968C9F80410D9F819
:1015700000100139C9F80010D3F82890B9F1000F14
:1015800012D0D3E90761B160DE694E600026D9F858
:101590000410B94204BF196AC9F80410D9F8001040
:1015A0009E620139C9F80010D96AD5F8009001EBA4
:1015B000810700EB870A08FA01F141EA0901DAF82C
:1015C00004902960C3F80890D9F808B050F82710A3
:1015D000C3F80CB0CBF80420C9F80820009A0131F8
:1015E0001268C3F814A040F827102768D96AD26A95
:1015F0003B68914288BF4CF0010C002B3ED0236821
:10160000DB68DB6859681A1D8E4503F11807A0D204
:10161000DDE90063196018E01F4B234A1868116860
:101620001960224910600A6801320A601A6812685B
:10163000F2B94FF0FF32174B1A601A689645BFF4A3
:1016400078AF4FF0000C1648144E3368184ADB6A26
:10165000126803EB830350F82300012898BF002A87
:1016600014BF0120002040EA0C0003B0BDE8F08F59
:101670001A68084BD26812681A6056E7DDE9006301
:101680004FF0FF321A60E0E794460548034EF7E753
:101690007C22022020220220E81E0020E01E0020E2
:1016A000F81E0020B8210220F01E00202422022073
:1016B000882202202DE9F8439500804628460E46F0
:1016C0009946FEF7F7FD00287BD007467020FEF70D
:1016D000F1FD0446002871D07022002104F038FF8B
:1016E00038462A462763A52104F032FF236B043DC8
:1016F0002B4423F00707002E3ED0337884F8343093
:10170000002B36D0737884F8353093B3B37884F8EF
:10171000363073B3F37884F8373053B3337984F8C1
:10172000383033B3737984F8393013B3B37984F82C
:101730003A30F3B1F37984F83B30D3B1337A84F89B
:101740003C30B3B1737A84F83D3093B1B37A84F806
:101750003E3073B1F37A84F83F3053B1337B84F871
:10176000403033B1737B84F8413013B1B37B84F8DC
:101770004230002384F84330089D201D1F2D28BFD0
:101780001F25E562E564FFF7ADFAC5F1200504F118
:101790001800FFF7A7FA4B4642463846216BA56171
:1017A00024616462FEF740FF099B206003B11C6066
:1017B0002046FFF7EBFD0120BDE8F8833846FEF731
:1017C0001DFE4FF0FF30BDE8F88300BF2DE9F0416A
:1017D0004FF40060FEF76EFD00283FD006467020F3
:1017E000FEF768FD044600283CD0002570222946FB
:1017F000DFF8B48004F0ACFE4FF40062A52130465F
:10180000266304F0A5FE84F8385084F84350E5625E
:10181000E564201DC4F83480266BFFF763FA04F1F9
:101820001800FFF75FFA4FF0200C06F2FC762B460B
:10183000174A216BC4F818C026F0070024616462BF
:10184000FEF7F2FE0346134F2360204601253C605D
:10185000FFF79CFD00F034FEA8420AD00E4B1B6837
:10186000BDE8F0813046FEF7C9FD0B4B1B68BDE8B3
:10187000F081FFF7EBF84FF0FF3400220749084BE7
:10188000084804600D601A60FEF70CFFE6E700BF31
:10189000B5140010142202206069001048220220B2
:1018A0007C2202202022022049444C45024A13682F
:1018B00001331360704700BFB02102202DE9F04FC3
:1018C000594C83B0FEF780FE2368013B2360D4F8B7
:1018D00000E0BEF1000F40F08E80544B1B68002BDF
:1018E00000F0898052480368002B00F099800125A0
:1018F000504BDFF858C150490193C368DB681A6A3E
:10190000DE699F6AB260DE6903F1180856607A6882
:10191000424504BF1A6A7A603A68C3F828E0013A7F
:101920003A60D3F81490D3E9022797609A68DCF8FC
:1019300000807A60D9F804201F1DBA4204BFDA681B
:10194000C9F80420D9F80020013AC9F80020DA6A61
:1019500002EB820901EB890A05FA02F242EA080267
:10196000DAF80480CCF80020C3F8088051F8292068
:10197000D8F808B00132C3F80CB0CBF80470C8F83E
:101980000870C3F814A041F829202C4A1768DA6AB5
:10199000FB6A9A4236D9019B1D600368002BACD1CB
:1019A000274B1A681268002A35D01A68254BD2686E
:1019B00012681A60244E3568A5B10127DDF804804D
:1019C00006E0FFF7A5FD08B1C8F80070013D08D09A
:1019D0002368002BF5D03368013D03F10103336028
:1019E000F6D13560019B1B682BB1144B01241B6899
:1019F000FEF7DEFD00E00024FEF7F4FD204603B014
:101A0000BDE8F08F0368002B7FF477AF0C4B1A68AA
:101A10001268002AC9D14FF0FF320A4B1A60C9E799
:101A2000044B0193C6E700BFB0210220A821022089
:101A30003422022088220220F81E0020E01E00200E
:101A4000E81E00202022022030220220B82102209D
:101A500008B9FEF7ADBD70B5244982B00A6801909F
:101A600001320A604FF0000C214922480B68224ADB
:101A70001C46036821481D46036810681E4680F80E
:101A80006DC010680430FFF74DF91B4A019B50B937
:101A90004FF0010C10681A49C06A0CFA00FC086883
:101AA00020EA0C00086011681B194B6010D2116805
:101AB000284604310193FFF719F9124A019B116876
:101AC0008B4238BF1360FFF7F9FE50B102B070BD12
:101AD000116830460431FFF709F9FFF7EFFE0028DF
:101AE000F4D102B0BDE87040FEF762BDB021022023
:101AF0007C220220E81E0020E01E0020F01E0020B4
:101B0000B821022020220220014B1868704700BF34
:101B10007C220220014B1868704700BFA8210220D8
:101B2000054B1B680BB9FFF7F3BC044A0020136890
:101B300001331360704700BFB02102203022022021
:101B4000114B1B681BB10122104B1A6070470F49E3
:101B50000F4A0B601368B3FA83F30E4AC3F11F03F5
:101B600003EB830302EB8301486801F10802436839
:101B700093424B6008BFCB68074A08BF4B60DB68E5
:101B800013601368704700BFB02102208822022032
:101B9000B8210220F81E0020E01E00202DE9F041AF
:101BA000274C0D4621681831FFF7A0F82549264A31
:101BB00009681268254B174600221B680E46984696
:101BC0002368206883F86D200430FFF7ABF840B934
:101BD000012223681E49DB6A9A400B6823EA02034C
:101BE0000B606B1C15D02368AD1921685D600AD2AB
:101BF00038460431FFF77AF8164B1A68954238BF19
:101C00001D60BDE8F0814046BDE8F0410431FFF7BA
:101C10006DB8114B21685A68D4F800C08A602068FA
:101C2000216825681C68043001341C609468043104
:101C3000CCF80C40606091606B61BDE8F08100BF42
:101C4000E01E00207C220220E81E0020F01E002062
:101C5000B821022020220220542202202DE9F04F38
:101C60000025374C41F00041266883B02368B161FC
:101C700091464168334A2768D961D4F800E0DFF81B
:101C8000D4A0236826681268DFF8CC809346DAF87F
:101C9000002003F1180C03689246D8F80020D1F810
:101CA000088001330EF1180EC7F82080C8F804E050
:101CB000C1F808C0B06203602368206883F86D50E3
:101CC00004300192FFF72EF840B9012123681E4825
:101CD000DB6A9940036823EA01030360B9F1FF3F1F
:101CE00018D0236819EB0B0521685D600BD25046B4
:101CF0000431FEF7FBFF154B19688D4238BF1D609C
:101D000003B0BDE8F08F0198043103B0BDE8F04F97
:101D1000FEF7ECBF0E4B21685A6826688A6020687F
:101D2000216825681C68043001341C609468043103
:101D3000F460606091606B6103B0BDE8F08F00BF3C
:101D4000E01E00207C220220B82102202022022056
:101D500054220220E81E0020F01E00202DE9F04F42
:101D60004FF0000E3E4C131E25682768226883B092
:101D700002F1180C019342680368EA6103F101095A
:101D800008BF0D4621682368364E0093364B3668EF
:101D9000DFF8E4801B6801F118019A46D8F800309A
:101DA000D2F808809B46009BC7F82080C8F804C082
:101DB000916098622368C0F80090206883F86DE015
:101DC00000F1040018BF4FF0FF35FEF7ABFF40B93C
:101DD000012223682549DB6A9A400B6823EA020343
:101DE0000B606B1C18D02368AD195D600CD22168A4
:101DF00050460431FEF77AFF1D4B1A68954200D217
:101E00001D6003B0BDE8F08F58462168043103B06F
:101E1000BDE8F04FFEF76ABF019B63B92368721EED
:101E20005A60002EF0D1216850460431FEF75EFF63
:101E30000F4B1B68E5E70F4B21685A6826688A60DC
:101E40002068216825681C68043001341C6094688F
:101E50000431F460606091606B6103B0BDE8F08FA5
:101E6000E01E00207C220220E81E0020B821022073
:101E70002022022054220220F01E0020F0B54FF054
:101E8000000EC368DB689A6AD3E907018160D2F863
:101E900004C0DC6903F118004C60844504BF196A72
:101EA00051602B49D1F800C01168C3F828E001390E
:101EB0001160BCF1000F3BD1D3E902015A69816086
:101EC0009C68506803F1040E4C60704508BFD968E7
:101ED000204D08BF516011682E6801391160012240
:101EE000D86ADF6A1C4900EB800001EB8004BA402D
:101EF000D4F804C032432A6051F82020C3F808C047
:101F0000551CDCF80820DA60C2F804E0CCF808E0E0
:101F10005C6141F820501149DA6A0B68DB6A9A4229
:101F200004D901230E4A18461360F0BD0020F0BD0D
:101F30000C4AD2F804C0C3F81CC0DCF808101962BF
:101F400048601168CCF8080001319A621160E2E73C
:101F5000B0210220B8210220F81E0020E01E00203F
:101F600088220220342202202DE9F043D0E90154D6
:101F700000274FF00109026941F0004183B0016080
:101F80005168C36881421168AC60656008BF5460E5
:101F9000D3E902650139076111605A69B560996832
:101FA0001C1D696051681A4DA14208BFD9682F688D
:101FB00008BF51601168019701391160DA6A15494B
:101FC00002EB820001EB8006D6F804E051F82070A5
:101FD000C3F808E0DEF8088007EB090C019FC3F89E
:101FE0000C8009FA02F2C8F80440CEF808405E619D
:101FF00041F820C0D96A3A43074B2A601B68DB6A64
:10200000994284BF054BC3F8009003B0BDE8F0834C
:10201000B8210220F81E0020E01E002088220220A5
:10202000034A044B12681B68C0E90023704700BFD5
:10203000242202207C22022070B50E460446FEF7C0
:10204000C3FA184A184BD2F800E0196891F86D10DD
:1020500041B100221B6883F86D200124FEF7C2FA0B
:10206000204670BD3368591C16D0D4E9005C0F4976
:102070000868854204D0F44502D800233360ECE7B9
:10208000AEEB0C008342F8D90968A3EB0E0312688B
:1020900063443360C4E900120024FEF7A3FA20462B
:1020A00070BD00BF7C220220E01E002024220220FE
:1020B0000122014B1A60704788220220014B1868E8
:1020C000704700BFE01E002038B1036DC16AC26CCA
:1020D000013B9142036500D00BB100207047F0B581
:1020E00083B00190061D0430FEF71CFE019B18B35F
:1020F000DFF860C0D96C164801EB810EC1F12002F7
:102100009A61D96200EB8E04626850F82E509A6092
:10211000013501959568DCF80070DD606E60019D09
:1021200096605C6140F82E50012000FA01F23A43BB
:10213000CCF8002003B0F0BD0121DFF818C0D86A48
:10214000DCF80020814022EA0102CCF80020D1E72F
:10215000F81E0020B8210220044A11681368126892
:10216000DB6A8869C3F1200393617047E01E002099
:102170002DE9F04FAC4FDFF8B8B2DFF8B882AB4DC5
:1021800087B03B681C68002C40F01D81FFF78EFB78
:10219000FFF7BAFCDBF800308146834247D8D8F815
:1021A0000030CBF800001A68B2FA82F252092868AF
:1021B000A4EB0901FFF7C2F8FFF780FB002800F04D
:1021C00024810023CDE90233CDE9043300222868BD
:1021D00002A9FEF79FFF0028D3D0029B002BC0F27C
:1021E000E980DDF810A0DAF814301BB10AF1040020
:1021F000FEF798FDFFF788FCDBF80030019098426D
:1022000043D3DDE90123013BCBF80020082BDDD8C7
:10221000DFE803F06161C0A5C76161C0A50022F0DD
:1022200001028AF828205046DAF8203098473B68A7
:102230001A68002A00F0D980DA68D2F80CA0146875
:102240000AF104063046FEF76DFD9AF82820510782
:10225000E5D503E05046DAF820209047DAF8182058
:10226000CAF810A01119A418CAF80410F2D3314604
:10227000D8F80000FEF73AFDD5E721F0010189F812
:1022800028104846D9F8203098473B68196800293B
:1022900000F0B580D968D1F80C900C6809F10406FB
:1022A0003046FEF73FFD99F828104807E5D503E0D2
:1022B0004846D9F820108847D9F81810C9F8109066
:1022C00008196418C9F80400F2D33146D8F80000A0
:1022D000FEF70CFDD5E79AF828000399DAF81840C4
:1022E000019A0B1940F001068AF828602CBF0126DC
:1022F00000269342CAF80430CAF810A000F2888081
:10230000511A8C423FD8410712D420F001008AF8BC
:1023100028005046DAF82030984757E78C4200F200
:10232000C780DAF82030504698473346DAF818402C
:10233000019AE6182CBF01200020B242A2EB030153
:10234000CAF80460CAF810A0E8D29A4201D2002864
:10235000E7D038680AF10401FEF7C8FCD9E7039911
:10236000019A9AF82830881843F0010390428AF8BD
:102370002830CAF81810CAF80400CAF810A04CD8BF
:1023800000293FF423AFD8F800000AF10401FEF75A
:10239000ADFC1BE79AF8283023F001038AF82830B7
:1023A00014E79AF828309A0778D523F001038AF8C1
:1023B00028300BE7039BDDE904019847029B002BC3
:1023C000FFF604AF0DE7DB681C68FFF76FFAFFF755
:1023D0009BFBDBF80030814683423FF628AF844206
:1023E000CBF8000028D90022E1E6D8F80020CBF88D
:1023F00000903A60C8F80030FFF760FAE1E6D8F8DC
:102400000010C8F800303960FBE6FEF7D1F8D8E6D6
:10241000914202D9002E3FF476AF38680AF10401E8
:10242000FEF764FCD2E600BFE41E002080220220FA
:1024300018220220F41E0020FFF740FA3B68DB68F8
:10244000DE68331D18460193FEF76CFC96F82820D1
:1024500053070DD422F0010286F828203046336A53
:102460009847AEE681421DD83046316A88475446C7
:10247000B169A9EB040014EB010A2CBF012300236E
:10248000CA45C6F804A03661ECD94C4501D9002BE9
:10249000EAD001993868FEF729FCDFE75046FDF7DE
:1024A000ADFF93E60199D8F80000FEF71FFCD5E7D1
:1024B000D8F800000AF10401FEF718FC29E700BF74
:1024C00010B5184C84B0FEF77FF8226882B1FEF791
:1024D00089F8206850B11F241348002301904FF45D
:1024E0008062124912480094FFF7E4F804B010BD6E
:1024F00010480392FEF7EAFB0F48FEF7E7FB0F498F
:102500000D480F4B08600B4810211860039A0A20F1
:10251000FEF764FD20600028D9D00A49FEF778FE56
:10252000D5E700BF8022022084220220EC67001041
:1025300071210010BC210220D0210220F41E0020B5
:10254000E41E0020E467001070B56FF0010C9646A1
:1025500004460D461A46074B84B0694618680023A6
:10256000CDE90145CDF80CE0CDF800C0FEF786FDC1
:1025700004B070BD8022022000EB400C4FEA8C0CAE
:102580000CF1804C0CF5803C70B51E46DCF8043034
:10259000041FB3F5803F38BF4FF48033E4B238BF37
:1025A000CCF80430012C2ED94FF40065284B0CF5E3
:1025B000405ECEF8005053F820E0BEF1000F17D176
:1025C000DCF800E0012C8EEA421202F0E0020CF589
:1025D000805ECEF800202BD94FF4006143F82060D4
:1025E0004FF480330CF500521160CCF8043070BD0C
:1025F0005D69B5FBFEFE0EF1010E0EEB4E0EBEF157
:10260000030EFCD2DCE70129CED103240CF54053A4
:102610001C60DCF80830DB07FBD5DCF800300CF57B
:10262000805E83EA421303F0E003CEF80030084BEB
:102630000122DCF800404C4004F00304CEF80040D6
:1026400002FA01F1DCF808200A42FBD0C4E700BF1F
:10265000301A0020014B53F820007047301A002038
:102660000FB400B5084883B001F02CFC049B3BB1CB
:1026700005A91846019101F0C3FA044801F022FCB3
:10268000012001F0D5FA00BFF467001004680010C3
:10269000EFF3108072B6064BD3E8CF1F012200295A
:1026A000FAD1C3E8412F0029F6D1BFF35F8F7047FD
:1026B000171600200023034AC2E88F3F80F31088DA
:1026C000704700BF1716002070B51646EFF3108450
:1026D00072B6DFF848E0DEE8CF2F0123002AFAD1F6
:1026E000CEE8423F002AF6D1BFF35F8F012301F00D
:1026F000070CCA0803FA0CF310F802C01CEA030521
:1027000008D14CEA030C00F802C0CEE88F5F84F3D6
:10271000108870BD3046FFF7A3FF00BF17160020DA
:10272000F8B50F461946EFF3108672B61C4DD5E882
:10273000CF4F0123002CFAD1C5E8443F002CF6D13D
:10274000BFF35F8F8A421BD8012402E0013291421D
:1027500022D3D30810F803E002F0070C04FA0CFCB3
:102760001EEA0C0FF2D14EEA0C0E00F803E0104600
:102770000023C5E88F3F86F31088984207DBF8BD39
:102780000023C5E88F3F86F310884FF0FF30002FFD
:10279000F5D00698FFF764FF4FF0FF30E8E700BF81
:1027A00017160020044A1078431CDBB2182B28BFF0
:1027B00010231370704700BFF011002000B5DFF840
:1027C0001CC083B001461F231822CDF800C0024868
:1027D000FFF7A6FF03B000BD281A0020086800100C
:1027E0004FF0E022936843F000539360704700BFBE
:1027F0000021044B03F12002C3E88F1F01339342F1
:10280000FAD170470C1600204FF0E0234FF08032D1
:10281000C3F80024C3F80424C3F80824C3F80C2424
:10282000C3F81024C3F81424C3F81824C3F81C24D4
:10283000C3F82024C3F82424C3F82824C3F82C2484
:10284000C3F8302462B67047012300F01F029340A2
:10285000400941B1800000F1604000F56140C0F8DE
:10286000803103607047024A203042F820307047C0
:1028700000E100E00123064A410952F8212000F05E
:102880001F008340134214BF01200020704700BF87
:1028900000E100E001224309034900F01F008240EB
:1028A000403341F82320704700E100E0054A103032
:1028B0009268054B52F82000C01A2F288CBF0020C8
:1028C0000120704700ED00E0F411002010B582B047
:1028D000EFF3108472B6164BD3E8CFCF0122BCF1D0
:1028E000000FF9D1C3E84C2FBCF1000FF4D1BFF3B6
:1028F0005F8F104A10309268DFF83CC052F82020F9
:10290000624508D0914206D0CDE9000101F062F89D
:102910000199074B0098074A926842F82010BFF3CC
:102920005F8F0022C3E88F2F84F3108802B010BDA0
:102930001516002000ED00E0110100102DE9F04F08
:1029400006468A46154683B0EFF3108872B6714F7B
:10295000D7E8CF2F0123002AFAD1C7E8423F002A47
:10296000F6D1BFF35F8F6C4991F90020002A7BDB21
:102970006A4802EB420400EB840393F806C0103669
:1029800081F800C06649A40089684FEA420B51F8FB
:1029900026E0AEEB00012F292ED962498E4540F08A
:1029A000848043F0010E604B02340444043B1B1B43
:1029B000C3F34A036FEAC3434FF421416FEAD343A1
:1029C0005A4420F8221000EB820253804BF6015348
:1029D0009380FF23D571C2F808A09371504B9B6878
:1029E00043F826E0BFF35F8F0023C7E88F3F88F3EB
:1029F000108803B0BDE8F08F2EF0010C9CF8071092
:102A0000A9425AD9B14601941E4603E0CB79AB42A4
:102A100030D98C469CF9064004EB4401002C00EBB5
:102A20008101F3DA00944BF6015433464E460CF123
:102A30000409043BA3EB0903C3F34A036FEAC3434E
:102A40006FEAD343ACF80430384B0BEB02018CF83F
:102A5000062040F82130009B00EB810294809371A6
:102A6000D571C2F808A0B9E700F0B4FF2A4991F97E
:102A700000207DE76FF007010094019C33460C1B9A
:102A80006146241A019431F8044F4E4644F30A0477
:102A9000023401EB4404894601990C44C4F34A040E
:102AA0006FEAC4446FEAD444C3E7CDE9002300F0E1
:102AB00091FFDDE90023194873E71B4AA11CDD7172
:102AC0000144043A251D521A0544ACF10401491B86
:102AD000C1F34A016FEAC141C2F34A026FEAC2423E
:102AE0006FEAD1414FF4214E6FEAD24299800F49EB
:102AF00020F804E05A804AF6AA256246121A52418A
:102B000055432D0DC3F808A09D7143F0010ECCF87C
:102B1000001063E7151600208F220220F411002018
:102B200000ED00E011010010241200200148804750
:102B30004FF0FF0C20F0030303F1604303F56443FF
:102B400000F003001A68C0000CFA00FC22EA0C0234
:102B500081400A431A6070472DE9F041EFF3058385
:102B6000DBB29E46EFF3108572B62949D1E8CF2F2C
:102B70000123002AFAD1C1E8423F002AF6D1BFF36F
:102B80005F8FDFF89C8040F00106D8F808704AF6A5
:102B9000AA2357F82E7004461E4AA41A64416343C0
:102BA0001B0DB7425BB21ED092F906409C4220D06A
:102BB00092F912409C4227D092F91E409C4225D0A7
:102BC00092F92A409C4208BF032413D0124A0024E1
:102BD00092F800C0137080F806C0C1E88F4F85F3EB
:102BE0001088BDE8F081D8F808200C4C42F82E403F
:102BF000ECE7002404EB440402EB8402FF2494710C
:102C00004BF601549480E1E70124F3E70224F1E755
:102C100015160020F41100208F220220110100104F
:102C200000ED00E000B5DFF824C083B001460523C5
:102C30000022CDF800C00448FFF772FD0028A8BFAD
:102C4000C0F1330003B000BD9322022024680010BD
:102C5000014B0B44036070470C160020F8B5124C72
:102C6000124DAC4211D24FF0FF36002723686BB1F2
:102C7000FFF798FD01462046FFF7EAFF66602772DE
:102C8000BFF35F8F0C34AC42F0D3F8BDFFF78AFD81
:102C900001462046FFF7DCFF6660BFF35F8F083414
:102CA000AC42E3D3F8BD00BF8C1200209C12002080
:102CB00010B50446FFF776FD01462046FFF7C8FF32
:102CC0004FF0FF336360BFF35F8F10BD10B5044654
:102CD0000120FFF773FD034B03442360BFF35F8FB5
:102CE00010BD00BF0C160020024B0B440360BFF365
:102CF0005F8F70470C1600202DE9F04F2DED028BF1
:102D000085B0EFF30583DBB2103B9A0818BF0122B0
:102D10004FF0010103F0030B18BFA94CA94B08BFEA
:102D2000A94C0BEB820253F8225001FA0BF204F586
:102D300041539FEDA18B02925A602FE0AB8819049A
:102D400040F19480AB79002B40F0DE80B5F908604B
:102D5000002EC0F21C816B6906EB460603EBC6032E
:102D6000D3E90267B7F1FF3F08BFB6F1FF3F0ED0CE
:102D700004EB8B01A36A0A69D21AF31A934205D3B2
:102D80000123226A03FA0BF3134200D10E6120469D
:102D900000F072FBB042B941C0F2F980B5F90860A9
:102DA000029B002EE363C9DBD5F8149006EB460ABC
:102DB00009EBCA07BB682046D7F80C80019300F0E6
:102DC0005BFB019B984271EB0801B7DBB8F1000F88
:102DD000C0F2C080D7E904317C4A934200F0F88009
:102DE0007A88B5F9080092B242EA00409847024654
:102DF0000B4652EA030100F0AD80002B80F2CD803B
:102E00000199B1EB020E68EB030839F93A30C7E9D2
:102E100002E8002B92DB686903EB430200EBC2027D
:102E2000D2E90271BE4578EB010C4FEA430285DB23
:102E3000AC462CF8083F06E003EB430100EBC10170
:102E40005A00D1E90271BE4578EB01011A4405DB55
:102E500030F9323000EBC20C002BEDDA29F83A30B1
:102E6000ACF80060AB8819043FF56CAF2B69EFF349
:102E7000108272B6D3E8CF0F01210028FAD1C3E83F
:102E8000401F0028F6D1BFF35F8F4FF6FF76A8886A
:102E90000023296900B2AE80C1E88F3F82F3108819
:102EA0009842FFF64FAF0746A1466E6905F1080844
:102EB000B5F9083007EB470E002BC44606EBCE02EF
:102EC00015DBD2E90240AA46019704E036F9353015
:102ED0009446002B09DB03EB430506EBC502D2E960
:102EE0000271BC4270EB0101F0DA5546019FACF86B
:102EF000007036F93E7026F83E30002FD8DAAB79F4
:102F00004C46002B3FF422AF0023AB71B5F90860AB
:102F1000721C33463BD0686905F1080E03E08E460B
:102F20005A1C3FF415AF03EB430200EBC2014F887C
:102F30009C463F0430F93230F1D5664581ED028B75
:102F4000EED0AEF800302989664620F83210A5F898
:102F500008C0E5E739F83A302B812B69EFF310828E
:102F600072B6D3E8CF0F01210028FAD1C3E8401F81
:102F70000028F6D1BFF35F8F6B88296929F83A30B2
:102F800000236E80C1E88F3F82F31088D6E640BFF1
:102F900005B0BDEC028BBDE8F08F20460393019293
:102FA00000F06AFA019A039B10EB020E43EB010852
:102FB0002BE700BFAFF30080FFFFFFFFFFFFFFFF26
:102FC00000800B40BC1E002000000B40F92C0010BC
:102FD00008460B69039198470028BBD00399D1E9B3
:102FE000002306E70B4808B50368EFF3108172B6BB
:102FF000D3E8CFCF0122BCF1000FF9D1C3E84C2FA9
:10300000BCF1000FF4D1BFF35F8FFDF7F5FB00209B
:10301000002108BD8021002038B5384B1C692CB137
:10302000BDE838400A213648FFF712BE0321354873
:1030300000F010FA334D314BDD60FFF7B3FB324A3D
:103040004FF0504E024403202C4B4FF00F0C1870E1
:103050001A61DEF800204FF6FF715A705A69A3F822
:1030600002C014834FF00204A2F848404FF0040459
:10307000A2F878404FF00504A2F890404FF0060403
:10308000A2F8A8404FF00704A2F8C0404FF009048E
:10309000A2F8F0404FF00A04A2F808414FF00B04E8
:1030A000A2F820414FF00C04A2F838414FF001047F
:1030B00014864FF00804A2F8D840144C4FF00D0EBF
:1030C0004FF00E0C9C6008249980A2F850E1A2F801
:1030D00068C1A2F8600011800D4A2C620D49D360CE
:1030E000FFF7F4FB01210320FFF7AEFB0A4B0A2197
:1030F0001C640348BDE83840FFF7AABD3C1200201D
:103100008021002000000B400C160020FFFF100063
:10311000BC1E0020F92C001000200B400048704716
:103120003C120020F0B583B09DF828401D460346B0
:1031300054B9CDE9000200F0A7F9019A009B824240
:1031400065EB0101A1425BDB1969EFF3108072B6F8
:10315000D1E8CF6F0124002EFAD1C1E8464F002EEE
:10316000F6D1BFF35F8FB3F902401F69002C3EDB3D
:10317000D3F814C004EB440E3CF83E1000265980EE
:103180000CEBCE01C7E88F6F80F310884888C1E947
:1031900002250130C0F30E00012838BF0120089A33
:1031A00048800A61099A40EA04404A611A69EFF3CB
:1031B000108172B6D2E8CF7F0125002FFAD1C2E884
:1031C000475F002FF6D1BFF35F8F9A882CF83E201F
:1031D0001A699C80C2E88F6F81F3108801211C78E6
:1031E000DA68A14002F50153596003B0F0BD002335
:1031F000C7E88F3F80F310884FF0FF3003B0F0BD79
:10320000204603B0F0BD00BFF0B516461F46026968
:103210000346EFF3108072B6D2E8CF4F0121002CA5
:10322000FAD1C2E8441F002CF6D1BFF35F8FB3F987
:1032300002101D69002945DBD3F814E001EB4102BF
:103240003EF832400EEBC20C5C800024C5E88F4F84
:1032500080F3108805983546CCF8100006983E4655
:10326000CCF81400BCF80200CCE902560130C0F3DF
:103270000E00012838BF0120ACF8020040EA0140EE
:10328000D3F810C0EFF3108572B6DCE8CF7F0126CB
:10329000002FFAD1CCE8476F002FF6D1BFF35F8F34
:1032A000B3F804C02EF832C099801A69C2E88F4F73
:1032B00085F3108801211C78DA68A14002F50153DA
:1032C0005960F0BD0023C5E88F3F80F310884FF0B0
:1032D000FF30F0BD03464089B0EB214F3ADD58691D
:1032E0000A1402EB420210B5D3F810C000EBC20082
:1032F000EFF3108E72B6DCE8CF4F0122002CFAD12A
:10330000CCE8442F002CF6D1BFF35F8F428889B2FE
:1033100092B28A4207D000221B69C3E88F2F8EF336
:103320001088002010BD6FEA42426FEA524242808C
:103330000121002218699971C0E88F2F8EF310883F
:1033400093F800C0DA68084602F5015301FA0CF15F
:10335000596010BD0020704740787047EFF3058238
:10336000D2B282B1384B5A6A8A4202D20022104647
:10337000704714BF012200229B6A834228BF42F09B
:1033800001021046704770B584B003922F4A06467A
:10339000D368157818460C46029300F06DF8029B2E
:1033A00005F1040C53F82CC0039AACEB000C301A56
:1033B00064EB0101604571F100010FDB20BF224B7E
:1033C000596AA14207D314BF012200229B6AB3426B
:1033D00028BF42F00102104604B070BD029200F016
:1033E00053F8864264EB01010029029A1BDB18495D
:1033F0002346CDE9001215483246FFF705FF011EAE
:1034000011DD114B5A6AA2421CD39B6AB34217D3F7
:103410000E48FFF75FFF0C4B5A6AA242D3D200223C
:10342000104604B070BD084B5A6AA242F7D3121B73
:1034300018BF01229B6AB34228BF42F00102CAE7CB
:10344000A242E5D120BFE3E700000B403C12002080
:10345000E52F001010B4054B054C064AA04214BFDE
:103460001846581C10BCFFF72FB900BF2C1A0020BB
:1034700000800B40406800100346416A0A46986A83
:10348000596A8A42FAD17047034B596A0A46986AC8
:10349000596A9142FAD1704700000B4010B5029C66
:1034A0008E464FEA043C4CEA034C1C4BB3FBF1F351
:1034B0000168B2FBF3F4002920DB194A194B904252
:1034C00014BF4FF480424FF4004217491A6003F5CD
:1034D00080531A608B6832EA0303FBD1212200F586
:1034E00040530433C0F800E084601A600268002A88
:1034F000FCDA0822C0F80CC01A6010BD036803F0A3
:103500003F037345D9D18368C3F30B03A342D4D1DE
:10351000C36803F4EE236345CFD110BD001BB70091
:103520000080054000200240000002404FF0804C27
:10353000214B00B5C3F800C0002839D0DFF888C09F
:10354000A3F54053C3F81CC0DFF880C040F0010071
:1035500080EA0C0CC3F820C0596298624FF0804E8C
:103560004FF0E061144B1548DFF864C0C3F800E089
:10357000C0F808C019602AB94FF00042A3F5805383
:103580001A6000BD4FF47A7303FB02F2B2F1807F40
:103590002ABF6FF07F4313461A464FF08041DFF891
:1035A00034C00748CCF80030064B4260196000BDBB
:1035B000034BD861D2E700BF00B00D4000A001402E
:1035C00000800D4000A00D40D3C007B02D3FF84F44
:1035D000F3FFFF01941E0020012300EB4000800058
:1035E00000F1804000F5841041600360704700BF27
:1035F00010B5002482B00B46E48A002141E800F1B6
:10360000CDE900034B0254BF1021042144F25220A3
:10361000A047DDE9002386460A214FF48170F44675
:1036200002B0BDE8104060470023DB8A002242E878
:1036300000F2520201D4102118470421184700BF9C
:1036400008B503460846191E02DB1AB140F03000E7
:10365000FFF7CEFF40F02000FAE700BF034AD2F8A0
:103660002838002BFBD0BFF35F8F704700000E405F
:103670000021044B044ABFF35F8F43F8041B9342BD
:10368000F9D170470C080E402C080E404FF42A6CFC
:103690004FF48D70054A064B0649C2F800C0D06051
:1036A00019605368002BFCDA704700BF00800440AB
:1036B00000A0044000B0FA0000B585B0EFF310821E
:1036C00072B6134B9B6853F8203099420DD0DFF847
:1036D00044C0634516D2CDE90201CDE9003200F0C5
:1036E00079F9DDE90201DDE90032DFF824C0DCF818
:1036F00008C04CF82010BFF35F8F82F31088184683
:1037000005B000BDDFF810C06345EED3E3E700BFAE
:1037100000ED00E0100100102401001070B5054616
:103720000E46FEF7B5FF39498C7891F9003004F068
:103730000104DB0F43EA44032B420A7856D091F987
:103740000130C2F38014DB0F44EA43042C424B786F
:103750004FD0C3F3801CC2F3401444EA4C042C4203
:103760004AD0C3F3401CC2F3001444EA4C042C4278
:1037700045D0C3F3001CC2F3C00444EA4C042C42FD
:1037800040D0C3F3C00CC2F3800444EA4C042C4282
:1037900012D0C3F3800CC2F3400444EA4C042C4220
:1037A00019D003F0020402F001031C432C4015D091
:1037B000B6B11748FEF754FF02240423EE0744BFB6
:1037C0001A430A70AA0702D54A7813434B70FEF7D2
:1037D00071FF204670BD01240223EFE70123EDE7CE
:1037E0006FF00804FEF766FF204670BD07248023B3
:1037F000E4E706244023E1E705242023DEE7042450
:103800001023DBE703240823D8E700BF801A002039
:103810006468001000B545F247308BB0FFF704FF35
:1038200001220346092101A89847DDE90332034933
:1038300012BA1BBAC1E900230BB000BD78210020E9
:10384000012900F0BB80614A013913784FEA231C3B
:10385000BCF1090FCCBF0CF1370C0CF1300C012975
:1038600080F800C000F0AD8003F00F03092B8CBF7F
:10387000373330330229437000F0A38053784FEA86
:10388000231CBCF1090FCCBF0CF1370C0CF1300C30
:10389000032980F802C000F0948003F00F03092B85
:1038A0008CBF373330330429C37000F08A8093789B
:1038B0004FEA231CBCF1090FCCBF0CF1370C0CF103
:1038C000300C052980F804C07BD003F00F03092BCE
:1038D0008CBF373330330629437172D0D3784FEA27
:1038E000231CBCF1090FCCBF0CF1370C0CF1300CD0
:1038F000072980F806C064D003F00F03092B8CBFA2
:10390000373330330829C3715BD013794FEA231C56
:10391000BCF1090FCCBF0CF1370C0CF1300C0929AC
:1039200080F808C04DD003F00F03092B8CBF37334C
:1039300030330A29437244D053794FEA231CBCF137
:10394000090FCCBF0CF1370C0CF1300C0B2980F8AF
:103950000AC036D003F00F03092B8CBF3733303346
:103960000C29C3722DD093794FEA231CBCF1090FA7
:10397000CCBF0CF1370C0CF1300C0D2980F80CC0C9
:103980001FD003F00F03092B8CBF373330330E29C0
:10399000437316D0D3791A11092ACCBF373230328B
:1039A0000F2982730DD003F00F03092B94BF30331E
:1039B00037331029C37318BF103002D000230370AF
:1039C0007047002308440370704700BF782100202F
:1039D000704700BF08B50148FEF742FE7868001046
:1039E00038B5054C054DAC4204D254F8043B984719
:1039F000AC42FAD338BD00BF78670010B86700103A
:103A00000648DFF828C0064B064A0749C0F800C040
:103A10001A608B6832EA0303FBD170470020024032
:103A200000300240F6FFF303000002407F3BEFEF5F
:103A3000044BDB6CB3F5004F03D14FF48022024BF3
:103A4000DA64704700001150002011504FF0E0225E
:103A5000044BD2F8881D0B43C2F8883D10EE3004A9
:103A6000704700BF030330006FF06041044B054A0C
:103A700019609368DB4333F06043FAD1704700BFAD
:103A8000003002400000024010B545F25320FFF71D
:103A9000CBFDBDE8104003460420184710B545F2A1
:103AA0005320FFF7C1FDBDE8104003460120184731
:103AB000FEF79EBE1449154B70B55C1AA610442E35
:103AC000324628BF4422124D9200284602F084FD5F
:103AD000B4F5867F13D80F4A14D0C6F144002B19D1
:103AE000410803EBC101C3E9002208339942FAD12E
:103AF000C30704D520F00100304445F82020064BD0
:103B00009D6070BD4320F8E7000000101001001018
:103B1000000000201101001000ED00E0002370B54E
:103B20002B4C82B0C4F88430FFF7B0FD0122294B42
:103B3000DA63636C012BFCD10321264A244B116309
:103B40009C6B012CFCD10226052521460523224A27
:103B500022480096FFF7A2FC21462B46204A214826
:103B60000095FFF79BFC0022042031461E4BFEF718
:103B700003FD2146284600221C4BFEF7FDFC0022D7
:103B8000082011461A4BFEF7F7FC002209201146C7
:103B9000174BFEF7F1FC002206201146134BFEF7EF
:103BA000EBFC0022114B07201146FEF7E5FC042038
:103BB000FEF750FD00240F4BA3FB0035AD0CE0B227
:103BC00029460134FFF708FD062CF8D102B070BD7C
:103BD0000000014000300140002F685900000540FE
:103BE000008C864700800540001BB70080D1F0089C
:103BF000006CDC0283DE1B4300B9704700F020B983
:103C000010B5094A84B014684CB1034600914FF0D6
:103C1000FF3203A90548A047012004B010BD00F001
:103C200051F9204604B010BD901E0020F93B001051
:103C300000BEFDE708B5FFF7FBFF00BF38B5064C37
:103C4000064DFFF7CDFEAC4204D254F8043B984732
:103C5000AC42FAD338BD00BFB8670010C46700108B
:103C6000036808461146184770B505460846697D41
:103C700082B000294FD0002A25DD037814460A2B94
:103C8000064622D0012C4FF0000E0DD03246012303
:103C900012F801CF1946BCF10A0F03F1010320D03D
:103CA0009C42F5D1744505DD2B68A4EB0E0106EBB3
:103CB0000E009847311911F8013CA3F10D03B3FA36
:103CC00083F35B092B7502B070BD2B7D002BD9D11E
:103CD00002212B6813489847012CEBD04FF0010EBE
:103CE000D4E712F8010C0D28DAD08E4506EB0E0051
:103CF000A1EB0E0105DACDE900322B689847DDE92A
:103D00000032CDE9003202212B6806489847009B1B
:103D1000019A9E46C4E711462B6802B0BDE8704088
:103D2000184700BFB86900102DE9F04782B09046EF
:103D30001C460D460746FFF7A7FB4FF0FF3C6FF010
:103D400000462E4A821841F10003944576EB0301A8
:103D50003CBF624633462A4802F006FD6B1C824691
:103D600040D00CB3274E284B1C68B4B1B8F1000FFB
:103D70001CD1DFF89C8001E0246974B12368002B1A
:103D8000FAD0D8F800300BB19C42F5D120462A4633
:103D90003946B0472469002CF0D1BAF1000F26D182
:103DA000284602B0BDE8F087184EDCE74FF00A095C
:103DB000DFF85C8002E02469002CEED02368002B41
:103DC000F9D0D8F800300BB1A342F4D12A463946D5
:103DD0002046B047012220460DF107018DF80790DB
:103DE000B047E8E7384602F06DFC0546B9E70448FD
:103DF00002F0AAFC284602B0BDE8F08740420F005E
:103E000094120020693C0010841A0020613C0010CC
:103E10008C1A0020084A136823B90AE003F1100243
:103E20001B6933B18342F9D129B91869106019614E
:103E3000704701B110607047841A002000F074BA16
:103E4000F0B583B006468DF80700FFF71DFB4FF075
:103E5000FF356FF00044174A821841F10003954284
:103E600074EB03013CBF23462A46134802F07CFC56
:103E7000124B07461C689CB1114D01E024697CB1CE
:103E80002368002BFAD02B680BB19C42F6D1204658
:103E900001220DF10701FFF7E7FE2469002CEFD1A5
:103EA00017B9304603B0F0BD034802F04DFC304670
:103EB00003B0F0BD40420F0094120020841A00208D
:103EC0008C1A002038B5044602F0FCFB012305469D
:103ED0001A4620462946FFF727FF084B1C682CB1DD
:103EE00063682BB198472469002CF9D1284638BD66
:103EF0002469002CF4D1284638BD00BF841A002064
:103F0000704700BF0022014B1A70704790220220B8
:103F10004B79FF2B0BD1887948B9CB79012B07D18D
:103F2000082A05D9034B8A7809201A7070470020A7
:103F3000704700BF9022022001207047012901D064
:103F40000120704708B5104B91881B78994201D029
:103F5000002008BD5378012B08D0022BF8D1002196
:103F600064220846FFF7E2FA012008BD5188CB051C
:103F700048BF480AC1F3402258BF4FF0FF3001F05C
:103F80007F01FFF75DFB00BF9022022000487047D1
:103F9000846A0010012907D15378012B02D193883C
:103FA000072B03D000207047012070471146A6233D
:103FB000014A01F0AFB900BFDC69001003460122DD
:103FC00001481A70704700BFBC69001008B50B6843
:103FD000B3F5966F00D008BD00224FF0FF301146B8
:103FE000FFF72EFB024A034B10601960704700BFB9
:103FF000201A0020241A0020184B70B51A68002AD5
:1040000028D0EFF3108172B6D2E8CF4F0120002CF8
:10401000FAD1C2E8440F002CF6D1BFF35F8F002223
:104020000F4C186859602270C0E88F2F81F31088F8
:10403000002400250B4E3078FEF71CFC20B900242C
:1040400000252046294670BD3078FEF723FC204627
:10405000294670BD4FF47A740025EBE7B41E0020AA
:104060009222022091220220014B1878FEF712BC06
:104070009122022038B5044600200D4601F084FA52
:10408000A8B3002001F096FA88B3FFF7FDF94FF0CE
:10409000FF3E6FF0004C174A821841F1000396452D
:1040A0007CEB03013CBF72466346134802F05CFBA5
:1040B000E8B1002001F068FA58B901464FF0FF302E
:1040C00000F04CFC6FF002040B4802F03DFB204670
:1040D00038BD002001F06EFA0028EED021462A46B5
:1040E000002001F071FA04460028EDD1EAE76FF0F4
:1040F0000204ECE740420F008421002008B5FFF7DE
:10410000C3F94FF0FF3E6FF0004C0F4A821841F1A7
:10411000000396457CEB03013CBF724663460B48A7
:1041200002F022FB70B14FF0FF30002100F016FCCE
:10413000002001F08FFA0028F5D1BDE808400348BF
:1041400002F002BB08BD00BF40420F0084210020E6
:104150002DE9F04107460E46FFF796F94FF0FF357F
:104160006FF00044324A821841F10003954274EB2B
:1041700003013CBF2A4623462E4802F0F5FA08B94F
:10418000BDE8F081002001F0FFF9002845D0002EA5
:104190003EDD0025DFF8A48012E02246002001F079
:1041A000A3FA002105444FF0FF3000F0D7FB0020B8
:1041B00001F050FAFFF768F9C8E90001AE4227DDC7
:1041C000002001F0AFFA741B8442A8BF044679199D
:1041D000002CE2D121464FF0FF3000F0BFFB20461B
:1041E00001F038FA204601F0CFF988B1204601F0FD
:1041F00099FA0028E2D1FFF747F90F4AD8F80030C2
:104200009B18D8F8042042F1000283428A41D5D29B
:104210000848BDE8F04102F097BA0020BDE8F0413F
:104220000021064BC3E90001024802F08DBA00BF2D
:1042300040420F008421002020A10700E814002044
:1042400010B5002184B0324802F092FA28BB314BFD
:104250001A6802B3EFF3108172B6D2E8CFEF5FF0C5
:10426000010CBEF1000FF8D1C2E84ECFBEF1000F35
:10427000F3D1BFF35F8FDFF8A8C0D3F800E09CF85C
:1042800000205960D3B201228CF80020CEE88F0FB5
:1042900081F31088CBB104B010BD00214FF0FF3086
:1042A00000F05CFB002001F085F90446184802F09C
:1042B0004BFA002CEFD0184B1B68002BEBD0174AA1
:1042C000106804B0BDE810401847FEF727FF044609
:1042D000FFF7DAF84FF0FF3E6FF0004C10F57A72FE
:1042E00041F1000396457CEB030138BF63464FF074
:1042F00000014FF0010C38BF7246DFF828E020467D
:10430000CDE9011CCDF800E0FEF70CFF04B010BDB4
:1043100084210020B41E0020201A0020241A00202E
:1043200092220220F93F00104FF0504330B585B083
:104330001C68FEF7F3FEFFF70FF8A04202D0002042
:1043400005B030BD00212C4B08461B7801F0CEFC97
:104350002A480368002B4BD00120FEF763FC03467C
:10436000274C2849C0B22370FEF7B0FA207801210B
:10437000FEF76AFA0E20FEF799FA60BB224B6FF047
:104380000044C3E90000FEF7C9FE0546FFF77CF8CC
:104390004FF0FF3C10F57A7241F10003944574EB45
:1043A000030138BF23464FF000014FF0010438BF2E
:1043B0006246DFF860C02846CDE90114CDF800C0A0
:1043C000FEF7B0FE0028BADB01211048FFF722FDFE
:1043D000012005B030BD0120FEF7F0F901460A4882
:1043E000FEF782FC00220E200949FEF7A7FAEBE750
:1043F000FEF75EFCB0E700BF986B00108421002040
:104400009122022041420010B41E002054120020CC
:1044100069400010F93F001000487047206B001001
:1044200000487047CC6A001000B51C4A034611785A
:1044300083B031B363B940F209424FF44173DFF8FE
:1044400060C0ACF802201648ACF8003003B000BDE4
:10445000052B20D8134ADFF848C052F823106046D5
:104460000023013903E0132B20F8022F10D011F89C
:10447000012F0133DBB2002AF5D15B0043F4407316
:10448000E1E7019011211046FFF7DAF9019BD1E72E
:104490004FF44A73D7E70020D8E700BF90210220ED
:1044A000581A0020B46A001010B500F039F90C2336
:1044B0001C4CFF22A3670E201B49FEF73FFA402247
:1044C00000211A4802F044F84FF0800C0120174AEE
:1044D0000023A2F822C050701046402214490283E3
:1044E0000287144A81604360C2F88430C2F8803089
:1044F00080F8213080F83B3043620F4BC360C362C9
:10450000803B836202F010F94FF0005C4FF4803280
:1045100001200A490A4B2064C4F84CC0C4F890102A
:10452000DA6410BD00001150AD030020901A002085
:1045300084001050000010500001105010D00100F5
:104540000020115001210E20FEF77EB90022024802
:10455000114600F005B900BFB01A0020044B1970D5
:1045600021B14FF40032034BC3F89020704700BFD5
:104570008D220220002011500B785B0600D070477E
:104580004B78052BFBD14B88014ADBB21360F6E771
:1045900000001150CB7803F0030CBCF1010FC3F302
:1045A000010062D02DE9F041002691F802E0364C7E
:1045B0000EF07F0253008988984603EBDE1304EB6C
:1045C00043134FEADE15D876C1F30A0185F00100E6
:1045D00083F802E019835870DE70D300002D32D1C9
:1045E0002A48043304EB821E1F18CEF808701E50B0
:1045F00092B3274B03EBC203CEF804303F31890955
:10460000BCF1020F14BF8B01CB01224908EB050658
:104610000A6804EB461613440B601F49F2608B4294
:104620002DD808EB050304EB4314E17E82F0A04291
:1046300082F48012636842EA816242F00042012003
:104640001A60BDE8F081114804EB821E0344CEF8E5
:10465000283040F8326052B91346104A04EB451432
:104660000120E2606360BDE8F08100207047D20065
:1046700002F1A04202F58012CEF82420BEE7FFF737
:10468000A9F9F268CDE700BF901A00208000105011
:1046900004001050981E0020FF0F10500001105011
:1046A00002F042B808B59646DFF81CC001F07F0260
:1046B000C80900EB42000CEB40101A46714600F0AE
:1046C0004FF8012008BD00BF901A002011F07F02B2
:1046D00005D100290CBF02200120064B9866C909AC
:1046E000054B01EB420003EB40104FF40062002148
:1046F00002F036B800201150901A002011F07F030C
:1047000000D17047002205485B0003EBD11300EB9A
:1047100043106FF40061C27002F022B8901A0020BA
:104720004FF0805209480A4908B50A4B02600A60F6
:104730009968C94311F08051FAD14FF4805206486C
:1047400001F006FF0922054B5A6708BD0020024010
:1047500000300240000002400000105000001150E4
:1047600000234FF0010C10B5016180F81AC082825D
:10477000C382044601F0F0FF20B14FF40032074B32
:10478000C3F89020204601F0D7FF10B10123237712
:1047900010BD2046BDE8104001F0D2BF00201150EE
:1047A0002DE9F04100241C4D064623462A78DFF807
:1047B00078801A4F0DE03B6813EB441323D0DB687D
:1047C000304698472A780134E4B2511CA14223466E
:1047D00006DBA242A3EB0203EDD808EB4313EEE79E
:1047E000542200210E4801F0B3FE4FF0FF330C4C71
:1047F0002022C4E90133C4E90333FF21BDE8F041BD
:10480000084801F0A5BE4FF0E023D3F8F03DDB07E8
:1048100000D500BEBDE8F0818C22022030150020BA
:10482000381600204C160020346B0010704700BF73
:10483000704700BF0020704700207047704700BFDE
:10484000704700BF704700BF704700BF024B5878E9
:10485000003818BF0120704738160020024B187826
:10486000C0F38000704700BF381600202DE9F047E4
:10487000DFF8E48098F80030FF2B53D100293CD0BA
:1048800054228A4681460021284801F061FE002218
:10489000274C284B20461A70FEF70AFA264B274869
:1048A0001C60274CFEF712FA204601F017FE254A3D
:1048B000254B146023B12548FFF780FB244B18607B
:1048C0000024224D23462A78224F214E0DE03368E2
:1048D00013EB441311D05B687BB198472A780134FD
:1048E000E4B2511CA142234611DBA242EFD89B1A2D
:1048F00007EB43135B68002BEFD14FF0E023D3F8B5
:10490000F03DDB0700D500BE0020BDE8F087514632
:10491000484688F80090FFF7C7FD0028EDD04846CC
:10492000FFF710FE0120BDE8F08700BF3816002019
:10493000301600208E2202208C16002080120020CB
:104940006C12002090160020BD3F00108C22022027
:1049500030150020346B001088120020954B1B7816
:10496000FF2B00F019812DE9F04F934C934DDFF8A8
:104970006082934F8BB026687369EFF3108272B632
:10498000D3E8CF0F01210028FAD1C3E8401F002847
:10499000F6D1BFF35F8FB261304607A901F0E4FBA7
:1049A00000237269C2E88F3FB36983F3108800283F
:1049B00000F0CA809DF81D30013B072B00F29E835A
:1049C000DFE803F0A5AF939B8C350A04089B002B0E
:1049D000D1D009989847CEE79DF8201001F07F06C6
:1049E00005EB460000EBD11090F8343023F00103C2
:1049F00080F8343090F8343023F0040380F83430F9
:104A0000002E00F0A480037D98F80020934280F0EF
:104A100091806C4A126812EB431300F08E809E69FD
:104A20009DF82120099B9DF81C00B047A3E73B7827
:104A3000002B00F082803B78013B3B703B7803F019
:104A4000FF00002B97D1DFF874A19DF81CB09AF8F5
:104A5000003043F001038AF800309AF8343060F3F4
:104A600000038AF834309AF8343060F382038AF80D
:104A700034309AF8353060F300038AF835309AF80C
:104A8000353060F382038AF8353000F0A7FC9DF8DA
:104A9000203003F06002602A6CD0402A7DD003F001
:104AA0001F03012B00F0C380022B00F09380002B2A
:104AB00060D1202A00F00282002A5BD19DF82130CB
:104AC000092B57D8DFE813F0BF01AF015600D10121
:104AD0005600A001760156006A01F9002B78D9072B
:104AE0007FF549AFFFF7B0FE45E7EB78DA077FF5D2
:104AF00042AF0898FFF79CFE3DE72B78D8077FF57B
:104B00003AAF2878C0F3C000FFF79CFE33E79DF86A
:104B10001C00FFF745FE00F057FC9DF82030AB70FD
:104B200029E79DF81C00FFF73BFE00F04DFCFFF766
:104B300087FE20E7501C984211DA4FF0E023D3F8AB
:104B4000F03DDC0700D500BE0BB0BDE8F08F099B3F
:104B50009DF821209DF81C0000F054FC0BE79B1AE7
:104B6000194A02EB43135AE7FFF75AFC02460028A2
:104B700040F094814FF0E023D3F8F03DDE0700D5FC
:104B800000BE9DF81C000021FFF7A0FD80219DF8CC
:104B90001C00FFF79BFDEEE670470C4800F01EFC82
:104BA0000121584608AAFFF7F5F900287FF4E3AE83
:104BB000E7E700BF8812002090160020381600207A
:104BC0008E22022030150020346B0010953F00101B
:104BD0008C2202209DF8241011F0700FCAD1B44825
:104BE00001F07F0390F800C00AEB430000EBD11006
:104BF000007D60454DD30CF1010E8645C0F27081F9
:104C0000A0EB0C00DFF8ACC20CEB40100090002AC7
:104C100000F06A81009E706900F0E0FB01215846B7
:104C2000736908AA984700287FF4A5AEA9E79DF804
:104C300024300F2BA5D89E4A53441B7912789342F7
:104C400035D3511C99429CDB9A4E9B1A06EB4316B6
:104C5000706900F0C3FB01215846736908AA9847A0
:104C600000287FF488AE9DF8203013F0600688D1CC
:104C70009DF821300A3B012B83D800F0AFFB9DF853
:104C800021300A2B00F01382584608A900F026FBB9
:104C900071E6DFF824C2DCF800C00CEB4010009095
:104CA000002A00F0218100283FF46BAFB2E7824A6E
:104CB000166816EB4316CBD163E79AF801209DF8EE
:104CC0002230934200F064819AF80120002A40F0DB
:104CD000D8818AF80130002B00F05881013BD8B20E
:104CE000FFF79EFB002800F074814378022B40F010
:104CF0007081C2799AF80010C2F340131B01C2F30D
:104D0000801221F0300143EA42130B438AF800304D
:104D1000438800F10901C3180293029B8B4240F2C1
:104D2000C3814B780B2B00F0CC810120042B40F089
:104D300050810022029B00925B1A1FFA83F95C4BA0
:104D400001921B7803901FE05B4B1B6813EB42132F
:104D500000F03F814A461E69584605910493B047CA
:104D60000246009B082A059903F1010003D99145E9
:104D7000049B80F012814E4BC0B21B7800905A1CED
:104D80009042019000F32581009A01989342A0EB94
:104D90000303D9D8474A02EB4313DBE79AF8013003
:104DA00058468DF81A300DF11A02012308A900F0B7
:104DB000B1FAE0E5BDF82200030A5A1EC0B20E2A7D
:104DC0003FF6DFAE01A151F822F000BF0550001000
:104DD0008B4E001041500010834B0010834B00108D
:104DE000235000108B4E0010834B0010834B00109B
:104DF000834B0010834B0010834B0010834B00103B
:104E0000834B0010F74F001008A800F0EDFA584649
:104E10009DF82210FFF79AFB9AF8003043F0020346
:104E20008AF80030A7E5BDF82230012B7FF4A9AE47
:104E30009AF80030584623F0080308A98AF8003091
:104E400000F04CFA97E558469AF800309A0802F0BC
:104E50000202C3F340131343ADF81A300DF11A02E6
:104E6000022308A900F056FA85E5BDF82230012B8F
:104E70007FF487AE9AF80030584643F0080308A93B
:104E80008AF8003000F02AFA75E5022B3FF46CAE88
:104E9000FFF7D2FC024600283FF473AE5846538811
:104EA00008A900F037FA00287FF465AD69E600BF75
:104EB0008C220220346B0010301500209DF8243025
:104EC0000F2B3FF65EAE924A53441B791278934201
:104ED0001ED2904A166816EB43167FF49CAE50E63D
:104EE000002A7FF44EAE00929DF821C00CF0FD0226
:104EF000012A16D0BCF1000F7FF43CAE0AEB43034D
:104F000003EBD11393F834305846C3F34003A3E7BF
:104F1000511C9942FFF635AE7F4E9B1A06EB4316A5
:104F200079E6BDF82220DAB97C48BCF1010F00789F
:104F300000F08E80CDE90113FFF7C8FB029B0199B9
:104F40000AEB430303EBD11393F8342042F002023F
:104F500083F8342093F8342042F0010283F834209F
:104F6000009B002B3FF407AD1E46586900F036FA4F
:104F70007369012108AA58469847002000F02EFACC
:104F80009AF83530DB073FF5F6AC7DE6FFF758FCC5
:104F9000584608A900F0A2F9EDE40398012800F0B2
:104FA000A680002800F09280002391F802E007E03C
:104FB000009E8CF804605FFA83FC604540F28680B6
:104FC0000EEB030C5AFA8CFC9CF804600133FF2EA4
:104FD000EED04FF0E023D3F8F03DD90700D500BE66
:104FE0004FF0E023D3F8F03DDA0700D500BE0023F0
:104FF0008AF80130C5E5FEF7C9FF024600287FF4B4
:105000004DAFBEE5FFF708FA024600283FF4B2AD07
:105010005846122308A900F07DF900287FF4ABACB4
:10502000AFE5FFF707FC024600283FF4AAAD58465B
:10503000137808A900F06EF900287FF49CACA0E575
:10504000BDF82410FFF7F0F902460028EFD198E5EB
:10505000CDE902320191FFF751FB029B01990AEB66
:10506000430303EBD11393F83410039A62F3410125
:1050700083F8341093F8341062F3000183F834108D
:105080006EE7002158460193FFF768FA5846FFF78C
:1050900007FB9AF8022058460092FFF781FB009A1E
:1050A000019B8AF8022014E6FFF7C8FB70E7584618
:1050B000012308A90DF11A028DF81A6000F02AF9EF
:1050C00059E40B78C87819444B782FE6009B1448B4
:1050D0000392009100F0BCFE0D4B039A00991B78DF
:1050E0001144019A01339342BFF617AE71E7D3F82A
:1050F00010C00C4B9C4508BF022055E74FF0E02341
:10510000D3F8F03DDB077FF536AC00BE33E400BFDB
:105110008C22022030150020346B001088120020F1
:105120004C1600202D5800102DE9F84F0A9F002A38
:1051300040D00C461E4615464FF0000BDFF880901D
:10514000DFF8808016E0204698F8021099F800A059
:1051500000F04EFED0B121465046FFF71BFAE0B1F9
:10516000A3780BF1010BDA0920D1AB453B7021D0BC
:1051700023781C446378052B0FD1E17801F00301FB
:10518000B1420AD1A37813F0700FDCD04FF0E023C6
:10519000D3F8F03DDA0700D500BE4FF0E023D3F896
:1051A000F03DDB0709D40020BDE8F88F0B9AAB4532
:1051B0001370DDD10120BDE8F88F00BEF3E700BF1A
:1051C00088120020381600208B7813F0700F08D05A
:1051D0004FF0E023D3F8F03DDA0700D500BE002001
:1051E000704710B582B0084601910C490C4A897885
:1051F000147800F0FDFD48B94FF0E023D3F8F03DFE
:10520000DB0700D500BE002002B010BD204601998A
:1052100002B0BDE81040FFF7BDB900BF381600204E
:10522000881200200A46064B06481968D309343311
:1052300002F07F0203EB4203184400F08DBD00BF73
:105240008C160020381600200A46064B06481968BE
:10525000D309343302F07F0203EB4203184400F019
:10526000ABBD00BF8C1600203816002010B51948C1
:1052700001F07F0400EB440000EBD11090F834C043
:105280001CF0010F08D04FF0E023D3F8F03DDA070F
:1052900000D500BE002010BD00F1300494F804C019
:1052A0000D484CF0010C007884F804C0FFF7FAF9BF
:1052B0000028F0D14FF0E021227960F30002227142
:1052C000227960F382022271D1F8F03DDB07E1D54B
:1052D00000BEDFE73816002088120020DFF830C05B
:1052E0000023624610B58E46044608684968CCF82B
:1052F0000C3003C29EF800102046BDE8104081F03B
:10530000FF011A4601F08001CCF80830FFF7AEBF6C
:10531000F8150020DFF8ACC070B5154662460024D1
:105320008E4606460868496882B003C2CCF8085029
:10533000ACF80E40BEF80620934228BF1346ACF8E6
:105340000C308AB133B3DDB19CF90020402B28BF6B
:105350004023002A29DB21463046194AFFF786FF01
:1053600070B1012002B070BD9EF80010134681F0AC
:10537000FF01304601F08001FFF778FF0028F0D1EF
:105380004FF0E023D3F8F03DDB0700D500BE00204E
:1053900002B070BD1A469CF8001001F08001304642
:1053A000FFF764FF0028DCD1EAE71A4629460448E3
:1053B000019301F011F98021014A019BEFE700BF41
:1053C000B8150020F81500200022034BC3E9002285
:1053D000C3E902221A617047F8150020014B1861D9
:1053E000704700BFF81500200146054A4FF0000C39
:1053F000134600684968C2E902CC03C3704700BF86
:10540000F815002030B53E4CC90922780546B1EBAD
:10541000D21F83B017D053B14FF0E023D3F8F03D43
:10542000DB0702D4002003B030BD00BEFAE72146FE
:10543000FFF7A2F823691BB12246032128469847AB
:10544000012003B030BD94F90020002A08DBA068D9
:105450000028E7D01A462B49019301F0BDF8019BC3
:10546000E089A168E288184480B219448242E08150
:10547000A16016D03F2B14D9A28994F90040131AC9
:105480009BB2402B28BF4023002C28DB90424FF0DA
:10549000000132D01B4A2846FFF7E8FE0028CFD192
:1054A000BAE7236923B102212846154A984768B113
:1054B00000232178284681F0FF011A4601F080017F
:1054C000FFF7D4FE0028A7D00120BAE701462846FE
:1054D000FFF7FCF880212846FFF7F8F8B0E7904284
:1054E00008D01A460748019301F076F88021054A52
:1054F000019BD0E780210022CDE70A46CBE700BF21
:10550000F8150020B815002070B582B00446FFF7EA
:105510009DF908B902B070BDFFF7A0F90246002856
:10552000F8D1C82304FB03F315492546CC18E078CD
:105530000028EFD010335E183046019200F002FED2
:105540003F28E7D9E1780198FFF76CFE0028E1D009
:10555000304600F0F7FD3F28E1780AD94023DFF814
:1055600024C001980CEBC51202B0BDE87040FFF7F3
:105570007DBE019802B0BDE87040FFF765BE00BF78
:10558000A01200203415002010B50446FFF75EF984
:1055900008B9002010BDFFF761F90028F9D1C82231
:1055A000034B02FB0433187900F0010010BD00BF6B
:1055B000A0120020C82208B5024B02FB003000F008
:1055C000A7FD08BDB01200204FF6FF732DE9F04192
:1055D000C8249A4228BF1A4600FB04F41B4D04F16C
:1055E000100382B0804692B258195F1900F00AFE8B
:1055F0000646FFF72BF918B9304602B0BDE8F08136
:10560000FFF72CF90028F7D12544EA78002AF3D0D7
:105610000190384600F096FD3F28EDD90198E978D1
:10562000FFF700FE0028E7D0384600F08BFD3F284A
:10563000E97807D9064A4023019802EBC812FFF720
:1056400015FED9E70198FFF7FFFDD5E7A01200206E
:1056500034150020F0B583B00546FFF7F7F810B910
:10566000002003B0F0BDFFF7F9F804460028F7D199
:10567000C82305FB03F31A4A03F124018F183846A7
:10568000009300F045FD0028EAD0154A009B204613
:10569000D618B178FFF7C6FD0028E1D01149384689
:1056A00001EBC5114022009100F0ACFD96F802C05C
:1056B000034670B1019061462046009AFFF7D6FD7F
:1056C00058B94FF0E023D3F8F03DDB07C8D500BE52
:1056D000C6E76146FFF7B8FDC2E70198C1E700BF22
:1056E000A01200207415002070B505464FF6FF701B
:1056F000C823824228BF0246094C92B203FB0544EC
:10570000204600F043FE0646204600F001FD3F28FB
:1057100001D8304670BD2846FFF79CFF304670BD6B
:10572000C4120020C82208B5024B02FB003000F072
:1057300009FD08BDC412002070B5002482B0C82243
:105740000021184800F004FFFF234FF4E131082244
:1057500015480470134800940646437181608273B3
:1057600000F1380101234022103000F0A1FC012398
:10577000402206F17801009306F1B80506F12400F5
:1057800000F096FC2846FDF793FA06F1C000FDF7FD
:105790008FFA06F1C000C6E90745C6E90C0402B05D
:1057A00070BD00BFA0120020B41500200A4B196B79
:1057B0001A6A61B13AB10022C3E90C22DA6100220F
:1057C0001A62012070470120C3E90C227047002AA9
:1057D000F7D0D961F3E700BFA012002000221049E2
:1057E00008B510480B7802600271DA0707D59B07ED
:1057F0000CD5BDE8084001210B4800F08BBE1030ED
:1058000000F06CFE06490B789B07F2D4064800F0C6
:1058100065FEBDE808400121034800F07BBE00BFE3
:10582000B4150020A0120020C412002070B54B79DE
:1058300084B0022B02D18B79022B03D000242046A6
:1058400004B070BD2B4B9B783BB14FF0E023D3F8F5
:10585000F03DDB07F2D500BEF0E78B780546254822
:1058600003700B78194491F801C0BCF1240F08BFF4
:10587000092409D03BE00B78194491F801C0234476
:10588000BCF1240F9CB207D19442F4D90020FFF759
:105890003BFE204604B070BD6346BCF1050F16D038
:1058A000042BF3D14B790A2BF0D1134B0A780193D7
:1058B0000133009302231646114428461A46FFF787
:1058C00033FC0028C1D00E3433199CB2DEE72846E1
:1058D0000391FFF779FC03990028B6D08B78054A2D
:1058E00053700B781A1919444B7894B2D8E7634671
:1058F0000924D2E7A0120020A2120020137803F09E
:105900006003202B0BD100B5DFF8BCC093889CF856
:1059100000E083B09E4504D0002003B000BD00200D
:1059200070475378203B032BF6D8DFE803F02C2791
:105930000D02012933D0032922D11E4B03B30020CD
:105940005188AFF300801BE0012928D0032917D12B
:105950005288194802F0010383F0010101938CF889
:105960000420009200F0D6FD144949B1009A0020AD
:105970000199C2F34002AFF3008001E0012912D087
:10598000012003B000BD01290DD00329F8D10C4B33
:10599000002BF5D000200B49FEF718FBF0E711466D
:1059A000FFF79CFCECE711460723064AFFF7B2FC21
:1059B000E6E700BF00000000C41200200000000065
:1059C000CD3F0010A8120020A01200202DE9F041C8
:1059D000354C0D46E27807468A421E4682B02FD0EB
:1059E000A3788B4209D04FF0E023D3F8F03DDB07DA
:1059F00024D4002002B0BDE8F0812C4B13B100206C
:105A0000AFF300800020FFF725FE002847D128488B
:105A100000F07EFB002842D1002E40D016F03F055A
:105A20003DD13846A178FFF7FDFB002837D02B4643
:105A30002A463846A178FFF719FC30E000BED8E7C7
:105A40009AB21C4904F1100000F0A0FC1A4BD3B12B
:105A50006279FF2A17D0B6B1164B03EB060802E0B5
:105A6000434510D0627913F8011B9142F8D11348D5
:105A7000019300F05DFB019B0028F1D16179AFF348
:105A80000080019BECE70E4B1BB10C4800F050FB73
:105A900038B10020FFF738FDA378AB42ADD001202C
:105AA000A8E7AFF30080F4E7A01200200000000098
:105AB000C41200203415002000000000B0120020A5
:105AC00000000000F0B54FF4137285B000211248B9
:105AD00000F03EFD402600234FF480750E4F0F4C22
