:020000041000EA
:10000000002008205D0100101B0100101D010010E0
:100010001101001011010010110100101101001058
:100020001901001019010010190100101F01001022
:10003000110100101901001021010010230100100E
:100040001101001011010010110100101101001028
:100050001101001011010010110100101101001018
:100060001101001011010010110100101101001008
:1000700011010010110100101101001011010010F8
:1000800011010010110100101101001011010010E8
:1000900011010010110100101101001011010010D8
:1000A00011010010110100101101001011010010C8
:1000B00011010010110100101101001011010010B8
:1000C00011010010110100101101001011010010A8
:1000D0001101001011010010110100101101001098
:1000E0001101001011010010110100101101001088
:1000F0001101001011010010110100101101001078
:100100001101001011010010110100101101001067
:10011000EFF30580103800BE00BE00BE00BE00BE7A
:1001200000BE00BEF2EB88713C5C04105C5C041005
:10013000A001001090A31AE7D3DEFFFF42012110B7
:10014000FF01000074750400793512AB4FF0000018
:100150001E49086006C881F3088810474FF05040D8
:10016000006810B14FF00000F2E70DA40ECC00299A
:1001700002D000F012F8F9E71549164A002000E015
:1001800001C19142FCD11449884714498847144958
:10019000884700BEFDE701C901C29A42FBD3704700
:1001A0005C5C041010010020601B0020AC76041081
:1001B0000000082000000820AC7604100010082081
:1001C00000100820000000007047000008ED00E06B
:1001D000601B00206436022001A700109D02001061
:1001E000F9A60010F8B500BF064B0749C91A8910D7
:1001F00048BF0131491003D0044B0BB101481847E7
:10020000704700BF601B0020601B00200000000042
:1002100008B5054B1BB105490548AFF30080BDE8A3
:100220000840FFF7E1BF00BF000000004832002097
:100230000CDF001000B583B004F0ACFD01210A4CC6
:10024000B1FA81F100204909019104F095FD0023E4
:1002500001A91A46206800F041FF4FF4FA6002F04D
:10026000B3FC0199ECE700BF24350020002300B562
:10027000084C83B001934FF0FF3201A9206801F0D0
:1002800003F8019904480AF02BFC4FF4FA6002F0DD
:100290009BFCF0E72435002010DF001030B583B060
:1002A0000AF05CFB11480AF09DFB002204210120AA
:1002B00000F0C4FE002401250D4B4FF4807218603D
:1002C0000C492346CDE900540B4802F017FB4FF4CC
:1002D000807223460949CDE90054094802F00EFB1B
:1002E00002F036FB204603B030BD00BF20DF001017
:1002F0002435002030DF0010350200103CDF0010F4
:100300006D02001070B5421E0A3282B04DD803460D
:1003100013F0070200F1080052D1019001F028FD0E
:10032000434A0198D2F800E08446BEF1000F5FD046
:1003300000283FDB3F4B1B6883421E463AD33E4BAF
:100340009C461B6803E01A6822B19C461346596814
:100350008142F8D373452DD01C46A1EB000E54F812
:10036000082BBEF1100FCCF8002006D901461D184D
:10037000C5F804E01A50CCF800504FF0000C2D489E
:10038000721A02602D4841F0004105685960AA4286
:1003900038BF02602A48C3F800C002680132026018
:1003A00002F00AFC204602B070BD01F0E1FC204AD8
:1003B0001368D3B1002402F0FFFB204602B070BDE9
:1003C000A2F109018142F0D31033981A019001F093
:1003D000CFFC174A0198D2F800E08446BEF1000F26
:1003E00006D0BCF1000FA5DCE4E74FF0000C60463E
:1003F000144BDFF854E059071CBF073323F0070301
:100400001C4600212EF0070EC2F800E00A4AAEEBAF
:100410000303C2E90041094ABCF1000F1360054A19
:10042000CEE900111360C4E900E383DCC2E700BF3A
:1004300098320020D435022014360220E435022000
:10044000F0350220443500203C35022018B150F828
:10045000043C002B00DB704750F8082C002AFAD12E
:1004600010B523F0004382B0A0F1080240F8043C2C
:10047000CDE9002001F07CFCDFF88CE00198DEF88B
:10048000001050F804CC1D4B6144009ACEF80010C7
:1004900019461B689A42FBD8D1F804E001EB0E0420
:1004A000A24211D002EB0C0E73451FD040F8083C5D
:1004B000914218BF0A60124A13680133136002B0F8
:1004C000BDE8104002F078BBF44401EB0C0293420B
:1004D000C1F804C0EFD10B4A12689A42EBD00A4629
:1004E000D3E90030604413605060E1E7DFF814E0C6
:1004F000DEF800E07345F3D1D8E700BF14360220E0
:10050000F435022098320020D43502200A4B93F9AA
:100510000020002A0FDB4FF050410123D1F8880161
:100520009340184207D04FF0E0224FF08050C1F8BE
:100530008C31C2F8040D704770140020002300B500
:1005400083B0019300F098FA019B002BFCD003B01C
:1005500000BD00BF10B502F009FC044601F01CFC10
:1005600028B14FF0E0234FF08052C3F8042D20460D
:10057000BDE8104002F096BC10B504224FF0E02414
:10058000002322610520A36102F052FF0722044BE1
:10059000A3FB0030800901386061226110BD00BFFB
:1005A000D34D62104FF0E0234FF07F42002130B571
:1005B00085B00391C3F81C2DD3F81C3D1B0E8DF89C
:1005C00007309DF807309DF807301A060BD5039BBE
:1005D000013303939DF807305B008DF807309DF8D9
:1005E00007301B06F3D4039B082B40D0039BC3F1B9
:1005F00007031B0203F4E0634FF050412448254AEF
:10060000036012780B689A4233D04FF0E023002445
:100610004FF05045D3F8202D1F4942F47F02C3F814
:10062000202D0E20C3F81C4D04F082FA1B490B202C
:1006300004F07EFA1A4B2A68FF211A2043F8224060
:1006400003F05AFB1A20174903F020F901211A2060
:1006500003F0DAF800F008FA286801F0BBFC029415
:1006600000F00AFA029B002BFCD005B030BD00233D
:10067000C2E7FFF781FF4FF0E022D2F8203D0A49A0
:1006800043F07F43C2F8203D0F2004F051FABCE74D
:100690005435022071140020A10A0010390B0010FB
:1006A0004C3502200D0500105505001008B500F06E
:1006B000E3F9BDE80840FFF775BF00BF4FF0E02346
:1006C0004FF08052C3F8042DBFF34F8FBFF36F8FED
:1006D000704700BF836913F8023C662B00D0704757
:1006E0004FF0E023D3F8882D42F47002C3F8882D30
:1006F000D3F8342F42F04042C3F8342F00F098B9B9
:1007000000B54FF0123C4FF0807E40F8203C1A4B71
:1007100040F810CC40E9033240F804EC4FF0033CC1
:100720004FF002324FF0013E40E9062C40F81CEC3D
:100730004FF0113C4FF010324FF0093E40E90A2CC7
:1007400040F82CEC4FF0083C4FF007324FF0063EDB
:1007500040E90D2C40F838EC03464FF0053C4FF0D3
:1007600004326FF0020E40E9102C40F844EC43F8DC
:10077000481D184600BD00BF3D05001038B50E20CD
:1007800002F032FF0F2002F02FFF0121032004F0BE
:1007900071FA01234FF05041002442B2DFF828C023
:1007A0009340074D8CF800200648C1F88C31C1F801
:1007B00084312C7004F03AFAFFF7F4FE204638BD7D
:1007C00071140020AD06001070140020EFF30583B3
:1007D0000F2B84BF014A9B5C704700BFF0E300E031
:1007E000094B1B78FF2B0BD0EFF30583DBB22BB14A
:1007F0004FF05042106800EB4300704701F0EABE32
:100800004FF050431868704771140020154B026870
:100810001B78FF2B06D10023C2E88F3F81F310889D
:1008200020BF704700B5002383B0C2E88F3F81F33B
:1008300010884FF0FF3C012201680B48CDF800C042
:10084000091A0A48A0FB01E0000900EB4000A1EBF7
:10085000C001074802FA01F1006800F0C1F903B0D5
:1008600000BD00BF711400208C200020ABAAAAAAF2
:10087000D03502201F4B1B78FF2B33D04FF0010CDB
:1008800002681D4B00B5D21A1C4B83B0A3FB02E3D8
:100890001B0903EB4303A2EBC3020CFA02F340BFB4
:1008A0004FF0000C0268C2E88FCF81F31088EFF39D
:1008B00005821349D2B20868194622B903B05DF81F
:1008C00004EB00F0E3B901AACDF804C000F014FA7B
:1008D000019B2BB14FF0E0234FF08052C3F8042D61
:1008E00003B000BD40BF00230268C2E88F3F81F320
:1008F00010887047711400208C200020ABAAAAAA8F
:10090000D03502202DE9F041374C82B094F800C078
:10091000BCF1FF0F56D01D46144606460F468046D2
:1009200003F0DCFF40F2E733B4EB000C65EB0101B0
:100930001CEB030041F100013268B0F57A7F71F1E0
:10094000000316461DDA0023C6E88F3F87F31088A0
:10095000264B5A6A95420DD94FF0E0234FF0805252
:10096000C3F8042DBFF34F8FBFF36F8F002002B089
:10097000BDE8F0819B6AA34231D3012002B0BDE8FB
:10098000F0814FF47A7200230DF06AFA0028DAD071
:100990000023C6E88F3F87F3108801220090D8F823
:1009A00000101348091A1348A0FB01C0000900EB0E
:1009B0004000A1EBC001104802FA01F1006800F00C
:1009C0000FF9C5E700240068C0E88F4F81F3108855
:1009D0001046194602B0BDE8F04103F0C3BE95428F
:1009E000BAD00120CAE700BF7114002000000B40FC
:1009F0008C200020ABAAAAAAD035022008B500F0AE
:100A0000DDF8014B186008BDD035022001234FF0FE
:100A10005042034991F900108B40C2F88031704771
:100A20007014002000000000000000000000000022
:100A30000BA10CC9126853F82210086806C881F38C
:100A40000B88022181F31488203080F30988BFF3DA
:100A50006F8F4FF0000080F311881047AFF30080D4
:100A6000000000D08832002062B661B6BFF34F8F1D
:100A7000BFF36F8F66DF00BFEFF311804FF01001FF
:100A800081F31188BFF34F8FBFF36F8F704700BFA3
:100A900080F31188BFF34F8FBFF36F8F704700BF94
:100AA000EFF309811EF0100F08BF21ED108AEFF35C
:100AB0000B82734621E9FC0F55FC084457FC09647E
:100AC00059FC0A8401E9F00319A00CC8106853F816
:100AD000203019604FF0100181F31188BFF34F8F60
:100AE000BFF36F8F01F076FA4FF0000080F31188AA
:100AF0000FA10CC9126853F8221008681838B0E822
:100B0000F00345EC004447EC016449EC0284B0E892
:100B1000FC0F13F0100F08BFB0EC108A82F30B88A3
:100B200080F30988184700BFAFF30080AFF300805F
:100B3000000000D0883200201EF0040F0CBFEFF33D
:100B40000880EFF30980014908470000D50600102E
:100B5000F8B507460E4600F10C0501F009F9D7F883
:100B600000E03C6946EA0E03A5423B6021D09E4668
:100B700000260BE03BB1D30148BF46EA0C0602F069
:100B800051F8D7F800E0A542734610D0204602681D
:100B900043F0007122F07F4C12F0806F64680CEA21
:100BA0000303E7D09C45E6D0A5427346EED12EEA7A
:100BB00006033B60BDE8F84001F0FEBF00B51C2015
:100BC00083B0FFF79FFB034630B10022019040F84D
:100BD000042B00F09DF8019B184603B000BD00BF38
:100BE000F0B505460C461E4683B0174601F0C0F826
:100BF0002B6803EA04025EB922B32FB323EA04048C
:100C00002C60019301F0D8FF019B184603B0F0BDA2
:100C10009442F2D0089ABAB1391E18BF01210906D0
:100C200041F080612143281D01F0A6FB01F0C4FFC3
:100C300030B302F067F9830112D520F07F431846E4
:100C400003B0F0BD089A32B9019301F0B5FF019BE2
:100C5000184603B0F0BD391E18BF01210906E1E7AF
:100C600001F042FD286804EA000366B91BB117B120
:100C700020EA04042C60019002F0C8F80198DCE737
:100C800001F020FDD5E79C42F5D1F0E7F8B5054627
:100C90000E4600F10C0701F06BF8D5F800E02C6966
:100CA00046EA0E03A7422B6021D09E4600260BE0A9
:100CB0003BB1D30148BF46EA0C0601F0B3FFD5F8BB
:100CC00000E0A742734610D02046026843F000714E
:100CD00022F07F4C12F0806F64680CEA0303E7D0C7
:100CE0009C45E6D0A7427346EED12EEA06032B6060
:100CF00001F062FF2868F8BD00B513465DF804EB0B
:100D00000A460146014802F00DBB00BF510B00101E
:100D10004FF0FF31002200F10803C0E90131C0E9C2
:100D200003330260704700BF00230361704700BFB8
:100D3000D0E90032D2F808C00133C1E9012CCCF867
:100D40000410916008610360704700BF0A6810B426
:100D5000531C12D000F108039C465B681C68944247
:100D6000FAD910BC02684B6001329960C1F808C022
:100D7000CCF80410086102607047D0F810C0DCF8AD
:100D80000430EEE703460269D0E90101D2F804C05D
:100D900081609C45486008BF51600021106819615E
:100DA00001381060704700BF30B51546026C03462D
:100DB000846B83B03AB90268002A2AD0002001343B
:100DC0009C6303B030BD75B9406800930CF02EFEF3
:100DD000009B5A68186C996802448A425A60EDD3A5
:100DE0001A685A60EAE7C06800930CF01FFE009B87
:100DF000DA68196C1868521A8242DA6002D29A686C
:100E0000521ADA60022DD9D1002C18BF013C002003
:100E1000D5E780680192009301F0ECFBDDE9003238
:100E20009A60CCE72DE9F043064685B001F05CFC02
:100E300096F8454064B2002C1ADD06F1240707E05D
:100E4000AA6BEB6B03969A4238D3013CE4B27CB1B7
:100E5000B56C002DF4D1736A53B1384601F032FB02
:100E60000028F2D001F0ACFB013CE4B2002CEFD141
:100E7000FF2386F8453001F0C9FF01F035FC96F8F4
:100E8000444064B2002C03DC10E0013CE4B26CB1DD
:100E900033695BB106F1100001F014FB0028F4D0B7
:100EA000013CE4B201F08CFB002CF1D1FF2386F869
:100EB000443005B0BDE8F04301F0A8BF95F8458087
:100EC0002A6CAB6B4FFA88F803F101099AB92B68C9
:100ED000002B37D0B8F1FF3FC5F8389029D16B6AA5
:100EE000002BB2D005F1240001F0ECFA0028ACD0C0
:100EF00001F066FBB8E7686803A90CF097FD6B6822
:100F00002A6CC5F838901344AA686B60934209D3E1
:100F10002B68B8F1FF3F6B60E1D000F037FF404530
:100F200093D90AE0B8F1FF3FF7D16B6A002B8CD060
:100F3000D8E700F02BFF804587D208F1010885F83B
:100F4000458082E7A868019301F054FB019BB8F14A
:100F5000FF3F0246AB60C5F8389007D16B6A93B982
:100F6000002A3FF472AF01F02BFB7DE7019000F007
:100F70000DFF019A404584BF08F1010885F84580BE
:100F8000002AF0D161E7019005F1240001F09AFAFE
:100F900000287FF467AF019A002AE4D155E700BF2B
:100FA00030B5836C85B0996BDA6B0390914203D3B3
:100FB0000022104605B030BD93F845101A6C986BAE
:100FC0004CB2054602B3586803A901930CF02EFDFC
:100FD000019B5A68196C0A4499685A608A4201D385
:100FE0001A685A600022691C9963611C19D1596AF8
:100FF0000029DED003F12400019201F063FA0028F9
:10100000019A18BF0122D4E71A68002AEAD1986829
:101010000292019301F0EEFADDE901329A60024694
:10102000E1E7CDE9012300F0B1FE8442019AC0D28C
:10103000029B611C83F84510BBE700BF002844D029
:10104000A1FB00C3002B40D101FB00F313F1550FAE
:101050003BD830B5044683B003F1540015460191E6
:10106000FFF750F90346002832D00199002933D008
:1010700000F15402C3E90F411A600024019301F00A
:1010800033FBFF22019B9C63186C83F8442083F898
:101090004520DA6B196800FB02F2101A59600A4405
:1010A0000144C3E9022103F11000FFF731FE019B67
:1010B00003F12400FFF72CFE01F0A8FE019B184667
:1010C00083F850509C6403B030BD0023184670472D
:1010D0000023184603B030BD0246CBE72DE9F041AE
:1010E000022B84B01F4688460446019249D0002551
:1010F0002E4607E001F08AFE2046FFF793FE01F03E
:101100005BFD012501F0F0FAA26BE36B9A424ED32E
:10111000019B002B60D085B301F078FE00F028FE23
:1011200001F0E2FA94F84430FF2B08BF84F84460E1
:1011300094F84530FF2B08BF84F8456001F066FE47
:1011400001A902A801F0BEFD00284BD101F0CCFAA4
:10115000A26BE36B9A42CDD101F058FE019904F1E4
:10116000100001F0EFF82046FFF75CFE01F024FDCF
:101170000028C6D101F0A6FAC3E702A801F014FACC
:10118000CAE701F0B1FA3A4641462046A36BA56B87
:10119000FFF70AFEA36C9BB11DB92046FFF700FFC5
:1011A000B8B901F033FE012004B0BDE8F0813A4641
:1011B00041462046A36BFFF7F7FDA36C002BECD153
:1011C000636A002BECD004F1240001F07BF90028C5
:1011D000E7D001F077FAE4E701F018FE002004B050
:1011E000BDE8F0812046FFF71DFE01F0E5FCF5E7C4
:1011F0002DE9F843044691461D460E46FFF7E6FAF0
:1012000001F0B4FDA26BE36B80469A4208D3022D35
:1012100006D00024404601F045FE2046BDE8F88394
:1012200094F8453031462A465EB22046A76BFFF758
:10123000BBFD731C15D1A36CE3B1022D00D14FB9D6
:101240002046FFF7ADFE28B1B9F1000F02D001230F
:10125000C9F800300124404601F024FE2046BDE8D4
:10126000F88300F093FD8642F4D2731C84F8453075
:101270000124F0E7636A002BECD004F1240001F0B4
:1012800021F90028E0D1E5E7F0B5044685B00F4626
:10129000019201F029FAA56B002D53D1019BA3B354
:1012A00002A801F081F92E4601F0B0FD00F060FDCA
:1012B00001F01AFA94F84430FF2B08BF84F8446018
:1012C00094F84530FF2B08BF84F8456001F09EFD7F
:1012D00001A902A801F0F6FCE0B901F005FAA36B40
:1012E0002BBB01F093FD019904F1240001F02AF8D1
:1012F0002046FFF797FD01F05FFC00B301F0F4F921
:10130000A56BFDB9019B002BCED101F07FFD002024
:1013100005B0F0BD2046FFF785FD01F04DFC01F062
:10132000E3F9A36B002BF0D001F070FDE6E701F0CC
:101330006DFD2046FFF776FD01F03EFCDEE701F093
:10134000C1F9DBE7226C5AB1E168A3681144994204
:10135000E16028BF2168384628BFE1600CF066FBD9
:101360002369013DA56323B901F050FD012005B0BB
:10137000F0BD04F1100001F0A5F80028F4D001F050
:10138000A1F9F1E7002953D0434B5A68904270D03D
:101390001A6810B4002A2BD0DA68904279D09A6883
:1013A000002A3FD05A69904271D01A69002A40D071
:1013B000DA69904263D09A69002A40D05A6A904212
:1013C00042D01A6A002A43D0DA6A904259D09A6A07
:1013D000002A42D05A6B904255D01A6B002A41D055
:1013E000DA6B904251D09B6B002B40D010BC704701
:1013F000DA6890424DD05A69904248D01A46DC696A
:10140000A0423CD05C6AA0421ED0DC6AA04238D028
:101410005C6BA04237D0DC6BA04236D010BCC2E976
:10142000001070475A69904231D003F10802E6E794
:101430007047DA69904222D003F11002E2E75A6A5B
:10144000904201D0154AE0E7042203EBC202E5E72F
:10145000DA6A904215D0124ADAE75A6B904212D0FB
:10146000104AD8E7DA6B90420FD00F4AD6E70F4AFE
:10147000D4E7002203EBC202C2E900107047032246
:10148000E3E70522E1E70622DFE70722DDE70222A4
:10149000DBE70122D9E700BF001E0020181E002054
:1014A000201E0020281E0020301E0020381E002094
:1014B00070B504460D46164601F016F994F844300E
:1014C000FF2B04BF002384F8443094F84530FF2BF1
:1014D00004BF002384F8453001F098FCA36B23B1CE
:1014E0002046BDE87040FFF79DBC04F12400324661
:1014F000294600F097FF2046BDE87040FFF792BCF8
:10150000064C08B5FFF7DAF82368022B00D8FEE78F
:10151000FFF7D4F82368022BFAD8F8E7A4320020AA
:10152000836B002B02DB836B012B1DDD3D4B026BBC
:1015300070B5511ED3F800E01C681A6882B0926B37
:10154000002A03DB1A68926B012A0EDD5A68D3F871
:1015500004E014465A68926B002A03DB5A68926BC7
:10156000012A29DD02B070BD7047DFF8BCC0DCF88D
:101570000020002AEAD1E46BDEF8305004F0010EBE
:10158000A5EB0E0E7145E1DB4468E407DED5596832
:101590000E4659680C465968896B002920DB59684A
:1015A000896B01291CDCDCF804100D46C1B97146B9
:1015B000326BD4F83CE00AE0DFF86CC0DCF80420C1
:1015C000002ACFD14FF0FF35226BDEF83CE00EF061
:1015D000010EA2EB0E028A421EDD0135C2D00022AE
:1015E0004FF0504109688A4211D053F82210896B9C
:1015F0000231B7D010460192FFF708FA6FF00101EF
:10160000019A084B53F82230996302B070BD012350
:101610004CF8223002B070BD42689207DDD501223D
:10162000DEE700BF88320020503602204FF05041E4
:101630001B4B0A6853F8220060B353F822000138AC
:1016400043F822000A6853F822301BBB10B5154B33
:10165000154853F822301C460378013BDBB2037077
:101660003BB9DFF84CC00CF81230104AC2E88F3F8B
:101670000A684378013BDBB2437033B90C490D482B
:1016800001EB42025370C0E88F3F0020FFF700FAE1
:101690000CB910BD7047BDE81040FFF70FB800BF90
:1016A0004C35022050360220483502209A20002076
:1016B000443502209B2000202DE9F8439500074681
:1016C00028460E469946FEF71DFE002800F0898048
:1016D00080467C20FEF716FE044600287ED07C2241
:1016E00000210CF0FBF840462A46C4F83480A521BE
:1016F0000CF0F4F8636B043D2B4423F00708002E34
:101700003ED0337884F84030002B36D0737884F89C
:10171000413093B3B37884F8423073B3F37884F8EC
:10172000433053B3337984F8443033B3737984F856
:10173000453013B3B37984F84630F3B1F37984F8C4
:101740004730D3B1337A84F84830B3B1737A84F830
:10175000493093B1B37A84F84A3073B1F37A84F89C
:101760004B3053B1337B84F84C3033B1737B84F806
:101770004D3013B1B37B84F84E30002384F84F30E2
:10178000089D04F108001F2D28BF1F252563A565AE
:10179000FFF7CAFAC5F1200504F11C00FFF7C4FAEF
:1017A0004B463A464046616BE5616461A462FEF7D0
:1017B000A7FF4FF0FF320D4B20609F42A26308D07D
:1017C0000B4B9F4205D0099B03B11C602046BDE82E
:1017D000F883E36B43F00103E363F4E74046FEF76D
:1017E00035FE00242046BDE8F88300BF051C00102C
:1017F000011500104FF050424F4B12682DE9F04791
:10180000DFF840914D4CDFF8408153F822604C4D99
:1018100040E0DFF838A10020FFF73AF9FFF72CF994
:101820004FF050431B68DAE8CF2F0121002A01D185
:10183000CAE8421FBFF35F8F002A50D15B0001222C
:10184000434462705A704FF050431A68D5E8CF3F56
:101850000121002B01D1C5E8431FBFF35F8F73B196
:1018600018F81230002B4BD1D5E8CF1F01230029E7
:10187000FAD1C5E8413F0029F6D1BFF35F8F0123BC
:10188000237008F812304FF050431A6849F822705C
:10189000002F3FD0B36B02334CD14FF050410A6858
:1018A00059F822706FB1002349F8223023780A6872
:1018B000013BDBB2237023B908F81230C5E88F3F33
:1018C0000A686378013BDBB26370002BA1D108EB9F
:1018D0004202DFF878A05370CAE88F3F9BE708EB1D
:1018E000430252785B000ABBDAE8CF1F01220029CD
:1018F000FAD1CAE8412F0029F6D1BFF35F8F9EE7E6
:101900002378013323704FF050431A6849F822704E
:10191000002FBFD11A682378013BDBB22370002B64
:10192000B8D108F81270C5E88F7F70E7637801338B
:10193000637088E7BDE8F0878832002048350220D0
:101940009A2000204C350220443502209B200020A4
:1019500030B583B0FFF790F84FF050420546404B4A
:101960001268D3E8CF1F0120002901D1C3E8410F3D
:10197000BFF35F8F3B4800294BD1510001233A4A06
:10198000014453704B70394B1968002954D04FF003
:10199000504C3749DCF800E0D1E8CFCF0124BCF14E
:1019A000000F01D1C1E84C4FBFF35F8FBCF1000FB6
:1019B00010D010F81EC0BCF1000F4AD1D1E8CF4FB3
:1019C0005FF0010C002CF9D1C1E844CF002CF5D117
:1019D000BFF35F8F4FF0010C82F800C000F81EC00B
:1019E0004FF0504ED3F800C00CF1010CC3F800C00A
:1019F0001378DEF800C0013BDBB213701BB900F8AE
:101A00001C30C1E88F3F284603B0BDE83040FFF7E7
:101A10003FB8510000EB42025278AAB9D3E8CFCFC9
:101A20000122BCF1000FF9D1C3E84C2FBCF1000F2B
:101A3000F4D1BFF35F8FA1E7CDE90020FFF7DAFE15
:101A4000DDE90020094BA2E7074A537801335370C0
:101A500099E792F800C00CF1010C82F800C0BFE7D2
:101A60009B20002044350220483502207435022096
:101A70009A2000202DE9F843584C594E594FDFF871
:101A80007C91DFF87C812368002B37D0FEF7F4FFD0
:101A9000336893B14FF050431B6857F82320002A56
:101AA0003BD04FF0504157F82320013247F8232014
:101AB0000B6857F82330012B28D0236803B34A4B17
:101AC000DB68DD68AB6B013340F0818005F1080015
:101AD000FFF758F9454A1368013B13602368013B3F
:101AE000236033680BB1FFF7A1FD686BFEF7AEFC16
:101AF0002846FEF7ABFC2368002BC7D1BDE8F8836E
:101B00003368002BBFD0FFF791FDBCE7D9F8003058
:101B1000002BD2D1FFF76EFECFE7D8E8CF2F0121FF
:101B2000002A01D1C8E8421FBFF35F8F002A32D1DB
:101B30002F4A590001232F48114443704B704FF036
:101B400050452D4B2968D3E8CFCF5FF0010EBCF193
:101B5000000F01D1C3E84CEFBFF35F8FBCF1000F62
:101B600011D012F811C0BCF1000F26D1D3E8CFCFAD
:101B70000125BCF1000FF9D1C3E84C5FBCF1000FA7
:101B8000F4D1BFF35F8F01234FF05045037002F88B
:101B900011302B6885E7164A590002EB43035B7846
:101BA00083B9D8E8CF0F01230028FAD1C8E8403F15
:101BB0000028F6D1BFF35F8FBCE7037801330370D1
:101BC0002B686EE70B48437801334370B7E73368FF
:101BD000002B93D0BDE8F843FFF728BD70350220F5
:101BE000103602204C350220303602206C3502209F
:101BF00044350220483502209A2000207435022006
:101C00009B20002008B5FEF759FD044CFFF732FF7A
:101C10002368022BFAD9FEF751FDF7E7A432002022
:101C20002DE9F04F4FF050454B4C4C4A4C4B24683B
:101C300012681B6883B0924688469B46494EA1466F
:101C40000446FEF719FF2B6856F82370FEF720FFB5
:101C5000002387F87930FEF70FFF2B6856F82370C2
:101C6000FEF716FF07F10800FFF78CF8631C02D19E
:101C7000B8F1000F34D14FF0504519EB04042CBFDC
:101C800001270027FEF7F8FE2B6856F82330019352
:101C9000FEF7FEFE019B9C609FB9FEF7EDFE2B68F0
:101CA00056F82350FEF7F4FE504605F10801FFF701
:101CB0004DF82D4B1A68A24288BF1C6003B0BDE8E6
:101CC000F08FFEF7D9FE2B6856F82340FEF7E0FEB2
:101CD000584604F1080103B0BDE8F04FFFF736B8ED
:101CE000224C6768FEF7C8FE2B6856F82330019334
:101CF000FEF7CEFE019BDF60FEF7BEFE2B6856F8B6
:101D000023300193FEF7C4FEBA68019B1A61FEF707
:101D1000B3FE2B6856F823300193FEF7B9FE019B02
:101D2000BA6808335360FEF7A7FE2B6856F82330D5
:101D30000193FEF7ADFE019B0833BB60FEF79CFEEE
:101D40002B6856F82350FEF7A3FE2368AC610133DD
:101D5000236003B0BDE8F08F4436022094320020A7
:101D60009C32002088320020E83502201C360220F8
:101D7000024B1B6803B97047FFF7EABD103602201B
:101D8000014B1868704700BF44360220014B1868A9
:101D9000704700BF6C350220834B2DE9F0471B686C
:101DA0005BBB824B1D6801351D6075B3DFF818A25F
:101DB000DAF80030AB423FD97D4C7E4D2B681B6B6F
:101DC00003EB830354F82330012B6B681B6B03EB8D
:101DD000830354F8233040F29480012B4FF050439A
:101DE0001E6840F2A780002E00F0CF802B689B6B0E
:101DF000023300F0B2800124A2E000246E4A13688E
:101E0000013313602046BDE8F0876C4B6C4A1868BC
:101E1000116819606B4910600A6801320A601A681B
:101E20001268002A79D1684A4FF0FF339246136056
:101E3000DAF80030AB42BFD8604E5D4C33681B68A7
:101E4000002B00F0A480DFF888914DE0D3F818E073
:101E5000D3E90372BA60DF6818465760DEF80420E1
:101E60008A4204BF1A69CEF80420DEF80020013A45
:101E7000CEF80020D3F82CE0BEF1000F12D0D3E949
:101E80000872BA601F6A57600027DEF804206245B6
:101E900004BF5A6ACEF80420DEF80020DF62013A5F
:101EA000CEF800201A6BD9F800E002EB820C7245E4
:101EB00004EB8C0E88BFC9F80020DEF80420DA603D
:101EC000D2F80880C3F81080C8F80410916054F864
:101ED0002C20C3F818E0013244F82C20FFF720FB37
:101EE00033681B68002B52D03368DB68DB689A6864
:101EF00003F10801954203F11C0CA7D2CAF8002097
:101F00005BE7012B10D94FF05042304B16681B682D
:101F10001BB3002E7FF46AAF37E01B682A4ADB68E8
:101F200092461B68136043E74FF05041274B0E6801
:101F30001A6872B136B32B689B6B023308D0002449
:101F40000020FEF763FD6FF001022B689A6324B94D
:101F50001E4B5C68002C3FF455AF012E1CD00024B2
:101F60004FF050431B68012B1AD06B689B6B0233F8
:101F70003FF448AF0120FEF749FD6FF001026B68A6
:101F80009A633FE7114B5B6833B10124E8E74FF0F8
:101F9000FF33CAF8003010E701242046BDE8F0877F
:101FA0000A4A53602EE700BF7435022044360220EF
:101FB000A432002088320020F8350220943200201C
:101FC0009C320020EC350220E835022050360220F9
:101FD0007C3502204FF050432DE9F0470246DFF8F0
:101FE00034821B6882B0D8E8CF1F0120002901D1BC
:101FF000C8E8410FBFF35F8F7F4E00294CD15900D5
:1020000001207E4B3144587048704FF05041DFF84A
:1020100008A20868DAE8CF1F0124002901D1CAE824
:10202000414FBFF35F8F79B116F81010002940F0CF
:10203000BE80DAE8CF4F0121002CFAD1CAE8441F54
:10204000002CF6D1BFF35F8F0121197006F8101034
:102050006B490968002932D001244FF0504169488A
:1020600040F822400D681A78013AD2B21A7032B99B
:1020700006F81520CAE88F2F4FF0504215685A789D
:10208000013AD2B25A7022B906EB45056A70C8E827
:102090008F2F02B0BDE8F087590006EB43035B7851
:1020A000002B40F08880D8E8CF0F01230028FAD118
:1020B000C8E8403F0028F6D1BFF35F8FA0E7514842
:1020C000514CDFF8589140F82210D9F8005054F8DC
:1020D00022104E4F886954F82210096B01EB8101E0
:1020E00007EB8101884270D0494805EB850100EB80
:1020F000810050F8081C61B9D9F800101438013972
:10210000C9F80010002D5CD050F8081C013D0029D2
:10211000F2D04FF0010C864699460CFA02FCDEF82C
:102120000410714507D12EE054F82230984233D084
:102130004968714527D0C868836B5F1CF4D1476834
:102140001CEA070FF4D0194686464FF0504554F864
:1021500022004B46816354F822C0CEF838202D6807
:1021600044F822E0BCF1000F0AD0DCF830E0274F41
:102170000EEB8E0007EB8000DCF8187087424FD022
:1021800054F825206FE7AEF1140ECDB15EF8083C8F
:10219000013D002BF7D0C2E743681CEA030FC7D00C
:1021A00082634FF0504286464B461568E8E719783F
:1021B000013119704CE7114B59780131597024E7FE
:1021C0004B464FF050421568DAE754F8220001936D
:1021D00008300092FEF7D6FD009A54F82210086BE2
:1021E00054F8221000EB800007EB80000831FEF766
:1021F0009FFDDDE9002377E74435022048350220C2
:10220000743502205036022088320020A43200208B
:10221000AC3200209B2000209A2000207C35022038
:10222000DCF80490DCF83C0029FA02FC00F0010024
:102230001CF0010FAEEB000004D054F822205268CD
:1022400029EA020919F0020F09F0030268D0626856
:10225000D4F804C0126BDCF83CC009F0010E0CF09D
:10226000010CA2EB0C0290420DDDD4F804C0DCF8A6
:1022700038C0BCF1000F06DBD4F804C0DCF838C06D
:10228000BCF1010F34DDBEF1000F3FF479AF2268DD
:10229000D4F800C0126BDCF83CC00CF0010CA2EBCF
:1022A0000C0290427FF76CAF2268926B002AFFF617
:1022B00067AF2268926B012A3ADD01313FF460AFCB
:1022C0004FF00109A9452ED054F82920926B023213
:1022D0003FF456AF6FF0010548460093FEF796FBBA
:1022E0004FF0504254F82910009B8D63156847E762
:1022F000134FD7F804C0BCF1000FC4D1BEF1000FDA
:10230000DED021682068096BC06B00F00100091A5B
:102310008A42D5DD2268926B002AD1DB0121C8E711
:10232000002AB4D12CE70122054941F8252048E7CD
:10233000034AD2F80090B9F1000FC3D0BDE700BF47
:102340005036022070B50D460646FEF795FB4FF05D
:102350005042084B126853F82240FEF799FB304672
:1023600004F11C01FEF7F2FC2846BDE87040012193
:10237000FFF756BC88320020F0B54FF050450F46AD
:10238000064683B00192264CFEF776FB2B6847F099
:10239000004754F823300093FEF77AFB009BDF617F
:1023A0007768FEF769FB2B6854F823300093FEF73B
:1023B0006FFB009B1F62FEF75FFB2B6854F8233016
:1023C0000093FEF765FBB968009B5962FEF754FB6A
:1023D0002B6854F823300093FEF75AFB009BB96832
:1023E0001C334B60FEF748FB2B6854F823300093F6
:1023F000FEF74EFB009B1C33BB60FEF73DFB2B68DA
:1024000054F82340FEF744FB0121336801980B4444
:10241000E662336003B0BDE8F040FFF701BC00BFE7
:10242000883200202DE9F0414FF0504582B00192F2
:10243000884647680646224CFEF71EFB2B6854F878
:1024400023300093FEF724FB009B1F62FEF714FB72
:102450002B6854F823300093FEF71AFBB968009BF1
:102460005962FEF709FB2B6854F823300093FEF7FE
:102470000FFB009BB9681C334B60FEF7FDFA2B681D
:1024800054F823300093FEF703FB009B1C33BB6022
:10249000FEF7F2FA2B6854F82340FEF7F9FA019A96
:1024A0003368002A11460CBF40464FF0FF3001331D
:1024B000E662336002B0BDE8F041FFF7B1BB00BF98
:1024C0008832002038B54FF0000EC368D868C36A60
:1024D000D0E908128A60D3F804C0046A00F11C0134
:1024E00054608C4504BF426A5A602A4AD2F800C040
:1024F0001A68C0F82CE0013A1A60BCF1000F38D11C
:10250000D0E9031283698A60C468596800F1080E33
:102510005460714508BF02691F4908BF5A601A68B4
:10252000013A1A60036B0A6893421C4A88BF0B6029
:1025300003EB830302EB8301D1F804C052F823407C
:10254000C0F80CC0651CDCF808400461C4F804E065
:10255000CCF808E0816142F82350FEF7E1FF4FF02C
:1025600050420F4B126853F82200003818BF012068
:1025700038BD0C4BD3F804C0C0F820C0DCF80820EC
:10258000426251601A68CCF808100132C3621A60C6
:10259000E3E700BF743502207C350220A43200201E
:1025A00050360220FC350220034A044B12681B6897
:1025B000C0E90023704700BFEC35022044360220FA
:1025C0004FF050420121024B126843F8221070472D
:1025D0005036022010B5FEF74FFA4FF05042044B30
:1025E000126853F822301C46FEF752FA204610BDFE
:1025F0008832002040B10346C26D996D006B013AEC
:102600008842DA6500D00AB10020704730B503F186
:10261000080083B003F108040193FEF7B3FB019BAC
:1026200024499A6D08681A63824288BF0A60224969
:10263000C2F1200C02EB820201EB820EC3F81CC037
:10264000DEF804C051F82200C3F80CC0451CDCF8C9
:10265000080018614460CCF80840C3F818E041F85D
:1026600022509A6B002A02DB9A6B012A02DD0120BC
:1026700003B030BD4FF05042996B1268914213D0B5
:10268000996B0E4A52F82110896B0231EFD0986B8A
:102690000193FEF7BBF96FF00101019B074A9B6BA9
:1026A00052F823309963E2E701219A6B044B43F817
:1026B0002210DCE77C350220A43200208832002082
:1026C000503602204FF05043054A1B6852F8232031
:1026D00022B10121034A42F823107047FDF7EEBFF3
:1026E0004C3502205036022038B5FEF7C5F93E4B76
:1026F0001B6893B14FF050433C4A1B6852F82310BB
:10270000A1B14FF0504052F82310013142F823108C
:10271000036852F82330012B00D038BD344B1B68BE
:10272000002BFAD1BDE83840FFF764B83149D1E851
:10273000CF0F5FF0010C002801D1C1E840CFBFF3FB
:102740005F8F002830D12C484FEA430C01232B49DE
:1027500084444B708CF801304FF0504E284BDEF81B
:1027600000C0D3E8CF4F0125002C01D1C3E8445F5E
:10277000BFF35F8F7CB110F81C40002C29D1D3E847
:10278000CF4F5FF0010E002CF9D1C3E844EF002CCD
:10279000F5D1BFF35F8F01234FF0504E0B7000F85F
:1027A0001C30DEF80030ACE713484FEA430C00EB76
:1027B00043035B789BB9D1E8CFEF0123BEF1000F53
:1027C000F9D1C1E84E3FBEF1000FF4D1BFF35F8FE6
:1027D000BCE70B7801330B70DEF8003091E7074956
:1027E0004B7801334B70B7E7103602204C3502208E
:1027F000743502209B2000204435022048350220F9
:102800009A2000202DE9F0410546FFF76DFF2F4A81
:102810002F4F1368013313603B685BB32D4E2E4B73
:1028200005F108041A6801322A651A602B4A2B6BDD
:1028300011688B4288BF136003EB830306EB8300B0
:10284000416856F82320E960D1F808C0D7F800E0C5
:102850000132C5F810C0CCF804408C60A86146F87D
:102860002320BEF1000F2CD13B6843B3BDE8F041FB
:10287000FEF7DCBE1368174E012BD0D1344606F5A7
:10288000207820461434FEF743FAA045F9D1DFF84A
:102890006880134C4046FEF73BFA2046FEF738FAB4
:1028A0001048FEF735FA1048FEF732FA0F48FEF7E7
:1028B0002FFA0F4BC3F800800E4B1C60AFE7BDE84A
:1028C000F0812846FEF72CFECEE700BF6C350220D3
:1028D00010360220A4320020783502207C350220F8
:1028E000BC350220FC350220303602201C36022086
:1028F000943200209C320020A835022010B582B00E
:10290000049C0094059C0194FEF7D6FE38B14FF06C
:10291000FF324260FFF776FF012002B010BD4FF09A
:10292000FF3002B010BD00BF10B582B0049C00940F
:10293000069C0194FEF7C0FE30B1059A4260FFF795
:1029400061FF012002B010BD4FF0FF3002B010BD9A
:102950002DE9F04130230024254E264A86B0CDE9EA
:102960000162ADF80C304FF400722346224802A9F0
:102970000094FEF7A1FE3546204F10B34FF0FF380C
:10298000C0F80480FFF73EFF2B689C6347F82430B3
:10299000E4B90435002331244FF40072184801953E
:1029A00002A90093ADF80C40FEF786FE0124002832
:1029B000E4D173689C637B60124B1B6806B0BDE872
:1029C000F08155F8043B98633B60E3E700F064FC5A
:1029D0000128F1D1FEF750F800220B490B4B0C48AF
:1029E000C0F800800C601A60FDF7C8FEE4E700BF85
:1029F000D835022049444C45051C0010883200207F
:102A000001150010E0E400101036022044360220C8
:102A1000E83502202DE9F84FFFF766FE4FF05040F1
:102A2000584A594913680468013B13604B780068A1
:102A3000013BDBB2A3464B7033B9544901EB400173
:102A40004B705349C1E88F3F1468002C6BD1514B38
:102A50001868002870D0DFF858E1DEF80030002B4D
:102A600053D0DFF850A14C49DEF80C30DB68DA6A4D
:102A7000D3E9080686601D6A506803F11C0775607B
:102A8000B84204BF586A50601068DC6201381060B8
:102A90009A69D3E903078760D868D2F804C07860E0
:102AA000176803F10800844508BF1D6907F1FF3767
:102AB000176008BF5560DAF800601A6B02EB8207F6
:102AC000B242BC4601EB870938D9D9F80460CAF88C
:102AD0000020DE60D6F808C051F82720C3F810C0E7
:102AE000CCF80400B060C3F81890DEF80030013272
:102AF00041F82720002BB7D1284B1A681268002A0A
:102B00003AD14FF0FF32264B1A60264F3C6864B32F
:102B10000126254DFFF740F908B145F82B60013C2F
:102B2000F8D13C6022E00024204B1B680BB1FEF77B
:102B30007DFD2046BDE8F88F0446F5E7D9F804602E
:102B400051F82720DE60B76801321F617860B060FD
:102B5000C3F81890DEF8003041F82C20002B83D108
:102B60000E4B1A6812683AB9CBE70F4D55F82B4057
:102B7000003C18BF0124D7E71A68094BD2681268D5
:102B80001A60C2E77435022048350220443502201D
:102B90009B2000206C350220A432002094320020BB
:102BA000E8350220F8350220503602201036022087
:102BB000FC3502207C350220024B186800B97047B2
:102BC000FFF728BF1036022000B583B040B1124B8A
:102BD0001A68E2B90021FFF723F80F4B1B688BB985
:102BE0004FF050430D4A1B6852F823202AB10121AF
:102BF0000B4A42F8231003B000BD03B05DF804EBAC
:102C0000FDF75CBDFFF706FF0028E9D0F3E7019070
:102C1000FEF79EFE0198DDE7103602204C350220BB
:102C20005036022041F0004138B5D0E90152C46865
:102C300003690160AA6055600025596804F1080C19
:102C4000814208BF5A601A68D4E903E1013A05617C
:102C50001A60A369CEF80810E2684A605A681649FB
:102C6000624504BF22695A601A68013A1A60236BF0
:102C70000A689342114A88BF0B6003EB830302EB9F
:102C800083004168E1608D682561C5F804C0C1F822
:102C900008C052F82310A061013142F82310FFF759
:102CA00023FD2046FEF73CFC054B1B681BB1BDE82D
:102CB0003840FEF7BBBC38BD7C350220A432002072
:102CC000103602202DE9F04304464FF05046234FC2
:102CD00083B00191FFF708FD3B68214D984663687A
:102CE0009946FDF7C9FE336855F823300093FDF788
:102CF000CFFE009B019993F8793023BB0B685A1CD7
:102D000017D0184A20681568A84206D06068404568
:102D100003D800230B6001240CE0A8EB09008342D8
:102D2000F7D91068A3EB08033A684B440B60C4E979
:102D3000000200240C4B1B680BB1FEF777FC204609
:102D400003B0BDE8F083FDF797FE336855F82340E4
:102D5000FDF79EFE002384F87930DCE7443602203C
:102D600088320020EC35022010360220224B1868F1
:102D700000B9704710B5FDF77FFE4FF05042DFF805
:102D800084C013685CF8231029B15CF82320013259
:102D90004CF8232010BD1949D1E8CFEF0124BEF132
:102DA000000F01D1C1E84E4FBFF35F8FBEF1000F9E
:102DB0000AD1DFF854E0012211490A700EF81320FD
:102DC0004FF050431B68E0E7DFF83CE01EF813408B
:102DD0005CB9D1E8CF4F0122002CFAD1C1E8442FD1
:102DE000002CF6D1BFF35F8FE5E705490B7801337F
:102DF0000B701368C9E700BF103602209A2000202C
:102E0000483502204C350220443502201E4B1B68F9
:102E1000002B33D04FF050411C4B0A6853F822006E
:102E200060B353F82200013843F822000A6853F8CF
:102E300022301BBB10B5164B164853F822301C46E7
:102E40000378013BDBB203703BB9DFF850C00CF8EC
:102E50001230114AC2E88F3F0A684378013BDBB267
:102E6000437033B90D490E4801EB42025370C0E87C
:102E70008F3F0020FDF70CFE0CB910BD7047BDE878
:102E80001040FDF71BBC00BF103602204C3502205D
:102E900050360220483502209A2000204435022076
:102EA0009B200020124B1B680BB34FF05041114B7D
:102EB0000A6853F822C0BCF1000F18D053F822C0A2
:102EC0000CF1FF3C43F822C00A6853F8223073B972
:102ED00009490B78013BDBB20B7033B9DFF820C036
:102EE00006490CF81230C1E88F3FFDF7D1BD70479D
:102EF000103602204C350220483502209A2000204E
:102F000044350220F8B54FF05046FDF7B5FD0D4DA4
:102F1000336855F82340FDF7BBFDE769FDF7ACFDCD
:102F2000336855F82340FDF7B3FD246BFDF7A4FD8E
:102F30003368C4F1200455F82350FDF7A9FD384645
:102F4000EC61F8BD883200202DE9F04FAC4FDFF87E
:102F5000B8B2DFF8B882AB4D87B03B681C68002C74
:102F600040F01D81FEF704FFFEF70AFFDBF800309A
:102F70008146834247D8D8F80030CBF800001A6861
:102F8000B2FA82F252092868A4EB0901FEF790FA1E
:102F9000FFF712FE002800F024810023CDE9023360
:102FA000CDE904330022286802A9FEF76DF9002854
:102FB000D3D0029B002BC0F2E980DDF810A0DAF834
:102FC00014301BB10AF10400FDF7DCFEFEF7D8FE59
:102FD000DBF800300190984243D3DDE90123013B47
:102FE000CBF80020082BDDD8DFE803F06161C0A535
:102FF000C76161C0A50022F001028AF8282050466E
:10300000DAF8203098473B681A68002A00F0D98027
:10301000DA68D2F80CA014680AF104063046FDF70D
:10302000B1FE9AF828205107E5D503E05046DAF8BA
:1030300020209047DAF81820CAF810A01119A41817
:10304000CAF80410F2D33146D8F80000FDF77EFE2E
:10305000D5E721F0010189F828104846D9F8203039
:1030600098473B681968002900F0B580D968D1F805
:103070000C900C6809F104063046FDF783FE99F8C0
:1030800028104807E5D503E04846D9F820108847BE
:10309000D9F81810C9F8109008196418C9F8040074
:1030A000F2D33146D8F80000FDF750FED5E79AF884
:1030B00028000399DAF81840019A0B1940F001062C
:1030C0008AF828602CBF012600269342CAF80430F3
:1030D000CAF810A000F28880511A8C423FD84107EC
:1030E00012D420F001008AF828005046DAF8203087
:1030F000984757E78C4200F2C780DAF820305046F4
:1031000098473346DAF81840019AE6182CBF012098
:103110000020B242A2EB0301CAF80460CAF810A072
:10312000E8D29A4201D20028E7D038680AF10401B7
:10313000FDF70CFED9E70399019A9AF82830881810
:1031400043F0010390428AF82830CAF81810CAF8F0
:103150000400CAF810A04CD800293FF423AFD8F8D7
:1031600000000AF10401FDF7F1FD1BE79AF8283091
:1031700023F001038AF8283014E79AF828309A07D8
:1031800078D523F001038AF828300BE7039BDDE9AB
:1031900004019847029B002BFFF604AF0DE7DB68A4
:1031A0001C68FEF7E5FDFEF7EBFDDBF8003081461D
:1031B00083423FF628AF8442CBF8000028D9002292
:1031C000E1E6D8F80020CBF800903A60C8F800306B
:1031D000FFF7F2FCE1E6D8F80010C8F800303960DB
:1031E000FBE6FFF76FFAD8E6914202D9002E3FF4D2
:1031F00076AF38680AF10401FDF7A8FDD2E600BFFA
:103200009032002048360220E0350220A032002013
:10321000FFF7D2FC3B68DB68DE68331D184601937C
:10322000FDF7B0FD96F8282053070DD422F00102D7
:1032300086F828203046336A9847AEE681421DD88A
:103240003046316A88475446B169A9EB040014EB53
:10325000010A2CBF01230023CA45C6F804A0366129
:10326000ECD94C4501D9002BEAD001993868FDF71B
:103270006DFDDFE75046FDF7E9F893E60199D8F8D0
:103280000000FDF763FDD5E7D8F800000AF104015E
:10329000FDF75CFD29E700BF10B5194C86B0FFF7BC
:1032A00023FA22689AB1FFF7B1FD206868B14FF0A8
:1032B000FF3C1F241349002302914FF48062CDE9A3
:1032C000004C11491148FFF72FFB06B010BD104804
:1032D0000592FDF71DFD0F48FDF71AFD0E490D483B
:1032E0000E4B08600A4810211860059A0A20FDF765
:1032F000A5FE20600028D6D00949FEF743F8D2E7A2
:10330000483602204C36022050DF0010492F0010B2
:103310008035022094350220A03200209032002017
:1033200048DF001070B56FF0010C964604460D465C
:103330001A46074B84B0694618680023CDE9014559
:10334000CDF80CE0CDF800C0FDF752FF04B070BD21
:103350004836022000EB400C4FEA8C0C0CF1804CFC
:103360000CF5803C70B51E46DCF80430041FB3F544
:10337000803F38BF4FF48033E4B238BFCCF804301C
:10338000012C2ED94FF40065284B0CF5405ECEF889
:10339000005053F820E0BEF1000F17D1DCF800E038
:1033A000012C8EEA421202F0E0020CF5805ECEF8AB
:1033B00000202BD94FF4006143F820604FF4803394
:1033C0000CF500521160CCF8043070BD5D69B5FB9E
:1033D000FEFE0EF1010E0EEB4E0EBEF1030EFCD200
:1033E000DCE70129CED103240CF540531C60DCF846
:1033F0000830DB07FBD5DCF800300CF5805E83EA93
:10340000421303F0E003CEF80030084B0122DCF851
:1034100000404C4004F00304CEF8004002FA01F1F1
:10342000DCF808200A42FBD0C4E700BFEC240020EF
:10343000014B53F820007047EC2400200FB400B576
:10344000084883B007F0CEFA049B3BB105A91846A3
:10345000019107F021F9044807F0C4FA012007F0B0
:1034600033F900BF58DF001068DF0010EFF3108061
:1034700072B6064BD3E8CF1F01220029FAD1C3E868
:10348000412F0029F6D1BFF35F8F704797200020AE
:103490000023034AC2E88F3F80F31088704700BFC3
:1034A0009720002070B51646EFF3108472B6DFF84F
:1034B00048E0DEE8CF2F0123002AFAD1CEE8423FD0
:1034C000002AF6D1BFF35F8F012301F0070CCA0871
:1034D00003FA0CF310F802C01CEA030508D14CEA09
:1034E000030C00F802C0CEE88F5F84F3108870BD33
:1034F0003046FFF7A3FF00BF97200020F8B50F4626
:103500001946EFF3108672B61C4DD5E8CF4F012354
:10351000002CFAD1C5E8443F002CF6D1BFF35F8FF1
:103520008A421BD8012402E00132914222D3D308FF
:1035300010F803E002F0070C04FA0CFC1EEA0C0F72
:10354000F2D14EEA0C0E00F803E010460023C5E865
:103550008F3F86F31088984207DBF8BD0023C5E84B
:103560008F3F86F310884FF0FF30002FF5D006987C
:10357000FFF764FF4FF0FF30E8E700BF972000201F
:1035800000B5EFF3108E72B6104BD3E8CFCF012207
:10359000BCF1000FF9D1C3E84C2FBCF1000FF4D1FE
:1035A000BFF35F8F01224FEAD10C01F0070102FA4D
:1035B00001F110F80C2022EA010200F80C20002290
:1035C000C3E88F2F8EF3108800BD00BF9720002026
:1035D000044A1078431CDBB2182B28BF1023137049
:1035E000704700BF721400200146024A0248FFF7EC
:1035F00059BF00BF6CDF0010E024002000B5DFF8E9
:103600001CC083B001461F231822CDF800C0024819
:10361000FFF774FF03B000BDE02400208CDF001032
:103620004FF0E022936843F000539360704700BF6F
:103630000021044B03F12002C3E88F1F01339342A2
:10364000FAD170478C2000204FF4807C0C4B00B5E1
:1036500053F8202003EB8003C00082F0400200F109
:10366000804003F5805E02F0C00200F5203003F5D3
:103670004053CEF800204160C3F800C000BD00BF39
:1036800004800340DFF81CC0C90041EA82015CF8F5
:1036900020200CEB8003514003F5805301F00C0116
:1036A0001960704704800340064B022203EB80033D
:1036B00019B103F500531A60704703F540531A60BF
:1036C000704700BF048003404FF050431B6893B124
:1036D0000C4B4FEAD00C00F00700800081400A48F4
:1036E00003EB8C030CF18C0C40F82C102AB103F581
:1036F000005319607047054BEBE703F54053196021
:10370000704700BF90820240008002404882024021
:1037100030B54FF050450F4C2B6885B054F823C09E
:103720001CEA000F09D140EA0C0044F823001520E0
:1037300005B0BDE8304000F0E1B8CDE902120190DB
:1037400005F07EF9DDE902122B68019854F823C0D8
:10375000E9E700BF2835002010B50446152000F029
:10376000C7F94FF05043044A196852F8213023EA50
:10377000040342F8213010BD283500204FF000032B
:1037800000B543EC440043EC40004FF0050E4FF40D
:10379000807C0C4BC20053F8201003EB800081F0BA
:1037A000400102F1804303F5203301F0C00200F52F
:1037B000805100F540500A60C3F804E0C0F800C032
:1037C00000BD00BF048003404FF0E0234FF0803283
:1037D000C3F80024C3F80424C3F80824C3F80C2455
:1037E000C3F81024C3F81424C3F81824C3F81C2405
:1037F000C3F82024C3F82424C3F82824C3F82C24B5
:10380000C3F8302462B67047012300F01F029340D2
:10381000400941B1800000F1604000F56140C0F80E
:10382000803103607047024A203042F820307047F0
:1038300000E100E00123064A410952F8212000F08E
:103840001F008340134214BF01200020704700BFB7
:1038500000E100E001224309034900F01F0082401B
:10386000403341F82320704700E100E0054A103062
:103870009268054B52F82000C01A2F288CBF0020F8
:103880000120704700ED00E07414002010B582B0F4
:10389000EFF3108472B6164BD3E8CFCF0122BCF100
:1038A000000FF9D1C3E84C2FBCF1000FF4D1BFF3E6
:1038B0005F8F104A10309268DFF83CC052F8202029
:1038C000624508D0914206D0CDE9000105F0B8F874
:1038D0000199074B0098074A926842F82010BFF3FD
:1038E0005F8F0022C3E88F2F84F3108802B010BDD1
:1038F0009520002000ED00E0110100102DE9F04FAF
:1039000006468A46154683B0EFF3108872B6714FAB
:10391000D7E8CF2F0123002AFAD1C7E8423F002A77
:10392000F6D1BFF35F8F6C4991F90020002A7BDB51
:103930006A4802EB420400EB840393F806C0103699
:1039400081F800C06649A40089684FEA420B51F82B
:1039500026E0AEEB00012F292ED962498E4540F0BA
:10396000848043F0010E604B02340444043B1B1B73
:10397000C3F34A036FEAC3434FF421416FEAD343D1
:103980005A4420F8221000EB820253804BF6015378
:103990009380FF23D571C2F808A09371504B9B68A8
:1039A00043F826E0BFF35F8F0023C7E88F3F88F31B
:1039B000108803B0BDE8F08F2EF0010C9CF80710C2
:1039C000A9425AD9B14601941E4603E0CB79AB42D5
:1039D00030D98C469CF9064004EB4401002C00EBE6
:1039E0008101F3DA00944BF6015433464E460CF154
:1039F0000409043BA3EB0903C3F34A036FEAC3437F
:103A00006FEAD343ACF80430384B0BEB02018CF86F
:103A1000062040F82130009B00EB810294809371D6
:103A2000D571C2F808A0B9E705F00AF82A4991F95A
:103A300000207DE76FF007010094019C33460C1BCA
:103A40006146241A019431F8044F4E4644F30A04A7
:103A5000023401EB4404894601990C44C4F34A043E
:103A60006FEAC4446FEAD444C3E7CDE9002304F00D
:103A7000E7FFDDE90023194873E71B4AA11CDD714C
:103A80000144043A251D521A0544ACF10401491BB6
:103A9000C1F34A016FEAC141C2F34A026FEAC2426E
:103AA0006FEAD1414FF4214E6FEAD24299800F491B
:103AB00020F804E05A804AF6AA256246121A5241BA
:103AC00055432D0DC3F808A09D7143F0010ECCF8AD
:103AD000001063E7952000205F3602207414002058
:103AE00000ED00E011010010A414002001488047FF
:103AF0002DE9F04F034685B0EFF3108772B6764C90
:103B0000D4E8CF0F01220028FAD1C4E8402F0028C2
:103B1000F6D1BFF35F8F714A03F110069268DFF8A8
:103B2000D48152F8260040454BD0884257D06C4D86
:103B3000A0EB050CBCF12F0F43D84FF0010E4FEA5C
:103B4000531C4FEA8C0C0CF1604202F56142D2F832
:103B500000C003F01F030EFA03F300920193C2F8B2
:103B6000803003EA0C09BFF35F8FEFF30583DBB20C
:103B70009A46002B35D09E4205D0CDE9020104F0D3
:103B80005FFFDDE9020120F0010EDEF808C06145AB
:103B900005D18CE0D3F808C0614532D09E469EF92D
:103BA000062002EB4203002A05EB8303F2DA6145AB
:103BB00060D0DDE90032B9F1000F1FD0C3F88021D9
:103BC0001A60464B9B6843F82600BFF35F8F0023C3
:103BD000C4E88F3F87F3108805B0BDE8F08F4046FA
:103BE000EFE720F0010EDEF808C06145D7D19EF95D
:103BF00006B09B45734609DA404646E0C3F880208C
:103C0000DFE793F906B0BBF1000F34DB0BEB4B0C95
:103C100005EB8C0292F807E04FEA8C010291916863
:103C200083F807E092F906C09960BCF1000F83F8B1
:103C300006C04FEA4B0E38DB6FF0070C92880299F2
:103C400042F30A0201EB420208322A44ACEB030CB5
:103C50006244C2F34A026FEAC2426FEAD2429A80D9
:103C6000204BDE441A7805EB8E0E83F800B08EF8F8
:103C700006209EE77346BAF1000F1ED1FF228EF890
:103C800006204BF60152AEF80420DFF858C04AF681
:103C9000AA229CF800E01946491B49414A43120DEB
:103CA00083F806E08CF8002083E70F4AD7E79EF9F7
:103CB00006B07346BBF1000FA8DA0C4A0C4DD21ABD
:103CC000083AC2F30A316FEA01516FEA115145EA2D
:103CD0005202DA8099806CE79520002000ED00E028
:103CE000741400205F36022001BDFFFFAE140020D7
:103CF00000F8FFFF110100104FF0FF0C20F003034C
:103D000003F1604303F5644300F003001A68C00048
:103D10000CFA00FC22EA0C0281400A431A60704748
:103D20002DE9F041EFF30583DBB29E46EFF31085FA
:103D300072B62949D1E8CF2F0123002AFAD1C1E870
:103D4000423F002AF6D1BFF35F8FDFF89C8040F03E
:103D50000106D8F808704AF6AA2357F82E700446D0
:103D60001E4AA41A644163431B0DB7425BB21ED0C6
:103D700092F906409C4220D092F912409C4227D0F2
:103D800092F91E409C4225D092F92A409C4208BFDD
:103D9000032413D0124A002492F800C0137080F854
:103DA00006C0C1E88F4F85F31088BDE8F081D8F8D0
:103DB00008200C4C42F82E40ECE7002404EB4404AD
:103DC00002EB8402FF2494714BF601549480E1E7E6
:103DD0000124F3E70224F1E7952000207414002069
:103DE0005F3602201101001000ED00E0C0F1330148
:103DF0000148FFF7C5BB00BF6336022000B5DFF8FE
:103E000024C083B0014605230022CDF800C0044839
:103E1000FFF774FB0028A8BFC0F1330003B000BD5A
:103E200063360220A8DF001030B583B004460D468B
:103E30000192FFF7CDFB0146204600F007F8019AFA
:103E4000A580E280BFF35F8F03B030BD014B0B4410
:103E5000036070478C200020F8B5124C124DAC4224
:103E600011D24FF0FF36002723686BB1FFF7B0FB8C
:103E700001462046FFF7EAFF66602772BFF35F8FB7
:103E80000C34AC42F0D3F8BDFFF7A2FB014620464C
:103E9000FFF7DCFF6660BFF35F8F0834AC42E3D30B
:103EA000F8BD00BF501B0020601B002010B5044669
:103EB000FFF78EFB01462046FFF7C8FF4FF0FF33A8
:103EC0006360BFF35F8F10BD10B50446FFF780FB42
:103ED00001462046FFF7BAFF4FF0FF320023626031
:103EE0002372BFF35F8F10BD10B504460120FFF7AA
:103EF00085FB034B03442360BFF35F8F10BD00BFFE
:103F00008C200020024B0B440360BFF35F8F70478F
:103F10008C200020000000002DE9F04F2DED028BD9
:103F200085B0EFF30583DBB2103B9A0818BF01227E
:103F30004FF0010103F0030B18BFA94CA94B08BFB8
:103F4000A94C0BEB820253F8225001FA0BF204F554
:103F500041539FEDA18B02925A602FE0AB88190468
:103F600040F19480AB79002B40F0DE80B5F9086019
:103F7000002EC0F21C816B6906EB460603EBC603FC
:103F8000D3E90267B7F1FF3F08BFB6F1FF3F0ED09C
:103F900004EB8B01A36A0A69D21AF31A934205D380
:103FA0000123226A03FA0BF3134200D10E6120466B
:103FB00000F08CFCB042B941C0F2F980B5F908605C
:103FC000029B002EE363C9DBD5F8149006EB460A8A
:103FD00009EBCA07BB682046D7F80C80019300F0B4
:103FE00075FC019B984271EB0801B7DBB8F1000F3B
:103FF000C0F2C080D7E904317C4A934200F0F880D7
:104000007A88B5F9080092B242EA00409847024621
:104010000B4652EA030100F0AD80002B80F2CD8008
:104020000199B1EB020E68EB030839F93A30C7E9A0
:1040300002E8002B92DB686903EB430200EBC2024B
:10404000D2E90271BE4578EB010C4FEA430285DBF1
:10405000AC462CF8083F06E003EB430100EBC1013E
:104060005A00D1E90271BE4578EB01011A4405DB23
:1040700030F9323000EBC20C002BEDDA29F83A307F
:10408000ACF80060AB8819043FF56CAF2B69EFF317
:10409000108272B6D3E8CF0F01210028FAD1C3E80D
:1040A000401F0028F6D1BFF35F8F4FF6FF76A88838
:1040B0000023296900B2AE80C1E88F3F82F31088E7
:1040C0009842FFF64FAF0746A1466E6905F1080812
:1040D000B5F9083007EB470E002BC44606EBCE02BD
:1040E00015DBD2E90240AA46019704E036F93530E3
:1040F0009446002B09DB03EB430506EBC502D2E92E
:104100000271BC4270EB0101F0DA5546019FACF838
:10411000007036F93E7026F83E30002FD8DAAB79C1
:104120004C46002B3FF422AF0023AB71B5F9086079
:10413000721C33463BD0686905F1080E03E08E46D9
:104140005A1C3FF415AF03EB430200EBC2014F884A
:104150009C463F0430F93230F1D5664581ED028B43
:10416000EED0AEF800302989664620F83210A5F866
:1041700008C0E5E739F83A302B812B69EFF310825C
:1041800072B6D3E8CF0F01210028FAD1C3E8401F4F
:104190000028F6D1BFF35F8F6B88296929F83A3080
:1041A00000236E80C1E88F3F82F31088D6E640BFBF
:1041B00005B0BDEC028BBDE8F08F20460393019261
:1041C00000F084FB019A039B10EB020E43EB010805
:1041D0002BE700BFAFF30080FFFFFFFFFFFFFFFFF4
:1041E00000800B406832002000000B40193F001097
:1041F00008460B69039198470028BBD00399D1E981
:10420000002306E70B4808B50368EFF3108172B688
:10421000D3E8CFCF0122BCF1000FF9D1C3E84C2F76
:10422000BCF1000FF4D1BFF35F8FFCF723FB00203C
:10423000002108BD3835002038B5384B1C692CB139
:10424000BDE838400A213648FFF700BE0321354853
:1042500000F008FB334D314BDD60FFF7B9F9324A0E
:104260004FF0504E024403202C4B4FF00F0C1870AF
:104270001A61DEF800204FF6FF715A705A69A3F8F0
:1042800002C014834FF00204A2F848404FF0040427
:10429000A2F878404FF00504A2F890404FF00604D1
:1042A000A2F8A8404FF00704A2F8C0404FF009045C
:1042B000A2F8F0404FF00A04A2F808414FF00B04B6
:1042C000A2F820414FF00C04A2F838414FF001044D
:1042D00014864FF00804A2F8D840144C4FF00D0E8D
:1042E0004FF00E0C9C6008249980A2F850E1A2F8CF
:1042F00068C1A2F8600011800D4A2C620D49D3609C
:10430000FFF7C4FA01210320FFF77EFA0A4B0A21C6
:104310001C640348BDE83840FFF798BDBC1400207A
:104320003835002000000B408C200020FFFF1000DB
:1043300068320020193F001000200B4000487047F1
:10434000BC1400202DE9F041064618200C4604F06C
:10435000FDFD0546002842D01821204604F012FE3B
:1043600001216861304600F09BFAEE600746FFF7D6
:104370002FF94FF050414FF6FF721A4B2F70034444
:104380002B610B686C816B70631E2A81AA806B8025
:104390005CB1002304EB44046869A10020F81320F9
:1043A0000C33994202F10102F8D10F4C4FF0010891
:1043B000341BB4FA84F4640907EB84040B4B08FA49
:1043C00007F720460A49376243F8245006F501569C
:1043D000FFF75CFA41462046FFF716FA3760284699
:1043E000BDE8F0818C20002000800B406832002066
:1043F000193F00101D4B984237D030B5C3681C4D93
:104400000446581B0121B0FA80F0227803F5415E82
:1044100001FA02FC400985B002EB8000C3F820C01D
:10442000CEF800C0039202930190FFF7EDF90198D6
:104430001049FFF75DFBDDE9020100F025FAE368B2
:104440004FF0000C5A1BB2FA82F223780A49520943
:10445000606903EB820341F823C004F0B3FD2046FA
:1044600005B0BDE8304004F0ADBD7047BC1400207D
:1044700000800B40193F001068320020F0B583B077
:104480009DF828401D46034654B9CDE9000200F0CE
:1044900025FA019A009B824265EB0101A1425BDB98
:1044A0001969EFF3108072B6D1E8CF6F0124002EA6
:1044B000FAD1C1E8464F002EF6D1BFF35F8FB3F9B2
:1044C00002401F69002C3EDBD3F814C004EB440EFD
:1044D0003CF83E10002659800CEBCE01C7E88F6FE8
:1044E00080F310884888C1E902250130C0F30E002E
:1044F000012838BF0120089A48800A61099A40EAD9
:1045000004404A611A69EFF3108172B6D2E8CF7F96
:104510000125002FFAD1C2E8475F002FF6D1BFF383
:104520005F8F9A882CF83E201A699C80C2E88F6FB2
:1045300081F3108801211C78DA68A14002F501534B
:10454000596003B0F0BD0023C7E88F3F80F31088A7
:104550004FF0FF3003B0F0BD204603B0F0BD00BF08
:10456000F0B516461F4602690346EFF3108072B697
:10457000D2E8CF4F0121002CFAD1C2E8441F002C11
:10458000F6D1BFF35F8FB3F902101D69002945DB37
:10459000D3F814E001EB41023EF832400EEBC20CBE
:1045A0005C800024C5E88F4F80F31088059835465D
:1045B000CCF8100006983E46CCF81400BCF8020077
:1045C000CCE902560130C0F30E00012838BF0120AB
:1045D000ACF8020040EA0140D3F810C0EFF31085B8
:1045E00072B6DCE8CF7F0126002FFAD1CCE8476F06
:1045F000002FF6D1BFF35F8FB3F804C02EF832C09E
:1046000099801A69C2E88F4F85F3108801211C78C0
:10461000DA68A14002F501535960F0BD0023C5E8F6
:104620008F3F80F310884FF0FF30F0BD0346408984
:10463000B0EB214F3ADD58690A1402EB420210B583
:10464000D3F810C000EBC200EFF3108E72B6DCE8B6
:10465000CF4F0122002CFAD1CCE8442F002CF6D108
:10466000BFF35F8F428889B292B28A4207D000229C
:104670001B69C3E88F2F8EF31088002010BD6FEAEE
:1046800042426FEA52424280012100221869997128
:10469000C0E88F2F8EF3108893F800C0DA680846C0
:1046A00002F5015301FA0CF1596010BD002070476A
:1046B00040787047F0B5B0F1960461F10006A04271
:1046C00071EB060338BF002483B038BF2646054689
:1046D0000F4600F003F9201A66EB0101012871F181
:1046E000000106DA2846394603B0BDE8F04000F084
:1046F000FFB800F0F3F8844266EB010100290ADB01
:104700000021144B22460093134833460191FFF7D2
:1047100027FF0130E6D0114A536A9E4204D8916ABD
:10472000A142DFD29E42DDD10D4B1B68EFF3108119
:1047300072B6D3E8CFCF0120BCF1000FF9D1C3E8A6
:104740004C0FBCF1000FF4D1BFF35F8F0448FCF7AE
:104750005DF8E0E705420010BC14002000000B40AB
:1047600038350020EFF30582D2B282B1384B5A6A55
:104770008A4202D200221046704714BF0122002252
:104780009B6A834228BF42F001021046704770B511
:1047900084B003922F4A0646D368157818460C4613
:1047A000029300F093F8029B05F1040C53F82CC01F
:1047B000039AACEB000C301A64EB0101604571F117
:1047C00000010FDB20BF224B596AA14207D314BF5F
:1047D000012200229B6AB34228BF42F00102104628
:1047E00004B070BD029200F079F8864264EB0101DA
:1047F0000029029A1BDB18492346CDE9001215480F
:104800003246FFF7ADFE011E11DD114B5A6AA2427E
:104810001CD39B6AB34217D30E48FFF707FF0C4B1C
:104820005A6AA242D3D20022104604B070BD084B8F
:104830005A6AA242F7D3121B18BF01229B6AB342E5
:1048400028BF42F00102CAE7A242E5D120BFE3E758
:1048500000000B40BC1400200542001000487047C7
:1048600000000B4010B4054B054C064AA04214BF93
:104870001846581C10BCFEF715BE00BFE4240020EB
:1048800000800B40C4DF0010034B044A904214BF69
:104890001846581CFEF774BEE424002000800B402C
:1048A00010B5074A074B084C82B0A04214BF10460F
:1048B000501C009300220323FEF720FE02B010BD1F
:1048C000E4240020E8DF001000800B400346416A2A
:1048D0000A46986A596A8A42FAD17047034B596A64
:1048E0000A46986A596A9142FAD1704700000B4013
:1048F000074A536A9942FCD8994207D1044B02E017
:104900005A6A914202D19A6A9042F9D8704700BF20
:1049100000000B4010B5029C8E464FEA043C4CEA66
:10492000034C1C4BB3FBF1F30168B2FBF3F4002919
:1049300020DB194A194B904214BF4FF480424FF4C8
:10494000004217491A6003F580531A608B6832EAF7
:104950000303FBD1212200F540530433C0F800E0EB
:1049600084601A600268002AFCDA0822C0F80CC0D1
:104970001A6010BD036803F03F037345D9D1836803
:10498000C3F30B03A342D4D1C36803F4EE236345FE
:10499000CFD110BD001BB7000080054000200240B1
:1049A000000002404FF0804C214B00B5C3F800C01E
:1049B000002839D0DFF888C0A3F54053C3F81CC0E5
:1049C000DFF880C040F0010080EA0C0CC3F820C082
:1049D000596298624FF0804E4FF0E061144B1548D9
:1049E000DFF864C0C3F800E0C0F808C019602AB955
:1049F0004FF00042A3F580531A6000BD4FF47A7364
:104A000003FB02F2B2F1807F2ABF6FF07F431346AF
:104A10001A464FF08041DFF834C00748CCF8003028
:104A2000064B4260196000BD034BD861D2E700BF5E
:104A300000B00D4000A0014000800D4000A00D40DE
:104A4000D3C007B02D3FF84FF3FFFF0140320020E5
:104A5000012300EB4000800000F1804000F584104D
:104A600041600360704700BF10B5002482B00B4660
:104A7000E48A002141E800F1CDE900034B0254BF74
:104A80001021042144F25220A047DDE9002386468C
:104A90000A214FF48170F44602B0BDE8104060472F
:104AA0000023DB8A002242E800F2520201D41021E6
:104AB00018470421184700BF08B503460846191EC9
:104AC00002DB1AB140F03000FFF7CEFF40F02000CB
:104AD000FAE700BF034AD2F82838002BFBD0BFF317
:104AE0005F8F704700000E400021044B044ABFF363
:104AF0005F8F43F8041B9342F9D170470C080E40B6
:104B00002C080E404FF42A6C4FF48D70054A064B6A
:104B10000649C2F800C0D06019605368002BFCDA67
:104B2000704700BF0080044000A0044000B0FA00BD
:104B300000B585B0EFF3108272B6134B9B6853F843
:104B4000203099420DD0DFF844C0634516D2CDE93C
:104B50000201CDE9003203F073FFDDE90201DDE976
:104B60000032DFF824C0DCF808C04CF82010BFF396
:104B70005F8F82F31088184605B000BDDFF810C0C3
:104B80006345EED3E3E700BF00ED00E01001001045
:104B90002401001003BD00BF00B583B0019003F0F5
:104BA00065FF019803B05DF804EB004770B505465A
:104BB00088B019200C460192FEF73CFE0021064603
:104BC0001920FEF721FE00231946019ACDE9023390
:104BD000059201224FF0504308460694079504922F
:104BE000A1B11A6D9507FCD5596540BF1A6DD40760
:104BF00003D420BF1A6DD207FBD59A6D8A420AD022
:104C000000200DEB80029168EAE79A6D1A6DD207D9
:104C1000FBD440BFE5E701300628F2D13146192028
:104C200008B0BDE87040FEF7EFBD00BF0C4B0D4A69
:104C300093420ED39C4603F2F4710B4A9268CCF86F
:104C4000F4070A48CCF8F837CCF8FC070848FFF717
:104C5000ADBF4FF0FF3340F2F3719C46EDE700BF6C
:104C6000000808200000082000ED00E0994B00102B
:104C7000954B001070B505460E46FEF7F7FB394917
:104C80008C7891F9003004F00104DB0F43EA44030F
:104C90002B420A7856D091F90130C2F38014DB0F11
:104CA00044EA43042C424B784FD0C3F3801CC2F338
:104CB000401444EA4C042C424AD0C3F3401CC2F3D3
:104CC000001444EA4C042C4245D0C3F3001CC2F348
:104CD000C00444EA4C042C4240D0C3F3C00CC2F3DD
:104CE000800444EA4C042C4212D0C3F3800CC2F37B
:104CF000400444EA4C042C4219D003F0020402F0B0
:104D000001031C432C4015D0B6B11748FEF796FBA3
:104D100002240423EE0744BF1A430A70AA0702D5EF
:104D20004A7813434B70FEF7B3FB204670BD012455
:104D30000223EFE70123EDE76FF00804FEF7A8FB7D
:104D4000204670BD07248023E4E706244023E1E7E2
:104D500005242023DEE704241023DBE703240823B3
:104D6000D8E700BF242E0020FCDF0010014B1860A4
:104D7000704700BFAC2400200A460146014802F0FB
:104D80008DBE00BF20250020014B1868704700BF72
:104D9000AC24002000B585B0FFF7F6FF28B103F082
:104DA00009F978B1002005B000BD02A803F01AFD92
:104DB0000F4802A903F01CFDB0B10D48FFF7D6FF64
:104DC0000B48ECE70190FFF7DFFF009003F00EF9CE
:104DD000074A0098019B904206D102680093526BEB
:104DE00090470098FFF7C2FF4FF0FF3005B000BDBD
:104DF000281C002000B545F247308BB0FFF750FE6D
:104E000001220346092101A89847DDE9033203493D
:104E100012BA1BBAC1E900230BB000BD3035002027
:104E20000246024B03CB10605160704730350020C2
:104E3000012900F0BB80614A013913784FEA231C35
:104E4000BCF1090FCCBF0CF1370C0CF1300C01296F
:104E500080F800C000F0AD8003F00F03092B8CBF79
:104E6000373330330229437000F0A38053784FEA80
:104E7000231CBCF1090FCCBF0CF1370C0CF1300C2A
:104E8000032980F802C000F0948003F00F03092B7F
:104E90008CBF373330330429C37000F08A80937895
:104EA0004FEA231CBCF1090FCCBF0CF1370C0CF1FD
:104EB000300C052980F804C07BD003F00F03092BC8
:104EC0008CBF373330330629437172D0D3784FEA21
:104ED000231CBCF1090FCCBF0CF1370C0CF1300CCA
:104EE000072980F806C064D003F00F03092B8CBF9C
:104EF000373330330829C3715BD013794FEA231C51
:104F0000BCF1090FCCBF0CF1370C0CF1300C0929A6
:104F100080F808C04DD003F00F03092B8CBF373346
:104F200030330A29437244D053794FEA231CBCF131
:104F3000090FCCBF0CF1370C0CF1300C0B2980F8A9
:104F40000AC036D003F00F03092B8CBF3733303340
:104F50000C29C3722DD093794FEA231CBCF1090FA1
:104F6000CCBF0CF1370C0CF1300C0D2980F80CC0C3
:104F70001FD003F00F03092B8CBF373330330E29BA
:104F8000437316D0D3791A11092ACCBF3732303285
:104F90000F2982730DD003F00F03092B94BF303318
:104FA00037331029C37318BF103002D000230370A9
:104FB0007047002308440370704700BF303500205D
:104FC00008B50520FEF734FA6421030C01FB03F356
:104FD000034A5B08A2FB03231B0A033BFDD208BD67
:104FE0001123970838B5D0F84C48A4B1216805467C
:104FF00031B1D4E90132154802F0D8FE0023236014
:1050000094F90C00002813DA94F90D00002803DA53
:105010000023C5F84C3838BD02F008FF94F90D00A4
:1050200002F0ECFEFF2363730023C5F84C38F2E76F
:1050300002F0FCFE94F90C0002F0E0FEFF2394F96C
:105040000D0023730028E3DBE6E700BFF0E4001067
:1050500006232DE9F04786B0019301264FF6FF7332
:1050600018270025404C8246C0F84C48214602963D
:1050700000973E48A3812560231D04F1080202F039
:10508000DBFD00286AD0D4E90131394803F1050C71
:10509000826FDB01D243DFF8E0E043EA0C3323F018
:1050A000C04302F030020593CEF87820806FD4F828
:1050B0000090C04300F00100CEF878004FF40030BB
:1050C000D9F868E101EB410CCEF1180E09EBCC0CDC
:1050D00006FA0EFE09F50058C8F838E0CCF8C8000A
:1050E0004FF44030CCF8D00005983346CCF8CC00D3
:1050F00020481D22CCF8DC004846009602F056FD00
:105100002168384601F12F4101F56001090D063192
:10511000C9B2FEF799FA324629463846FEF7B2FA86
:1051200031463846FEF7C0FA4EF20101A368226804
:1051300003EB430302EBC302C2F8D810284602F087
:1051400063FE2073284602F05FFE237B60731843E2
:10515000030603D4284606B0BDE8F0875046FFF7A3
:1051600041FF6FF00500F6E7C8240020F0E40010CE
:105170000080034018771C24009003402DE9F04F75
:1051800087B01F460391002900F01881D0F84C48E1
:1051900018202168164601F12F4101F56001090D23
:1051A0000631C9B2FEF750FA21681D2001F12F41E6
:1051B00001F56001090D0631C9B2FEF745FA012279
:1051C00000211D20FEF75EFA19234FF0000242EC89
:1051D00040302068A168039B002F00F0F5804FF05D
:1051E0000108002B08BF3B464FF0004CD0F800B040
:1051F000039308FA01F301EB41022BEA0303D4F80D
:10520000049000EBC20E0360DEF8CC3009F1050A11
:105210006FF3D01343EA0A330EF5865243EAC913FB
:10522000CEF8CC30C2F810C00023C2F810C04FF046
:105230008072CDE9002302F07FFCD4E90031A2683E
:10524000109801F01F010591811B101D049002EBC5
:10525000420003EBC005101D03F5005A08FA00F0E8
:10526000CAF8000046F2200002F1080E4FEAC60C10
:1052700003EB820908FA0EFE0CF1FF3CCAF800E0CD
:10528000C9F810C0C5F8D80046F240004FF0A04B56
:10529000C9000139C9F810100599C5F8D800C5F83A
:1052A000D81094F90C90DDE9035108FA09F04FEA9F
:1052B000891ECBF864040EEB0B0CDCF80C004001EB
:1052C000FBD44FF0010A94F90D8003950AFA08FA0D
:1052D0004FEA881C039DCBF864A40CF1A04ADAF8CD
:1052E0000C004001FBD40EF1A04ECEF80050039507
:1052F000012503F12F40DFF818A200F56000000D32
:105300000AEA49390AEA483A02EBC00849EA484839
:10531000049101EBC00010994AEA404A48F08070BD
:105320004FEA9608C8EB9109049995404AF08072BB
:1053300003EB810A0CF1A04C0AF1100140F01900B6
:10534000CEF804A042F04902CEF80880CEF80C0056
:10535000CCF80010B919CCF80410CCF80890CCF8AF
:105360000C201A6815431D6094F90C20920102F17B
:10537000A04213695801FCD494F90D309B0103F14C
:10538000A043196911F08061FBD13246384608F01C
:10539000A5FA2068A1684AF2030401EB410300EB7F
:1053A000C3004FF001021923C0F8D84042EC40304E
:1053B000FFF706FE002007B0BDE8F08F002B7FF45A
:1053C000E5AE6FF00400F6E7002BE4D04FF00108E3
:1053D0004FF0004C036808FA01FB01EB410223EA9D
:1053E0000B03D4F8049000EBC20E0360DEF8CC305F
:1053F00009EB080A6FF3D01343EA0A330EF586521D
:1054000043EAC913CEF8CC30C2F810C00023C2F86A
:1054100010C04FF08072CDE9002302F08DFBD4E97B
:105420000031A26801F01F010491101D02EB42013E
:1054300003EBC10503F5005A08FA00F1CAF80010A1
:1054400046F2200102F1080E4FEAC60C08FA0EFEE1
:105450000CF1FF3C03EB8209CAF800E0C9F810C068
:10546000C5F8D81046F240014FF0A04BC9F81070B3
:10547000049FC5F8D810C5F8D87094F90CC0039DE6
:1054800008FA0CF14FEA8C1ECBF864140EEB0B07F4
:10549000F9684901FCD40EF1A0410D600395012586
:1054A00003EB8000486003F12F4000F56000000D21
:1054B00002EBC0009540164AB60802EA4C3242EAB6
:1054C000404242F0807242F019028E60CA601A684F
:1054D0002A431A600B695B01FCD40122A36821688E
:1054E00018339A408A608B681342FCD0012300264F
:1054F0002068A16805688B4025EA0305056018222D
:105500000123009602F052FB2068A16843E700BF28
:10551000FFFF01FC172010B5FEF730F917204FF000
:10552000010343EC440000220121FEF7ABF81820F0
:10553000FEF724F918234FF0010242EC44304FF0FB
:10554000000242EC40301920FEF718F919234FF001
:10555000010242EC443042EC403010BD38B5172512
:105560004FF0000444EC4050142002F0C3FD4FF013
:10557000010343EC4050FA2002F0BCFD1820FEF776
:10558000FDF8182344EC443038BD00BF8C4610B5FC
:105590004FF0080E00210E4B84B003EAC22343EA09
:1055A0000C7C4CF080440422CDF800E00DEB0E039F
:1055B00044F00404039164BA0294FFF7DFFD18B9C4
:1055C000039840BA04B010BD6FF0040004B010BDE1
:1055D00000F8FF0F30B50C46DFF854C0A4F1010EFF
:1055E0000CEAC22CBEFA8EFE04224CEA047C4CF07B
:1055F000804C89B04CEA020C4FEA5E1ECDF808C020
:105600000EFA02FC0CF1080C002102ABCDF800C030
:10561000FFF7B4FD40B9012C14BF012305230DEBA6
:105620008303986809B030BD6FF0040009B030BD45
:1056300000F8FF0F30B50C46DFF854C0A4F1010E9E
:10564000BEFA8EFE0CEAC22C04224CEA047C4CF01A
:10565000804C89B04CF0020C4FEA5E1ECDF808C0B9
:105660000EFA02FC0CF1080C002102ABCDF800C0D0
:10567000FFF784FD40B9012C14BF012305230DEB76
:105680008303986809B030BD6FF0040009B030BDE5
:1056900000F8FF0F30B50C46DFF854C0A4F1010E3E
:1056A000BEFA8EFE0CEAC22C04224CEA047C4CF0BA
:1056B000804C89B04CF0010C4FEA5E1ECDF808C05A
:1056C0000EFA02FC0CF1080C002102ABCDF800C070
:1056D000FFF754FD40B9012C14BF012305230DEB46
:1056E0008303986809B030BD6FF0040009B030BD85
:1056F00000F8FF0F2DE9F0435BBA04466E4DD4F875
:105700004C4805EAC22545EA0175216887B001F1D8
:105710002F4101F56001090D0631182045F0404286
:10572000C9B242F0040252BACDE90423FDF78CFF5E
:1057300021681D2001F12F4101F56001090D06319D
:10574000C9B2FDF781FF012200211D20FDF79AFF5C
:105750004FF00009192349EC403020680125036807
:105760004FF000471E46A168D4F804E005FA01F2A4
:1057700001EB410326EA0202026000EBC30CDCF8F5
:10578000CC200EEB05086FF3D01242EA08320CF57C
:10579000865342EACE12CCF8CC201F614FF08072C3
:1057A0001F610023CDE9002302F0C6F9D4E90031DE
:1057B000A26801F01F06101D039603F5005705FAB5
:1057C00000F63E603F2602F1080C05FA0CFC03EBE4
:1057D000820EC7F800C0CEF8106046F2200602EB39
:1057E000420103EBC101C1F8D86046F240064FF018
:1057F000A048CEF81090C1F8D860039EC1F8D860D8
:1058000094F90C60B540B701C8F8645407EB08057B
:10581000E9684901FCD44FF0010C07F1A0410227CF
:1058200003F12F4505F560052D0D02EBC5050CFABA
:1058300002FC224A03EB800002EA463242EA454279
:1058400042F0807242F0190204AD0D6048608F6032
:10585000CA601A684CEA02021A600B695B01FCD448
:105860000122A368216818339A408A608B681A4223
:10587000FCD0012700252068A168066807FA01F31B
:1058800026EA030606603B461822009502F08EF9D0
:105890004AF20300A368226803EB430302EBC3034D
:1058A0001921C3F8D80047EC4010FFF789FB2846C0
:1058B00007B0BDE8F08300BF00F8FF0FFFFF01FC59
:1058C0002DE9F04304466E4DD4F84C4805EAC22554
:1058D00045EA0175216845F0404501F12F4101F588
:1058E0006001090D063187B0182045F00405C9B2E2
:1058F000CDE90453FDF7A8FE21681D2001F12F41D9
:1059000001F56001090D0631C9B2FDF79DFE0122C6
:1059100000211D20FDF7B6FE4FF00009192349ECC8
:1059200040302068012503684FF000471E46A168FB
:10593000D4F804E005FA01F201EB410326EA020281
:10594000026000EBC30CDCF8CC200EEB05086FF313
:10595000D01242EA08320CF5865342EACE12CCF855
:10596000CC201F614FF080721F610023CDE900231E
:1059700002F0E2F8D4E90031A26801F01F06101D20
:10598000039603F5005705FA00F63E603F2602F144
:10599000080C05FA0CFC03EB820EC7F800C0CEF829
:1059A000106046F2200602EB420103EBC101C1F890
:1059B000D86046F240064FF0A048CEF81090C1F8EB
:1059C000D860039EC1F8D86094F90C60B540B70167
:1059D000C8F8645407EB0805E9684901FCD44FF0A6
:1059E000010C07F1A041022703F12F4505F56005E1
:1059F0002D0D02EBC5050CFA02FC224A03EB8000D8
:105A000002EA463242EA454242F0807242F019020E
:105A100004AD0D6048608F60CA601A684CEA0202EB
:105A20001A600B695B01FCD40122A368216818335A
:105A30009A408A608B681A42FCD0012700252068B2
:105A4000A168066807FA01F326EA030606603B46EA
:105A50001822009502F0AAF84AF20300A36822680F
:105A600003EB430302EBC3031921C3F8D80047EC4F
:105A70004010FFF7A5FA284607B0BDE8F08300BF45
:105A800000F8FF0FFFFF01FC2DE9F04304466E4DC7
:105A9000D4F84C4805EAC22545EA0175216845F06D
:105AA000404501F12F4101F56001090D063187B034
:105AB000182045F00205C9B2CDE90453FDF7C4FD35
:105AC00021681D2001F12F4101F56001090D06310A
:105AD000C9B2FDF7B9FD012200211D20FDF7D2FD5D
