:020000041000EA
:10000000002008205D0100101B0100101D010010E0
:100010001101001011010010110100101101001058
:100020001901001019010010190100101F01001022
:10003000110100101901001021010010230100100E
:100040001101001011010010110100101101001028
:100050001101001011010010110100101101001018
:100060001101001011010010110100101101001008
:1000700011010010110100101101001011010010F8
:1000800011010010110100101101001011010010E8
:1000900011010010110100101101001011010010D8
:1000A00011010010110100101101001011010010C8
:1000B00011010010110100101101001011010010B8
:1000C00011010010110100101101001011010010A8
:1000D0001101001011010010110100101101001098
:1000E0001101001011010010110100101101001088
:1000F0001101001011010010110100101101001078
:100100001101001011010010110100101101001067
:10011000EFF30580103800BE00BE00BE00BE00BE7A
:1001200000BE00BEF2EB8871049B0010249B0010FF
:10013000A001001090A31AE7D3DEFFFF42012110B7
:10014000FF010000A0AB0000793512AB4FF00000BA
:100150001E49086006C881F3088810474FF05040D8
:10016000006810B14FF00000F2E70DA40ECC00299A
:1001700002D000F012F8F9E71549164A002000E015
:1001800001C19142FCD11449884714498847144958
:10019000884700BEFDE701C901C29A42FBD3704700
:1001A000249B001010010020C4120020D8AC0010C5
:1001B0000000082000000820D8AC00100010082023
:1001C00000100820000000007047000008ED00E06B
:1001D000C4120020DC2202202D680010AD020010A5
:1001E00025680010F8B500BF064B0749C91A8910E9
:1001F00048BF0131491003D0044B0BB101481847E7
:10020000704700BFC4120020C4120020000000008C
:1002100008B5054B1BB105490548AFF30080BDE8A3
:100220000840FFF7E1BF00BF00000000C81E00202B
:10023000AC9600104FF0504508B50B4C4FF0FF3115
:10024000206801F0AFF82A680221084806F0DEFCB9
:10025000002320681A46194600F018FF4FF47A7000
:1002600002F042FFEAE700BFC01E0020B096001077
:100270004FF0504508B50B4C4FF0FF31206801F0AE
:1002800091F82A680121084806F0C0FC0023206884
:100290001A46194600F0FAFE4FF47A7002F024FF75
:1002A000EAE700BFC01E0020B096001070B582B013
:1002B00006F0EAFB012000F073FF84460124124E91
:1002C000124D0196C5F800C0114D00234FF4807205
:1002D00010490094104802F0A1FD00234FF48072F1
:1002E000CDE900450D490E4802F098FD21463068E1
:1002F00001F0E4FD2868022101F0E0FD02F0B8FD04
:10030000002002B070BD00BFB8210020C01E002038
:10031000BC210020D096001071020010DC96001065
:100320003502001070B5421E0A3282B04DD8034625
:1003300013F0070200F1080052D1019001F09EFE77
:10034000434A0198D2F800E08446BEF1000F5FD026
:1003500000283FDB3F4B1B6883421E463AD33E4B8F
:100360009C461B6803E01A6822B19C4613465968F4
:100370008142F8D373452DD01C46A1EB000E54F8F2
:10038000082BBEF1100FCCF8002006D901461D182D
:10039000C5F804E01A50CCF800504FF0000C2D487E
:1003A000721A02602D4841F0004105685960AA4266
:1003B00038BF02602A48C3F800C0026801320260F8
:1003C00002F08AFE204602B070BD01F057FE204ABE
:1003D0001368D3B1002402F07FFE204602B070BD46
:1003E000A2F109018142F0D31033981A019001F073
:1003F00045FE174A0198D2F800E08446BEF1000F8E
:1004000006D0BCF1000FA5DCE4E74FF0000C60461D
:10041000144BDFF854E059071CBF073323F00703E0
:100420001C4600212EF0070EC2F800E00A4AAEEB8F
:100430000303C2E90041094ABCF1000F1360054AF9
:10044000CEE900111360C4E900E383DCC2E700BF1A
:10045000181F002050220220902202206022022039
:100460006C220220C0210020B821022018B150F8CF
:10047000043C002B00DB704750F8082C002AFAD10E
:1004800010B523F0004382B0A0F1080240F8043C0C
:10049000CDE9002001F0F2FDDFF88CE00198DEF8F4
:1004A000001050F804CC1D4B6144009ACEF80010A7
:1004B00019461B689A42FBD8D1F804E001EB0E0400
:1004C000A24211D002EB0C0E73451FD040F8083C3D
:1004D000914218BF0A60124A13680133136002B0D8
:1004E000BDE8104002F0F8BDF44401EB0C02934269
:1004F000C1F804C0EFD10B4A12689A42EBD00A4609
:10050000D3E90030604413605060E1E7DFF814E0A5
:10051000DEF800E07345F3D1D8E700BF9022022057
:1005200070220220181F0020502202200A4B93F94B
:100530000020002A0FDB4FF050410123D1F8880141
:100540009340184207D04FF0E0224FF08050C1F89E
:100550008C31C2F8040D704718120020002300B53A
:1005600083B0019300F060FA019B002BFCD003B034
:1005700000BD00BF10B502F089FE044601F092FDF7
:1005800028B14FF0E0234FF08052C3F8042D2046ED
:10059000BDE8104002F016BF10B504224FF0E02471
:1005A000002322610520A36103F0E6F90722044B32
:1005B000A3FB0030800901386061226110BD00BFDB
:1005C000D34D62104FF0E0234FF07F42002130B551
:1005D00085B00391C3F81C2DD3F81C3D1B0E8DF87C
:1005E00007309DF807309DF807301A060BD5039B9E
:1005F000013303939DF807305B008DF807309DF8B9
:1006000007301B06F3D4039B082B40D0039BC3F198
:1006100007031B0203F4E0634FF050412448254ACE
:10062000036012780B689A4233D04FF0E023002425
:100630004FF05045D3F8202D1F4942F47F02C3F8F4
:10064000202D0E20C3F81C4D04F0D2F91B490B20BD
:1006500004F0CEF91A4B2A68FF211A2043F82240F1
:1006600003F002FC1A20174903F0CCFA01211A20EA
:1006700003F086FA00F0D0F9286801F031FE029408
:1006800000F0D2F9029B002BFCD005B030BD002356
:10069000C2E7FFF781FF4FF0E022D2F8203D0A4980
:1006A00043F07F43C2F8203D0F2004F0A1F9BCE7DE
:1006B000D021022019120020510A0010E90A00106E
:1006C000C82102202D0500107505001008B500F0A6
:1006D000ABF9BDE80840FFF775BF00BF4FF0E0235E
:1006E0004FF08052C3F8042DBFF34F8FBFF36F8FCD
:1006F000704700BF836913F8023C662B00D0704737
:100700004FF0E023D3F8882D42F47002C3F8882D0F
:10071000D3F8342F42F04042C3F8342F00F060B9D0
:1007200000B54FF0123C4FF0807E40F8203C1A4B51
:1007300040F810CC40E9033240F804EC4FF0033CA1
:100740004FF002324FF0013E40E9062C40F81CEC1D
:100750004FF0113C4FF010324FF0093E40E90A2CA7
:1007600040F82CEC4FF0083C4FF007324FF0063EBB
:1007700040E90D2C40F838EC03464FF0053C4FF0B3
:1007800004326FF0020E40E9102C40F844EC43F8BC
:10079000481D184600BD00BF5D05001038B50E208D
:1007A00003F09EF90F2003F09BF90121032004F0D0
:1007B000C1F901234FF05041002442B2DFF828C0B4
:1007C0009340074D8CF800200648C1F88C31C1F8E1
:1007D00084312C7004F08AF9FFF7F4FE204638BD0E
:1007E00019120020CD06001018120020EFF3058327
:1007F0000F2B84BF014A9B5C704700BFF0E300E011
:10080000094B1B78FF2B0BD0EFF30583DBB22BB129
:100810004FF05042106800EB4300704702F060B8A0
:100820004FF0504318687047191200201F4B1B7877
:10083000FF2B33D04FF0010C02681D4B00B5D21ACC
:100840001C4B83B0A3FB02E31B0903EB4303A2EBA6
:10085000C3020CFA02F340BF4FF0000C0268C2E87A
:100860008FCF81F31088EFF305821349D2B2086865
:10087000194622B903B05DF804EB00F0DFB901AA14
:10088000CDF804C000F010FA019B2BB14FF0E0232B
:100890004FF08052C3F8042D03B000BD40BF0023C9
:1008A0000268C2E88F3F81F3108870471912002058
:1008B00034160020ABAAAAAA4C2202202DE9F0414E
:1008C000374C82B094F800C0BCF1FF0F56D01D46E3
:1008D000144606460F46804603F072FF40F2E733A7
:1008E000B4EB000C65EB01011CEB030041F10001CE
:1008F0003268B0F57A7F71F1000316461DDA0023E5
:10090000C6E88F3F87F31088264B5A6A95420DD967
:100910004FF0E0234FF08052C3F8042DBFF34F8F08
:10092000BFF36F8F002002B0BDE8F0819B6AA34245
:1009300031D3012002B0BDE8F0814FF47A72002378
:1009400008F07AFE0028DAD00023C6E88F3F87F34C
:10095000108801220090D8F800101348091A134893
:10096000A0FB01C0000900EB4000A1EBC001104852
:1009700002FA01F1006800F00BF9C5E700240068F5
:10098000C0E88F4F81F310881046194602B0BDE8C9
:10099000F04103F07FBE9542BAD00120CAE700BF04
:1009A0001912002000000B4034160020ABAAAAAA9E
:1009B0004C22022008B500F0D9F8014B186008BDA0
:1009C0004C22022001234FF05042034991F90010BC
:1009D0008B40C2F8803170471812002000000000E0
:1009E0000BA10CC9126853F82210086806C881F3DD
:1009F0000B88022181F31488203080F30988BFF32B
:100A00006F8F4FF0000080F311881047AFF3008024
:100A1000000000D0081F002062B661B6BFF34F8F00
:100A2000BFF36F8F66DF00BFEFF311804FF010014F
:100A300081F31188BFF34F8FBFF36F8F704700BFF3
:100A400080F31188BFF34F8FBFF36F8F704700BFE4
:100A5000EFF309811EF0100F08BF21ED108AEFF3AC
:100A60000B82734621E9FC0F55FC084457FC0964CE
:100A700059FC0A8401E9F00319A00CC8106853F866
:100A8000203019604FF0100181F31188BFF34F8FB0
:100A9000BFF36F8F01F024FC4FF0000080F311884A
:100AA0000FA10CC9126853F8221008681838B0E872
:100AB000F00345EC004447EC016449EC0284B0E8E3
:100AC000FC0F13F0100F08BFB0EC108A82F30B88F4
:100AD00080F30988184700BFAFF30080AFF30080B0
:100AE000000000D0081F00201EF0040F0CBFEFF321
:100AF0000880EFF30980014908470000F50600105F
:100B0000F8B507460E4600F10C0501F0B7FAD7F824
:100B100000E03C6946EA0E03A5423B6021D09E46B8
:100B200000260BE03BB1D30148BF46EA0C0602F0B9
:100B300009FBD7F800E0A542734610D020460268B2
:100B400043F0007122F07F4C12F0806F64680CEA71
:100B50000303E7D09C45E6D0A5427346EED12EEACA
:100B600006033B60BDE8F84002F0B6BA00B51C20B1
:100B700083B0FFF7D7FB034630B10022019040F865
:100B8000042B00F09DF8019B184603B000BD00BF88
:100B9000F0B505460C461E4683B0174601F06EFAC6
:100BA0002B6803EA04025EB922B32FB323EA0404DC
:100BB0002C60019302F090FA019B184603B0F0BD3F
:100BC0009442F2D0089ABAB1391E18BF0121090621
:100BD00041F080612143281D01F054FD02F07CFAB0
:100BE00030B302F01FFC830112D520F07F4318467A
:100BF00003B0F0BD089A32B9019302F06DFA019B7F
:100C0000184603B0F0BD391E18BF01210906E1E7FF
:100C100001F0FAFF286804EA000366B91BB117B1B6
:100C200020EA04042C60019002F080FB0198DCE7CC
:100C300001F0D8FFD5E79C42F5D1F0E7F8B50546BD
:100C40000E4600F10C0701F019FAD5F800E02C6906
:100C500046EA0E03A7422B6021D09E4600260BE0F9
:100C60003BB1D30148BF46EA0C0602F06BFAD5F857
:100C700000E0A742734610D02046026843F000719E
:100C800022F07F4C12F0806F64680CEA0303E7D017
:100C90009C45E6D0A7427346EED12EEA06032B60B0
:100CA00002F01AFA2868F8BD00B513465DF804EBA7
:100CB0000A460146014802F0D9BD00BF010B0010F1
:100CC0004FF0FF31002200F10803C0E90131C0E913
:100CD00003330260704700BF00230361704700BF09
:100CE000D0E90032D2F808C00133C1E9012CCCF8B8
:100CF0000410916008610360704700BF0A6810B477
:100D0000531C12D000F108039C465B681C68944297
:100D1000FAD910BC02684B6001329960C1F808C072
:100D2000CCF80410086102607047D0F810C0DCF8FD
:100D30000430EEE703460269D0E90101D2F804C0AD
:100D400081609C45486008BF5160002110681961AE
:100D500001381060704700BF30B51546026C03467D
:100D6000846B83B03AB90268002A2AD0002001348B
:100D70009C6303B030BD75B94068009308F09EFBDA
:100D8000009B5A68186C996802448A425A60EDD3F5
:100D90001A685A60EAE7C068009308F08FFB009B6E
:100DA000DA68196C1868521A8242DA6002D29A68BC
:100DB000521ADA60022DD9D1002C18BF013C002054
:100DC000D5E780680192009301F030FEDDE9003242
:100DD0009A60CCE72DE9F043064685B001F014FF98
:100DE00096F8454064B2002C1ADD06F1240707E0AE
:100DF000AA6BEB6B03969A4238D3013CE4B27CB108
:100E0000B56C002DF4D1736A53B1384601F0E0FCA3
:100E10000028F2D001F05AFD013CE4B2002CEFD1E1
:100E2000FF2386F8453002F081FA01F0EDFE96F8D6
:100E3000444064B2002C03DC10E0013CE4B26CB12D
:100E400033695BB106F1100001F0C2FC0028F4D058
:100E5000013CE4B201F03AFD002CF1D1FF2386F809
:100E6000443005B0BDE8F04302F060BA95F8458023
:100E70002A6CAB6B4FFA88F803F101099AB92B6819
:100E8000002B37D0B8F1FF3FC5F8389029D16B6AF5
:100E9000002BB2D005F1240001F09AFC0028ACD060
:100EA00001F014FDB8E7686803A908F007FB6B6858
:100EB0002A6CC5F838901344AA686B60934209D332
:100EC0002B68B8F1FF3F6B60E1D001F0E5F84045D9
:100ED00093D90AE0B8F1FF3FF7D16B6A002B8CD0B1
:100EE000D8E701F0D9F8804587D208F1010885F8E4
:100EF000458082E7A868019301F098FD019BB8F155
:100F0000FF3F0246AB60C5F8389007D16B6A93B9D2
:100F1000002A3FF472AF01F0D9FC7DE7019001F0A7
:100F2000BBF8019A404584BF08F1010885F8458067
:100F3000002AF0D161E7019005F1240001F048FC9E
:100F400000287FF467AF019A002AE4D155E700BF7B
:100F500030B5836C85B0996BDA6B0390914203D303
:100F60000022104605B030BD93F845101A6C986BFE
:100F70004CB2054602B3586803A9019308F09EFAE3
:100F8000019B5A68196C0A4499685A608A4201D3D5
:100F90001A685A600022691C9963611C19D1596A48
:100FA0000029DED003F12400019201F011FC002899
:100FB000019A18BF0122D4E71A68002AEAD198687A
:100FC0000292019301F032FDDDE901329A6002469E
:100FD000E1E7CDE9012301F05FF88442019AC0D234
:100FE000029B611C83F84510BBE700BF002844D07A
:100FF000A1FB00C3002B40D101FB00F313F1550FFF
:101000003BD830B5044683B003F154001546019136
:10101000FFF788F90346002832D00199002933D020
:1010200000F15402C3E90F411A600024019301F05A
:10103000EBFDFF22019B9C63186C83F8442083F82E
:101040004520DA6B196800FB02F2101A59600A4455
:101050000144C3E9022103F11000FFF731FE019BB7
:1010600003F12400FFF72CFE02F060F9019B184603
:1010700083F850509C6403B030BD0023184670477D
:101080000023184603B030BD0246CBE72DE9F041FE
:10109000022B84B01F4688460446019249D00025A1
:1010A0002E4607E002F042F92046FFF793FE02F0D9
:1010B00013F8012501F0A8FDA26BE36B9A424ED311
:1010C000019B002B60D085B302F030F900F0D6FF11
:1010D00001F09AFD94F84430FF2B08BF84F8446077
:1010E00094F84530FF2B08BF84F8456002F01EF9E4
:1010F00001A902A802F076F800284BD101F084FD86
:10110000A26BE36B9A42CDD102F010F9019904F180
:10111000100001F09DFA2046FFF75CFE01F0DCFFB5
:101120000028C6D101F05EFDC3E702A801F0C2FBB2
:10113000CAE701F069FD3A4641462046A36BA56B1C
:10114000FFF70AFEA36C9BB11DB92046FFF700FF15
:10115000B8B902F0EBF8012004B0BDE8F0813A46DE
:1011600041462046A36BFFF7F7FDA36C002BECD1A3
:10117000636A002BECD004F1240001F029FB002865
:10118000E7D001F02FFDE4E702F0D0F8002004B032
:10119000BDE8F0812046FFF71DFE01F09DFFF5E759
:1011A00070B506465420FFF7BDF8044670B300251D
:1011B00001232060C0E90F3501F026FDFF23A56360
:1011C00084F8443084F84530D4E90F2303FB02F25D
:1011D0002168A2EB030C61600A446144C4E9022166
:1011E00004F11000FFF76CFD04F12400FFF768FD27
:1011F00002F09CF82B462A462946204684F8506087
:10120000A564A5602560E560FFF740FF204670BD3E
:101210002DE9F843044691461D460E46FFF7E6FACF
:1012200002F034F8A26BE36B80469A4208D3022D99
:1012300006D00024404602F0C5F82046BDE8F883F9
:1012400094F8453031462A465EB22046A76BFFF738
:1012500083FD731C15D1A36CE3B1022D00D14FB9EE
:101260002046FFF775FE28B1B9F1000F02D0012327
:10127000C9F800300124404602F0A4F82046BDE839
:10128000F88300F009FF8642F4D2731C84F84530DD
:101290000124F0E7636A002BECD004F1240001F094
:1012A00097FA0028E0D1E5E7F0B5044685B00F468F
:1012B000019201F0A9FCA56B002D53D1019BA3B3B2
:1012C00002A801F0F7FA2E4602F030F800F0D6FE40
:1012D00001F09AFC94F84430FF2B08BF84F8446076
:1012E00094F84530FF2B08BF84F8456002F01EF8E3
:1012F00001A902A801F076FFE0B901F085FCA36B1B
:101300002BBB02F013F8019904F1240001F0A0F9BD
:101310002046FFF75FFD01F0DFFE00B301F074FC33
:10132000A56BFDB9019B002BCED101F0FFFF002082
:1013300005B0F0BD2046FFF74DFD01F0CDFE01F0F8
:1013400063FCA36B002BF0D001F0F0FFE6E701F0A7
:10135000EDFF2046FFF73EFD01F0BEFEDEE701F0A7
:1013600041FCDBE7226C5AB1E168A3681144994261
:10137000E16028BF2168384628BFE16008F09EF888
:101380002369013DA56323B901F0D0FF012005B019
:10139000F0BD04F1100001F01BFA0028F4D001F0B8
:1013A00021FCF1E7F0B5044685B0019101F02CFC79
:1013B000A56B002D74D1019B002B3AD002A801F03F
:1013C00079FA2E462F4601F0B1FF00F057FE01F0EA
:1013D0001BFC94F84430FF2B08BF84F8447094F849
:1013E0004530FF2B08BF84F8457001F09FFF01A92D
:1013F00002A801F0F7FEF8B901F006FCA36B53BB9D
:1014000001F094FF2368002B41D0019904F12400DE
:1014100001F01EF92046FFF7DDFC01F05DFE00281B
:1014200032D001F0F1FBA56B002D39D1019B002BCF
:10143000C9D101F07BFF0BE02046FFF7CBFC01F0A8
:101440004BFE01F0E1FBA36B6BB901F06FFF6EB9CE
:10145000002005B0F0BD01F069FF2046FFF7BAFC9F
:1014600001F03AFEDDE701F061FFDAE701F0CCFBC5
:10147000616A19B1236B1968C1F12001A06801F0FC
:101480003DFB01F053FFE3E701F0ACFBC9E701F0DE
:10149000BBFBA06801F034FA064601F047FFB4E751
:1014A0002368013DA5637BB1236923B901F03EFFA9
:1014B000012005B0F0BD04F1100001F089F9002809
:1014C000F4D001F08FFBF1E701F0CEFFA060EBE775
:1014D000002953D0434B5A68904270D01A6810B418
:1014E000002A2BD0DA68904279D09A68002A3FD03F
:1014F0005A69904271D01A69002A40D0DA69904244
:1015000063D09A69002A40D05A6A904242D01A6A3F
:10151000002A43D0DA6A904259D09A6A002A42D00F
:101520005A6B904255D01A6B002A41D0DA6B904228
:1015300051D09B6B002B40D010BC7047DA689042B2
:101540004DD05A69904248D01A46DC69A0423CD03E
:101550005C6AA0421ED0DC6AA04238D05C6BA0421C
:1015600037D0DC6BA04236D010BCC2E90010704707
:101570005A69904231D003F10802E6E77047DA6910
:10158000904222D003F11002E2E75A6A904201D061
:10159000154AE0E7042203EBC202E5E7DA6A90426B
:1015A00015D0124ADAE75A6B904212D0104AD8E7A7
:1015B000DA6B90420FD00F4AD6E70F4AD4E70022E9
:1015C00003EBC202C2E9001070470322E3E70522E1
:1015D000E1E70622DFE70722DDE70222DBE701225F
:1015E000D9E700BF1815002030150020381500205D
:1015F00040150020481500205015002070B5044605
:101600000D46164601F000FB94F84430FF2B04BF52
:10161000002384F8443094F84530FF2B04BF0023A6
:1016200084F8453001F082FEA36B23B12046BDE86B
:101630007040FFF7CFBB04F124003246294601F089
:1016400077F82046BDE87040FFF7C4BB064C08B5EC
:10165000FFF744F82368022B00D8FEE7FFF73EF8B7
:101660002368022BFAD8F8E7241F0020836B002B95
:1016700002DB836B012B1DDD3D4B026B70B5511EF0
:10168000D3F800E01C681A6882B0926B002A03DB72
:101690001A68926B012A0EDD5A68D3F804E01446EA
:1016A0005A68926B002A03DB5A68926B012A29DD83
:1016B00002B070BD7047DFF8BCC0DCF80020002A23
:1016C000EAD1E46BDEF8305004F0010EA5EB0E0E0B
:1016D0007145E1DB4468E407DED559680E46596878
:1016E0000C465968896B002920DB5968896B0129F0
:1016F0001CDCDCF804100D46C1B97146326BD4F81D
:101700003CE00AE0DFF86CC0DCF80420002ACFD10E
:101710004FF0FF35226BDEF83CE00EF0010EA2EB3D
:101720000E028A421EDD0135C2D000224FF0504128
:1017300009688A4211D053F82210896B0231B7D060
:1017400010460192FFF73EF96FF00101019A084B34
:1017500053F82230996302B070BD01234CF8223057
:1017600002B070BD42689207DDD50122DEE700BFFE
:10177000081F0020CC2202204FF050411B4B0A686A
:1017800053F8220060B353F82200013843F82200D6
:101790000A6853F822301BBB10B5154B154853F897
:1017A00022301C460378013BDBB203703BB9DFF803
:1017B0004CC00CF81230104AC2E88F3F0A684378D8
:1017C000013BDBB2437033B90C490D4801EB4202D7
:1017D0005370C0E88F3F0020FFF732F90CB910BDFD
:1017E0007047BDE81040FEF779BF00BFC821022056
:1017F000CC220220C421022042160020C021022057
:10180000431600202DE9F8439500074628460E466A
:101810009946FEF787FD002800F0898080467C20ED
:10182000FEF780FD044600287ED07C22002107F0D0
:1018300001FE40462A46C4F83480A52107F0FAFD8F
:10184000636B043D2B4423F00708002E3ED0337811
:1018500084F84030002B36D0737884F8413093B34D
:10186000B37884F8423073B3F37884F8433053B3D9
:10187000337984F8443033B3737984F8453013B343
:10188000B37984F84630F3B1F37984F84730D3B1B3
:10189000337A84F84830B3B1737A84F8493093B11D
:1018A000B37A84F84A3073B1F37A84F84B3053B189
:1018B000337B84F84C3033B1737B84F84D3013B1F3
:1018C000B37B84F84E30002384F84F30089D04F138
:1018D00008001F2D28BF1F252563A565FFF7FCF90C
:1018E000C5F1200504F11C00FFF7F6F94B463A4616
:1018F0004046616BE5616461A462FEF711FF4FF041
:10190000FF320D4B20609F42A26308D00B4B9F42D9
:1019100005D0099B03B11C602046BDE8F883E36B4A
:1019200043F00103E363F4E74046FEF79FFD002424
:101930002046BDE8F88300BF511D00104D16001071
:101940004FF050424F4B12682DE9F047DFF84091BD
:101950004D4CDFF8408153F822604C4D40E0DFF8F9
:1019600038A10020FFF76CF8FFF75EF84FF0504306
:101970001B68DAE8CF2F0121002A01D1CAE8421FF3
:10198000BFF35F8F002A50D15B0001224344627095
:101990005A704FF050431A68D5E8CF3F0121002B11
:1019A00001D1C5E8431FBFF35F8F73B118F8123040
:1019B000002B4BD1D5E8CF1F01230029FAD1C5E870
:1019C000413F0029F6D1BFF35F8F0123237008F850
:1019D00012304FF050431A6849F82270002F3FD060
:1019E000B36B02334CD14FF050410A6859F8227062
:1019F0006FB1002349F8223023780A68013BDBB23B
:101A0000237023B908F81230C5E88F3F0A6863785D
:101A1000013BDBB26370002BA1D108EB4202DFF87F
:101A200078A05370CAE88F3F9BE708EB43025278D7
:101A30005B000ABBDAE8CF1F01220029FAD1CAE80D
:101A4000412F0029F6D1BFF35F8F9EE72378013342
:101A500023704FF050431A6849F82270002FBFD10D
:101A60001A682378013BDBB22370002BB8D108F849
:101A70001270C5E88F7F70E763780133637088E781
:101A8000BDE8F087081F0020C42102204216002074
:101A9000C8210220C02102204316002030B583B0A7
:101AA000FEF7C2FF4FF050420546404B1268D3E8A4
:101AB000CF1F0120002901D1C3E8410FBFF35F8F81
:101AC0003B4800294BD1510001233A4A014453704D
:101AD0004B70394B1968002954D04FF0504C37499E
:101AE000DCF800E0D1E8CFCF0124BCF1000F01D138
:101AF000C1E84C4FBFF35F8FBCF1000F10D010F85E
:101B00001EC0BCF1000F4AD1D1E8CF4F5FF0010CED
:101B1000002CF9D1C1E844CF002CF5D1BFF35F8F81
:101B20004FF0010C82F800C000F81EC04FF0504E7C
:101B3000D3F800C00CF1010CC3F800C01378DEF834
:101B400000C0013BDBB213701BB900F81C30C1E8C8
:101B50008F3F284603B0BDE83040FEF771BF51000B
:101B600000EB42025278AAB9D3E8CFCF0122BCF1F0
:101B7000000FF9D1C3E84C2FBCF1000FF4D1BFF333
:101B80005F8FA1E7CDE90020FFF7DAFEDDE9002055
:101B9000094BA2E7074A53780133537099E792F84B
:101BA00000C00CF1010C82F800C0BFE74316002012
:101BB000C0210220C4210220F02102204216002070
:101BC0002DE9F843584C594E594FDFF87C91DFF816
:101BD0007C812368002B37D0FEF726FF336893B152
:101BE0004FF050431B6857F82320002A3BD04FF09A
:101BF000504157F82320013247F823200B6857F84B
:101C00002330012B28D0236803B34A4BDB68DD68FF
:101C1000AB6B013340F0818005F10800FFF78AF8D3
:101C2000454A1368013B13602368013B2360336816
:101C30000BB1FFF7A1FD686BFEF718FC2846FEF715
:101C400015FC2368002BC7D1BDE8F8833368002B4F
:101C5000BFD0FFF791FDBCE7D9F80030002BD2D1FF
:101C6000FFF76EFECFE7D8E8CF2F0121002A01D180
:101C7000C8E8421FBFF35F8F002A32D12F4A5900B4
:101C800001232F48114443704B704FF050452D4BAA
:101C90002968D3E8CFCF5FF0010EBCF1000F01D16E
:101CA000C3E84CEFBFF35F8FBCF1000F11D012F807
:101CB00011C0BCF1000F26D1D3E8CFCF0125BCF174
:101CC000000FF9D1C3E84C5FBCF1000FF4D1BFF3B2
:101CD0005F8F01234FF05045037002F811302B68DD
:101CE00085E7164A590002EB43035B7883B9D8E8CD
:101CF000CF0F01230028FAD1C8E8403F0028F6D1D1
:101D0000BFF35F8FBCE70378013303702B686EE786
:101D10000B48437801334370B7E73368002B93D007
:101D2000BDE8F843FFF728BDEC2102208C220220F9
:101D3000C8210220AC220220E8210220C02102207A
:101D4000C421022042160020F02102204316002068
:101D500008B5FEF7C3FC044CFFF732FF2368022BE3
:101D6000FAD9FEF7BBFCF7E7241F00202DE9F04F5E
:101D70004FF050454B4C4C4A4C4B246812681B6842
:101D800083B0924688469B46494EA1460446FEF7DC
:101D90004BFE2B6856F82370FEF752FE002387F89F
:101DA0007930FEF741FE2B6856F82370FEF748FEA7
:101DB00007F10800FEF7BEFF631C02D1B8F1000F67
:101DC00034D14FF0504519EB04042CBF01270027F4
:101DD000FEF72AFE2B6856F823300193FEF730FEFB
:101DE000019B9C609FB9FEF71FFE2B6856F823509D
:101DF000FEF726FE504605F10801FEF77FFF2D4B4A
:101E00001A68A24288BF1C6003B0BDE8F08FFEF7DD
:101E10000BFE2B6856F82340FEF712FE584604F1DD
:101E2000080103B0BDE8F04FFEF768BF224C6768B9
:101E3000FEF7FAFD2B6856F823300193FEF700FEFB
:101E4000019BDF60FEF7F0FD2B6856F8233001930D
:101E5000FEF7F6FDBA68019B1A61FEF7E5FD2B68F7
:101E600056F823300193FEF7EBFD019BBA68083367
:101E70005360FEF7D9FD2B6856F823300193FEF727
:101E8000DFFD019B0833BB60FEF7CEFD2B6856F8E3
:101E90002350FEF7D5FD2368AC610133236003B006
:101EA000BDE8F08FC0220220141F00201C1F00205C
:101EB000081F002064220220982202202DE9F84306
:101EC0000D460446FEF7B0FD634B1A68A2B14FF011
:101ED00050426249126851F82200002838D04FF071
:101EE000504C51F82200013041F82200DCF800206B
:101EF00051F82220012A16D0F4B11A686168656091
:101F00004AB1A26B002A02DBA26B012A66DD25EA38
:101F10000105AA075DD11B681BB1BDE8F843FFF7B7
:101F20002BBCBDE8F8834E4A1268002AE4D1FFF7C3
:101F300007FD494B002CE0D1FEF776FD4FF05041F4
:101F4000484A096852F82140FEF77AFD424BD4E72F
:101F50004548D0E8CFCF5FF0010EBCF1000F01D1B2
:101F6000C0E84CEFBFF35F8FBCF1000F4FD1DFF83B
:101F700008C14FEA420E01223C48E64442708EF806
:101F800001204FF0504EDEF80060394AB146D2E8E9
:101F9000CF7F5FF00108002F01D1C2E8478FBFF368
:101FA0005F8F77B11CF81660002E49D1D2E8CF7F41
:101FB0000126002FFAD1C2E8476F002FF6D1BFF3F8
:101FC0005F8F012202700CF819204FF05042126806
:101FD00085E72046FFF74AFB1F4B9CE7A46BE540D3
:101FE000E90798D44FF050421268944223D01D4D17
:101FF00055F82420926B02328DD02046FEF7E2FC89
:102000006FF0010155F82420134B916383E7DFF84B
:1020100068C04FEA420E0CEB42025278B2B9D0E8E7
:10202000CF6F0122002EFAD1C0E8462F002EF6D144
:10203000BFF35F8F9FE701210E4A42F824106AE741
:10204000027801320270DEF8002048E70748427843
:102050000132427095E700BF8C220220C821022085
:10206000F0210220081F002043160020C421022076
:1020700042160020CC220220C0210220024B1B6805
:1020800003B97047FFF70ABD8C220220014B186884
:10209000704700BFC0220220014B1868704700BF84
:1020A000E8210220834B2DE9F0471B685BBB824B84
:1020B0001D6801351D6075B3DFF818A2DAF800302D
:1020C000AB423FD97D4C7E4D2B681B6B03EB8303EA
:1020D00054F82330012B6B681B6B03EB830354F81C
:1020E000233040F29480012B4FF050431E6840F2A1
:1020F000A780002E00F0CF802B689B6B023300F08E
:10210000B2800124A2E000246E4A136801331360F8
:102110002046BDE8F0876C4B6C4A1868116819605E
:102120006B4910600A6801320A601A681268002A56
:1021300079D1684A4FF0FF3392461360DAF80030E5
:10214000AB42BFD8604E5D4C33681B68002B00F07B
:10215000A480DFF888914DE0D3F818E0D3E903724A
:10216000BA60DF6818465760DEF804208A4204BF70
:102170001A69CEF80420DEF80020013ACEF80020DB
:10218000D3F82CE0BEF1000F12D0D3E90872BA6088
:102190001F6A57600027DEF80420624504BF5A6AB0
:1021A000CEF80420DEF80020DF62013ACEF80020ED
:1021B0001A6BD9F800E002EB820C724504EB8C0E2E
:1021C00088BFC9F80020DEF80420DA60D2F8088061
:1021D000C3F81080C8F80410916054F82C20C3F89C
:1021E00018E0013244F82C20FFF740FA33681B68EE
:1021F000002B52D03368DB68DB689A6803F1080172
:10220000954203F11C0CA7D2CAF800205BE7012B12
:1022100010D94FF05042304B16681B681BB3002E8C
:102220007FF46AAF37E01B682A4ADB6892461B6876
:10223000136043E74FF05041274B0E681A6872B1A4
:1022400036B32B689B6B023308D000240020FEF7C6
:10225000B9FB6FF001022B689A6324B91E4B5C68CE
:10226000002C3FF455AF012E1CD000244FF05043FA
:102270001B68012B1AD06B689B6B02333FF448AF8D
:102280000120FEF79FFB6FF001026B689A633FE746
:10229000114B5B6833B10124E8E74FF0FF33CAF814
:1022A000003010E701242046BDE8F0870A4A536059
:1022B0002EE700BFF0210220C0220220241F0020B0
:1022C000081F002074220220141F00201C1F002061
:1022D0006822022064220220CC220220F82102205F
:1022E0004FF050432DE9F0470246DFF834821B6877
:1022F00082B0D8E8CF1F0120002901D1C8E8410FE2
:10230000BFF35F8F7F4E00294CD1590001207E4BD7
:102310003144587048704FF05041DFF808A2086807
:10232000DAE8CF1F0124002901D1CAE8414FBFF3E9
:102330005F8F79B116F81010002940F0BE80DAE8FE
:10234000CF4F0121002CFAD1CAE8441F002CF6D14E
:10235000BFF35F8F0121197006F810106B490968EF
:10236000002932D001244FF05041694840F8224002
:102370000D681A78013AD2B21A7032B906F81520EF
:10238000CAE88F2F4FF0504215685A78013AD2B2FE
:102390005A7022B906EB45056A70C8E88F2F02B063
:1023A000BDE8F087590006EB43035B78002B40F053
:1023B0008880D8E8CF0F01230028FAD1C8E8403F31
:1023C0000028F6D1BFF35F8FA0E75148514CDFF8EA
:1023D000589140F82210D9F8005054F822104E4F6E
:1023E000886954F82210096B01EB810107EB810128
:1023F000884270D0494805EB850100EB810050F818
:10240000081C61B9D9F8001014380139C9F8001056
:10241000002D5CD050F8081C013D0029F2D04FF08F
:10242000010C864699460CFA02FCDEF80410714550
:1024300007D12EE054F82230984233D049687145D4
:1024400027D0C868836B5F1CF4D147681CEA070F6C
:10245000F4D0194686464FF0504554F822004B46BA
:10246000816354F822C0CEF838202D6844F822E069
:10247000BCF1000F0AD0DCF830E0274F0EEB8E00E5
:1024800007EB8000DCF8187087424FD054F8252005
:102490006FE7AEF1140ECDB15EF8083C013D002BA4
:1024A000F7D0C2E743681CEA030FC7D082634FF03E
:1024B000504286464B461568E8E719780131197095
:1024C0004CE7114B59780131597024E74B464FF0D6
:1024D00050421568DAE754F8220001930830009260
:1024E000FEF728FC009A54F82210086B54F82210CA
:1024F00000EB800007EB80000831FEF7F1FBDDE91F
:10250000002377E7C0210220C4210220F02102200D
:10251000CC220220081F0020241F00202C1F002096
:102520004316002042160020F8210220DCF8049017
:10253000DCF83C0029FA02FC00F001001CF0010F5D
:10254000AEEB000004D054F82220526829EA0209B8
:1025500019F0020F09F0030268D06268D4F804C0D1
:10256000126BDCF83CC009F0010E0CF0010CA2EB80
:102570000C0290420DDDD4F804C0DCF838C0BCF188
:10258000000F06DBD4F804C0DCF838C0BCF1010F42
:1025900034DDBEF1000F3FF479AF2268D4F800C0FB
:1025A000126BDCF83CC00CF0010CA2EB0C02904268
:1025B0007FF76CAF2268926B002AFFF667AF226844
:1025C000926B012A3ADD01313FF460AF4FF001090F
:1025D000A9452ED054F82920926B02323FF456AF11
:1025E0006FF0010548460093FEF7ECF94FF05042BA
:1025F00054F82910009B8D63156847E7134FD7F8EF
:1026000004C0BCF1000FC4D1BEF1000FDED02168C0
:102610002068096BC06B00F00100091A8A42D5DD01
:102620002268926B002AD1DB0121C8E7002AB4D1CD
:102630002CE70122054941F8252048E7034AD2F852
:102640000090B9F1000FC3D0BDE700BFCC2202203B
:1026500070B50D460646FEF7E7F94FF05042084BBD
:10266000126853F82240FEF7EBF9304604F11C01E2
:10267000FEF744FB2846BDE870400121FFF776BB1A
:10268000081F0020F0B54FF050450F46064683B0B6
:102690000192264CFEF7C8F92B6847F0004754F822
:1026A00023300093FEF7CCF9009BDF617768FEF7DB
:1026B000BBF92B6854F823300093FEF7C1F9009B57
:1026C0001F62FEF7B1F92B6854F823300093FEF730
:1026D000B7F9B968009B5962FEF7A6F92B6854F860
:1026E00023300093FEF7ACF9009BB9681C334B60B4
:1026F000FEF79AF92B6854F823300093FEF7A0F9FF
:10270000009B1C33BB60FEF78FF92B6854F8234005
:10271000FEF796F90121336801980B44E6623360B5
:1027200003B0BDE8F040FFF721BB00BF081F002049
:102730002DE9F0414FF0504582B00192884647683C
:102740000646224CFEF770F92B6854F823300093AC
:10275000FEF776F9009B1F62FEF766F92B6854F8C6
:1027600023300093FEF76CF9B968009B5962FEF7BD
:102770005BF92B6854F823300093FEF761F9009B56
:10278000B9681C334B60FEF74FF92B6854F82330BF
:102790000093FEF755F9009B1C33BB60FEF744F92C
:1027A0002B6854F82340FEF74BF9019A3368002A4E
:1027B00011460CBF40464FF0FF300133E6623360F4
:1027C00002B0BDE8F041FFF7D1BA00BF081F0020FA
:1027D00038B54FF0000EC368D868C36AD0E9081254
:1027E0008A60D3F804C0046A00F11C0154608C456F
:1027F00004BF426A5A602A4AD2F800C01A68C0F878
:102800002CE0013A1A60BCF1000F38D1D0E9031274
:1028100083698A60C468596800F1080E5460714584
:1028200008BF02691F4908BF5A601A68013A1A6056
:10283000036B0A6893421C4A88BF0B6003EB830357
:1028400002EB8301D1F804C052F82340C0F80CC059
:10285000651CDCF808400461C4F804E0CCF808E02A
:10286000816142F82350FEF701FF4FF050420F4BB9
:10287000126853F82200003818BF012038BD0C4BF5
:10288000D3F804C0C0F820C0DCF8082042625160D0
:102890001A68CCF808100132C3621A60E3E700BF7F
:1028A000F0210220F8210220241F0020CC22022047
:1028B00078220220034A044B12681B68C0E90023F7
:1028C000704700BF68220220C02202204FF0504211
:1028D0000121024B126843F822107047CC220220DB
:1028E00010B5FEF7A1F84FF05042044B126853F8B0
:1028F00022301C46FEF7A4F8204610BD081F002019
:1029000030B5044683B000283BD0016B444D0191A3
:10291000FEF78AF84FF050431A6855F822200092CB
:10292000FEF78EF8009A0199126B91422BD2E26960
:10293000002A0EDBFEF778F84FF050431B6855F87D
:1029400023300093FEF77CF8009B1B6BC3F1200340
:10295000E361236B334AA16903EB830302EB830337
:10296000994224D0FEF760F84FF050432C4A1B6880
:1029700052F823300093FEF763F8009B1B6B236330
:10298000012003B030BDA46DFEF74EF84FF0504368
:10299000234A1B6852F823300093FEF751F8009B3E
:1029A000186B84422CBF0020012003B030BD04F11D
:1029B0000800FEF7BFF9FEF737F84FF05043184A0A
:1029C0001B6804F1080552F823300093FEF738F82D
:1029D0001549009B08681B6B124A8342236388BF1A
:1029E0000B6003EB830302EB830CDCF8040052F86A
:1029F0002310E060D0F808E00131C4F810E0CEF810
:102A000004508560C4F818C042F82310A36B002B53
:102A100002DBA36B012BB3DD2046FEF727FEAFE7F9
:102A2000081F0020241F0020F821022040B1034687
:102A3000C26D996D006B013A8842DA6500D00AB127
:102A40000020704730B503F1080083B003F108049B
:102A50000193FEF76FF9019B24499A6D08681A6388
:102A6000824288BF0A602249C2F1200C02EB820236
:102A700001EB820EC3F81CC0DEF804C051F822003E
:102A8000C3F80CC0451CDCF8080018614460CCF8A1
:102A90000840C3F818E041F822509A6B002A02DB84
:102AA0009A6B012A02DD012003B030BD4FF0504285
:102AB000996B1268914213D0996B0E4A52F821100B
:102AC000896B0231EFD0986B0193FDF77BFF6FF0BC
:102AD0000101019B074A9B6B52F823309963E2E79F
:102AE00001219A6B044B43F82210DCE7F821022005
:102AF000241F0020081F0020CC22022050B10346D2
:102B0000806D1A6B814238BF01468A4202D0D86D6F
:102B1000012800D07047D86919630028A4BFC1F10B
:102B20002001D9612B49986902EB820201EB8202F4
:102B30009042EFD130B503F1080083B003F10804EF
:102B40000193FEF7F7F8019B23481A6BD0F800C0F9
:102B50002049624588BF026002EB820201EB820ECF
:102B6000DEF804C051F82200C3F80CC0451CDCF8A4
:102B7000080018614460CCF80840C3F818E041F838
:102B800022509A6B002A02DB9A6B012A01DD03B006
:102B900030BD4FF05042996B1268914213D0996B3F
:102BA0000E4A52F82110896B0231F0D0986B0193D4
:102BB000FDF708FF6FF00101019B084A9B6B52F87B
:102BC00023309963E3E701219A6B054B43F8221008
:102BD000DDE700BF241F0020F8210220081F00208D
:102BE000CC2202204FF05043054A1B6852F82320A4
:102BF00022B10121034A42F823107047FDF76EBD50
:102C0000C8210220CC22022038B5FDF70DFF3E4B33
:102C10001B6893B14FF050433C4A1B6852F8231095
:102C2000A1B14FF0504052F82310013142F8231067
:102C3000036852F82330012B00D038BD344B1B6899
:102C4000002BFAD1BDE83840FEF77ABE3149D1E811
:102C5000CF0F5FF0010C002801D1C1E840CFBFF3D6
:102C60005F8F002830D12C484FEA430C01232B49B9
:102C700084444B708CF801304FF0504E284BDEF8F6
:102C800000C0D3E8CF4F0125002C01D1C3E8445F39
:102C9000BFF35F8F7CB110F81C40002C29D1D3E822
:102CA000CF4F5FF0010E002CF9D1C3E844EF002CA8
:102CB000F5D1BFF35F8F01234FF0504E0B7000F83A
:102CC0001C30DEF80030ACE713484FEA430C00EB51
:102CD00043035B789BB9D1E8CFEF0123BEF1000F2E
:102CE000F9D1C1E84E3FBEF1000FF4D1BFF35F8FC1
:102CF000BCE70B7801330B70DEF8003091E7074931
:102D00004B7801334B70B7E78C220220C821022098
:102D1000F021022043160020C0210220C4210220FD
:102D2000421600202DE9F0410546FFF76DFF2F4ABE
:102D30002F4F1368013313603B685BB32D4E2E4B4E
:102D400005F108041A6801322A651A602B4A2B6BB8
:102D500011688B4288BF136003EB830306EB83008B
:102D6000416856F82320E960D1F808C0D7F800E0A0
:102D70000132C5F810C0CCF804408C60A86146F858
:102D80002320BEF1000F2CD13B6843B3BDE8F041D6
:102D9000FEF7F2BC1368174E012BD0D1344606F56E
:102DA000207820461434FDF78BFFA045F9D1DFF8D9
:102DB0006880134C4046FDF783FF2046FDF780FFF7
:102DC0001048FDF77DFF1048FDF77AFF0F48FDF72B
:102DD00077FF0F4BC3F800800E4B1C60AFE7BDE8D8
:102DE000F0812846FEF742FCCEE700BFE821022032
:102DF0008C220220241F0020F4210220F82102202E
:102E00003822022078220220AC22022098220220BE
:102E1000141F00201C1F00202422022010B582B0A5
:102E2000049C0094059C0194FEF7ECFC38B14FF033
:102E3000FF324260FFF776FF012002B010BD4FF075
:102E4000FF3002B010BD00BF10B582B0049C0094EA
:102E5000069C0194FEF7D6FC30B1059A4260FFF75C
:102E600061FF012002B010BD4FF0FF3002B010BD75
:102E70002DE9F04130230024254E264A86B0CDE9C5
:102E80000162ADF80C304FF400722346224802A9CB
:102E90000094FEF7B7FC3546204F10B34FF0FF38D3
:102EA000C0F80480FFF73EFF2B689C6347F824308E
:102EB000E4B90435002331244FF400721848019519
:102EC00002A90093ADF80C40FEF79CFC01240028F9
:102ED000E4D173689C637B60124B1B6806B0BDE84D
:102EE000F08155F8043B98633B60E3E700F078FC21
:102EF0000128F1D1FDF798FD00220B490B4B0C483E
:102F0000C0F800800C601A60FDF748FCE4E700BFE1
:102F10005422022049444C45511D0010081F002036
:102F20004D160010989800108C220220C02202201A
:102F3000642202202DE9F84FFFF766FE4FF0504063
:102F4000584A594913680468013B13604B7800687C
:102F5000013BDBB2A3464B7033B9544901EB40014E
:102F60004B705349C1E88F3F1468002C6BD1514B13
:102F70001868002870D0DFF858E1DEF80030002B28
:102F800053D0DFF850A14C49DEF80C30DB68DA6A28
:102F9000D3E9080686601D6A506803F11C07756056
:102FA000B84204BF586A50601068DC620138106093
:102FB0009A69D3E903078760D868D2F804C07860BB
:102FC000176803F10800844508BF1D6907F1FF3742
:102FD000176008BF5560DAF800601A6B02EB8207D1
:102FE000B242BC4601EB870938D9D9F80460CAF867
:102FF0000020DE60D6F808C051F82720C3F810C0C2
:10300000CCF80400B060C3F81890DEF8003001324C
:1030100041F82720002BB7D1284B1A681268002AE4
:103020003AD14FF0FF32264B1A60264F3C6864B30A
:103030000126254DFFF736F808B145F82B60013C15
:10304000F8D13C6022E00024204B1B680BB1FEF756
:1030500093FB2046BDE8F88F0446F5E7D9F80460F5
:1030600051F82720DE60B76801321F617860B060D8
:10307000C3F81890DEF8003041F82C20002B83D1E3
:103080000E4B1A6812683AB9CBE70F4D55F82B4032
:10309000003C18BF0124D7E71A68094BD2681268B0
:1030A0001A60C2E7F0210220C4210220C0210220C0
:1030B00043160020E8210220241F0020141F0020B6
:1030C0006422022074220220CC2202208C220220C0
:1030D00078220220F8210220024B186800B97047BC
:1030E000FFF728BF8C22022000B583B040B1124BFD
:1030F0001A68E2B90021FEF739FE0F4B1B688BB945
:103100004FF050430D4A1B6852F823202AB1012189
:103110000B4A42F8231003B000BD03B05DF804EB86
:10312000FDF7DCBAFFF706FF0028E9D0F3E70190CE
:10313000FEF7B4FC0198DDE78C220220C8210220B2
:10314000CC22022041F0004138B5D0E90152C468D8
:1031500003690160AA6055600025596804F1080CF4
:10316000814208BF5A601A68D4E903E1013A056157
:103170001A60A369CEF80810E2684A605A681649D6
:10318000624504BF22695A601A68013A1A60236BCB
:103190000A689342114A88BF0B6003EB830302EB7A
:1031A00083004168E1608D682561C5F804C0C1F8FD
:1031B00008C052F82310A061013142F82310FFF734
:1031C00023FD2046FEF752FA054B1B681BB1BDE8F4
:1031D0003840FEF7D1BA38BDF8210220241F002064
:1031E0008C2202202DE9F04304464FF05046234F35
:1031F00083B00191FFF708FD3B68214D9846636855
:103200009946FDF711FC336855F823300093FDF71C
:1032100017FC009B019993F8793023BB0B685A1C6B
:1032200017D0184A20681568A84206D06068404543
:1032300003D800230B6001240CE0A8EB09008342B3
:10324000F7D91068A3EB08033A684B440B60C4E954
:10325000000200240C4B1B680BB1FEF78DFA2046D0
:1032600003B0BDE8F083FDF7DFFB336855F823407A
:10327000FDF7E6FB002384F87930DCE7C02202206A
:10328000081F0020682202208C220220224B18688E
:1032900000B9704710B5FDF7C7FB4FF05042DFF89B
:1032A00084C013685CF8231029B15CF82320013234
:1032B0004CF8232010BD1949D1E8CFEF0124BEF10D
:1032C000000F01D1C1E84E4FBFF35F8FBEF1000F79
:1032D0000AD1DFF854E0012211490A700EF81320D8
:1032E0004FF050431B68E0E7DFF83CE01EF8134066
:1032F0005CB9D1E8CF4F0122002CFAD1C1E8442FAC
:10330000002CF6D1BFF35F8FE5E705490B78013359
:103310000B701368C9E700BF8C2202204216002000
:10332000C4210220C8210220C02102201E4B1B689C
:10333000002B33D04FF050411C4B0A6853F8220049
:1033400060B353F82200013843F822000A6853F8AA
:1033500022301BBB10B5164B164853F822301C46C2
:103360000378013BDBB203703BB9DFF850C00CF8C7
:103370001230114AC2E88F3F0A684378013BDBB242
:10338000437033B90D490E4801EB42025370C0E857
:103390008F3F0020FDF754FB0CB910BD7047BDE80E
:1033A0001040FDF79BB900BF8C220220C8210220EB
:1033B000CC220220C421022042160020C02102207B
:1033C00043160020124B1B680BB34FF05041114BBA
:1033D0000A6853F822C0BCF1000F18D053F822C07D
:1033E0000CF1FF3C43F822C00A6853F8223073B94D
:1033F00009490B78013BDBB20B7033B9DFF820C011
:1034000006490CF81230C1E88F3FFDF719BB704731
:103410008C220220C8210220C42102204216002052
:10342000C0210220F8B54FF05046FDF7FDFA0D4DD2
:10343000336855F82340FDF703FBE769FDF7F4FA1D
:10344000336855F82340FDF7FBFA246BFDF7ECFADF
:103450003368C4F1200455F82350FDF7F1FA3846DB
:10346000EC61F8BD081F002010B5FDF7DDFA4FF044
:103470005042064B126853F82240FDF7E1FA14B1AE
:10348000E36D0133E365204610BD00BF081F002037
:103490002DE9F04FAC4FDFF8B8B2DFF8B882AB4D92
:1034A00087B03B681C68002C40F01D81FEF7E6FDEC
:1034B000FEF7ECFDDBF800308146834247D8D8F8B0
:1034C0000030CBF800001A68B2FA82F2520928687C
:1034D000A4EB0901FEF792F8FFF7FEFD002800F0CB
:1034E00024810023CDE90233CDE90433002228688A
:1034F00002A9FDF7D9FE0028D3D0029B002BC0F211
:10350000E980DDF810A0DAF814301BB10AF10400EC
:10351000FDF710FCFEF7BAFDDBF800300190984291
:1035200043D3DDE90123013BCBF80020082BDDD894
:10353000DFE803F06161C0A5C76161C0A50022F0AA
:1035400001028AF828205046DAF8203098473B6874
:103550001A68002A00F0D980DA68D2F80CA0146842
:103560000AF104063046FDF7E5FB9AF828205107DA
:10357000E5D503E05046DAF820209047DAF8182025
:10358000CAF810A01119A418CAF80410F2D33146D1
:10359000D8F80000FDF7B2FBD5E721F0010189F86A
:1035A00028104846D9F8203098473B681968002908
:1035B00000F0B580D968D1F80C900C6809F10406C8
:1035C0003046FDF7B7FB99F828104807E5D503E02A
:1035D0004846D9F820108847D9F81810C9F8109033
:1035E00008196418C9F80400F2D33146D8F800006D
:1035F000FDF784FBD5E79AF828000399DAF818401C
:10360000019A0B1940F001068AF828602CBF0126A8
:1036100000269342CAF80430CAF810A000F288804D
:10362000511A8C423FD8410712D420F001008AF889
:1036300028005046DAF82030984757E78C4200F2CD
:10364000C780DAF82030504698473346DAF81840F9
:10365000019AE6182CBF01200020B242A2EB030120
:10366000CAF80460CAF810A0E8D29A4201D2002831
:10367000E7D038680AF10401FDF740FBD9E7039968
:10368000019A9AF82830881843F0010390428AF88A
:103690002830CAF81810CAF80400CAF810A04CD88C
:1036A00000293FF423AFD8F800000AF10401FDF728
:1036B00025FB1BE79AF8283023F001038AF828300D
:1036C00014E79AF828309A0778D523F001038AF88E
:1036D00028300BE7039BDDE904019847029B002B90
:1036E000FFF604AF0DE7DB681C68FEF7C7FCFEF7CA
:1036F000CDFCDBF80030814683423FF628AF8442A0
:10370000CBF8000028D90022E1E6D8F80020CBF859
:1037100000903A60C8F80030FFF7DEFCE1E6D8F828
:103720000010C8F800303960FBE6FFF75BFAD8E616
:10373000914202D9002E3FF476AF38680AF10401B5
:10374000FDF7DCFAD2E600BF101F0020C4220220E1
:103750005C220220201F0020FFF7BEFC3B68DB68D4
:10376000DE68331D18460193FDF7E4FA96F8282029
:1037700053070DD422F0010286F828203046336A20
:103780009847AEE681421DD83046316A8847544694
:10379000B169A9EB040014EB010A2CBF012300233B
:1037A000CA45C6F804A03661ECD94C4501D9002BB6
:1037B000EAD001993868FDF7A1FADFE75046FCF737
:1037C00055FE93E60199D8F80000FDF797FAD5E782
:1037D000D8F800000AF10401FDF790FA29E700BFCC
:1037E00010B5194C86B0FFF70FFA22689AB1FFF7AF
:1037F0009DFD206868B14FF0FF3C1F241349002352
:1038000002914FF48062CDE9004C11491148FFF755
:103810001BFB06B010BD10480592FDF751FA0F488A
:10382000FDF74EFA0E490D480E4B08600A4810216C
:103830001860059A0A20FDF7D9FB20600028D6D031
:103840000949FDF745FED2E7C4220220C822022022
:10385000EC96001091340010FC210220102202206E
:10386000201F0020101F0020E496001070B56FF09C
:10387000010C964604460D461A46074B84B069462D
:1038800018680023CDE90145CDF80CE0CDF800C063
:10389000FDF7BEFC04B070BDC422022000EB400C5A
:1038A0004FEA8C0C0CF1804C0CF5803C70B51E4638
:1038B000DCF80430041FB3F5803F38BF4FF4803389
:1038C000E4B238BFCCF80430012C2ED94FF4006597
:1038D000284B0CF5405ECEF8005053F820E0BEF1C6
:1038E000000F17D1DCF800E0012C8EEA421202F042
:1038F000E0020CF5805ECEF800202BD94FF4006179
:1039000043F820604FF480330CF500521160CCF87E
:10391000043070BD5D69B5FBFEFE0EF1010E0EEBCD
:103920004E0EBEF1030EFCD2DCE70129CED10324FA
:103930000CF540531C60DCF80830DB07FBD5DCF8E5
:1039400000300CF5805E83EA421303F0E003CEF80A
:103950000030084B0122DCF800404C4004F0030426
:10396000CEF8004002FA01F1DCF808200A42FBD050
:10397000C4E700BF581A0020014B53F820007047DD
:10398000581A00200FB400B5084883B003F0C0F8FF
:10399000049B3BB105A91846019102F029FF044898
:1039A00003F0B6F8012002F03BFF00BFF4960010D0
:1039B00004970010EFF3108072B6064BD3E8CF1FC8
:1039C00001220029FAD1C3E8412F0029F6D1BFF323
:1039D0005F8F70473F1600200023034AC2E88F3FE5
:1039E00080F31088704700BF3F16002070B5164660
:1039F000EFF3108472B6DFF848E0DEE8CF2F012342
:103A0000002AFAD1CEE8423F002AF6D1BFF35F8FF9
:103A1000012301F0070CCA0803FA0CF310F802C0E6
:103A20001CEA030508D14CEA030C00F802C0CEE8FA
:103A30008F5F84F3108870BD3046FFF7A3FF00BF8F
:103A40003F160020F8B50F461946EFF3108672B600
:103A50001C4DD5E8CF4F0123002CFAD1C5E8443FD7
:103A6000002CF6D1BFF35F8F8A421BD8012402E0FD
:103A70000132914222D3D30810F803E002F0070C80
:103A800004FA0CFC1EEA0C0FF2D14EEA0C0E00F800
:103A900003E010460023C5E88F3F86F31088984264
:103AA00007DBF8BD0023C5E88F3F86F310884FF091
:103AB000FF30002FF5D00698FFF764FF4FF0FF307E
:103AC000E8E700BF3F160020044A1078431CDBB231
:103AD000182B28BF10231370704700BF1A12002044
:103AE0000146024A0248FFF781BF00BF0897001055
:103AF000501A002000B5DFF81CC083B001461F2318
:103B00001822CDF800C00248FFF79CFF03B000BDAB
:103B1000501A0020289700104FF0E022936843F0DD
:103B200000539360704700BF0021044B03F1200253
:103B3000C3E88F1F01339342FAD170473416002037
:103B40004FF0E0234FF08032C3F80024C3F8042480
:103B5000C3F80824C3F80C24C3F81024C3F81424B1
:103B6000C3F81824C3F81C24C3F82024C3F8242461
:103B7000C3F82824C3F82C24C3F8302462B6704755
:103B8000012300F01F029340400941B1800000F181
:103B9000604000F56140C0F8803103607047024A20
:103BA000203042F82030704700E100E00123064A4F
:103BB000410952F8212000F01F008340134214BF36
:103BC00001200020704700BF00E100E0012243090E
:103BD000034900F01F008240403341F82320704722
:103BE00000E100E0054A10309268054B52F82000D1
:103BF000C01A2F288CBF00200120704700ED00E084
:103C00001C12002010B582B0EFF3108472B6164B70
:103C1000D3E8CFCF0122BCF1000FF9D1C3E84C2F7C
:103C2000BCF1000FF4D1BFF35F8F104A10309268DF
:103C3000DFF83CC052F82020624508D0914206D0FF
:103C4000CDE9000100F0F4FF0199074B0098074A05
:103C5000926842F82010BFF35F8F0022C3E88F2FD5
:103C600084F3108802B010BD3D16002000ED00E086
:103C7000110100102DE9F04F06468A46154683B023
:103C8000EFF3108872B6714FD7E8CF2F0123002AC7
:103C9000FAD1C7E8423F002AF6D1BFF35F8F6C49E3
:103CA00091F90020002A7BDB6A4802EB420400EB1A
:103CB000840393F806C0103681F800C06649A4005A
:103CC00089684FEA420B51F826E0AEEB00012F293C
:103CD0002ED962498E4540F0848043F0010E604B3E
:103CE00002340444043B1B1BC3F34A036FEAC3437F
:103CF0004FF421416FEAD3435A4420F8221000EBDD
:103D0000820253804BF601539380FF23D571C2F892
:103D100008A09371504B9B6843F826E0BFF35F8F78
:103D20000023C7E88F3F88F3108803B0BDE8F08F09
:103D30002EF0010C9CF80710A9425AD9B146019403
:103D40001E4603E0CB79AB4230D98C469CF9064045
:103D500004EB4401002C00EB8101F3DA00944BF6F4
:103D6000015433464E460CF10409043BA3EB09030E
:103D7000C3F34A036FEAC3436FEAD343ACF804309A
:103D8000384B0BEB02018CF8062040F82130009BE9
:103D900000EB810294809371D571C2F808A0B9E755
:103DA00000F046FF2A4991F900207DE76FF00701F6
:103DB0000094019C33460C1B6146241A019431F88F
:103DC000044F4E4644F30A04023401EB440489468E
:103DD00001990C44C4F34A046FEAC4446FEAD44422
:103DE000C3E7CDE9002300F023FFDDE900231948F4
:103DF00073E71B4AA11CDD710144043A251D521AC8
:103E00000544ACF10401491BC1F34A016FEAC14109
:103E1000C2F34A026FEAC2426FEAD1414FF4214E27
:103E20006FEAD24299800F4920F804E05A804AF69E
:103E3000AA256246121A524155432D0DC3F808A017
:103E40009D7143F0010ECCF8001063E73D16002091
:103E5000D72202201C12002000ED00E0110100100A
:103E60004C120020014880474FF0FF0C20F0030364
:103E700003F1604303F5644300F003001A68C000D7
:103E80000CFA00FC22EA0C0281400A431A607047D7
:103E90002DE9F041EFF30583DBB29E46EFF3108589
:103EA00072B62949D1E8CF2F0123002AFAD1C1E8FF
:103EB000423F002AF6D1BFF35F8FDFF89C8040F0CD
:103EC0000106D8F808704AF6AA2357F82E7004465F
:103ED0001E4AA41A644163431B0DB7425BB21ED055
:103EE00092F906409C4220D092F912409C4227D081
:103EF00092F91E409C4225D092F92A409C4208BF6C
:103F0000032413D0124A002492F800C0137080F8E2
:103F100006C0C1E88F4F85F31088BDE8F081D8F85E
:103F200008200C4C42F82E40ECE7002404EB44043B
:103F300002EB8402FF2494714BF601549480E1E774
:103F40000124F3E70224F1E73D1600201C120020B3
:103F5000D72202201101001000ED00E000B5DFF8CB
:103F600024C083B0014605230022CDF800C00448D8
:103F7000FFF768FD0028A8BFC0F1330003B000BD03
:103F8000DB22022044970010014B0B440360704772
:103F900034160020F8B5124C124DAC4211D24FF03D
:103FA000FF36002723686BB1FFF78EFD01462046E0
:103FB000FFF7EAFF66602772BFF35F8F0C34AC42F5
:103FC000F0D3F8BDFFF780FD01462046FFF7DCFF88
:103FD0006660BFF35F8F0834AC42E3D3F8BD00BF27
:103FE000B4120020C412002010B50446FFF76CFD87
:103FF00001462046FFF7C8FF4FF0FF336360BFF371
:104000005F8F10BD10B504460120FFF773FD034B11
:1040100003442360BFF35F8F10BD00BF3416002040
:10402000024B0B440360BFF35F8F704734160020D0
:104030002DE9F04F2DED028B85B0EFF30583DBB258
:10404000103B9A0818BF01224FF0010103F0030B47
:1040500018BFA94CA94B08BFA94C0BEB820253F81F
:10406000225001FA0BF204F541539FEDA18B02920D
:104070005A602FE0AB88190440F19480AB79002B93
:1040800040F0DE80B5F90860002EC0F21C816B693B
:1040900006EB460603EBC603D3E90267B7F1FF3F21
:1040A00008BFB6F1FF3F0ED004EB8B01A36A0A698B
:1040B000D21AF31A934205D30123226A03FA0BF3AF
:1040C000134200D10E61204600F072FBB042B941AC
:1040D000C0F2F980B5F90860029B002EE363C9DBEA
:1040E000D5F8149006EB460A09EBCA07BB682046D0
:1040F000D7F80C80019300F05BFB019B984271EBB9
:104100000801B7DBB8F1000FC0F2C080D7E9043175
:104110007C4A934200F0F8807A88B5F9080092B2A0
:1041200042EA0040984702460B4652EA030100F07B
:10413000AD80002B80F2CD800199B1EB020E68EBCF
:10414000030839F93A30C7E902E8002B92DB6869C5
:1041500003EB430200EBC202D2E90271BE4578EBE9
:10416000010C4FEA430285DBAC462CF8083F06E021
:1041700003EB430100EBC1015A00D1E90271BE45D6
:1041800078EB01011A4405DB30F9323000EBC20C48
:10419000002BEDDA29F83A30ACF80060AB8819044E
:1041A0003FF56CAF2B69EFF3108272B6D3E8CF0FF7
:1041B00001210028FAD1C3E8401F0028F6D1BFF33F
:1041C0005F8F4FF6FF76A8880023296900B2AE8082
:1041D000C1E88F3F82F310889842FFF64FAF074641
:1041E000A1466E6905F10808B5F9083007EB470EDE
:1041F000002BC44606EBCE0215DBD2E90240AA46EC
:10420000019704E036F935309446002B09DB03EBC7
:10421000430506EBC502D2E90271BC4270EB010115
:10422000F0DA5546019FACF8007036F93E7026F87A
:104230003E30002FD8DAAB794C46002B3FF422AF4A
:104240000023AB71B5F90860721C33463BD0686936
:1042500005F1080E03E08E465A1C3FF415AF03EB40
:10426000430200EBC2014F889C463F0430F93230D4
:10427000F1D5664581ED028BEED0AEF8003029898C
:10428000664620F83210A5F808C0E5E739F83A305C
:104290002B812B69EFF3108272B6D3E8CF0F012187
:1042A0000028FAD1C3E8401F0028F6D1BFF35F8F82
:1042B0006B88296929F83A3000236E80C1E88F3F66
:1042C00082F31088D6E640BF05B0BDEC028BBDE896
:1042D000F08F20460393019200F06AFA019A039B43
:1042E00010EB020E43EB01082BE700BFAFF3008099
:1042F000FFFFFFFFFFFFFFFF00800B40E81E0020D5
:1043000000000B403140001008460B6903919847AC
:104310000028BBD00399D1E9002306E70B4808B574
:104320000368EFF3108172B6D3E8CFCF0122BCF15E
:10433000000FF9D1C3E84C2FBCF1000FF4D1BFF34B
:104340005F8FFCF773FA0020002108BDAC2100202C
:1043500038B5384B1C692CB1BDE838400A213648C5
:10436000FFF712BE0321354800F010FA334D314BF0
:10437000DD60FFF7A9FB324A4FF0504E02440320A4
:104380002C4B4FF00F0C18701A61DEF800204FF61E
:10439000FF715A705A69A3F802C014834FF00204E7
:1043A000A2F848404FF00404A2F878404FF005040A
:1043B000A2F890404FF00604A2F8A8404FF007047E
:1043C000A2F8C0404FF00904A2F8F0404FF00A04F0
:1043D000A2F808414FF00B04A2F820414FF00C0462
:1043E000A2F838414FF0010414864FF00804A2F8F7
:1043F000D840144C4FF00D0E4FF00E0C9C6008246A
:104400009980A2F850E1A2F868C1A2F8600011807A
:104410000D4A2C620D49D360FFF7F4FB0121032004
:10442000FFF7AEFB0A4B0A211C640348BDE8384085
:10443000FFF7AABD64120020AC21002000000B4051
:1044400034160020FFFF1000E81E0020314000104D
:1044500000200B400048704764120020F0B583B084
:104460009DF828401D46034654B9CDE9000200F0EE
:10447000A7F9019A009B824265EB0101A1425BDB37
:104480001969EFF3108072B6D1E8CF6F0124002EC6
:10449000FAD1C1E8464F002EF6D1BFF35F8FB3F9D2
:1044A00002401F69002C3EDBD3F814C004EB440E1D
:1044B0003CF83E10002659800CEBCE01C7E88F6F08
:1044C00080F310884888C1E902250130C0F30E004E
:1044D000012838BF0120089A48800A61099A40EAF9
:1044E00004404A611A69EFF3108172B6D2E8CF7FB7
:1044F0000125002FFAD1C2E8475F002FF6D1BFF3A4
:104500005F8F9A882CF83E201A699C80C2E88F6FD2
:1045100081F3108801211C78DA68A14002F501536B
:10452000596003B0F0BD0023C7E88F3F80F31088C7
:104530004FF0FF3003B0F0BD204603B0F0BD00BF28
:10454000F0B516461F4602690346EFF3108072B6B7
:10455000D2E8CF4F0121002CFAD1C2E8441F002C31
:10456000F6D1BFF35F8FB3F902101D69002945DB57
:10457000D3F814E001EB41023EF832400EEBC20CDE
:104580005C800024C5E88F4F80F31088059835467D
:10459000CCF8100006983E46CCF81400BCF8020097
:1045A000CCE902560130C0F30E00012838BF0120CB
:1045B000ACF8020040EA0140D3F810C0EFF31085D8
:1045C00072B6DCE8CF7F0126002FFAD1CCE8476F26
:1045D000002FF6D1BFF35F8FB3F804C02EF832C0BE
:1045E00099801A69C2E88F4F85F3108801211C78E1
:1045F000DA68A14002F501535960F0BD0023C5E817
:104600008F3F80F310884FF0FF30F0BD03464089A4
:10461000B0EB214F3ADD58690A1402EB420210B5A3
:10462000D3F810C000EBC200EFF3108E72B6DCE8D6
:10463000CF4F0122002CFAD1CCE8442F002CF6D128
:10464000BFF35F8F428889B292B28A4207D00022BC
:104650001B69C3E88F2F8EF31088002010BD6FEA0E
:1046600042426FEA52424280012100221869997148
:10467000C0E88F2F8EF3108893F800C0DA680846E0
:1046800002F5015301FA0CF1596010BD002070478A
:1046900040787047EFF30582D2B282B1384B5A6A44
:1046A0008A4202D200221046704714BF0122002223
:1046B0009B6A834228BF42F001021046704770B5E2
:1046C00084B003922F4A0646D368157818460C46E4
:1046D000029300F06DF8029B05F1040C53F82CC016
:1046E000039AACEB000C301A64EB0101604571F1E8
:1046F00000010FDB20BF224B596AA14207D314BF30
:10470000012200229B6AB34228BF42F001021046F8
:1047100004B070BD029200F053F8864264EB0101D0
:104720000029029A1BDB18492346CDE900121548DF
:104730003246FFF705FF011E11DD114B5A6AA242F6
:104740001CD39B6AB34217D30E48FFF75FFF0C4B95
:104750005A6AA242D3D20022104604B070BD084B60
:104760005A6AA242F7D3121B18BF01229B6AB342B6
:1047700028BF42F00102CAE7A242E5D120BFE3E729
:1047800000000B40641200201D43001010B4054BC4
:10479000054C064AA04214BF1846581C10BCFFF72F
:1047A00025B900BF541A002000800B40609700100C
:1047B0000346416A0A46986A596A8A42FAD17047A2
:1047C000034B596A0A46986A596A9142FAD170476E
:1047D00000000B4010B5029C8E464FEA043C4CEAA8
:1047E000034C1C4BB3FBF1F30168B2FBF3F400295B
:1047F00020DB194A194B904214BF4FF480424FF40A
:10480000004217491A6003F580531A608B6832EA38
:104810000303FBD1212200F540530433C0F800E02C
:1048200084601A600268002AFCDA0822C0F80CC012
:104830001A6010BD036803F03F037345D9D1836844
:10484000C3F30B03A342D4D1C36803F4EE2363453F
:10485000CFD110BD001BB7000080054000200240F2
:10486000000002404FF0804C214B00B5C3F800C05F
:10487000002839D0DFF888C0A3F54053C3F81CC026
:10488000DFF880C040F0010080EA0C0CC3F820C0C3
:10489000596298624FF0804E4FF0E061144B15481A
:1048A000DFF864C0C3F800E0C0F808C019602AB996
:1048B0004FF00042A3F580531A6000BD4FF47A73A5
:1048C00003FB02F2B2F1807F2ABF6FF07F431346F1
:1048D0001A464FF08041DFF834C00748CCF800306A
:1048E000064B4260196000BD034BD861D2E700BFA0
:1048F00000B00D4000A0014000800D4000A00D4020
:10490000D3C007B02D3FF84FF3FFFF01BC1E0020BE
:10491000012300EB4000800000F1804000F584108E
:1049200041600360704700BF10B5002482B00B46A1
:10493000E48A002141E800F1CDE900034B0254BFB5
:104940001021042144F25220A047DDE900238646CD
:104950000A214FF48170F44602B0BDE81040604770
:104960000023DB8A002242E800F2520201D4102127
:1049700018470421184700BF08B503460846191E0A
:1049800002DB1AB140F03000FFF7CEFF40F020000C
:10499000FAE700BF034AD2F82838002BFBD0BFF358
:1049A0005F8F704700000E400021044B044ABFF3A4
:1049B0005F8F43F8041B9342F9D170470C080E40F7
:1049C0002C080E404FF42A6C4FF48D70054A064BAC
:1049D0000649C2F800C0D06019605368002BFCDAA9
:1049E000704700BF0080044000A0044000B0FA00FF
:1049F00000B585B0EFF3108272B6134B9B6853F885
:104A0000203099420DD0DFF844C0634516D2CDE97D
:104A10000201CDE9003200F00BF9DDE90201DDE928
:104A20000032DFF824C0DCF808C04CF82010BFF3D7
:104A30005F8F82F31088184605B000BDDFF810C004
:104A40006345EED3E3E700BF00ED00E01001001086
:104A50002401001003BD00BF00B583B0019000F039
:104A6000FDF8019803B05DF804EB004770B505460A
:104A700088B019200C460192FFF798F800210646ED
:104A80001920FFF77DF800231946019ACDE902337A
:104A9000059201224FF05043084606940795049270
:104AA000A1B11A6D9507FCD5596540BF1A6DD407A1
:104AB00003D420BF1A6DD207FBD59A6D8A420AD063
:104AC00000200DEB80029168EAE79A6D1A6DD2071B
:104AD000FBD440BFE5E701300628F2D1314619206A
:104AE00008B0BDE87040FFF74BB800BF0C4B0D4A53
:104AF00093420ED39C4603F2F4710B4A9268CCF8B1
:104B0000F4070A48CCF8F837CCF8FC070848FFF758
:104B1000ADBF4FF0FF3340F2F3719C46EDE700BFAD
:104B2000000808200000082000ED00E0594A0010AD
:104B3000554A001070B505460E46FEF73BFF394951
:104B40008C7891F9003004F00104DB0F43EA440350
:104B50002B420A7856D091F90130C2F38014DB0F52
:104B600044EA43042C424B784FD0C3F3801CC2F379
:104B7000401444EA4C042C424AD0C3F3401CC2F314
:104B8000001444EA4C042C4245D0C3F3001CC2F389
:104B9000C00444EA4C042C4240D0C3F3C00CC2F31E
:104BA000800444EA4C042C4212D0C3F3800CC2F3BC
:104BB000400444EA4C042C4219D003F0020402F0F1
:104BC00001031C432C4015D0B6B11748FEF7DAFE9E
:104BD00002240423EE0744BF1A430A70AA0702D531
:104BE0004A7813434B70FEF7F7FE204670BD012450
:104BF0000223EFE70123EDE76FF00804FEF7ECFE78
:104C0000204670BD07248023E4E706244023E1E723
:104C100005242023DEE704241023DBE703240823F4
:104C2000D8E700BFA81A002084970010704700BF83
:104C300008B50148FEF7A6FE9897001038B5054C58
:104C4000054DAC4204D254F8043B9847AC42FAD329
:104C500038BD00BF60960010A096001038B5054C16
:104C6000054DAC4204D254F8043B9847AC42FAD309
:104C700038BD00BF8C960010A09600100648DFF8E3
:104C800028C0064B064A0749C0F800C01A608B6866
:104C900032EA0303FBD1704700200240003002409B
:104CA000F6FFF303000002407F3BEFEF044BDB6CA9
:104CB000B3F5004F03D14FF48022024BDA64704702
:104CC00000001150002011504FF0E022044BD2F8A8
:104CD000881D0B43C2F8883D10EE3004704700BFBA
:104CE000030330006FF06041044B054A196093687C
:104CF000DB4333F06043FAD1704700BF003002401D
:104D00000000024010B545F25320FFF729FEBDE830
:104D1000104003460420184710B545F25320FFF712
:104D20001FFEBDE81040034601201847FEF7FCBEF9
:104D30001449154B70B55C1AA610442E324628BF94
:104D40004422124D9200284604F0B8FBB4F5867F49
:104D500013D80F4A14D0C6F144002B19410803EBB5
:104D6000C101C3E9002208339942FAD1C30704D52F
:104D700020F00100304445F82020064B9D6070BDB6
:104D80004320F8E700000010100100100000002090
:104D90001101001000ED00E0002370B52B4C82B033
:104DA000C4F88430FFF70EFE0122294BDA63636CEE
:104DB000012BFCD10321264A244B11639C6B012C4F
:104DC000FCD10226052521460523224A22480096C9
:104DD000FFF700FD21462B46204A21480095FFF7AA
:104DE000F9FC0022042031461E4BFEF757FD2146F8
:104DF000284600221C4BFEF751FD002208201146D8
:104E00001A4BFEF74BFD002209201146174BFEF707
:104E100045FD002206201146134BFEF73FFD002200
:104E2000114B07201146FEF739FD0420FEF7A4FDC3
:104E300000240F4BA3FB0035AD0CE0B22946013432
:104E4000FFF766FD062CF8D102B070BD00000140EE
:104E500000300140002F685900000540008C864753
:104E600000800540001BB70080D1F008006CDC0218
:104E700083DE1B4386B003B451FC0804CDE9020174
:104E800051FC0904CDE9040151EC0A04CDE9060105
:104E900003BCF047BDE800504EEC00C4BDE8005034
:104EA0004EEC01C4BDE800504EEC02C400BD000051
:104EB00000B5FFF7DFFF02E010FE30F4F8D441EC5C
:104EC000100443EC112400EE010410EE010480EE06
:104ED000200451EC1004704700B5FFF7CBFF02E04F
:104EE00010FE30F4F8D441EC100443EC112400EE31
:104EF000010410EE210480EE200451EC30047047D0
:104F000000B5FFF7B7FF02E010FE30F4F8D410B59B
:104F100041EC100443EC112451EC040453EC05243F
:104F2000A0FB024C5FF0000EE0FB03CEE1FB02CEE3
:104F30004CEC20440024E1FB03E444EC30E480EE3C
:104F4000200451EC5004BDE81040704700B5FFF755
:104F500091FF02E010FE30F4F8D441EC100443EC71
:104F6000112451EC2104A0FB01126FEA820252FBD2
:104F7000100052FB12F252FB1000A0EBD07C53EC5D
:104F800004245CFB13F153EC1524A1FB022001FB6C
:104F9000030053EC4424A2EB000050FB1CF24FEA48
:104FA000111312EB017043EBE27140EA515020EA19
:104FB000915020F0070053EC7524A0FB023C53EC09
:104FC000752400FB03CC01FB02CC53EC0424ACEBB6
:104FD000824C40EA5C70A0F1010041EC400480EE9C
:104FE000200451EC7004704700B5FFF743FF02E066
:104FF00010FE30F4F8D440EC700400EE010410EE22
:10500000210480EE200451EC3004704700B5FFF716
:1050100031FF02E010FE30F4F8D440EC600400EE02
:10502000010410EE210480EE200451EC300470479E
:1050300000B5FFF71FFF02E010FE30F4F8D441EC9A
:10504000800400EE010410EE010480EE400410EE36
:105050001304704700B5FFF70DFF02E010FE30F4B7
:10506000F8D441EC800400EE010410EE010480EE5F
:10507000400410EE3304704700B5FFF7FBFE02E07A
:1050800010FE30F4F8D441EC100443EC112400EE8F
:10509000010410EE3004C0F30070704700B5FFF754
:1050A000E9FE02E010FE30F4F8D443EC102441ECA9
:1050B000110400EE010410EE30F48CBF012000203A
:1050C000704700BF00B5FFF7D5FE02E010FE30F4D8
:1050D000F8D443EC102441EC110400EE010410EE6E
:1050E00030F42CBF01200020704700BF00B5FFF74F
:1050F000C1FE02E010FE30F4F8D441EC100443ECA1
:10510000112400EE010410EE30F42CBF0120002029
:10511000704700BF00B5FFF7ADFE02E010FE30F4AF
:10512000F8D441EC100443EC112400EE010410EE1D
:1051300030F48CBF01200020704700BF704700BFD3
:105140002DE9F04F83B00F461146DDE90EB292070C
:105150009846DDE90C93064629D00D469BB109EB34
:10516000030405EB040A01950D460D93AAEB040216
:1051700014F8010D43463946B047A145F6D12946FA
:105180000D9B019D1D440F9B9B070CD56C1AA345DD
:1051900009D92A464346394620200134B0475C45A8
:1051A00005F10105F5D3284603B0BDE8F08F5B4556
:1051B00015D28A461C468946ABEB03050D44524680
:1051C0004346394620200AF1010AB047AA45F6D1E4
:1051D00049462346DDF83090002CC0D1E3E70D4668
:1051E000002BBCD1DFE700BF2DE9F04F0F460F9930
:1051F00006469DF82C008D079046DDE90CA29946E5
:105200008346099CDDF828C00E9B49D4002B42D16F
:10521000944545D201F0010504F1FF3E3020E644FB
:1052200005E00CF1010C62450EF8010F02D9BCF14A
:10523000200FF6D1002D00F08780634530D9601E25
:105240004FF0300E604405E00CF1010C9C4500F875
:1052500001EF25D0BCF1200FF6D1CD060ED54805C3
:1052600051D4624564D0634562D0BAF1100F4DD07D
:10527000BAF1020F55D0BCF1200F2DD12022CDE97B
:105280000B310A924B464246394630460994BDE8F6
:10529000F04FFFF755BF11F001052ED19445BBD358
:1052A000CD061ED54805E0D4BCF1000FD9D1BAF126
:1052B000100F5FD0BAF1020F74D030224FF0010C02
:1052C0002270BBF1000F12D1480742D52B2204F8FF
:1052D0000C200CF10102D2E762460CF1010C3020E7
:1052E000A054BCF1200FC9D0BBF1000FECD02D228F
:1052F00004F80C200CF10102C1E798B3944503F1C6
:10530000FF3389D399E7BAF1100FB7D18D063DD598
:10531000BCF1200FB2D0582204F80C200CF1010C83
:10532000A9E7BCF1200FA9D062460CF1010C08E0FE
:10533000BCF10102BBD0BAF1100F35D0BAF1020FA7
:10534000CDD16220A05496E7CD06CAD5480588D5B0
:105350008BE70A0749BF2022624604F80C200CF1B3
:1053600001028CE711F00C0F00D0013B9445FFF4D3
:1053700053AF62E78A0613D47822227030224FF0AE
:10538000020C6270BBF1000F9ED0B0E7BCF1200FA1
:105390003FF474AF782204F80C200CF1010C6AE79A
:1053A0005822EAE76222E8E78D06ACF1020004D554
:1053B0004FF0580E04F800E091E74FF0780E04F833
:1053C00000E08CE700B9704701F060BB10B1D1E993
:1053D00000311847704700BF2DE9F04F97B09DEDA1
:1053E000207BDDE9225B8046894651EC170B9A460B
:1053F000249B0C92079302460B468DED047BFFF72E
:105400003FFE002840F0E381DDE904014FF0FF3268
:105410006FF48013FFF746FE002840F0CB80DDE9F3
:1054200004014FF0FF32B24BFFF778FE002840F046
:105430009F80DDE90467AAA3D3E9002330463946FB
:10544000FFF76CFE002840F08280A7A3D3E9002379
:1054500030463946FFF726FE002878D130463946D7
:1054600000220023FFF71EFE002840F098800D90D8
:10547000079B302113F4806F08BF06250EAA2B4628
:10548000A5F1200605E0013BB34202F8011B00F044
:105490006581092BF7D81E46ED1ADDE90401FFF7F7
:1054A000CBFD944B044603EBC60393ED007B8DEDDF
:1054B000087BFFF79DFD02460B46DDE90401FFF77F
:1054C0000FFDDDE90823FFF71FFDCDE90A01FFF716
:1054D000C5FD0746FFF79EFD02460B46DDE90A01C2
:1054E000FFF7FEFC0022844BCDE90A01FFF716FE10
:1054F000002800F0888001373846FFF78BFD024610
:105500000B46DDE90801FFF7E1FD08B10027013492
:10551000002E00F088800DF13703DFF8F0C1581934
:105520000DE0ACFB0721C90801EB8102A7EB4202A9
:105530003032092F00F8012F40F2FB800F46202D5A
:1055400006F1FF3605F10105EBD1202586E0079B2A
:105550009DED047BCDE923B34946534640460C9A62
:105560008DED207B229517B0BDE8F04F00F080B99B
:10557000079B494658074CBF042303234046219309
:105580005346079A48BF5D4CCDE922B258BF5C4CE8
:105590000C9A209417B0BDE8F04FFFF7D1BD3B4601
:1055A000324600200021FFF79BFC0123CDE90401D6
:1055B0000D935DE7079B03F002029C07049200F045
:1055C000F4800C9F3D464F4E341D14F8010D2A46C1
:1055D00053464946C047A64205F10105F5D1049B53
:1055E0003C1D63B10C9D631B9B4508D92246534665
:1055F000494620200134C047631B9B45F6D820460E
:1056000017B0BDE8F08F0022DDE90A013A4BFFF741
:1056100049FD00287FF47CAF002F40F0C2800137A5
:10562000002E7FF478AF2046FFF7E2FC02460B46DF
:10563000DDE90401FFF754FC00222F4B06460F461C
:10564000FFF730FD40B93046394600222A4BFFF7BC
:1056500065FD002800F0A1800DF137032A48591993
:105660000EE080FB0476C2EBA60202EB8206A4EBFE
:10567000460630361446013501F8016F002A47D03E
:10568000202D4FEAE472ECD1079A02F00302012ABE
:1056900014D1BBF1000F11D00D9A002A60D00BF18C
:1056A000FF3BBBF1200F09D930222B4404E0013528
:1056B0005D4503F8012F31D2202DF8D1079B0EACA8
:1056C000CDE902B300945346494640460C9A0195F1
:1056D000FFF736FD0446204617B0BDE8F08F00BF47
:1056E0000000000065CDCD410000000065CDCDC1BA
:1056F000FFFFEF7FF09800100000E03FE4970010FC
:10570000EC970010F497001067666666CDCCCCCCA1
:10571000079A02F00302012A00F09680202DCDD0D6
:105720000D9B3BB32D220DEB050383F8382001358B
:10573000C4E7202D3FF409AF30212E445A1905E06B
:105740000135202D02F8011F3FF4FFAEAE42F7D124
:105750002E226E44013586F838207FE720259CE60E
:10576000079A12F00C0F5AD00BF1FF3BAB459BD8B8
:10577000202DA3D0079B5A0706D52B220DEB05033E
:1057800083F83820013599E71B0797D520220DEBC8
:10579000050383F83820013590E7013424F0010433
:1057A0005AE7F9077FF5B4AE39E7BBF1040F7FF68E
:1057B00008AF0C9B1D46043B03EB0B072A465346E0
:1057C000494620200135C047AF42F7D1FAE6079B92
:1057D00003F002029D07049225D00C9F3D46224E05
:1057E000F41C14F8010D2A4653464946C047A64208
:1057F00005F10105F5D1049BFC1C002B3FF4FFAE25
:105800000C9D631B9B457FF6FAAE224653464946E4
:1058100020200134C047631B9B45F6D8EFE6AB451B
:105820003FF642AF4AE7BBF1030FD6D90C9B1D46AA
:10583000033B03EB0B072A4653464946202001351C
:10584000C047BD42F7D1C9E7BBF1000F3FF466AFD7
:105850000D9A002A84D00BF1FF3B5D45FFF424AF85
:10586000202D7FF45FAF29E7F097001000000000C3
:105870002DE9F04F9FB01E46DDE928ABDDE92B98FE
:105880002A9B04460D460B920A9352465B465046AD
:105890005946FFF7F5FB002840F0C68050465946B0
:1058A0004FF0FF327B4BFFF739FC002840F0BC8003
:1058B000504659464FF0FF326FF48013FFF7F2FB6A
:1058C000002840F0B1805046594600220023FFF7DF
:1058D000E9FB002840F0DD81CDE908ABDDE90812E5
:1058E00018F480600B460F4608F400610C92149186
:1058F000159040F0A880134340F0D080002940F07C
:10590000EC8106230A9318F00202109240F0DD8128
:105910004B46042B38BF04230E920422043B129200
:1059200014935046594600220023FFF7BBFB002882
:1059300040F02A829DED087B149B0B9A03930A9BEF
:105940008DED007B029328F40063049329463346CF
:105950002046FFF741FD024618F0200F3346294646
:105960000CBF6520452002F10108A047129B0DF1F4
:10597000580A03F1FF3B0E9B002283EAE37C50466A
:10598000DFF814E10B9FACEBE37CD90FCDF820805E
:1059900002E0202AC44610D0AEFB0C384FEAD808EB
:1059A00008EB8803ACEB430301303033BCF1090F43
:1059B00002F1010200F8013CEBD805234FF0000C86
:1059C00006930A23DDF82080CDE90121CDE9033CCF
:1059D000CDF800A03346424629462046CDF814B003
:1059E000FFF702FC109B8246D3B1A0EB0708C1452C
:1059F00016D907EB080233462946202008F1010892
:105A0000A047C145F5D87B1E4B44C7F10102A3EB6B
:105A10000A035244914538BF00230AF1010A9A440F
:105A200050461FB0BDE8F08F334629462046CDE9E9
:105A300028AB0A9CCDE92B980B9A2A941FB0BDE89D
:105A4000F04FFFF7C9BC57EA020329D100293FF400
:105A50005AAF00230E930A9B0E9A934200F3BA8129
:105A600000275046594600220023FFF71BFB002861
:105A700040F015819DED087B28F4006343F48063BA
:105A80002C938DED287B334629462046CDE92A7993
:105A90000B9AD3E7FFFFEF7FCDCCCCCC06230A9344
:105AA0000C9BC3F30A50A0F2FF30FFF7A1FAB2A398
:105AB000D3E90023FFF728FAB1A3D3E90023FFF7C6
:105AC000FBF90C9BCDE90E01C3F3130343F07F51A7
:105AD00038460022A24B41F44011FFF701FA94A38B
