:020000041000EA
:10000000002008205D0100101B0100101D010010E0
:100010001101001011010010110100101101001058
:100020001901001019010010190100101F01001022
:10003000110100101901001021010010230100100E
:100040001101001011010010110100101101001028
:100050001101001011010010110100101101001018
:100060001101001011010010110100101101001008
:1000700011010010110100101101001011010010F8
:1000800011010010110100101101001011010010E8
:1000900011010010110100101101001011010010D8
:1000A00011010010110100101101001011010010C8
:1000B00011010010110100101101001011010010B8
:1000C00011010010110100101101001011010010A8
:1000D0001101001011010010110100101101001098
:1000E0001101001011010010110100101101001088
:1000F0001101001011010010110100101101001078
:100100001101001011010010110100101101001067
:10011000EFF30580103800BE00BE00BE00BE00BE7A
:1001200000BE00BEF2EB8871849A0010A49A001001
:10013000A001001090A31AE7D3DEFFFF42012110B7
:10014000FF01000020AB0000793512AB4FF000003A
:100150001E49086006C881F3088810474FF05040D8
:10016000006810B14FF00000F2E70DA40ECC00299A
:1001700002D000F012F8F9E71549164A002000E015
:1001800001C19142FCD11449884714498847144958
:10019000884700BEFDE701C901C29A42FBD3704700
:1001A000A49A001010010020C412002058AC0010C6
:1001B000000008200000082058AC001000100820A3
:1001C00000100820000000007047000008ED00E06B
:1001D000C4120020DC2202209D6700106903001079
:1001E00095670010F8B500BF064B0749C91A89107A
:1001F00048BF0131491003D0044B0BB101481847E7
:10020000704700BFC4120020C4120020000000008C
:1002100008B5054B1BB105490548AFF30080BDE8A3
:100220000840FFF7E1BF00BF00000000D01E002023
:100230001C9600102DE9F8430126DFF89090DFF8B6
:1002400090801D4FD9F800504FF0FF31D8F80000D2
:1002500001F03EF9AA682B68184843F82260D5E9F6
:100260000123013393FBF2F102FB1133AB6006F083
:1002700007FC134806F004FC6B68002B0ADD002421
:100280002B68104853F8241006F078FC6B68013492
:100290009C42F5DB0C4806F0F3FB002338681A4655
:1002A000194600F0C1FF4FF47A700136864208BF4C
:1002B000012602F0CFFEC5E7C01A002020960010EC
:1002C0002C9600103C96001044960010481A00200E
:1002D000B81A00204FF0000980B5DFF888801B4F66
:1002E0001B4ED8F800504FF0FF31386801F0F0F89D
:1002F000EA682B68174843F82290EB686A68013374
:1003000093FBF2F102FB1133EB6006F0B9FB1248EC
:1003100006F0B6FB6B68002B0ADD00242B680F4843
:1003200053F8241006F02AFC6B6801349C42F5DB7C
:100330000B4806F0A5FB002330681A46194600F06A
:1003400073FFC82002F086FECBE700BFC01A002072
:10035000B81A0020489600102C9600103C96001009
:1003600044960010481A0020F0B583B006F044FB14
:100370001021012000F04CF9032506461B4F756043
:1003800038600421284600F043F900242946C6E9D4
:1003900002443060284600F009FF154B21461860E2
:1003A000284600F003FF01250646124B01944FF446
:1003B00080721E60104923460095104802F0E4FC4C
:1003C0004FF480720E492346CDE900540D4802F0E7
:1003D000DBFC02F003FD3B68186800F0B9F83868F0
:1003E00000F0B6F8204603B0F0BD00BF481A002068
:1003F000B81A0020C01A00205096001035020010D4
:100400005C960010D502001070B5421E0A3282B010
:100410004DD8034613F0070200F1080052D10190B5
:1004200001F0E2FD434A0198D2F800E08446BEF1B3
:10043000000F5FD000283FDB3F4B1B6883421E4606
:100440003AD33E4B9C461B6803E01A6822B19C4697
:10045000134659688142F8D373452DD01C46A1EB51
:10046000000E54F8082BBEF1100FCCF8002006D96E
:1004700001461D18C5F804E01A50CCF800504FF0A2
:10048000000C2D48721A02602D4841F000410568A9
:100490005960AA4238BF02602A48C3F800C0026807
:1004A0000132026002F0CEFD204602B070BD01F0C4
:1004B0009BFD204A1368D3B1002402F0C3FD2046FF
:1004C00002B070BDA2F109018142F0D31033981A35
:1004D000019001F089FD174A0198D2F800E08446A6
:1004E000BEF1000F06D0BCF1000FA5DCE4E74FF031
:1004F000000C6046144BDFF854E059071CBF07336B
:1005000023F007031C4600212EF0070EC2F800E07E
:100510000A4AAEEB0303C2E90041094ABCF1000FED
:100520001360054ACEE900111360C4E900E383DCDF
:10053000C2E700BF201F002050220220902202208C
:10054000602202206C220220C0210020B82102205B
:1005500018B150F8043C002B00DB704750F8082C11
:10056000002AFAD110B523F0004382B0A0F10802AE
:1005700040F8043CCDE9002001F036FDDFF88CE0C6
:100580000198DEF8001050F804CC1D4B6144009A2D
:10059000CEF8001019461B689A42FBD8D1F804E047
:1005A00001EB0E04A24211D002EB0C0E73451FD0DA
:1005B00040F8083C914218BF0A60124A13680133A0
:1005C000136002B0BDE8104002F03CBDF44401EB02
:1005D0000C029342C1F804C0EFD10B4A12689A4250
:1005E000EBD00A46D3E90030604413605060E1E785
:1005F000DFF814E0DEF800E07345F3D1D8E700BF80
:100600009022022070220220201F0020502202206F
:1006100010B1A1FB002393B900B501FB00F283B038
:1006200010460092FFF7F0FE034628B10021009A21
:10063000019008F0B7FE019B184603B000BD0023EF
:10064000184670470A4B93F90020002A0FDB4FF041
:1006500050410123D1F888019340184207D04FF050
:10066000E0224FF08050C1F88C31C2F8040D704781
:1006700018120020002300B583B0019300F064FA43
:10068000019B002BFCD003B000BD00BF10B502F0F1
:10069000B3FD044601F0BCFC28B14FF0E0234FF05D
:1006A0008052C3F8042D2046BDE8104002F040BE41
:1006B00010B504224FF0E024002322610520A3613D
:1006C00003F010F90722044BA3FB00308009013826
:1006D0006061226110BD00BFD34D62104FF0E02376
:1006E0004FF07F42002130B585B00391C3F81C2D37
:1006F000D3F81C3D1B0E8DF807309DF807309DF890
:1007000007301A060BD5039B013303939DF807307E
:100710005B008DF807309DF807301B06F3D4039B70
:10072000082B40D0039BC3F107031B0203F4E063D3
:100730004FF050412448254A036012780B689A42D2
:1007400033D04FF0E02300244FF05045D3F8202D54
:100750001F4942F47F02C3F8202D0E20C3F81C4D20
:1007600004F0FEF81B490B2004F0FAF81A4B2A6833
:10077000FF211A2043F8224003F02CFB1A201749CE
:1007800003F0F6F901211A2003F0B0F900F0D4F9D2
:10079000286801F05BFD029400F0D6F9029B002B63
:1007A000FCD005B030BD0023C2E7FFF781FF4FF05A
:1007B000E022D2F8203D0A4943F07F43C2F8203DB1
:1007C0000F2004F0CDF8BCE7D02102201912002040
:1007D000710B0010090C0010C82102204506001002
:1007E0008D06001008B500F0AFF9BDE80840FFF72E
:1007F00075BF00BF4FF0E0234FF08052C3F8042DC7
:10080000BFF34F8FBFF36F8F704700BF836913F83B
:10081000023C662B00D070474FF0E023D3F8882DC0
:1008200042F47002C3F8882DD3F8342F42F04042CE
:10083000C3F8342F00F064B900B54FF0123C4FF00C
:10084000807E40F8203C1A4B40F810CC40E903323F
:1008500040F804EC4FF0033C4FF002324FF0013E01
:1008600040E9062C40F81CEC4FF0113C4FF01032E0
:100870004FF0093E40E90A2C40F82CEC4FF0083CC0
:100880004FF007324FF0063E40E90D2C40F838ECAF
:1008900003464FF0053C4FF004326FF0020E40E982
:1008A000102C40F844EC43F8481D184600BD00BF2A
:1008B0007506001038B50E2003F0C8F80F2003F0BD
:1008C000C5F80121032004F0EDF801234FF0504159
:1008D000002442B2DFF828C09340074D8CF8002076
:1008E0000648C1F88C31C1F884312C7004F0B6F898
:1008F000FFF7F4FE204638BD19120020E50700106E
:1009000018120020EFF305830F2B84BF014A9B5C74
:10091000704700BFF0E300E0094B1B78FF2B0BD0C2
:10092000EFF30583DBB22BB14FF05042106800EBC0
:100930004300704701F08ABF4FF05043186870477A
:10094000191200201F4B1B78FF2B33D04FF0010CE6
:1009500002681D4B00B5D21A1C4B83B0A3FB02E307
:100960001B0903EB4303A2EBC3020CFA02F340BFE3
:100970004FF0000C0268C2E88FCF81F31088EFF3CC
:1009800005821349D2B20868194622B903B05DF84E
:1009900004EB00F0E3B901AACDF804C000F014FAAA
:1009A000019B2BB14FF0E0234FF08052C3F8042D90
:1009B00003B000BD40BF00230268C2E88F3F81F34F
:1009C000108870471912002034160020ABAAAAAA7A
:1009D0004C2202202DE9F041374C82B094F800C03F
:1009E000BCF1FF0F56D01D46144606460F46804602
:1009F00003F09EFE40F2E733B4EB000C65EB01011F
:100A00001CEB030041F100013268B0F57A7F71F10F
:100A1000000316461DDA0023C6E88F3F87F31088CF
:100A2000264B5A6A95420DD94FF0E0234FF0805281
:100A3000C3F8042DBFF34F8FBFF36F8F002002B0B8
:100A4000BDE8F0819B6AA34231D3012002B0BDE82A
:100A5000F0814FF47A72002308F0A6FD0028DAD066
:100A60000023C6E88F3F87F3108801220090D8F852
:100A700000101348091A1348A0FB01C0000900EB3D
:100A80004000A1EBC001104802FA01F1006800F03B
:100A90000FF9C5E700240068C0E88F4F81F3108884
:100AA0001046194602B0BDE8F04103F0ABBD9542D7
:100AB000BAD00120CAE700BF1912002000000B4085
:100AC00034160020ABAAAAAA4C22022008B500F0D6
:100AD000DDF8014B186008BD4C22022001234FF0C5
:100AE0005042034991F900108B40C2F880317047A1
:100AF00018120020000000000000000000000000AC
:100B00000BA10CC9126853F82210086806C881F3BB
:100B10000B88022181F31488203080F30988BFF309
:100B20006F8F4FF0000080F311881047AFF3008003
:100B3000000000D0101F002062B661B6BFF34F8FD7
:100B4000BFF36F8F66DF00BFEFF311804FF010012E
:100B500081F31188BFF34F8FBFF36F8F704700BFD2
:100B600080F31188BFF34F8FBFF36F8F704700BFC3
:100B7000EFF309811EF0100F08BF21ED108AEFF38B
:100B80000B82734621E9FC0F55FC084457FC0964AD
:100B900059FC0A8401E9F00319A00CC8106853F845
:100BA000203019604FF0100181F31188BFF34F8F8F
:100BB000BFF36F8F01F04AFB4FF0000080F3118804
:100BC0000FA10CC9126853F8221008681838B0E851
:100BD000F00345EC004447EC016449EC0284B0E8C2
:100BE000FC0F13F0100F08BFB0EC108A82F30B88D3
:100BF00080F30988184700BFAFF30080AFF300808F
:100C0000000000D0101F00201EF0040F0CBFEFF3F7
:100C10000880EFF309800149084700000D08001023
:100C2000F8B507460E4600F10C0501F0DDF9D7F8DE
:100C300000E03C6946EA0E03A5423B6021D09E4697
:100C400000260BE03BB1D30148BF46EA0C0602F098
:100C50002FFAD7F800E0A542734610D0204602686C
:100C600043F0007122F07F4C12F0806F64680CEA50
:100C70000303E7D09C45E6D0A5427346EED12EEAA9
:100C800006033B60BDE8F84002F0DCB900B51C206B
:100C900083B0FFF7B9FB034630B10022019040F862
:100CA000042B00F09DF8019B184603B000BD00BF67
:100CB000F0B505460C461E4683B0174601F094F980
:100CC0002B6803EA04025EB922B32FB323EA0404BB
:100CD0002C60019302F0B6F9019B184603B0F0BDF9
:100CE0009442F2D0089ABAB1391E18BF0121090600
:100CF00041F080612143281D01F07AFC02F0A2F945
:100D000030B302F045FB830112D520F07F43184633
:100D100003B0F0BD089A32B9019302F093F9019B38
:100D2000184603B0F0BD391E18BF01210906E1E7DE
:100D300001F020FF286804EA000366B91BB117B16F
:100D400020EA04042C60019002F0A6FA0198DCE786
:100D500001F0FEFED5E79C42F5D1F0E7F8B5054677
:100D60000E4600F10C0701F03FF9D5F800E02C69C0
:100D700046EA0E03A7422B6021D09E4600260BE0D8
:100D80003BB1D30148BF46EA0C0602F091F9D5F811
:100D900000E0A742734610D02046026843F000717D
:100DA00022F07F4C12F0806F64680CEA0303E7D0F6
:100DB0009C45E6D0A7427346EED12EEA06032B608F
:100DC00002F040F92868F8BD00B513465DF804EB61
:100DD0000A460146014802F0FFBC00BF210C00108A
:100DE0004FF0FF31002200F10803C0E90131C0E9F2
:100DF00003330260704700BF00230361704700BFE8
:100E0000D0E90032D2F808C00133C1E9012CCCF896
:100E10000410916008610360704700BF0A6810B455
:100E2000531C12D000F108039C465B681C68944276
:100E3000FAD910BC02684B6001329960C1F808C051
:100E4000CCF80410086102607047D0F810C0DCF8DC
:100E50000430EEE703460269D0E90101D2F804C08C
:100E600081609C45486008BF51600021106819618D
:100E700001381060704700BF30B51546026C03465C
:100E8000846B83B03AB90268002A2AD0002001346A
:100E90009C6303B030BD75B94068009308F0C6FA92
:100EA000009B5A68186C996802448A425A60EDD3D4
:100EB0001A685A60EAE7C068009308F0B7FA009B26
:100EC000DA68196C1868521A8242DA6002D29A689B
:100ED000521ADA60022DD9D1002C18BF013C002033
:100EE000D5E780680192009301F056FDDDE90032FC
:100EF0009A60CCE72DE9F043064685B001F03AFE52
:100F000096F8454064B2002C1ADD06F1240707E08C
:100F1000AA6BEB6B03969A4238D3013CE4B27CB1E6
:100F2000B56C002DF4D1736A53B1384601F006FC5C
:100F30000028F2D001F080FC013CE4B2002CEFD19B
:100F4000FF2386F8453002F0A7F901F013FE96F86A
:100F5000444064B2002C03DC10E0013CE4B26CB10C
:100F600033695BB106F1100001F0E8FB0028F4D012
:100F7000013CE4B201F060FC002CF1D1FF2386F8C3
:100F8000443005B0BDE8F04302F086B995F84580DD
:100F90002A6CAB6B4FFA88F803F101099AB92B68F8
:100FA000002B37D0B8F1FF3FC5F8389029D16B6AD4
:100FB000002BB2D005F1240001F0C0FB0028ACD01A
:100FC00001F03AFCB8E7686803A908F02FFA6B68EB
:100FD0002A6CC5F838901344AA686B60934209D311
:100FE0002B68B8F1FF3F6B60E1D001F00BF8404592
:100FF00093D90AE0B8F1FF3FF7D16B6A002B8CD090
:10100000D8E700F0FFFF804587D208F1010885F896
:10101000458082E7A868019301F0BEFC019BB8F10E
:10102000FF3F0246AB60C5F8389007D16B6A93B9B1
:10103000002A3FF472AF01F0FFFB7DE7019000F062
:10104000E1FF019A404584BF08F1010885F8458019
:10105000002AF0D161E7019005F1240001F06EFB58
:1010600000287FF467AF019A002AE4D155E700BF5A
:1010700030B5836C85B0996BDA6B0390914203D3E2
:101080000022104605B030BD93F845101A6C986BDD
:101090004CB2054602B3586803A9019308F0C6F99B
:1010A000019B5A68196C0A4499685A608A4201D3B4
:1010B0001A685A600022691C9963611C19D1596A27
:1010C0000029DED003F12400019201F037FB002853
:1010D000019A18BF0122D4E71A68002AEAD1986859
:1010E0000292019301F058FCDDE901329A60024658
:1010F000E1E7CDE9012300F085FF8442019AC0D2E7
:10110000029B611C83F84510BBE700BF002844D058
:10111000A1FB00C3002B40D101FB00F313F1550FDD
:101120003BD830B5044683B003F154001546019115
:10113000FFF76AF90346002832D00199002933D01D
:1011400000F15402C3E90F411A600024019301F039
:1011500011FDFF22019B9C63186C83F8442083F8E7
:101160004520DA6B196800FB02F2101A59600A4434
:101170000144C3E9022103F11000FFF731FE019B96
:1011800003F12400FFF72CFE02F086F8019B1846BD
:1011900083F850509C6403B030BD0023184670475C
:1011A0000023184603B030BD0246CBE730B583B00C
:1011B000002834D0884232D3009054200191FFF7A8
:1011C00023F9044660B30025009B0564C3630060F7
:1011D00001F0D0FCFF23A56384F8443084F8453047
:1011E000D4E90F3C03FB0CF32268A3EB0C0C626008
:1011F00013446244C4E9023204F11000FFF7F0FD29
:1012000004F12400FFF7ECFD02F046F8022320462B
:101210000199A56484F85030A16303B030BD002467
:10122000204603B030BD00BF2DE9F041022B84B051
:101230001F4688460446019249D000252E4607E005
:1012400002F02AF82046FFF755FE01F0FBFE0125CB
:1012500001F090FCA26BE36B9A424ED3019B002BF2
:1012600060D085B302F018F800F0BEFE01F082FCF9
:1012700094F84430FF2B08BF84F8446094F845305C
:10128000FF2B08BF84F8456002F006F801A902A808
:1012900001F05EFF00284BD101F06CFCA26BE36B08
:1012A0009A42CDD101F0F8FF019904F1100001F04C
:1012B00085F92046FFF71EFE01F0C4FE0028C6D1C6
:1012C00001F046FCC3E702A801F0AAFACAE701F060
:1012D00051FC3A4641462046A36BA56BFFF7CCFD77
:1012E000A36C9BB11DB92046FFF7C2FEB8B901F04F
:1012F000D3FF012004B0BDE8F0813A4641462046C4
:10130000A36BFFF7B9FDA36C002BECD1636A002B34
:10131000ECD004F1240001F011FA0028E7D001F02C
:1013200017FCE4E701F0B8FF002004B0BDE8F0814D
:101330002046FFF7DFFD01F085FEF5E72DE9F843D4
:10134000044691461D460E46FFF7DCFA01F054FFB5
:10135000A26BE36B80469A4208D3022D06D000248C
:10136000404601F0E5FF2046BDE8F88394F845309B
:1013700031462A465EB22046A76BFFF77DFD731CFF
:1013800015D1A36CE3B1022D00D14FB92046FFF770
:101390006FFE28B1B9F1000F02D00123C9F8003067
:1013A0000124404601F0C4FF2046BDE8F88300F068
:1013B00029FE8642F4D2731C84F845300124F0E7FC
:1013C000636A002BECD004F1240001F0B7F9002887
:1013D000E0D1E5E7F0B5044685B00F46019201F093
:1013E000C9FBA56B002D53D1019BA3B302A801F04B
:1013F00017FA2E4601F050FF00F0F6FD01F0BAFB9F
:1014000094F84430FF2B08BF84F8446094F84530CA
:10141000FF2B08BF84F8456001F03EFF01A902A838
:1014200001F096FEE0B901F0A5FBA36B2BBB01F028
:1014300033FF019904F1240001F0C0F82046FFF7C2
:1014400059FD01F0FFFD00B301F094FBA56BFDB960
:10145000019B002BCED101F01FFF002005B0F0BD95
:101460002046FFF747FD01F0EDFD01F083FBA36B84
:10147000002BF0D001F010FFE6E701F00DFF204651
:10148000FFF738FD01F0DEFDDEE701F061FBDBE791
:10149000226C5AB1E168A36811449942E16028BF07
:1014A0002168384628BFE16007F0C0FF2369013D8D
:1014B000A56323B901F0F0FE012005B0F0BD04F1F1
:1014C000100001F03BF90028F4D001F041FBF1E7F6
:1014D000F0B5044685B0019101F04CFBA56B002DE1
:1014E00074D1019B002B3AD002A801F099F92E4645
:1014F0002F4601F0D1FE00F077FD01F03BFB94F8A0
:101500004430FF2B08BF84F8447094F84530FF2B1B
:1015100008BF84F8457001F0BFFE01A902A801F0E0
:1015200017FEF8B901F026FBA36B53BB01F0B4FE24
:101530002368002B41D0019904F1240001F03EF80A
:101540002046FFF7D7FC01F07DFD002832D001F0E6
:1015500011FBA56B002D39D1019B002BC9D101F0E6
:101560009BFE0BE02046FFF7C5FC01F06BFD01F090
:1015700001FBA36B6BB901F08FFE6EB9002005B0C3
:10158000F0BD01F089FE2046FFF7B4FC01F05AFDE2
:10159000DDE701F081FEDAE701F0ECFA616A19B1EA
:1015A000236B1968C1F12001A06801F05DFA01F018
:1015B00073FEE3E701F0CCFAC9E701F0DBFAA068BB
:1015C00001F054F9064601F067FEB4E72368013DD7
:1015D000A5637BB1236923B901F05EFE012005B04C
:1015E000F0BD04F1100001F0A9F80028F4D001F0DA
:1015F000AFFAF1E701F0EEFEA060EBE7002953D06F
:10160000434B5A68904270D01A6810B4002A2BD00D
:10161000DA68904279D09A68002A3FD05A6990429D
:1016200071D01A69002A40D0DA69904263D09A6971
:10163000002A40D05A6A904242D01A6A002A43D007
:10164000DA6A904259D09A6A002A42D05A6B904284
:1016500055D01A6B002A41D0DA6B904251D09B6B67
:10166000002B40D010BC7047DA6890424DD05A69C8
:10167000904248D01A46DC69A0423CD05C6AA04245
:101680001ED0DC6AA04238D05C6BA04237D0DC6B45
:10169000A04236D010BCC2E9001070475A6990428F
:1016A00031D003F10802E6E77047DA69904222D0B0
:1016B00003F11002E2E75A6A904201D0154AE0E7CE
:1016C000042203EBC202E5E7DA6A904215D0124A1F
:1016D000DAE75A6B904212D0104AD8E7DA6B9042A0
:1016E0000FD00F4AD6E70F4AD4E7002203EBC2021D
:1016F000C2E9001070470322E3E70522E1E7062272
:10170000DFE70722DDE70222DBE70122D9E700BF9E
:101710001815002030150020381500204015002035
:10172000481500205015002070B504460D46164699
:1017300001F020FA94F84430FF2B04BF002384F812
:10174000443094F84530FF2B04BF002384F8453023
:1017500001F0A2FDA36B23B12046BDE87040FFF766
:10176000C9BB04F124003246294600F097FF204609
:10177000BDE87040FFF7BEBB064C08B5FFF73AF86E
:101780002368022B00D8FEE7FFF734F82368022B0A
:10179000FAD8F8E72C1F0020836B002B02DB836B49
:1017A000012B1DDD3D4B026B70B5511ED3F800E0DF
:1017B0001C681A6882B0926B002A03DB1A68926B6D
:1017C000012A0EDD5A68D3F804E014465A68926B79
:1017D000002A03DB5A68926B012A29DD02B070BD32
:1017E0007047DFF8BCC0DCF80020002AEAD1E46BC7
:1017F000DEF8305004F0010EA5EB0E0E7145E1DB72
:101800004468E407DED559680E4659680C465968A5
:10181000896B002920DB5968896B01291CDCDCF805
:1018200004100D46C1B97146326BD4F83CE00AE0B1
:10183000DFF86CC0DCF80420002ACFD14FF0FF3570
:10184000226BDEF83CE00EF0010EA2EB0E028A42A3
:101850001EDD0135C2D000224FF0504109688A4296
:1018600011D053F82210896B0231B7D01046019283
:10187000FFF734F96FF00101019A084B53F8223059
:10188000996302B070BD01234CF8223002B070BDE4
:1018900042689207DDD50122DEE700BF101F00205D
:1018A000CC2202204FF050411B4B0A6853F8220013
:1018B00060B353F82200013843F822000A6853F855
:1018C00022301BBB10B5154B154853F822301C466F
:1018D0000378013BDBB203703BB9DFF84CC00CF876
:1018E0001230104AC2E88F3F0A684378013BDBB2EE
:1018F000437033B90C490D4801EB42025370C0E804
:101900008F3F0020FFF72CF90CB910BD7047BDE8E0
:101910001040FEF76FBF00BFC8210220CC2202207A
:10192000C421022042160020C021022043160020BC
:101930002DE9F8439500074628460E469946FEF7DE
:1019400063FD002800F0898080467C20FEF75CFD66
:10195000044600287ED07C22002107F023FD40466B
:101960002A46C4F83480A52107F01CFD636B043DB2
:101970002B4423F00708002E3ED0337884F8403003
:10198000002B36D0737884F8413093B3B37884F861
:10199000423073B3F37884F8433053B3337984F827
:1019A000443033B3737984F8453013B3B37984F892
:1019B0004630F3B1F37984F84730D3B1337A84F801
:1019C0004830B3B1737A84F8493093B1B37A84F86C
:1019D0004A3073B1F37A84F84B3053B1337B84F8D7
:1019E0004C3033B1737B84F84D3013B1B37B84F842
:1019F0004E30002384F84F30089D04F108001F2D5D
:101A000028BF1F252563A565FFF7F6F9C5F1200559
:101A100004F11C00FFF7F0F94B463A464046616B73
:101A2000E5616461A462FEF707FF4FF0FF320D4BE2
:101A300020609F42A26308D00B4B9F4205D0099BB8
:101A400003B11C602046BDE8F883E36B43F001035B
:101A5000E363F4E74046FEF77BFD00242046BDE843
:101A6000F88300BF7D1E0010791700104FF0504220
:101A70004F4B12682DE9F047DFF840914D4CDFF8ED
:101A8000408153F822604C4D40E0DFF838A100203F
:101A9000FFF766F8FFF758F84FF050431B68DAE895
:101AA000CF2F0121002A01D1CAE8421FBFF35F8F67
:101AB000002A50D15B000122434462705A704FF0FB
:101AC00050431A68D5E8CF3F0121002B01D1C5E86A
:101AD000431FBFF35F8F73B118F81230002B4BD147
:101AE000D5E8CF1F01230029FAD1C5E8413F0029DD
:101AF000F6D1BFF35F8F0123237008F812304FF047
:101B000050431A6849F82270002F3FD0B36B02335C
:101B10004CD14FF050410A6859F822706FB1002340
:101B200049F8223023780A68013BDBB2237023B9DD
:101B300008F81230C5E88F3F0A686378013BDBB2D2
:101B40006370002BA1D108EB4202DFF878A053703C
:101B5000CAE88F3F9BE708EB430252785B000ABB61
:101B6000DAE8CF1F01220029FAD1CAE8412F002963
:101B7000F6D1BFF35F8F9EE72378013323704FF0D8
:101B800050431A6849F82270002FBFD11A68237891
:101B9000013BDBB22370002BB8D108F81270C5E806
:101BA0008F7F70E763780133637088E7BDE8F08763
:101BB000101F0020C421022042160020C82102204C
:101BC000C02102204316002030B583B0FEF7BCFFD1
:101BD0004FF050420546404B1268D3E8CF1F01201A
:101BE000002901D1C3E8410FBFF35F8F3B480029B3
:101BF0004BD1510001233A4A014453704B70394B89
:101C00001968002954D04FF0504C3749DCF800E0F7
:101C1000D1E8CFCF0124BCF1000F01D1C1E84C4F76
:101C2000BFF35F8FBCF1000F10D010F81EC0BCF1E5
:101C3000000F4AD1D1E8CF4F5FF0010C002CF9D151
:101C4000C1E844CF002CF5D1BFF35F8F4FF0010CFA
:101C500082F800C000F81EC04FF0504ED3F800C00C
:101C60000CF1010CC3F800C01378DEF800C0013B92
:101C7000DBB213701BB900F81C30C1E88F3F284657
:101C800003B0BDE83040FEF76BBF510000EB4202ED
:101C90005278AAB9D3E8CFCF0122BCF1000FF9D115
:101CA000C3E84C2FBCF1000FF4D1BFF35F8FA1E765
:101CB000CDE90020FFF7DAFEDDE90020094BA2E7BD
:101CC000074A53780133537099E792F800C00CF13A
:101CD000010C82F800C0BFE743160020C02102209B
:101CE000C4210220F0210220421600202DE9F843F1
:101CF000584C594E594FDFF87C91DFF87C812368AE
:101D0000002B37D0FEF720FF336893B14FF05043DC
:101D10001B6857F82320002A3BD04FF0504157F85A
:101D20002320013247F823200B6857F82330012B7A
:101D300028D0236803B34A4BDB68DD68AB6B013303
:101D400040F0818005F10800FFF784F8454A1368E8
:101D5000013B13602368013B236033680BB1FFF73D
:101D6000A1FD686BFEF7F4FB2846FEF7F1FB236844
:101D7000002BC7D1BDE8F8833368002BBFD0FFF735
:101D800091FDBCE7D9F80030002BD2D1FFF76EFEF1
:101D9000CFE7D8E8CF2F0121002A01D1C8E8421FA0
:101DA000BFF35F8F002A32D12F4A590001232F48F9
:101DB000114443704B704FF050452D4B2968D3E8C8
:101DC000CFCF5FF0010EBCF1000F01D1C3E84CEFA3
:101DD000BFF35F8FBCF1000F11D012F811C0BCF13E
:101DE000000F26D1D3E8CFCF0125BCF1000FF9D1E8
:101DF000C3E84C5FBCF1000FF4D1BFF35F8F012348
:101E00004FF05045037002F811302B6885E7164AF1
:101E1000590002EB43035B7883B9D8E8CF0F012365
:101E20000028FAD1C8E8403F0028F6D1BFF35F8F01
:101E3000BCE70378013303702B686EE70B484378E7
:101E400001334370B7E73368002B93D0BDE8F84304
:101E5000FFF728BDEC2102208C220220C82102209D
:101E6000AC220220E8210220C0210220C42102204D
:101E700042160020F02102204316002008B5FEF78C
:101E8000B9FC044CFFF732FF2368022BFAD9FEF7A6
:101E9000B1FCF7E72C1F00202DE9F04F4FF0504523
:101EA0004B4C4C4A4C4B246812681B6883B09246DA
:101EB00088469B46494EA1460446FEF745FE2B68E0
:101EC00056F82370FEF74CFE002387F87930FEF7B2
:101ED0003BFE2B6856F82370FEF742FE07F1080020
:101EE000FEF7B8FF631C02D1B8F1000F34D14FF0F8
:101EF000504519EB04042CBF01270027FEF724FEF0
:101F00002B6856F823300193FEF72AFE019B9C6054
:101F10009FB9FEF719FE2B6856F82350FEF720FEF6
:101F2000504605F10801FEF779FF2D4B1A68A242D1
:101F300088BF1C6003B0BDE8F08FFEF705FE2B687C
:101F400056F82340FEF70CFE584604F1080103B092
:101F5000BDE8F04FFEF762BF224C6768FEF7F4FD64
:101F60002B6856F823300193FEF7FAFD019BDF60E2
:101F7000FEF7EAFD2B6856F823300193FEF7F0FDDB
:101F8000BA68019B1A61FEF7DFFD2B6856F8233013
:101F90000193FEF7E5FD019BBA6808335360FEF735
:101FA000D3FD2B6856F823300193FEF7D9FD019B32
:101FB0000833BB60FEF7C8FD2B6856F82350FEF7C8
:101FC000CFFD2368AC610133236003B0BDE8F08F1F
:101FD000C02202201C1F0020241F0020101F0020F0
:101FE0006422022098220220024B1B6803B970472A
:101FF000FFF7EABD8C220220014B1868704700BF32
:10200000C0220220014B1868704700BFE82102205F
:10201000834B2DE9F0471B685BBB824B1D68013584
:102020001D6075B3DFF818A2DAF80030AB423FD973
:102030007D4C7E4D2B681B6B03EB830354F82330E0
:10204000012B6B681B6B03EB830354F8233040F2C6
:102050009480012B4FF050431E6840F2A780002E61
:1020600000F0CF802B689B6B023300F0B28001241C
:10207000A2E000246E4A1368013313602046BDE8D5
:10208000F0876C4B6C4A1868116819606B491060D6
:102090000A6801320A601A681268002A79D1684A0F
:1020A0004FF0FF3392461360DAF80030AB42BFD8EE
:1020B000604E5D4C33681B68002B00F0A480DFF895
:1020C00088914DE0D3F818E0D3E90372BA60DF6875
:1020D00018465760DEF804208A4204BF1A69CEF819
:1020E0000420DEF80020013ACEF80020D3F82CE0DE
:1020F000BEF1000F12D0D3E90872BA601F6A5760B0
:102100000027DEF80420624504BF5A6ACEF8042096
:10211000DEF80020DF62013ACEF800201A6BD9F811
:1021200000E002EB820C724504EB8C0E88BFC9F80C
:102130000020DEF80420DA60D2F80880C3F81080AE
:10214000C8F80410916054F82C20C3F818E001324C
:1021500044F82C20FFF720FB33681B68002B52D07B
:102160003368DB68DB689A6803F10801954203F184
:102170001C0CA7D2CAF800205BE7012B10D94FF046
:102180005042304B16681B681BB3002E7FF46AAFB9
:1021900037E01B682A4ADB6892461B68136043E7F6
:1021A0004FF05041274B0E681A6872B136B32B6856
:1021B0009B6B023308D000240020FEF78FFC6FF0E9
:1021C00001022B689A6324B91E4B5C68002C3FF413
:1021D00055AF012E1CD000244FF050431B68012B3B
:1021E0001AD06B689B6B02333FF448AF0120FEF7B7
:1021F00075FC6FF001026B689A633FE7114B5B68F7
:1022000033B10124E8E74FF0FF33CAF8003010E79C
:1022100001242046BDE8F0870A4A53602EE700BF3C
:10222000F0210220C02202202C1F0020101F0020BD
:10223000742202201C1F0020241F0020682202207C
:1022400064220220CC220220F82102204FF05043C9
:102250002DE9F0470246DFF834821B6882B0D8E8E7
:10226000CF1F0120002901D1C8E8410FBFF35F8FC4
:102270007F4E00294CD1590001207E4B31445870CB
:1022800048704FF05041DFF808A20868DAE8CF1F25
:102290000124002901D1CAE8414FBFF35F8F79B112
:1022A00016F81010002940F0BE80DAE8CF4F012167
:1022B000002CFAD1CAE8441F002CF6D1BFF35F8F7F
:1022C0000121197006F810106B490968002932D0F5
:1022D00001244FF05041694840F822400D681A78B7
:1022E000013AD2B21A7032B906F81520CAE88F2F17
:1022F0004FF0504215685A78013AD2B25A7022B95A
:1023000006EB45056A70C8E88F2F02B0BDE8F0877C
:10231000590006EB43035B78002B40F08880D8E837
:10232000CF0F01230028FAD1C8E8403F0028F6D19A
:10233000BFF35F8FA0E75148514CDFF8589140F848
:102340002210D9F8005054F822104E4F886954F8E2
:102350002210096B01EB810107EB8101884270D0EB
:10236000494805EB850100EB810050F8081C61B974
:10237000D9F8001014380139C9F80010002D5CD0CC
:1023800050F8081C013D0029F2D04FF0010C8646A0
:1023900099460CFA02FCDEF80410714507D12EE0D4
:1023A00054F82230984233D04968714527D0C86824
:1023B000836B5F1CF4D147681CEA070FF4D0194601
:1023C00086464FF0504554F822004B46816354F83E
:1023D00022C0CEF838202D6844F822E0BCF1000F6E
:1023E0000AD0DCF830E0274F0EEB8E0007EB8000C0
:1023F000DCF8187087424FD054F825206FE7AEF113
:10240000140ECDB15EF8083C013D002BF7D0C2E7B9
:1024100043681CEA030FC7D082634FF050428646E0
:102420004B461568E8E71978013119704CE7114BF4
:1024300059780131597024E74B464FF050421568E6
:10244000DAE754F82200019308300092FEF702FD0B
:10245000009A54F82210086B54F8221000EB800008
:1024600007EB80000831FEF7CBFCDDE9002377E7BE
:10247000C0210220C4210220F0210220CC2202200F
:10248000101F00202C1F0020341F002043160020A6
:1024900042160020F8210220DCF80490DCF83C0011
:1024A00029FA02FC00F001001CF0010FAEEB000065
:1024B00004D054F82220526829EA020919F0020FC8
:1024C00009F0030268D06268D4F804C0126BDCF82B
:1024D0003CC009F0010E0CF0010CA2EB0C02904282
:1024E0000DDDD4F804C0DCF838C0BCF1000F06DB09
:1024F000D4F804C0DCF838C0BCF1010F34DDBEF103
:10250000000F3FF479AF2268D4F800C0126BDCF8FA
:102510003CC00CF0010CA2EB0C0290427FF76CAFB8
:102520002268926B002AFFF667AF2268926B012A3D
:102530003ADD01313FF460AF4FF00109A9452ED0DB
:1025400054F82920926B02323FF456AF6FF0010528
:1025500048460093FEF7C2FA4FF0504254F8291053
:10256000009B8D63156847E7134FD7F804C0BCF193
:10257000000FC4D1BEF1000FDED021682068096BC6
:10258000C06B00F00100091A8A42D5DD2268926B07
:10259000002AD1DB0121C8E7002AB4D12CE70122AF
:1025A000054941F8252048E7034AD2F80090B9F1DF
:1025B000000FC3D0BDE700BFCC22022070B50D468E
:1025C0000646FEF7C1FA4FF05042084B126853F826
:1025D0002240FEF7C5FA304604F11C01FEF71EFC4E
:1025E0002846BDE870400121FFF756BC101F0020AF
:1025F000F0B54FF050450F46064683B00192264C89
:10260000FEF7A2FA2B6847F0004754F823300093F6
:10261000FEF7A6FA009BDF617768FEF795FA2B6854
:1026200054F823300093FEF79BFA009B1F62FEF7DD
:102630008BFA2B6854F823300093FEF791FAB968AF
:10264000009B5962FEF780FA2B6854F82330009300
:10265000FEF786FA009BB9681C334B60FEF774FAEC
:102660002B6854F823300093FEF77AFA009B1C3352
:10267000BB60FEF769FA2B6854F82340FEF770FA46
:102680000121336801980B44E662336003B0BDE872
:10269000F040FFF701BC00BF101F00202DE9F04102
:1026A0004FF0504582B00192884647680646224C5A
:1026B000FEF74AFA2B6854F823300093FEF750FADD
:1026C000009B1F62FEF740FA2B6854F823300093FA
:1026D000FEF746FAB968009B5962FEF735FA2B6897
:1026E00054F823300093FEF73BFA009BB9681C3383
:1026F0004B60FEF729FA2B6854F823300093FEF75D
:102700002FFA009B1C33BB60FEF71EFA2B6854F8AF
:102710002340FEF725FA019A3368002A11460CBFC0
:1027200040464FF0FF300133E662336002B0BDE84F
:10273000F041FFF7B1BB00BF101F002038B54FF0CC
:10274000000EC368D868C36AD0E908128A60D3F85B
:1027500004C0046A00F11C0154608C4504BF426A45
:102760005A602A4AD2F800C01A68C0F82CE0013A30
:102770001A60BCF1000F38D1D0E9031283698A6076
:10278000C468596800F1080E5460714508BF0269B9
:102790001F4908BF5A601A68013A1A60036B0A6839
:1027A00093421C4A88BF0B6003EB830302EB830157
:1027B000D1F804C052F82340C0F80CC0651CDCF806
:1027C00008400461C4F804E0CCF808E0816142F8F4
:1027D0002350FEF7E1FF4FF050420F4B126853F8C1
:1027E0002200003818BF012038BD0C4BD3F804C0BC
:1027F000C0F820C0DCF80820426251601A68CCF8AA
:1028000008100132C3621A60E3E700BFF021022022
:10281000F82102202C1F0020CC2202207822022046
:10282000034A044B12681B68C0E90023704700BFCD
:1028300068220220C02202204FF050420121024BA8
:10284000126843F822107047CC22022010B5FEF720
:102850007BF94FF05042044B126853F822301C466B
:10286000FEF77EF9204610BD101F002030B504464B
:1028700083B000283BD0016B444D0191FEF764F911
:102880004FF050431A6855F822200092FEF768F97D
:10289000009A0199126B91422BD2E269002A0EDB59
:1028A000FEF752F94FF050431B6855F82330009360
:1028B000FEF756F9009B1B6BC3F12003E361236B0A
:1028C000334AA16903EB830302EB8303994224D0CB
:1028D000FEF73AF94FF050432C4A1B6852F8233068
:1028E0000093FEF73DF9009B1B6B2363012003B0AF
:1028F00030BDA46DFEF728F94FF05043234A1B6802
:1029000052F823300093FEF72BF9009B186B84429A
:102910002CBF0020012003B030BD04F10800FEF7F9
:1029200099FAFEF711F94FF05043184A1B6804F169
:10293000080552F823300093FEF712F91549009B61
:1029400008681B6B124A8342236388BF0B6003EB4A
:10295000830302EB830CDCF8040052F82310E060E0
:10296000D0F808E00131C4F810E0CEF804508560DA
:10297000C4F818C042F82310A36B002B02DBA36B32
:10298000012BB3DD2046FEF707FFAFE7101F002045
:102990002C1F0020F821022040B10346C26D996D22
:1029A000006B013A8842DA6500D00AB10020704716
:1029B00030B503F1080083B003F108040193FEF77A
:1029C00049FA019B24499A6D08681A63824288BFBC
:1029D0000A602249C2F1200C02EB820201EB820E56
:1029E000C3F81CC0DEF804C051F82200C3F80CC0C4
:1029F000451CDCF8080018614460CCF80840C3F8B6
:102A000018E041F822509A6B002A02DB9A6B012AE7
:102A100002DD012003B030BD4FF05042996B1268C7
:102A2000914213D0996B0E4A52F82110896B0231F2
:102A3000EFD0986B0193FEF751F86FF00101019B05
:102A4000074A9B6B52F823309963E2E701219A6BA6
:102A5000044B43F82210DCE7F82102202C1F002051
:102A6000101F0020CC22022050B10346806D1A6B4B
:102A7000814238BF01468A4202D0D86D012800D079
:102A80007047D86919630028A4BFC1F12001D9613A
:102A90002B49986902EB820201EB82029042EFD14E
:102AA00030B503F1080083B003F108040193FEF789
:102AB000D1F9019B23481A6BD0F800C02049624528
:102AC00088BF026002EB820201EB820EDEF804C0D6
:102AD00051F82200C3F80CC0451CDCF8080018614E
:102AE0004460CCF80840C3F818E041F822509A6BD3
:102AF000002A02DB9A6B012A01DD03B030BD4FF0E2
:102B00005042996B1268914213D0996B0E4A52F859
:102B10002110896B0231F0D0986B0193FDF7DEFF35
:102B20006FF00101019B084A9B6B52F823309963B7
:102B3000E3E701219A6B054B43F82210DDE700BF64
:102B40002C1F0020F8210220101F0020CC22022080
:102B50004FF05043054A1B6852F8232022B101214F
:102B6000034A42F823107047FDF744BEC8210220F3
:102B7000CC22022038B5FDF7E7FF3E4B1B6893B12E
:102B80004FF050433C4A1B6852F82310A1B14FF05C
:102B9000504052F82310013142F82310036852F8D4
:102BA0002330012B00D038BD344B1B68002BFAD1E9
:102BB000BDE83840FEF75ABF3149D1E8CF0F5FF08A
:102BC000010C002801D1C1E840CFBFF35F8F00287E
:102BD00030D12C484FEA430C01232B4984444B70DD
:102BE0008CF801304FF0504E284BDEF800C0D3E88F
:102BF000CF4F0125002C01D1C3E8445FBFF35F8FA5
:102C00007CB110F81C40002C29D1D3E8CF4F5FF0E5
:102C1000010E002CF9D1C3E844EF002CF5D1BFF32D
:102C20005F8F01234FF0504E0B7000F81C30DEF820
:102C30000030ACE713484FEA430C00EB43035B78EA
:102C40009BB9D1E8CFEF0123BEF1000FF9D1C1E864
:102C50004E3FBEF1000FF4D1BFF35F8FBCE70B789E
:102C600001330B70DEF8003091E707494B780133F0
:102C70004B70B7E78C220220C8210220F0210220ED
:102C800043160020C0210220C42102204216002049
:102C90002DE9F0410546FFF76DFF2F4A2F4F1368CE
:102CA000013313603B685BB32D4E2E4B05F10804D6
:102CB0001A6801322A651A602B4A2B6B11688B4205
:102CC00088BF136003EB830306EB8300416856F86B
:102CD0002320E960D1F808C0D7F800E00132C5F838
:102CE00010C0CCF804408C60A86146F82320BEF1E7
:102CF000000F2CD13B6843B3BDE8F041FEF7D2BDD5
:102D00001368174E012BD0D1344606F520782046A3
:102D10001434FEF765F8A045F9D1DFF86880134C4C
:102D20004046FEF75DF82046FEF75AF81048FEF7D9
:102D300057F81048FEF754F80F48FEF751F80F4BBC
:102D4000C3F800800E4B1C60AFE7BDE8F081284659
:102D5000FEF722FDCEE700BFE82102208C220220F0
:102D60002C1F0020F4210220F8210220382202200A
:102D700078220220AC220220982202201C1F002070
:102D8000241F00202422022010B582B0049C00944D
:102D9000059C0194FEF7CCFD38B14FF0FF32426044
:102DA000FFF776FF012002B010BD4FF0FF3002B0F8
:102DB00010BD00BF10B582B0049C0094069C019425
:102DC000FEF7B6FD30B1059A4260FFF761FF0120C2
:102DD00002B010BD4FF0FF3002B010BD2DE9F04140
:102DE00030230024254E264A86B0CDE90162ADF895
:102DF0000C304FF400722346224802A90094FEF7DB
:102E000097FD3546204F10B34FF0FF38C0F80480CF
:102E1000FFF73EFF2B689C6347F82430E4B9043584
:102E2000002331244FF400721848019502A9009341
:102E3000ADF80C40FEF77CFD01240028E4D1736856
:102E40009C637B60124B1B6806B0BDE8F08155F8AF
:102E5000043B98633B60E3E700F078FC0128F1D184
:102E6000FDF772FE00220B490B4B0C48C0F80080A6
:102E70000C601A60FDF71EFDE4E700BF542202203B
:102E800049444C457D1E0010101F0020791700108A
:102E9000189800108C220220C022022064220220F6
:102EA0002DE9F84FFFF766FE4FF05040584A594958
:102EB00013680468013B13604B780068013BDBB288
:102EC000A3464B7033B9544901EB40014B70534951
:102ED000C1E88F3F1468002C6BD1514B1868002853
:102EE00070D0DFF858E1DEF80030002B53D0DFF867
:102EF00050A14C49DEF80C30DB68DA6AD3E90806E9
:102F000086601D6A506803F11C077560B84204BFF3
:102F1000586A50601068DC62013810609A69D3E921
:102F200003078760D868D2F804C07860176803F197
:102F30000800844508BF1D6907F1FF37176008BF07
:102F40005560DAF800601A6B02EB8207B242BC46A9
:102F500001EB870938D9D9F80460CAF80020DE608F
:102F6000D6F808C051F82720C3F810C0CCF80400E8
:102F7000B060C3F81890DEF80030013241F8272025
:102F8000002BB7D1284B1A681268002A3AD14FF0AB
:102F9000FF32264B1A60264F3C6864B30126254D4C
:102FA000FFF736F808B145F82B60013CF8D13C60DA
:102FB00022E00024204B1B680BB1FEF773FC204677
:102FC000BDE8F88F0446F5E7D9F8046051F82720EA
:102FD000DE60B76801321F617860B060C3F8189096
:102FE000DEF8003041F82C20002B83D10E4B1A68FC
:102FF00012683AB9CBE70F4D55F82B40003C18BF8B
:103000000124D7E71A68094BD26812681A60C2E730
:10301000F0210220C4210220C021022043160020FA
:10302000E82102202C1F00201C1F00206422022007
:1030300074220220CC2202208C220220782202203C
:10304000F8210220024B186800B97047FFF728BF2B
:103050008C22022000B583B040B1124B1A68E2B94D
:103060000021FEF719FF0F4B1B688BB94FF050433F
:103070000D4A1B6852F823202AB101210B4A42F85D
:10308000231003B000BD03B05DF804EBFDF7B2BB45
:10309000FFF706FF0028E9D0F3E70190FEF794FD63
:1030A0000198DDE78C220220C8210220CC220220D8
:1030B00041F0004138B5D0E90152C46803690160AC
:1030C000AA6055600025596804F1080C814208BFC8
:1030D0005A601A68D4E903E1013A05611A60A369EC
:1030E000CEF80810E2684A605A681649624504BF83
:1030F00022695A601A68013A1A60236B0A6893427F
:10310000114A88BF0B6003EB830302EB8300416825
:10311000E1608D682561C5F804C0C1F808C052F8A7
:103120002310A061013142F82310FFF723FD204650
:10313000FEF732FB054B1B681BB1BDE83840FEF7BC
:10314000B1BB38BDF82102202C1F00208C220220A8
:103150002DE9F04304464FF05046234F83B00191D0
:10316000FFF708FD3B68214D984663689946FDF7D7
:10317000EBFC336855F823300093FDF7F1FC009B1E
:10318000019993F8793023BB0B685A1C17D0184A61
:1031900020681568A84206D06068404503D800231F
:1031A0000B6001240CE0A8EB09008342F7D91068FA
:1031B000A3EB08033A684B440B60C4E90002002407
:1031C0000C4B1B680BB1FEF76DFB204603B0BDE84E
:1031D000F083FDF7B9FC336855F82340FDF7C0FCD8
:1031E000002384F87930DCE7C0220220101F002081
:1031F000682202208C220220224B186800B97047F6
:1032000010B5FDF7A1FC4FF05042DFF884C0136801
:103210005CF8231029B15CF8232001324CF82320FC
:1032200010BD1949D1E8CFEF0124BEF1000F01D143
:10323000C1E84E4FBFF35F8FBEF1000F0AD1DFF838
:1032400054E0012211490A700EF813204FF0504348
:103250001B68E0E7DFF83CE01EF813405CB9D1E8FA
:10326000CF4F0122002CFAD1C1E8442F002CF6D117
:10327000BFF35F8FE5E705490B7801330B701368E7
:10328000C9E700BF8C22022042160020C421022080
:10329000C8210220C02102201E4B1B68002B33D006
:1032A0004FF050411C4B0A6853F8220060B353F8AA
:1032B0002200013843F822000A6853F822301BBB71
:1032C00010B5164B164853F822301C460378013BC4
:1032D000DBB203703BB9DFF850C00CF81230114A72
:1032E000C2E88F3F0A684378013BDBB2437033B9D1
:1032F0000D490E4801EB42025370C0E88F3F002099
:10330000FDF72EFC0CB910BD7047BDE81040FDF76D
:1033100071BA00BF8C220220C8210220CC220220D8
:10332000C421022042160020C021022043160020A2
:10333000124B1B680BB34FF05041114B0A6853F806
:1033400022C0BCF1000F18D053F822C00CF1FF3C92
:1033500043F822C00A6853F8223073B909490B7840
:10336000013BDBB20B7033B9DFF820C006490CF823
:103370001230C1E88F3FFDF7F3BB70478C2202206B
:10338000C8210220C421022042160020C0210220B0
:10339000F8B54FF05046FDF7D7FB0D4D336855F8A3
:1033A0002340FDF7DDFBE769FDF7CEFB336855F8F9
:1033B0002340FDF7D5FB246BFDF7C6FB3368C4F152
:1033C000200455F82350FDF7CBFB3846EC61F8BDDF
:1033D000101F002010B5FDF7B7FB4FF05042064B11
:1033E000126853F82240FDF7BBFB14B1E36D0133C3
:1033F000E365204610BD00BF101F00202DE9F04FEF
:10340000AC4FDFF8B8B2DFF8B882AB4D87B03B689D
:103410001C68002C40F01D81FEF7E6FDFEF7ECFD78
:10342000DBF800308146834247D8D8F80030CBF82B
:1034300000001A68B2FA82F252092868A4EB090166
:10344000FEF772F9FFF7FEFD002800F0248100234B
:10345000CDE90233CDE904330022286802A9FDF743
:10346000B9FF0028D3D0029B002BC0F2E980DDF821
:1034700010A0DAF814301BB10AF10400FDF7EAFCE1
:10348000FEF7BAFDDBF800300190984243D3DDE946
:103490000123013BCBF80020082BDDD8DFE803F047
:1034A0006161C0A5C76161C0A50022F001028AF870
:1034B00028205046DAF8203098473B681A68002ADE
:1034C00000F0D980DA68D2F80CA014680AF104067A
:1034D0003046FDF7BFFC9AF828205107E5D503E0F8
:1034E0005046DAF820209047DAF81820CAF810A0E1
:1034F0001119A418CAF80410F2D33146D8F8000004
:10350000FDF78CFCD5E721F0010189F82810484629
:10351000D9F8203098473B681968002900F0B58039
:10352000D968D1F80C900C6809F104063046FDF713
:1035300091FC99F828104807E5D503E04846D9F8EA
:1035400020108847D9F81810C9F810900819641885
:10355000C9F80400F2D33146D8F80000FDF75EFC4C
:10356000D5E79AF828000399DAF81840019A0B1960
:1035700040F001068AF828602CBF012600269342FD
:10358000CAF80430CAF810A000F28880511A8C42A0
:103590003FD8410712D420F001008AF82800504695
:1035A000DAF82030984757E78C4200F2C780DAF803
:1035B0002030504698473346DAF81840019AE6180A
:1035C0002CBF01200020B242A2EB0301CAF8046024
:1035D000CAF810A0E8D29A4201D20028E7D0386891
:1035E0000AF10401FDF71AFCD9E70399019A9AF848
:1035F0002830881843F0010390428AF82830CAF82E
:103600001810CAF80400CAF810A04CD800293FF4DA
:1036100023AFD8F800000AF10401FDF7FFFB1BE718
:103620009AF8283023F001038AF8283014E79AF832
:1036300028309A0778D523F001038AF828300BE761
:10364000039BDDE904019847029B002BFFF604AFC2
:103650000DE7DB681C68FEF7C7FCFEF7CDFCDBF866
:103660000030814683423FF628AF8442CBF8000009
:1036700028D90022E1E6D8F80020CBF800903A6083
:10368000C8F80030FFF7DEFCE1E6D8F80010C8F813
:1036900000303960FBE6FFF75BFAD8E6914202D9C9
:1036A000002E3FF476AF38680AF10401FDF7B6FB4F
:1036B000D2E600BF181F0020C42202205C22022094
:1036C000281F0020FFF7BEFC3B68DB68DE68331D67
:1036D00018460193FDF7BEFB96F8282053070DD43A
:1036E00022F0010286F828203046336A9847AEE679
:1036F00081421DD83046316A88475446B169A9EBEA
:10370000040014EB010A2CBF01230023CA45C6F8AC
:1037100004A03661ECD94C4501D9002BEAD00199BF
:103720003868FDF77BFBDFE75046FCF711FF93E6B7
:103730000199D8F80000FDF771FBD5E7D8F8000033
:103740000AF10401FDF76AFB29E700BF10B5194C27
:1037500086B0FFF70FFA22689AB1FFF79DFD206847
:1037600068B14FF0FF3C1F241349002302914FF42E
:103770008062CDE9004C11491148FFF71BFB06B0F0
:1037800010BD10480592FDF72BFB0F48FDF728FBF5
:103790000E490D480E4B08600A4810211860059A22
:1037A0000A20FDF7B3FC20600028D6D00949FDF7B8
:1037B00025FFD2E7C4220220C82202207096001002
:1037C000FD330010FC21022010220220281F0020BF
:1037D000181F00206896001070B56FF0010C964617
:1037E00004460D461A46074B84B069461868002304
:1037F000CDE90145CDF80CE0CDF800C0FDF79EFD08
:1038000004B070BDC422022000EB400C4FEA8C0CC7
:103810000CF1804C0CF5803C70B51E46DCF8043091
:10382000041FB3F5803F38BF4FF48033E4B238BF94
:10383000CCF80430012C2ED94FF40065284B0CF540
:10384000405ECEF8005053F820E0BEF1000F17D1D3
:10385000DCF800E0012C8EEA421202F0E0020CF5E6
:10386000805ECEF800202BD94FF4006143F8206031
:103870004FF480330CF500521160CCF8043070BD69
:103880005D69B5FBFEFE0EF1010E0EEB4E0EBEF1B4
:10389000030EFCD2DCE70129CED103240CF5405302
:1038A0001C60DCF80830DB07FBD5DCF800300CF5D9
:1038B000805E83EA421303F0E003CEF80030084B49
:1038C0000122DCF800404C4004F00304CEF8004034
:1038D00002FA01F1DCF808200A42FBD0C4E700BF7D
:1038E0005C1A0020014B53F8200070475C1A00203E
:1038F0000FB400B5084883B003F0C2F8049B3BB195
:1039000005A91846019102F02BFF044803F0B8F80E
:10391000012002F03DFF00BF789600104496001091
:10392000EFF3108072B6064BD3E8CF1F01220029B7
:10393000FAD1C3E8412F0029F6D1BFF35F8F70475A
:103940003F1600200023034AC2E88F3F80F310880F
:10395000704700BF3F16002070B51646EFF3108485
:1039600072B6DFF848E0DEE8CF2F0123002AFAD153
:10397000CEE8423F002AF6D1BFF35F8F012301F06A
:10398000070CCA0803FA0CF310F802C01CEA03057E
:1039900008D14CEA030C00F802C0CEE88F5F84F334
:1039A000108870BD3046FFF7A3FF00BF3F16002010
:1039B000F8B50F461946EFF3108672B61C4DD5E8E0
:1039C000CF4F0123002CFAD1C5E8443F002CF6D19B
:1039D000BFF35F8F8A421BD8012402E0013291427B
:1039E00022D3D30810F803E002F0070C04FA0CFC11
:1039F0001EEA0C0FF2D14EEA0C0E00F803E010465E
:103A00000023C5E88F3F86F31088984207DBF8BD96
:103A10000023C5E88F3F86F310884FF0FF30002F5A
:103A2000F5D00698FFF764FF4FF0FF30E8E700BFDE
:103A30003F160020044A1078431CDBB2182B28BF25
:103A400010231370704700BF1A1200200146024A6B
:103A50000248FFF781BF00BF88960010541A00206B
:103A600000B5DFF81CC083B001461F231822CDF833
:103A700000C00248FFF79CFF03B000BD541A0020AD
:103A8000A89600104FF0E022936843F00053936033
:103A9000704700BF0021044B03F12002C3E88F1FD1
:103AA00001339342FAD17047341600204FF0E023DF
:103AB0004FF08032C3F80024C3F80424C3F808246C
:103AC000C3F80C24C3F81024C3F81424C3F8182432
:103AD000C3F81C24C3F82024C3F82424C3F82824E2
:103AE000C3F82C24C3F8302462B67047012300F0D9
:103AF0001F029340400941B1800000F1604000F591
:103B00006140C0F8803103607047024A203042F8BB
:103B10002030704700E100E00123064A410952F8D5
:103B2000212000F01F008340134214BF0120002019
:103B3000704700BF00E100E001224309034900F0A3
:103B40001F008240403341F82320704700E100E02D
:103B5000054A10309268054B52F82000C01A2F28F1
:103B60008CBF00200120704700ED00E01C120020F7
:103B700010B582B0EFF3108472B6164BD3E8CFCFF6
:103B80000122BCF1000FF9D1C3E84C2FBCF1000FAA
:103B9000F4D1BFF35F8F104A10309268DFF83CC059
:103BA00052F82020624508D0914206D0CDE90001AC
:103BB00000F0F6FF0199074B0098074A926842F817
:103BC0002010BFF35F8F0022C3E88F2F84F310888B
:103BD00002B010BD3D16002000ED00E01101001004
:103BE0002DE9F04F06468A46154683B0EFF310885C
:103BF00072B6714FD7E8CF2F0123002AFAD1C7E858
:103C0000423F002AF6D1BFF35F8F6C4991F9002043
:103C1000002A7BDB6A4802EB420400EB840393F842
:103C200006C0103681F800C06649A40089684FEAD2
:103C3000420B51F826E0AEEB00012F292ED9624944
:103C40008E4540F0848043F0010E604B0234044402
:103C5000043B1B1BC3F34A036FEAC3434FF42141E8
:103C60006FEAD3435A4420F8221000EB82025380BB
:103C70004BF601539380FF23D571C2F808A09371CE
:103C8000504B9B6843F826E0BFF35F8F0023C7E8E3
:103C90008F3F88F3108803B0BDE8F08F2EF0010C41
:103CA0009CF80710A9425AD9B14601941E4603E078
:103CB000CB79AB4230D98C469CF9064004EB4401E9
:103CC000002C00EB8101F3DA00944BF601543346EB
:103CD0004E460CF10409043BA3EB0903C3F34A036A
:103CE0006FEAC3436FEAD343ACF80430384B0BEBB5
:103CF00002018CF8062040F82130009B00EB810285
:103D000094809371D571C2F808A0B9E700F048FF1C
:103D10002A4991F900207DE76FF007010094019C8A
:103D200033460C1B6146241A019431F8044F4E4669
:103D300044F30A04023401EB4404894601990C441B
:103D4000C4F34A046FEAC4446FEAD444C3E7CDE93C
:103D5000002300F025FFDDE90023194873E71B4A23
:103D6000A11CDD710144043A251D521A0544ACF131
:103D70000401491BC1F34A016FEAC141C2F34A027F
:103D80006FEAC2426FEAD1414FF4214E6FEAD2424C
:103D900099800F4920F804E05A804AF6AA25624625
:103DA000121A524155432D0DC3F808A09D7143F0DE
:103DB000010ECCF8001063E73D160020D722022048
:103DC0001C12002000ED00E0110100104C12002038
:103DD000014880474FF0FF0C20F0030303F16043DC
:103DE00003F5644300F003001A68C0000CFA00FCFD
:103DF00022EA0C0281400A431A6070472DE9F04123
:103E0000EFF30583DBB29E46EFF3108572B62949C6
:103E1000D1E8CF2F0123002AFAD1C1E8423F002A7E
:103E2000F6D1BFF35F8FDFF89C8040F00106D8F831
:103E300008704AF6AA2357F82E7004461E4AA41AA0
:103E4000644163431B0DB7425BB21ED092F906403A
:103E50009C4220D092F912409C4227D092F91E40F9
:103E60009C4225D092F92A409C4208BF032413D0DB
:103E7000124A002492F800C0137080F806C0C1E80E
:103E80008F4F85F31088BDE8F081D8F808200C4CDE
:103E900042F82E40ECE7002404EB440402EB8402D9
:103EA000FF2494714BF601549480E1E70124F3E779
:103EB0000224F1E73D1600201C120020D722022028
:103EC0001101001000ED00E000B5DFF824C083B060
:103ED000014605230022CDF800C00448FFF768FD25
:103EE0000028A8BFC0F1330003B000BDDB220220D0
:103EF000C4960010014B0B44036070473416002039
:103F0000F8B5124C124DAC4211D24FF0FF360027DB
:103F100023686BB1FFF78EFD01462046FFF7EAFFED
:103F200066602772BFF35F8F0C34AC42F0D3F8BDEC
:103F3000FFF780FD01462046FFF7DCFF6660BFF318
:103F40005F8F0834AC42E3D3F8BD00BFB412002049
:103F5000C412002010B50446FFF76CFD0146204650
:103F6000FFF7C8FF4FF0FF336360BFF35F8F10BDF3
:103F700010B504460120FFF773FD034B0344236093
:103F8000BFF35F8F10BD00BF34160020024B0B44FF
:103F90000360BFF35F8F70473416002000000000FD
:103FA0002DE9F04F2DED028B85B0EFF30583DBB2E9
:103FB000103B9A0818BF01224FF0010103F0030BD8
:103FC00018BFA94CA94B08BFA94C0BEB820253F8B0
:103FD000225001FA0BF204F541539FEDA18B02929E
:103FE0005A602FE0AB88190440F19480AB79002B24
:103FF00040F0DE80B5F90860002EC0F21C816B69CC
:1040000006EB460603EBC603D3E90267B7F1FF3FB1
:1040100008BFB6F1FF3F0ED004EB8B01A36A0A691B
:10402000D21AF31A934205D30123226A03FA0BF33F
:10403000134200D10E61204600F072FBB042B9413C
:10404000C0F2F980B5F90860029B002EE363C9DB7A
:10405000D5F8149006EB460A09EBCA07BB68204660
:10406000D7F80C80019300F05BFB019B984271EB49
:104070000801B7DBB8F1000FC0F2C080D7E9043106
:104080007C4A934200F0F8807A88B5F9080092B231
:1040900042EA0040984702460B4652EA030100F00C
:1040A000AD80002B80F2CD800199B1EB020E68EB60
:1040B000030839F93A30C7E902E8002B92DB686956
:1040C00003EB430200EBC202D2E90271BE4578EB7A
:1040D000010C4FEA430285DBAC462CF8083F06E0B2
:1040E00003EB430100EBC1015A00D1E90271BE4567
:1040F00078EB01011A4405DB30F9323000EBC20CD9
:10410000002BEDDA29F83A30ACF80060AB881904DE
:104110003FF56CAF2B69EFF3108272B6D3E8CF0F87
:1041200001210028FAD1C3E8401F0028F6D1BFF3CF
:104130005F8F4FF6FF76A8880023296900B2AE8012
:10414000C1E88F3F82F310889842FFF64FAF0746D1
:10415000A1466E6905F10808B5F9083007EB470E6E
:10416000002BC44606EBCE0215DBD2E90240AA467C
:10417000019704E036F935309446002B09DB03EB58
:10418000430506EBC502D2E90271BC4270EB0101A6
:10419000F0DA5546019FACF8007036F93E7026F80B
:1041A0003E30002FD8DAAB794C46002B3FF422AFDB
:1041B0000023AB71B5F90860721C33463BD06869C7
:1041C00005F1080E03E08E465A1C3FF415AF03EBD1
:1041D000430200EBC2014F889C463F0430F9323065
:1041E000F1D5664581ED028BEED0AEF8003029891D
:1041F000664620F83210A5F808C0E5E739F83A30ED
:104200002B812B69EFF3108272B6D3E8CF0F012117
:104210000028FAD1C3E8401F0028F6D1BFF35F8F12
:104220006B88296929F83A3000236E80C1E88F3FF6
:1042300082F31088D6E640BF05B0BDEC028BBDE826
:10424000F08F20460393019200F06AFA019A039BD3
:1042500010EB020E43EB01082BE700BFAFF3008029
:10426000FFFFFFFFFFFFFFFF00800B40F01E00205D
:1042700000000B40A13F001008460B6903919847CE
:104280000028BBD00399D1E9002306E70B4808B505
:104290000368EFF3108172B6D3E8CFCF0122BCF1EF
:1042A000000FF9D1C3E84C2FBCF1000FF4D1BFF3DC
:1042B0005F8FFCF747FB0020002108BDB4210020E0
:1042C00038B5384B1C692CB1BDE838400A21364856
:1042D000FFF710BE0321354800F010FA334D314B83
:1042E000DD60FFF7A7FB324A4FF0504E0244032037
:1042F0002C4B4FF00F0C18701A61DEF800204FF6AF
:10430000FF715A705A69A3F802C014834FF0020477
:10431000A2F848404FF00404A2F878404FF005049A
:10432000A2F890404FF00604A2F8A8404FF007040E
:10433000A2F8C0404FF00904A2F8F0404FF00A0480
:10434000A2F808414FF00B04A2F820414FF00C04F2
:10435000A2F838414FF0010414864FF00804A2F887
:10436000D840144C4FF00D0E4FF00E0C9C600824FA
:104370009980A2F850E1A2F868C1A2F8600011800B
:104380000D4A2C620D49D360FFF7F2FB0121032097
:10439000FFF7ACFB0A4B0A211C640348BDE8384018
:1043A000FFF7A8BD64120020B421002000000B40DC
:1043B00034160020FFFF1000F01E0020A13F001067
:1043C00000200B400048704764120020F0B583B015
:1043D0009DF828401D46034654B9CDE9000200F07F
:1043E000A7F9019A009B824265EB0101A1425BDBC8
:1043F0001969EFF3108072B6D1E8CF6F0124002E57
:10440000FAD1C1E8464F002EF6D1BFF35F8FB3F962
:1044100002401F69002C3EDBD3F814C004EB440EAD
:104420003CF83E10002659800CEBCE01C7E88F6F98
:1044300080F310884888C1E902250130C0F30E00DE
:10444000012838BF0120089A48800A61099A40EA89
:1044500004404A611A69EFF3108172B6D2E8CF7F47
:104460000125002FFAD1C2E8475F002FF6D1BFF334
:104470005F8F9A882CF83E201A699C80C2E88F6F63
:1044800081F3108801211C78DA68A14002F50153FC
:10449000596003B0F0BD0023C7E88F3F80F3108858
:1044A0004FF0FF3003B0F0BD204603B0F0BD00BFB9
:1044B000F0B516461F4602690346EFF3108072B648
:1044C000D2E8CF4F0121002CFAD1C2E8441F002CC2
:1044D000F6D1BFF35F8FB3F902101D69002945DBE8
:1044E000D3F814E001EB41023EF832400EEBC20C6F
:1044F0005C800024C5E88F4F80F31088059835460E
:10450000CCF8100006983E46CCF81400BCF8020027
:10451000CCE902560130C0F30E00012838BF01205B
:10452000ACF8020040EA0140D3F810C0EFF3108568
:1045300072B6DCE8CF7F0126002FFAD1CCE8476FB6
:10454000002FF6D1BFF35F8FB3F804C02EF832C04E
:1045500099801A69C2E88F4F85F3108801211C7871
:10456000DA68A14002F501535960F0BD0023C5E8A7
:104570008F3F80F310884FF0FF30F0BD0346408935
:10458000B0EB214F3ADD58690A1402EB420210B534
:10459000D3F810C000EBC200EFF3108E72B6DCE867
:1045A000CF4F0122002CFAD1CCE8442F002CF6D1B9
:1045B000BFF35F8F428889B292B28A4207D000224D
:1045C0001B69C3E88F2F8EF31088002010BD6FEA9F
:1045D00042426FEA524242800121002218699971D9
:1045E000C0E88F2F8EF3108893F800C0DA68084671
:1045F00002F5015301FA0CF1596010BD002070471B
:1046000040787047EFF30582D2B282B1384B5A6AD4
:104610008A4202D200221046704714BF01220022B3
:104620009B6A834228BF42F001021046704770B572
:1046300084B003922F4A0646D368157818460C4674
:10464000029300F06DF8029B05F1040C53F82CC0A6
:10465000039AACEB000C301A64EB0101604571F178
:1046600000010FDB20BF224B596AA14207D314BFC0
:10467000012200229B6AB34228BF42F00102104689
:1046800004B070BD029200F053F8864264EB010161
:104690000029029A1BDB18492346CDE90012154870
:1046A0003246FFF705FF011E11DD114B5A6AA24287
:1046B0001CD39B6AB34217D30E48FFF75FFF0C4B26
:1046C0005A6AA242D3D20022104604B070BD084BF1
:1046D0005A6AA242F7D3121B18BF01229B6AB34247
:1046E00028BF42F00102CAE7A242E5D120BFE3E7BA
:1046F00000000B40641200208D42001010B4054BE6
:10470000054C064AA04214BF1846581C10BCFFF7BF
:1047100023B900BF581A002000800B40E09600101B
:104720000346416A0A46986A596A8A42FAD1704732
:10473000034B596A0A46986A596A9142FAD17047FE
:1047400000000B4010B5029C8E464FEA043C4CEA38
:10475000034C1C4BB3FBF1F30168B2FBF3F40029EB
:1047600020DB194A194B904214BF4FF480424FF49A
:10477000004217491A6003F580531A608B6832EAC9
:104780000303FBD1212200F540530433C0F800E0BD
:1047900084601A600268002AFCDA0822C0F80CC0A3
:1047A0001A6010BD036803F03F037345D9D18368D5
:1047B000C3F30B03A342D4D1C36803F4EE236345D0
:1047C000CFD110BD001BB700008005400020024083
:1047D000000002404FF0804C214B00B5C3F800C0F0
:1047E000002839D0DFF888C0A3F54053C3F81CC0B7
:1047F000DFF880C040F0010080EA0C0CC3F820C054
:10480000596298624FF0804E4FF0E061144B1548AA
:10481000DFF864C0C3F800E0C0F808C019602AB926
:104820004FF00042A3F580531A6000BD4FF47A7335
:1048300003FB02F2B2F1807F2ABF6FF07F43134681
:104840001A464FF08041DFF834C00748CCF80030FA
:10485000064B4260196000BD034BD861D2E700BF30
:1048600000B00D4000A0014000800D4000A00D40B0
:10487000D3C007B02D3FF84FF3FFFF01C81E002043
:10488000012300EB4000800000F1804000F584101F
:1048900041600360704700BF10B5002482B00B4632
:1048A000E48A002141E800F1CDE900034B0254BF46
:1048B0001021042144F25220A047DDE9002386465E
:1048C0000A214FF48170F44602B0BDE81040604701
:1048D0000023DB8A002242E800F2520201D41021B8
:1048E00018470421184700BF08B503460846191E9B
:1048F00002DB1AB140F03000FFF7CEFF40F020009D
:10490000FAE700BF034AD2F82838002BFBD0BFF3E8
:104910005F8F704700000E400021044B044ABFF334
:104920005F8F43F8041B9342F9D170470C080E4087
:104930002C080E404FF42A6C4FF48D70054A064B3C
:104940000649C2F800C0D06019605368002BFCDA39
:10495000704700BF0080044000A0044000B0FA008F
:1049600000B585B0EFF3108272B6134B9B6853F815
:10497000203099420DD0DFF844C0634516D2CDE90E
:104980000201CDE9003200F00BF9DDE90201DDE9B9
:104990000032DFF824C0DCF808C04CF82010BFF368
:1049A0005F8F82F31088184605B000BDDFF810C095
:1049B0006345EED3E3E700BF00ED00E01001001017
:1049C0002401001003BD00BF00B583B0019000F0CA
:1049D000FDF8019803B05DF804EB004770B505469B
:1049E00088B019200C460192FFF796F80021064680
:1049F0001920FFF77BF800231946019ACDE902330D
:104A0000059201224FF05043084606940795049200
:104A1000A1B11A6D9507FCD5596540BF1A6DD40731
:104A200003D420BF1A6DD207FBD59A6D8A420AD0F3
:104A300000200DEB80029168EAE79A6D1A6DD207AB
:104A4000FBD440BFE5E701300628F2D131461920FA
:104A500008B0BDE87040FFF749B800BF0C4B0D4AE5
:104A600093420ED39C4603F2F4710B4A9268CCF841
:104A7000F4070A48CCF8F837CCF8FC070848FFF7E9
:104A8000ADBF4FF0FF3340F2F3719C46EDE700BF3E
:104A9000000808200000082000ED00E0C9490010CF
:104AA000C549001070B505460E46FEF739FF394975
:104AB0008C7891F9003004F00104DB0F43EA4403E1
:104AC0002B420A7856D091F90130C2F38014DB0FE3
:104AD00044EA43042C424B784FD0C3F3801CC2F30A
:104AE000401444EA4C042C424AD0C3F3401CC2F3A5
:104AF000001444EA4C042C4245D0C3F3001CC2F31A
:104B0000C00444EA4C042C4240D0C3F3C00CC2F3AE
:104B1000800444EA4C042C4212D0C3F3800CC2F34C
:104B2000400444EA4C042C4219D003F0020402F081
:104B300001031C432C4015D0B6B11748FEF7D8FE30
:104B400002240423EE0744BF1A430A70AA0702D5C1
:104B50004A7813434B70FEF7F5FE204670BD0124E2
:104B60000223EFE70123EDE76FF00804FEF7EAFE0A
:104B7000204670BD07248023E4E706244023E1E7B4
:104B800005242023DEE704241023DBE70324082385
:104B9000D8E700BFAC1A002004970010704700BF90
:104BA00008B50148FEF7A4FE1897001038B5054C6B
:104BB000054DAC4204D254F8043B9847AC42FAD3BA
:104BC00038BD00BFD09500101096001038B5054CC8
:104BD000054DAC4204D254F8043B9847AC42FAD39A
:104BE00038BD00BFFC950010109600100648DFF895
:104BF00028C0064B064A0749C0F800C01A608B68F7
:104C000032EA0303FBD1704700200240003002402B
:104C1000F6FFF303000002407F3BEFEF044BDB6C39
:104C2000B3F5004F03D14FF48022024BDA64704792
:104C300000001150002011504FF0E022044BD2F838
:104C4000881D0B43C2F8883D10EE3004704700BF4A
:104C5000030330006FF06041044B054A196093680C
:104C6000DB4333F06043FAD1704700BF00300240AD
:104C70000000024010B545F25320FFF729FEBDE8C1
:104C8000104003460420184710B545F25320FFF7A3
:104C90001FFEBDE81040034601201847FEF7FABE8C
:104CA0001449154B70B55C1AA610442E324628BF25
:104CB0004422124D9200284604F0B8FBB4F5867FDA
:104CC00013D80F4A14D0C6F144002B19410803EB46
:104CD000C101C3E9002208339942FAD1C30704D5C0
:104CE00020F00100304445F82020064B9D6070BD47
:104CF0004320F8E700000010100100100000002021
:104D00001101001000ED00E0002370B52B4C82B0C3
:104D1000C4F88430FFF70EFE0122294BDA63636C7E
:104D2000012BFCD10321264A244B11639C6B012CDF
:104D3000FCD10226052521460523224A2248009659
:104D4000FFF700FD21462B46204A21480095FFF73A
:104D5000F9FC0022042031461E4BFEF755FD21468A
:104D6000284600221C4BFEF74FFD0022082011466A
:104D70001A4BFEF749FD002209201146174BFEF79A
:104D800043FD002206201146134BFEF73DFD002295
:104D9000114B07201146FEF737FD0420FEF7A2FD58
:104DA00000240F4BA3FB0035AD0CE0B229460134C3
:104DB000FFF766FD062CF8D102B070BD000001407F
:104DC00000300140002F685900000540008C8647E4
:104DD00000800540001BB70080D1F008006CDC02A9
:104DE00083DE1B4386B003B451FC0804CDE9020105
:104DF00051FC0904CDE9040151EC0A04CDE9060196
:104E000003BCF047BDE800504EEC00C4BDE80050C4
:104E10004EEC01C4BDE800504EEC02C400BD0000E1
:104E200000B5FFF7DFFF02E010FE30F4F8D441ECEC
:104E3000100443EC112400EE010410EE010480EE96
:104E4000200451EC1004704700B5FFF7CBFF02E0DF
:104E500010FE30F4F8D441EC100443EC112400EEC1
:104E6000010410EE210480EE200451EC3004704760
:104E700000B5FFF7B7FF02E010FE30F4F8D410B52C
:104E800041EC100443EC112451EC040453EC0524D0
:104E9000A0FB024C5FF0000EE0FB03CEE1FB02CE74
:104EA0004CEC20440024E1FB03E444EC30E480EECD
:104EB000200451EC5004BDE81040704700B5FFF7E6
:104EC00091FF02E010FE30F4F8D441EC100443EC02
:104ED000112451EC2104A0FB01126FEA820252FB63
:104EE000100052FB12F252FB1000A0EBD07C53ECEE
:104EF00004245CFB13F153EC1524A1FB022001FBFD
:104F0000030053EC4424A2EB000050FB1CF24FEAD8
:104F1000111312EB017043EBE27140EA515020EAA9
:104F2000915020F0070053EC7524A0FB023C53EC99
:104F3000752400FB03CC01FB02CC53EC0424ACEB46
:104F4000824C40EA5C70A0F1010041EC400480EE2C
:104F5000200451EC7004704700B5FFF743FF02E0F6
:104F600010FE30F4F8D440EC700400EE010410EEB2
:104F7000210480EE200451EC3004704700B5FFF7A7
:104F800031FF02E010FE30F4F8D440EC600400EE93
:104F9000010410EE210480EE200451EC300470472F
:104FA00000B5FFF71FFF02E010FE30F4F8D441EC2B
:104FB000800400EE010410EE010480EE400410EEC7
:104FC0001304704700B5FFF70DFF02E010FE30F448
:104FD000F8D441EC800400EE010410EE010480EEF0
:104FE000400410EE3304704700B5FFF7FBFE02E00B
:104FF00010FE30F4F8D441EC100443EC112400EE20
:10500000010410EE3004C0F30070704700B5FFF7E4
:10501000E9FE02E010FE30F4F8D443EC102441EC39
:10502000110400EE010410EE30F48CBF01200020CA
:10503000704700BF00B5FFF7D5FE02E010FE30F468
:10504000F8D443EC102441EC110400EE010410EEFE
:1050500030F42CBF01200020704700BF00B5FFF7DF
:10506000C1FE02E010FE30F4F8D441EC100443EC31
:10507000112400EE010410EE30F42CBF01200020BA
:10508000704700BF00B5FFF7ADFE02E010FE30F440
:10509000F8D441EC100443EC112400EE010410EEAE
:1050A00030F48CBF01200020704700BF704700BF64
:1050B0002DE9F04F83B00F461146DDE90EB292079D
:1050C0009846DDE90C93064629D00D469BB109EBC5
:1050D000030405EB040A01950D460D93AAEB0402A7
:1050E00014F8010D43463946B047A145F6D129468B
:1050F0000D9B019D1D440F9B9B070CD56C1AA3456E
:1051000009D92A464346394620200134B0475C4538
:1051100005F10105F5D3284603B0BDE8F08F5B45E6
:1051200015D28A461C468946ABEB03050D44524610
:105130004346394620200AF1010AB047AA45F6D174
:1051400049462346DDF83090002CC0D1E3E70D46F8
:10515000002BBCD1DFE700BF2DE9F04F0F460F99C0
:1051600006469DF82C008D079046DDE90CA2994675
:105170008346099CDDF828C00E9B49D4002B42D100
:10518000944545D201F0010504F1FF3E3020E6448C
:1051900005E00CF1010C62450EF8010F02D9BCF1DB
:1051A000200FF6D1002D00F08780634530D9601EB6
:1051B0004FF0300E604405E00CF1010C9C4500F806
:1051C00001EF25D0BCF1200FF6D1CD060ED5480554
:1051D00051D4624564D0634562D0BAF1100F4DD00E
:1051E000BAF1020F55D0BCF1200F2DD12022CDE90C
:1051F0000B310A924B464246394630460994BDE887
:10520000F04FFFF755BF11F001052ED19445BBD3E8
:10521000CD061ED54805E0D4BCF1000FD9D1BAF1B6
:10522000100F5FD0BAF1020F74D030224FF0010C92
:105230002270BBF1000F12D1480742D52B2204F88F
:105240000C200CF10102D2E762460CF1010C302077
:10525000A054BCF1200FC9D0BBF1000FECD02D221F
:1052600004F80C200CF10102C1E798B3944503F156
:10527000FF3389D399E7BAF1100FB7D18D063DD529
:10528000BCF1200FB2D0582204F80C200CF1010C14
:10529000A9E7BCF1200FA9D062460CF1010C08E08F
:1052A000BCF10102BBD0BAF1100F35D0BAF1020F38
:1052B000CDD16220A05496E7CD06CAD5480588D541
:1052C0008BE70A0749BF2022624604F80C200CF144
:1052D00001028CE711F00C0F00D0013B9445FFF464
:1052E00053AF62E78A0613D47822227030224FF03F
:1052F000020C6270BBF1000F9ED0B0E7BCF1200F32
:105300003FF474AF782204F80C200CF1010C6AE72A
:105310005822EAE76222E8E78D06ACF1020004D5E4
:105320004FF0580E04F800E091E74FF0780E04F8C3
:1053300000E08CE700B9704701F060BB10B1D1E923
:1053400000311847704700BF2DE9F04F97B09DED31
:10535000207BDDE9225B8046894651EC170B9A469B
:10536000249B0C92079302460B468DED047BFFF7BE
:105370003FFE002840F0E381DDE904014FF0FF32F9
:105380006FF48013FFF746FE002840F0CB80DDE984
:1053900004014FF0FF32B24BFFF778FE002840F0D7
:1053A0009F80DDE90467AAA3D3E90023304639468C
:1053B000FFF76CFE002840F08280A7A3D3E900230A
:1053C00030463946FFF726FE002878D13046394668
:1053D00000220023FFF71EFE002840F098800D9069
:1053E000079B302113F4806F08BF06250EAA2B46B9
:1053F000A5F1200605E0013BB34202F8011B00F0D5
:105400006581092BF7D81E46ED1ADDE90401FFF787
:10541000CBFD944B044603EBC60393ED007B8DED6F
:10542000087BFFF79DFD02460B46DDE90401FFF70F
:105430000FFDDDE90823FFF71FFDCDE90A01FFF7A6
:10544000C5FD0746FFF79EFD02460B46DDE90A0152
:10545000FFF7FEFC0022844BCDE90A01FFF716FEA0
:10546000002800F0888001373846FFF78BFD0246A0
:105470000B46DDE90801FFF7E1FD08B10027013423
:10548000002E00F088800DF13703DFF8F0C15819C5
:105490000DE0ACFB0721C90801EB8102A7EB42023A
:1054A0003032092F00F8012F40F2FB800F46202DEB
:1054B00006F1FF3605F10105EBD1202586E0079BBB
:1054C0009DED047BCDE923B34946534640460C9AF3
:1054D0008DED207B229517B0BDE8F04F00F080B92C
:1054E000079B494658074CBF04230323404621939A
:1054F0005346079A48BF5D4CCDE922B258BF5C4C79
:105500000C9A209417B0BDE8F04FFFF7D1BD3B4691
:10551000324600200021FFF79BFC0123CDE9040166
:105520000D935DE7079B03F002029C07049200F0D5
:10553000F4800C9F3D464F4E341D14F8010D2A4651
:1055400053464946C047A64205F10105F5D1049BE3
:105550003C1D63B10C9D631B9B4508D922465346F5
:10556000494620200134C047631B9B45F6D820469E
:1055700017B0BDE8F08F0022DDE90A013A4BFFF7D2
:1055800049FD00287FF47CAF002F40F0C280013736
:10559000002E7FF478AF2046FFF7E2FC02460B4670
:1055A000DDE90401FFF754FC00222F4B06460F46AD
:1055B000FFF730FD40B93046394600222A4BFFF74D
:1055C00065FD002800F0A1800DF137032A48591924
:1055D0000EE080FB0476C2EBA60202EB8206A4EB8F
:1055E000460630361446013501F8016F002A47D0CF
:1055F000202D4FEAE472ECD1079A02F00302012A4F
:1056000014D1BBF1000F11D00D9A002A60D00BF11C
:10561000FF3BBBF1200F09D930222B4404E00135B8
:105620005D4503F8012F31D2202DF8D1079B0EAC38
:10563000CDE902B300945346494640460C9A019581
:10564000FFF736FD0446204617B0BDE8F08F00BFD7
:105650000000000065CDCD410000000065CDCDC14A
:10566000FFFFEF7F709800100000E03F649700108C
:105670006C9700107497001067666666CDCCCCCC32
:10568000079A02F00302012A00F09680202DCDD067
:105690000D9B3BB32D220DEB050383F8382001351C
:1056A000C4E7202D3FF409AF30212E445A1905E0FC
:1056B0000135202D02F8011F3FF4FFAEAE42F7D1B5
:1056C0002E226E44013586F838207FE720259CE69F
:1056D000079A12F00C0F5AD00BF1FF3BAB459BD849
:1056E000202DA3D0079B5A0706D52B220DEB0503CF
:1056F00083F83820013599E71B0797D520220DEB59
:10570000050383F83820013590E7013424F00104C3
:105710005AE7F9077FF5B4AE39E7BBF1040F7FF61E
:1057200008AF0C9B1D46043B03EB0B072A46534670
:10573000494620200135C047AF42F7D1FAE6079B22
:1057400003F002029D07049225D00C9F3D46224E95
:10575000F41C14F8010D2A4653464946C047A64298
:1057600005F10105F5D1049BFC1C002B3FF4FFAEB5
:105770000C9D631B9B457FF6FAAE22465346494675
:1057800020200134C047631B9B45F6D8EFE6AB45AC
:105790003FF642AF4AE7BBF1030FD6D90C9B1D463B
:1057A000033B03EB0B072A465346494620200135AD
:1057B000C047BD42F7D1C9E7BBF1000F3FF466AF68
:1057C0000D9A002A84D00BF1FF3B5D45FFF424AF16
:1057D000202D7FF45FAF29E77097001000000000D4
:1057E0002DE9F04F9FB01E46DDE928ABDDE92B988F
:1057F0002A9B04460D460B920A9352465B4650463E
:105800005946FFF7F5FB002840F0C6805046594640
:105810004FF0FF327B4BFFF739FC002840F0BC8093
:10582000504659464FF0FF326FF48013FFF7F2FBFA
:10583000002840F0B1805046594600220023FFF76F
:10584000E9FB002840F0DD81CDE908ABDDE9081275
:1058500018F480600B460F4608F400610C92149116
:10586000159040F0A880134340F0D080002940F00C
:10587000EC8106230A9318F00202109240F0DD81B9
:105880004B46042B38BF04230E920422043B129291
:1058900014935046594600220023FFF7BBFB002813
:1058A00040F02A829DED087B149B0B9A03930A9B80
:1058B0008DED007B029328F4006304932946334660
:1058C0002046FFF741FD024618F0200F33462946D7
:1058D0000CBF6520452002F10108A047129B0DF185
:1058E000580A03F1FF3B0E9B002283EAE37C5046FB
:1058F000DFF814E10B9FACEBE37CD90FCDF82080EF
:1059000002E0202AC44610D0AEFB0C384FEAD8087B
:1059100008EB8803ACEB430301303033BCF1090FD3
:1059200002F1010200F8013CEBD805234FF0000C16
:1059300006930A23DDF82080CDE90121CDE9033C5F
:10594000CDF800A03346424629462046CDF814B093
:10595000FFF702FC109B8246D3B1A0EB0708C145BC
:1059600016D907EB080233462946202008F1010822
:10597000A047C145F5D87B1E4B44C7F10102A3EBFC
:105980000A035244914538BF00230AF1010A9A44A0
:1059900050461FB0BDE8F08F334629462046CDE97A
:1059A00028AB0A9CCDE92B980B9A2A941FB0BDE82E
:1059B000F04FFFF7C9BC57EA020329D100293FF491
:1059C0005AAF00230E930A9B0E9A934200F3BA81BA
:1059D00000275046594600220023FFF71BFB0028F2
:1059E00040F015819DED087B28F4006343F480634B
:1059F0002C938DED287B334629462046CDE92A7924
:105A00000B9AD3E7FFFFEF7FCDCCCCCC06230A93D4
:105A10000C9BC3F30A50A0F2FF30FFF7A1FAB2A328
:105A2000D3E90023FFF728FAB1A3D3E90023FFF756
:105A3000FBF90C9BCDE90E01C3F3130343F07F5137
:105A400038460022A24B41F44011FFF701FA94A31B
:105A5000D3E90023FFF710FA02460B46DDE90E01F9
:105A6000FFF7E2F9FFF7A0FA0E90FFF779FA8EA39D
:105A7000D3E90023CDE90C01FFF7FEF90022954B95
:105A8000FFF7D2F9FFF790FA89A3D3E9002307467D
:105A9000DDE90C01FFF7F0F9CDE90C013846FFF71D
:105AA0005FFA85A3D3E90023FFF7E6F902460B4628
:105AB000DDE90C01FFF7CCF902460B46CDE90C23DA
:105AC000FFF7DAF9CDE91001DDE90C0102460B46DA
:105AD000FFF7AAF90022CDE91201DDE910017E4BA2
